{
    "address": "0x0078371BDeDE8aAc7DeBfFf451B74c5EDB385Af7",
    "abi": [
        {
            "inputs": [
                {
                    "internalType": "address",
                    "name": "_currencyAddress",
                    "type": "address"
                },
                {
                    "internalType": "uint256",
                    "name": "_buySlopeNum",
                    "type": "uint256"
                },
                {
                    "internalType": "uint256",
                    "name": "_buySlopeDen",
                    "type": "uint256"
                },
                {
                    "internalType": "uint256",
                    "name": "_investmentReserveBasisPoints",
                    "type": "uint256"
                },
                {
                    "internalType": "string",
                    "name": "_name",
                    "type": "string"
                },
                {
                    "internalType": "string",
                    "name": "_symbol",
                    "type": "string"
                }
            ],
            "stateMutability": "nonpayable",
            "type": "constructor"
        },
        {
            "anonymous": false,
            "inputs": [
                {
                    "indexed": true,
                    "internalType": "address",
                    "name": "owner",
                    "type": "address"
                },
                {
                    "indexed": true,
                    "internalType": "address",
                    "name": "spender",
                    "type": "address"
                },
                {
                    "indexed": false,
                    "internalType": "uint256",
                    "name": "value",
                    "type": "uint256"
                }
            ],
            "name": "Approval",
            "type": "event"
        },
        {
            "anonymous": false,
            "inputs": [
                {
                    "indexed": true,
                    "internalType": "address",
                    "name": "_from",
                    "type": "address"
                },
                {
                    "indexed": false,
                    "internalType": "uint256",
                    "name": "_bswanAmount",
                    "type": "uint256"
                }
            ],
            "name": "Burn",
            "type": "event"
        },
        {
            "anonymous": false,
            "inputs": [
                {
                    "indexed": true,
                    "internalType": "address",
                    "name": "_from",
                    "type": "address"
                },
                {
                    "indexed": true,
                    "internalType": "address",
                    "name": "_to",
                    "type": "address"
                },
                {
                    "indexed": false,
                    "internalType": "uint256",
                    "name": "_currencyAmount",
                    "type": "uint256"
                },
                {
                    "indexed": false,
                    "internalType": "uint256",
                    "name": "_bswanAmount",
                    "type": "uint256"
                }
            ],
            "name": "Buy",
            "type": "event"
        },
        {
            "anonymous": false,
            "inputs": [
                {
                    "indexed": true,
                    "internalType": "address",
                    "name": "previousOwner",
                    "type": "address"
                },
                {
                    "indexed": true,
                    "internalType": "address",
                    "name": "newOwner",
                    "type": "address"
                }
            ],
            "name": "OwnershipTransferred",
            "type": "event"
        },
        {
            "anonymous": false,
            "inputs": [
                {
                    "indexed": false,
                    "internalType": "address",
                    "name": "account",
                    "type": "address"
                }
            ],
            "name": "Paused",
            "type": "event"
        },
        {
            "anonymous": false,
            "inputs": [
                {
                    "indexed": true,
                    "internalType": "address",
                    "name": "_from",
                    "type": "address"
                },
                {
                    "indexed": true,
                    "internalType": "address",
                    "name": "_to",
                    "type": "address"
                },
                {
                    "indexed": false,
                    "internalType": "uint256",
                    "name": "_currencyAmount",
                    "type": "uint256"
                },
                {
                    "indexed": false,
                    "internalType": "uint256",
                    "name": "_bswanAmount",
                    "type": "uint256"
                }
            ],
            "name": "Pay",
            "type": "event"
        },
        {
            "anonymous": false,
            "inputs": [
                {
                    "indexed": true,
                    "internalType": "address",
                    "name": "_from",
                    "type": "address"
                },
                {
                    "indexed": true,
                    "internalType": "address",
                    "name": "_to",
                    "type": "address"
                },
                {
                    "indexed": false,
                    "internalType": "uint256",
                    "name": "_currencyAmount",
                    "type": "uint256"
                },
                {
                    "indexed": false,
                    "internalType": "uint256",
                    "name": "_bswanAmount",
                    "type": "uint256"
                }
            ],
            "name": "Sell",
            "type": "event"
        },
        {
            "anonymous": false,
            "inputs": [
                {
                    "indexed": true,
                    "internalType": "address",
                    "name": "from",
                    "type": "address"
                },
                {
                    "indexed": true,
                    "internalType": "address",
                    "name": "to",
                    "type": "address"
                },
                {
                    "indexed": false,
                    "internalType": "uint256",
                    "name": "value",
                    "type": "uint256"
                }
            ],
            "name": "Transfer",
            "type": "event"
        },
        {
            "anonymous": false,
            "inputs": [
                {
                    "indexed": false,
                    "internalType": "address",
                    "name": "account",
                    "type": "address"
                }
            ],
            "name": "Unpaused",
            "type": "event"
        },
        {
            "anonymous": false,
            "inputs": [
                {
                    "indexed": true,
                    "internalType": "address",
                    "name": "_owner",
                    "type": "address"
                },
                {
                    "indexed": false,
                    "internalType": "uint256",
                    "name": "_revenueCommitmentBasisPoints",
                    "type": "uint256"
                },
                {
                    "indexed": false,
                    "internalType": "uint256",
                    "name": "_minInvestment",
                    "type": "uint256"
                }
            ],
            "name": "UpdateConfig",
            "type": "event"
        },
        {
            "inputs": [
                {
                    "internalType": "address",
                    "name": "owner",
                    "type": "address"
                },
                {
                    "internalType": "address",
                    "name": "spender",
                    "type": "address"
                }
            ],
            "name": "allowance",
            "outputs": [
                {
                    "internalType": "uint256",
                    "name": "",
                    "type": "uint256"
                }
            ],
            "stateMutability": "view",
            "type": "function"
        },
        {
            "inputs": [
                {
                    "internalType": "address",
                    "name": "spender",
                    "type": "address"
                },
                {
                    "internalType": "uint256",
                    "name": "amount",
                    "type": "uint256"
                }
            ],
            "name": "approve",
            "outputs": [
                {
                    "internalType": "bool",
                    "name": "",
                    "type": "bool"
                }
            ],
            "stateMutability": "nonpayable",
            "type": "function"
        },
        {
            "inputs": [
                {
                    "internalType": "address",
                    "name": "account",
                    "type": "address"
                }
            ],
            "name": "balanceOf",
            "outputs": [
                {
                    "internalType": "uint256",
                    "name": "",
                    "type": "uint256"
                }
            ],
            "stateMutability": "view",
            "type": "function"
        },
        {
            "inputs": [
                {
                    "internalType": "uint256",
                    "name": "_amount",
                    "type": "uint256"
                }
            ],
            "name": "burn",
            "outputs": [],
            "stateMutability": "nonpayable",
            "type": "function"
        },
        {
            "inputs": [],
            "name": "burnedSupply",
            "outputs": [
                {
                    "internalType": "uint256",
                    "name": "",
                    "type": "uint256"
                }
            ],
            "stateMutability": "view",
            "type": "function"
        },
        {
            "inputs": [
                {
                    "internalType": "address",
                    "name": "_to",
                    "type": "address"
                },
                {
                    "internalType": "uint256",
                    "name": "_currencyValue",
                    "type": "uint256"
                },
                {
                    "internalType": "uint256",
                    "name": "_minTokensBought",
                    "type": "uint256"
                }
            ],
            "name": "buy",
            "outputs": [],
            "stateMutability": "payable",
            "type": "function"
        },
        {
            "inputs": [],
            "name": "buySlopeDen",
            "outputs": [
                {
                    "internalType": "uint256",
                    "name": "",
                    "type": "uint256"
                }
            ],
            "stateMutability": "view",
            "type": "function"
        },
        {
            "inputs": [],
            "name": "buySlopeNum",
            "outputs": [
                {
                    "internalType": "uint256",
                    "name": "",
                    "type": "uint256"
                }
            ],
            "stateMutability": "view",
            "type": "function"
        },
        {
            "inputs": [],
            "name": "buybackReserve",
            "outputs": [
                {
                    "internalType": "uint256",
                    "name": "",
                    "type": "uint256"
                }
            ],
            "stateMutability": "view",
            "type": "function"
        },
        {
            "inputs": [],
            "name": "currency",
            "outputs": [
                {
                    "internalType": "contract IERC20",
                    "name": "",
                    "type": "address"
                }
            ],
            "stateMutability": "view",
            "type": "function"
        },
        {
            "inputs": [],
            "name": "decimals",
            "outputs": [
                {
                    "internalType": "uint8",
                    "name": "",
                    "type": "uint8"
                }
            ],
            "stateMutability": "view",
            "type": "function"
        },
        {
            "inputs": [
                {
                    "internalType": "address",
                    "name": "spender",
                    "type": "address"
                },
                {
                    "internalType": "uint256",
                    "name": "subtractedValue",
                    "type": "uint256"
                }
            ],
            "name": "decreaseAllowance",
            "outputs": [
                {
                    "internalType": "bool",
                    "name": "",
                    "type": "bool"
                }
            ],
            "stateMutability": "nonpayable",
            "type": "function"
        },
        {
            "inputs": [
                {
                    "internalType": "uint256",
                    "name": "_currencyValue",
                    "type": "uint256"
                }
            ],
            "name": "estimateBuyValue",
            "outputs": [
                {
                    "internalType": "uint256",
                    "name": "",
                    "type": "uint256"
                }
            ],
            "stateMutability": "view",
            "type": "function"
        },
        {
            "inputs": [
                {
                    "internalType": "uint256",
                    "name": "_currencyValue",
                    "type": "uint256"
                }
            ],
            "name": "estimatePayValue",
            "outputs": [
                {
                    "internalType": "uint256",
                    "name": "",
                    "type": "uint256"
                }
            ],
            "stateMutability": "view",
            "type": "function"
        },
        {
            "inputs": [
                {
                    "internalType": "uint256",
                    "name": "_quantityToSell",
                    "type": "uint256"
                }
            ],
            "name": "estimateSellValue",
            "outputs": [
                {
                    "internalType": "uint256",
                    "name": "",
                    "type": "uint256"
                }
            ],
            "stateMutability": "view",
            "type": "function"
        },
        {
            "inputs": [
                {
                    "internalType": "address",
                    "name": "spender",
                    "type": "address"
                },
                {
                    "internalType": "uint256",
                    "name": "addedValue",
                    "type": "uint256"
                }
            ],
            "name": "increaseAllowance",
            "outputs": [
                {
                    "internalType": "bool",
                    "name": "",
                    "type": "bool"
                }
            ],
            "stateMutability": "nonpayable",
            "type": "function"
        },
        {
            "inputs": [],
            "name": "investmentReserveBasisPoints",
            "outputs": [
                {
                    "internalType": "uint256",
                    "name": "",
                    "type": "uint256"
                }
            ],
            "stateMutability": "view",
            "type": "function"
        },
        {
            "inputs": [],
            "name": "minInvestment",
            "outputs": [
                {
                    "internalType": "uint256",
                    "name": "",
                    "type": "uint256"
                }
            ],
            "stateMutability": "view",
            "type": "function"
        },
        {
            "inputs": [],
            "name": "name",
            "outputs": [
                {
                    "internalType": "string",
                    "name": "",
                    "type": "string"
                }
            ],
            "stateMutability": "view",
            "type": "function"
        },
        {
            "inputs": [],
            "name": "owner",
            "outputs": [
                {
                    "internalType": "address",
                    "name": "",
                    "type": "address"
                }
            ],
            "stateMutability": "view",
            "type": "function"
        },
        {
            "inputs": [],
            "name": "paused",
            "outputs": [
                {
                    "internalType": "bool",
                    "name": "",
                    "type": "bool"
                }
            ],
            "stateMutability": "view",
            "type": "function"
        },
        {
            "inputs": [
                {
                    "internalType": "address",
                    "name": "_to",
                    "type": "address"
                },
                {
                    "internalType": "uint256",
                    "name": "_currencyValue",
                    "type": "uint256"
                }
            ],
            "name": "pay",
            "outputs": [],
            "stateMutability": "payable",
            "type": "function"
        },
        {
            "inputs": [],
            "name": "renounceOwnership",
            "outputs": [],
            "stateMutability": "nonpayable",
            "type": "function"
        },
        {
            "inputs": [],
            "name": "revenueCommitmentBasisPoints",
            "outputs": [
                {
                    "internalType": "uint256",
                    "name": "",
                    "type": "uint256"
                }
            ],
            "stateMutability": "view",
            "type": "function"
        },
        {
            "inputs": [
                {
                    "internalType": "address payable",
                    "name": "_to",
                    "type": "address"
                },
                {
                    "internalType": "uint256",
                    "name": "_quantityToSell",
                    "type": "uint256"
                },
                {
                    "internalType": "uint256",
                    "name": "_minCurrencyReturned",
                    "type": "uint256"
                }
            ],
            "name": "sell",
            "outputs": [],
            "stateMutability": "nonpayable",
            "type": "function"
        },
        {
            "inputs": [],
            "name": "symbol",
            "outputs": [
                {
                    "internalType": "string",
                    "name": "",
                    "type": "string"
                }
            ],
            "stateMutability": "view",
            "type": "function"
        },
        {
            "inputs": [],
            "name": "totalSupply",
            "outputs": [
                {
                    "internalType": "uint256",
                    "name": "",
                    "type": "uint256"
                }
            ],
            "stateMutability": "view",
            "type": "function"
        },
        {
            "inputs": [
                {
                    "internalType": "address",
                    "name": "to",
                    "type": "address"
                },
                {
                    "internalType": "uint256",
                    "name": "amount",
                    "type": "uint256"
                }
            ],
            "name": "transfer",
            "outputs": [
                {
                    "internalType": "bool",
                    "name": "",
                    "type": "bool"
                }
            ],
            "stateMutability": "nonpayable",
            "type": "function"
        },
        {
            "inputs": [
                {
                    "internalType": "address",
                    "name": "from",
                    "type": "address"
                },
                {
                    "internalType": "address",
                    "name": "to",
                    "type": "address"
                },
                {
                    "internalType": "uint256",
                    "name": "amount",
                    "type": "uint256"
                }
            ],
            "name": "transferFrom",
            "outputs": [
                {
                    "internalType": "bool",
                    "name": "",
                    "type": "bool"
                }
            ],
            "stateMutability": "nonpayable",
            "type": "function"
        },
        {
            "inputs": [
                {
                    "internalType": "address",
                    "name": "newOwner",
                    "type": "address"
                }
            ],
            "name": "transferOwnership",
            "outputs": [],
            "stateMutability": "nonpayable",
            "type": "function"
        },
        {
            "inputs": [
                {
                    "internalType": "address payable",
                    "name": "_newOwner",
                    "type": "address"
                },
                {
                    "internalType": "uint256",
                    "name": "_revenueCommitmentBasisPoints",
                    "type": "uint256"
                },
                {
                    "internalType": "uint256",
                    "name": "_minInvestment",
                    "type": "uint256"
                }
            ],
            "name": "updateConfig",
            "outputs": [],
            "stateMutability": "nonpayable",
            "type": "function"
        }
    ],
    "transactionHash": "0xb3edac8fe2dc419ba438cf37c07fb710d6174141248fc2bbc0db6b429fed9140",
    "args": [
        "0x7c2C195CD6D34B8F845992d380aADB2730bB9C6F",
        "1",
        "100000000",
        "1000",
        "BlockswanTrust",
        "BSWAN"
    ],
    "numDeployments": 1,
    "solcInputHash": "11b40aac2c6ba2dcd5f594f6e6f90e03",
    "bytecode": "0x60806040523480156200001157600080fd5b506040516200281f3803806200281f833981016040819052620000349162000441565b8181876001600160a01b031663313ce5676040518163ffffffff1660e01b815260040160206040518083038186803b1580156200007057600080fd5b505afa15801562000085573d6000803e3d6000fd5b505050506040513d601f19601f82011682018060405250810190620000ab9190620004e4565b8251620000c0906004906020860190620002f0565b508151620000d6906005906020850190620002f0565b506003805460ff90921660ff19928316179055600680549091169055506200010990506200010362000292565b62000296565b60008511620001355760405162461bcd60e51b81526004016200012c90620005d0565b60405180910390fd5b60008411620001585760405162461bcd60e51b81526004016200012c906200050e565b6001600160801b038510620001815760405162461bcd60e51b81526004016200012c9062000562565b6001600160801b038410620001aa5760405162461bcd60e51b81526004016200012c9062000599565b60088590556009849055612710831115620001d95760405162461bcd60e51b81526004016200012c9062000539565b82600d81905550856001600160a01b031663313ce5676040518163ffffffff1660e01b815260040160206040518083038186803b1580156200021a57600080fd5b505afa1580156200022f573d6000803e3d6000fd5b505050506040513d601f19601f82011682018060405250810190620002559190620004e4565b6200026290606462000648565b600b555050600a80546001600160a01b0319166001600160a01b039590951694909417909355506200079c915050565b3390565b600680546001600160a01b03838116610100818102610100600160a81b031985161790945560405193909204169182907f8be0079c531659141344cd1fd0a4f28419497f9722a3daafe3b4186f6b6457e090600090a35050565b828054620002fe9062000733565b90600052602060002090601f0160209004810192826200032257600085556200036d565b82601f106200033d57805160ff19168380011785556200036d565b828001600101855582156200036d579182015b828111156200036d57825182559160200191906001019062000350565b506200037b9291506200037f565b5090565b5b808211156200037b576000815560010162000380565b600082601f830112620003a7578081fd5b81516001600160401b0380821115620003c457620003c462000786565b6040516020601f8401601f1916820181018381118382101715620003ec57620003ec62000786565b604052838252858401810187101562000403578485fd5b8492505b8383101562000426578583018101518284018201529182019162000407565b838311156200043757848185840101525b5095945050505050565b60008060008060008060c087890312156200045a578182fd5b86516001600160a01b038116811462000471578283fd5b6020880151604089015160608a015160808b0151939950919750955093506001600160401b0380821115620004a4578384fd5b620004b28a838b0162000396565b935060a0890151915080821115620004c8578283fd5b50620004d789828a0162000396565b9150509295509295509295565b600060208284031215620004f6578081fd5b815160ff8116811462000507578182fd5b9392505050565b60208082526011908201527024a72b20a624a22fa9a627a822afa222a760791b604082015260600190565b6020808252600f908201526e494e56414c49445f5245534552564560881b604082015260600190565b60208082526013908201527f4558434553534956455f534c4f50455f4e554d00000000000000000000000000604082015260600190565b60208082526013908201527f4558434553534956455f534c4f50455f44454e00000000000000000000000000604082015260600190565b602080825260119082015270494e56414c49445f534c4f50455f4e554d60781b604082015260600190565b80825b60018086116200060f57506200063f565b81870482111562000624576200062462000770565b808616156200063257918102915b9490941c938002620005fe565b94509492505050565b60006200050760001960ff851684600082620006675750600162000507565b81620006765750600062000507565b81600181146200068f57600281146200069a57620006ce565b600191505062000507565b60ff841115620006ae57620006ae62000770565b6001841b915084821115620006c757620006c762000770565b5062000507565b5060208310610133831016604e8410600b841016171562000706575081810a8381111562000700576200070062000770565b62000507565b620007158484846001620005fb565b8086048211156200072a576200072a62000770565b02949350505050565b6002810460018216806200074857607f821691505b602082108114156200076a57634e487b7160e01b600052602260045260246000fd5b50919050565b634e487b7160e01b600052601160045260246000fd5b634e487b7160e01b600052604160045260246000fd5b61207380620007ac6000396000f3fe6080604052600436106101d85760003560e01c80636a27246211610102578063a59ac6dd11610095578063dd62ed3e11610064578063dd62ed3e146104e0578063e5a6b10f14610500578063f2fde38b14610515578063ff90956014610535576101d8565b8063a59ac6dd1461047a578063a9059cbb1461048d578063b12f4153146104ad578063c4076876146104cd576101d8565b80638da5cb5b116100d15780638da5cb5b1461040e57806395d89b41146104305780639df3f4f614610445578063a457c2d71461045a576101d8565b80636a272462146103a457806370a08231146103c4578063715018a6146103e45780638ac2c680146103f9576101d8565b806335e5cc311161017a57806355d0a1d01161014957806355d0a1d01461035057806358439fa5146103655780635c975abb1461037a5780636177e37c1461038f576101d8565b806335e5cc31146102db57806339509351146102f057806342966c68146103105780634f3424df14610330576101d8565b80631e1186ce116101b65780631e1186ce1461025757806323b872dd146102795780632e872bb314610299578063313ce567146102b9576101d8565b806306fdde03146101dd578063095ea7b31461020857806318160ddd14610235575b600080fd5b3480156101e957600080fd5b506101f261054a565b6040516101ff91906119ca565b60405180910390f35b34801561021457600080fd5b5061022861022336600461193c565b6105dd565b6040516101ff91906119bf565b34801561024157600080fd5b5061024a6105ff565b6040516101ff9190611f4a565b34801561026357600080fd5b50610277610272366004611890565b610605565b005b34801561028557600080fd5b506102286102943660046118fc565b610737565b3480156102a557600080fd5b5061024a6102b436600461197b565b610767565b3480156102c557600080fd5b506102ce6107e7565b6040516101ff9190611f61565b3480156102e757600080fd5b5061024a6107f0565b3480156102fc57600080fd5b5061022861030b36600461193c565b6107f6565b34801561031c57600080fd5b5061027761032b36600461197b565b610822565b34801561033c57600080fd5b5061024a61034b36600461197b565b610831565b34801561035c57600080fd5b5061024a6108c6565b34801561037157600080fd5b5061024a6108cc565b34801561038657600080fd5b506102286108d2565b34801561039b57600080fd5b5061024a6108db565b3480156103b057600080fd5b506102776103bf366004611890565b6108e1565b3480156103d057600080fd5b5061024a6103df366004611874565b6109d0565b3480156103f057600080fd5b506102776109eb565b34801561040557600080fd5b5061024a6109ff565b34801561041a57600080fd5b50610423610a05565b6040516101ff91906119ab565b34801561043c57600080fd5b506101f2610a19565b34801561045157600080fd5b5061024a610a28565b34801561046657600080fd5b5061022861047536600461193c565b610a2e565b610277610488366004611967565b610a81565b34801561049957600080fd5b506102286104a836600461193c565b610b83565b3480156104b957600080fd5b5061024a6104c836600461197b565b610b9b565b6102776104db36600461193c565b610c5e565b3480156104ec57600080fd5b5061024a6104fb3660046118c4565b610c75565b34801561050c57600080fd5b50610423610ca0565b34801561052157600080fd5b50610277610530366004611874565b610caf565b34801561054157600080fd5b5061024a610ce6565b60606004805461055990611fdd565b80601f016020809104026020016040519081016040528092919081815260200182805461058590611fdd565b80156105d25780601f106105a7576101008083540402835291602001916105d2565b820191906000526020600020905b8154815290600101906020018083116105b557829003601f168201915b505050505090505b90565b6000806105e8610da3565b90506105f5818585610da7565b5060019392505050565b60025490565b6127108211156106305760405162461bcd60e51b815260040161062790611c2f565b60405180910390fd5b600c548210156106525760405162461bcd60e51b815260040161062790611b7b565b600c829055806106745760405162461bcd60e51b815260040161062790611d77565b600b819055610681610a05565b6001600160a01b0316836001600160a01b0316146106ef576001600160a01b0383166106bf5760405162461bcd60e51b815260040161062790611a60565b60006106ca846109d0565b905080156106e4576106e46106dd610a05565b8583610e5b565b6106ed84610f5c565b505b826001600160a01b03167f61e70c2b58e36615943b6c2aceeeaf9a7e2178bcc30b8a9f6efb68fd50d1a060838360405161072a929190611f53565b60405180910390a2505050565b600080610742610da3565b905061074f858285610fb6565b61075a858585610e5b565b60019150505b9392505050565b6000600b5482101561077b575060006107e2565b6000806007546107896105ff565b6107939190611f6f565b90506107b08460095460026107a89190611fa7565b600854610ffa565b91506107bc8180611fa7565b6107c69083611f6f565b91506107d1826110b4565b91506107dd8183611fc6565b925050505b919050565b60035460ff1690565b60085481565b600080610801610da3565b90506105f58185856108138589610c75565b61081d9190611f6f565b610da7565b61082e33826000611209565b50565b60008060075461083f6105ff565b6108499190611f6f565b90506000610880600c54600261085f9190611fa7565b6108699086611fa7565b60095460085461087b90612710611fa7565b610ffa565b905061088c8280611fa7565b6108969082611f6f565b90506108a1816110b4565b9050818111156108bc576108b58282611fc6565b9050610760565b5060009392505050565b60075481565b60095481565b60065460ff1690565b600c5481565b6108e9610a05565b6001600160a01b0316336001600160a01b0316141561091a5760405162461bcd60e51b815260040161062790611c85565b6000811161093a5760405162461bcd60e51b815260040161062790611de8565b600061094583610b9b565b9050818110156109675760405162461bcd60e51b815260040161062790611b53565b61097333846001611209565b61097d848261126f565b836001600160a01b0316336001600160a01b03167fa082022e93cfcd9f1da5f9236718053910f7e840da080c789c7845698dc032ff83866040516109c2929190611f53565b60405180910390a350505050565b6001600160a01b031660009081526020819052604090205490565b6109f361128c565b6109fd6000610f5c565b565b600b5481565b60065461010090046001600160a01b031690565b60606005805461055990611fdd565b600d5481565b600080610a39610da3565b90506000610a478286610c75565b905083811015610a695760405162461bcd60e51b815260040161062790611ece565b610a768286868403610da7565b506001949350505050565b6001600160a01b038316610aa75760405162461bcd60e51b815260040161062790611a60565b60008111610ac75760405162461bcd60e51b815260040161062790611cb4565b6000610ad283610767565b905081811015610af45760405162461bcd60e51b815260040161062790611b53565b836001600160a01b0316336001600160a01b03167f89f5adc174562e07c9c9b1cae7109bbecb21cf9d1b2847e550042b8653c54a0e8584604051610b39929190611f53565b60405180910390a3610b4a836112cb565b610b52610a05565b6001600160a01b0316846001600160a01b031614610b7357610b73836112e3565b610b7d8482611320565b50505050565b600080610b8e610da3565b90506105f5818585610e5b565b600080610ba6610ce6565b9050600080600754610bb66105ff565b610bc09190611f6f565b9050610bf8610bcf8487611fa7565b600754610bdc9080611fa7565b610be68480611fa7565b610bee6105ff565b61087b9190611fa7565b91506000610c07846002611fa7565b610c119087611fa7565b9050610c1d8282611f87565b9050610c298184611f6f565b9250610c4a610c388780611fa7565b85610c438580611fa7565b600161136e565b610c549084611fc6565b9695505050505050565b610c67816112cb565b610c7182826113e7565b5050565b6001600160a01b03918216600090815260016020908152604080832093909416825291909152205490565b600a546001600160a01b031681565b610cb761128c565b6001600160a01b038116610cdd5760405162461bcd60e51b815260040161062790611acb565b61082e81610f5c565b600a5460009047906001600160a01b031615610d7f57600a546040516370a0823160e01b81526001600160a01b03909116906370a0823190610d2c9030906004016119ab565b60206040518083038186803b158015610d4457600080fd5b505afa158015610d58573d6000803e3d6000fd5b505050506040513d601f19601f82011682018060405250810190610d7c9190611993565b90505b6001600160801b03811115610d9e576001600160801b039150506105da565b905090565b3390565b6001600160a01b038316610dcd5760405162461bcd60e51b815260040161062790611e8a565b6001600160a01b038216610df35760405162461bcd60e51b815260040161062790611b11565b6001600160a01b0380841660008181526001602090815260408083209487168084529490915290819020849055517f8c5be1e5ebec7d5bd14f71427d1e84f3dd0314c0f7b2291e5b200ac8c7c3b92590610e4e908590611f4a565b60405180910390a3505050565b6001600160a01b038316610e815760405162461bcd60e51b815260040161062790611e16565b6001600160a01b038216610ea75760405162461bcd60e51b815260040161062790611a1d565b610eb283838361126a565b6001600160a01b03831660009081526020819052604090205481811015610eeb5760405162461bcd60e51b815260040161062790611be9565b6001600160a01b0380851660008181526020819052604080822086860390559286168082529083902080548601905591517fddf252ad1be2c89b69c2b068fc378daa952ba7f163c4a11628f55a4df523b3ef90610f49908690611f4a565b60405180910390a3610b7d84848461126a565b600680546001600160a01b03838116610100818102610100600160a81b031985161790945560405193909204169182907f8be0079c531659141344cd1fd0a4f28419497f9722a3daafe3b4186f6b6457e090600090a35050565b6000610fc28484610c75565b90506000198114610b7d5781811015610fed5760405162461bcd60e51b815260040161062790611bb2565b610b7d8484848403610da7565b600080806000198587098686029250828110908390030390508061103f5783828161103557634e487b7160e01b600052601260045260246000fd5b0492505050610760565b80841161104b57600080fd5b60008486880960026001871981018816978890046003810283188082028403028082028403028082028403028082028403028082028403029081029092039091026000889003889004909101858311909403939093029303949094049190911702949350505050565b6000816110c3575060006107e2565b600060016110d0846114cc565b901c6001901b905060018184816110f757634e487b7160e01b600052601260045260246000fd5b048201901c9050600181848161111d57634e487b7160e01b600052601260045260246000fd5b048201901c9050600181848161114357634e487b7160e01b600052601260045260246000fd5b048201901c9050600181848161116957634e487b7160e01b600052601260045260246000fd5b048201901c9050600181848161118f57634e487b7160e01b600052601260045260246000fd5b048201901c905060018184816111b557634e487b7160e01b600052601260045260246000fd5b048201901c905060018184816111db57634e487b7160e01b600052601260045260246000fd5b048201901c90506107608182858161120357634e487b7160e01b600052601260045260246000fd5b04611561565b6112138383611577565b8061126a57816007600082825461122a9190611f6f565b92505081905550826001600160a01b03167fcc16f5dbb4873280815c1ee09dbd06736cffcc184412cf7a71a0fdb75d397ca58360405161072a9190611f4a565b505050565b8015610c7157600a54610c71906001600160a01b0316838361164e565b611294610da3565b6001600160a01b03166112a5610a05565b6001600160a01b0316146109fd5760405162461bcd60e51b815260040161062790611d42565b600a5461082e906001600160a01b03163330846116b1565b600081600d546112f39190611fa7565b905061130161271082611f87565b905061130d8183611fc6565b9050610c7161131a610a05565b8261126f565b61132a8282611723565b6f4b3b4ca85a86c47a098a2240000000006007546113466105ff565b6113509190611f6f565b1115610c715760405162461bcd60e51b815260040161062790611c5b565b60008061137c868686610ffa565b905060018360028111156113a057634e487b7160e01b600052602160045260246000fd5b1480156113cb5750600084806113c657634e487b7160e01b600052601260045260246000fd5b868809115b156113de576113db600182611f6f565b90505b95945050505050565b600081116114075760405162461bcd60e51b815260040161062790611ce1565b6000600d54826114179190611fa7565b905061142561271082611f87565b9050600061143283610831565b9050836001600160a01b03811661144e5761144b610a05565b90505b611468611459610a05565b6114638587611fc6565b61126f565b8115611478576114788183611320565b846001600160a01b0316336001600160a01b03167f0849372be021f4dce74a8a4cc15fcfaa23fdcfa92ae99fa045f6cdf0c083643686856040516114bd929190611f53565b60405180910390a35050505050565b600080608083901c156114e157608092831c92015b604083901c156114f357604092831c92015b602083901c1561150557602092831c92015b601083901c1561151757601092831c92015b600883901c1561152957600892831c92015b600483901c1561153b57600492831c92015b600283901c1561154d57600292831c92015b600183901c1561155b576001015b92915050565b60008183106115705781610760565b5090919050565b6001600160a01b03821661159d5760405162461bcd60e51b815260040161062790611da7565b6115a98260008361126a565b6001600160a01b038216600090815260208190526040902054818110156115e25760405162461bcd60e51b815260040161062790611a89565b6001600160a01b0383166000818152602081905260408082208585039055600280548690039055519091907fddf252ad1be2c89b69c2b068fc378daa952ba7f163c4a11628f55a4df523b3ef9061163a908690611f4a565b60405180910390a361126a8360008461126a565b60405163a9059cbb60e01b8082526001600160a01b0384166004830152602482018390529060008060448382895af161168b573d6000803e3d6000fd5b50611695846117cd565b610b7d5760405162461bcd60e51b815260040161062790611e5b565b6040516323b872dd60e01b8082526001600160a01b038581166004840152841660248301526044820183905290600080606483828a5af16116f6573d6000803e3d6000fd5b50611700856117cd565b61171c5760405162461bcd60e51b815260040161062790611d0b565b5050505050565b6001600160a01b0382166117495760405162461bcd60e51b815260040161062790611f13565b6117556000838361126a565b80600260008282546117679190611f6f565b90915550506001600160a01b038216600081815260208190526040808220805485019055517fddf252ad1be2c89b69c2b068fc378daa952ba7f163c4a11628f55a4df523b3ef906117b9908590611f4a565b60405180910390a3610c716000838361126a565b60006117f1565b62461bcd60e51b6000526020600452806024528160445260646000fd5b3d801561183057602081146118615761182b7f475076323a206d616c666f726d6564207472616e7366657220726573756c7400601f6117d4565b61186e565b823b611858576118587311d41d8c8e881b9bdd08184818dbdb9d1c9858dd60621b60146117d4565b6001915061186e565b3d6000803e600051151591505b50919050565b600060208284031215611885578081fd5b813561076081612028565b6000806000606084860312156118a4578182fd5b83356118af81612028565b95602085013595506040909401359392505050565b600080604083850312156118d6578182fd5b82356118e181612028565b915060208301356118f181612028565b809150509250929050565b600080600060608486031215611910578283fd5b833561191b81612028565b9250602084013561192b81612028565b929592945050506040919091013590565b6000806040838503121561194e578182fd5b823561195981612028565b946020939093013593505050565b6000806000606084860312156118a4578283fd5b60006020828403121561198c578081fd5b5035919050565b6000602082840312156119a4578081fd5b5051919050565b6001600160a01b0391909116815260200190565b901515815260200190565b6000602080835283518082850152825b818110156119f6578581018301518582016040015282016119da565b81811115611a075783604083870101525b50601f01601f1916929092016040019392505050565b60208082526023908201527f45524332303a207472616e7366657220746f20746865207a65726f206164647260408201526265737360e81b606082015260800190565b6020808252600f908201526e494e56414c49445f4144445245535360881b604082015260600190565b60208082526022908201527f45524332303a206275726e20616d6f756e7420657863656564732062616c616e604082015261636560f01b606082015260800190565b60208082526026908201527f4f776e61626c653a206e6577206f776e657220697320746865207a65726f206160408201526564647265737360d01b606082015260800190565b60208082526022908201527f45524332303a20617070726f766520746f20746865207a65726f206164647265604082015261737360f01b606082015260800190565b6020808252600e908201526d50524943455f534c49505041474560901b604082015260600190565b6020808252601d908201527f434f4d4d49544d454e545f4d41595f4e4f545f42455f52454455434544000000604082015260600190565b6020808252601d908201527f45524332303a20696e73756666696369656e7420616c6c6f77616e6365000000604082015260600190565b60208082526026908201527f45524332303a207472616e7366657220616d6f756e7420657863656564732062604082015265616c616e636560d01b606082015260800190565b6020808252601290820152711253959053125117d0d3d35352551351539560721b604082015260600190565b60208082526010908201526f4558434553534956455f535550504c5960801b604082015260600190565b60208082526015908201527410915391519250d250549657d0d0539517d4d15313605a1b604082015260600190565b6020808252601390820152724d5553545f4255595f41545f4c454153545f3160681b604082015260600190565b60208082526010908201526f4d495353494e475f43555252454e435960801b604082015260600190565b60208082526019908201527f475076323a206661696c6564207472616e7366657246726f6d00000000000000604082015260600190565b6020808252818101527f4f776e61626c653a2063616c6c6572206973206e6f7420746865206f776e6572604082015260600190565b6020808252601690820152751253959053125117d3525397d253959154d51351539560521b604082015260600190565b60208082526021908201527f45524332303a206275726e2066726f6d20746865207a65726f206164647265736040820152607360f81b606082015260800190565b6020808252601490820152734d5553545f53454c4c5f41545f4c454153545f3160601b604082015260600190565b60208082526025908201527f45524332303a207472616e736665722066726f6d20746865207a65726f206164604082015264647265737360d81b606082015260800190565b60208082526015908201527423a83b191d103330b4b632b2103a3930b739b332b960591b604082015260600190565b60208082526024908201527f45524332303a20617070726f76652066726f6d20746865207a65726f206164646040820152637265737360e01b606082015260800190565b60208082526025908201527f45524332303a2064656372656173656420616c6c6f77616e63652062656c6f77604082015264207a65726f60d81b606082015260800190565b6020808252601f908201527f45524332303a206d696e7420746f20746865207a65726f206164647265737300604082015260600190565b90815260200190565b918252602082015260400190565b60ff91909116815260200190565b60008219821115611f8257611f82612012565b500190565b600082611fa257634e487b7160e01b81526012600452602481fd5b500490565b6000816000190483118215151615611fc157611fc1612012565b500290565b600082821015611fd857611fd8612012565b500390565b600281046001821680611ff157607f821691505b6020821081141561186e57634e487b7160e01b600052602260045260246000fd5b634e487b7160e01b600052601160045260246000fd5b6001600160a01b038116811461082e57600080fdfea2646970667358221220772d31d387b97ef982eefe8f0356c6a0d752fc347f4dfed8aa1cf7554acfefd864736f6c63430008000033",
    "devdoc": {
        "kind": "dev",
        "methods": {
            "allowance(address,address)": {
                "details": "See {IERC20-allowance}."
            },
            "approve(address,uint256)": {
                "details": "See {IERC20-approve}. NOTE: If `amount` is the maximum `uint256`, the allowance is not updated on `transferFrom`. This is semantically equivalent to an infinite approval. Requirements: - `spender` cannot be the zero address."
            },
            "balanceOf(address)": {
                "details": "See {IERC20-balanceOf}."
            },
            "burn(uint256)": {
                "details": "Note that this is not the same as a `sell` via the DAT."
            },
            "buy(address,uint256,uint256)": {
                "details": "_minTokensBought is necessary as the price will change if some elses transaction mines after yours was submitted.",
                "params": {
                    "_currencyValue": "How much currency to spend in order to buy BSWAN.",
                    "_minTokensBought": "Buy at least this many BSWAN tokens or the transaction reverts.",
                    "_to": "The account to receive the BSWAN tokens from this purchase."
                }
            },
            "decimals()": {
                "details": "Returns the number of decimals used to get its user representation. For example, if `decimals` equals `2`, a balance of `505` tokens should be displayed to a user as `5.05` (`505 / 10 ** 2`). Tokens usually opt for a value of 18, imitating the relationship between Ether and Wei. This is the default value returned by this function, unless it's overridden. NOTE: This information is only used for _display_ purposes: it in no way affects any of the arithmetic of the contract, including {IERC20-balanceOf} and {IERC20-transfer}."
            },
            "decreaseAllowance(address,uint256)": {
                "details": "Atomically decreases the allowance granted to `spender` by the caller. This is an alternative to {approve} that can be used as a mitigation for problems described in {IERC20-approve}. Emits an {Approval} event indicating the updated allowance. Requirements: - `spender` cannot be the zero address. - `spender` must have allowance for the caller of at least `subtractedValue`."
            },
            "estimateBuyValue(uint256)": {
                "params": {
                    "_currencyValue": "the quantity of currency to buy"
                },
                "returns": {
                    "_0": "tokenValue the quantity of BSWAN bought for the _currencyValue"
                }
            },
            "increaseAllowance(address,uint256)": {
                "details": "Atomically increases the allowance granted to `spender` by the caller. This is an alternative to {approve} that can be used as a mitigation for problems described in {IERC20-approve}. Emits an {Approval} event indicating the updated allowance. Requirements: - `spender` cannot be the zero address."
            },
            "name()": {
                "details": "Returns the name of the token."
            },
            "owner()": {
                "details": "Returns the address of the current owner."
            },
            "paused()": {
                "details": "Returns true if the contract is paused, and false otherwise."
            },
            "pay(address,uint256)": {
                "details": "Pay the organization on-chain.",
                "params": {
                    "_currencyValue": "How much currency which was paid.",
                    "_to": "The account which receives tokens for the contribution. If this address is not authorized to receive tokens then they will be sent to the beneficiary account instead."
                }
            },
            "renounceOwnership()": {
                "details": "Leaves the contract without owner. It will not be possible to call `onlyOwner` functions anymore. Can only be called by the current owner. NOTE: Renouncing ownership will leave the contract without an owner, thereby removing any functionality that is only available to the owner."
            },
            "sell(address,uint256,uint256)": {
                "details": "_minCurrencyReturned is necessary as the price will change if some elses transaction mines after yours was submitted.",
                "params": {
                    "_minCurrencyReturned": "Get at least this many currency tokens or the transaction reverts.",
                    "_quantityToSell": "How many BSWAN tokens to sell for currency value.",
                    "_to": "The account to receive the currency from this sale."
                }
            },
            "symbol()": {
                "details": "Returns the symbol of the token, usually a shorter version of the name."
            },
            "totalSupply()": {
                "details": "See {IERC20-totalSupply}."
            },
            "transfer(address,uint256)": {
                "details": "See {IERC20-transfer}. Requirements: - `to` cannot be the zero address. - the caller must have a balance of at least `amount`."
            },
            "transferFrom(address,address,uint256)": {
                "details": "See {IERC20-transferFrom}. Emits an {Approval} event indicating the updated allowance. This is not required by the EIP. See the note at the beginning of {ERC20}. NOTE: Does not update the allowance if the current allowance is the maximum `uint256`. Requirements: - `from` and `to` cannot be the zero address. - `from` must have a balance of at least `amount`. - the caller must have allowance for ``from``'s tokens of at least `amount`."
            },
            "transferOwnership(address)": {
                "details": "Transfers ownership of the contract to a new account (`newOwner`). Can only be called by the current owner."
            },
            "updateConfig(address,uint256,uint256)": {
                "params": {
                    "_minInvestment": "the min investment required in currency value",
                    "_newOwner": "The new owner of the DAT",
                    "_revenueCommitmentBasisPoints": "the share of revenues tranfered to the buyback reserve"
                }
            }
        },
        "stateVariables": {
            "buySlopeDen": {
                "details": "This is the denominator component of the fractional value."
            },
            "buySlopeNum": {
                "details": "This is the numerator component of the fractional value."
            }
        },
        "version": 1
    },
    "userdoc": {
        "kind": "user",
        "methods": {
            "burn(uint256)": {
                "notice": "Burn the amount of tokens from the address msg.sender if authorized."
            },
            "burnedSupply()": {
                "notice": "The total number of burned BSWAN tokens, excluding tokens burned from a `Sell` action in the DAT."
            },
            "buy(address,uint256,uint256)": {
                "notice": "Purchase BSWAN tokens with the given amount of currency."
            },
            "buySlopeDen()": {
                "notice": "The buy slope of the bonding curve. Does not affect the financial model, only the granularity of COT."
            },
            "buySlopeNum()": {
                "notice": "The buy slope of the bonding curve. Does not affect the financial model, only the granularity of BSWAN."
            },
            "buybackReserve()": {
                "notice": "The total amount of currency value currently locked in the contract and available to sellers."
            },
            "currency()": {
                "notice": "The address of the token used as reserve in the bonding curve (e.g. the DAI contract)"
            },
            "estimateBuyValue(uint256)": {
                "notice": "Update the DAT config."
            },
            "estimatePayValue(uint256)": {
                "notice": "Pay"
            },
            "estimateSellValue(uint256)": {
                "notice": "Sell"
            },
            "investmentReserveBasisPoints()": {
                "notice": "The investment reserve of the bswan. Defines the percentage of the value invested that is automatically funneled and held into the buyback_reserve expressed in basis points."
            },
            "minInvestment()": {
                "notice": "The minimum amount of `currency` investment accepted."
            },
            "revenueCommitmentBasisPoints()": {
                "notice": "The revenue commitment of the organization. Defines the percentage of the value paid through the contract that is automatically funneled and held into the buyback_reserve expressed in basis points."
            },
            "sell(address,uint256,uint256)": {
                "notice": "Sell BSWAN tokens for at least the given amount of currency."
            },
            "updateConfig(address,uint256,uint256)": {
                "notice": "Update the DAT config."
            }
        },
        "version": 1
    },
    "storageLayout": {
        "storage": [
            {
                "astId": 700,
                "contract": "contracts/periphery/trust/BSWAN.sol:BSWAN",
                "label": "_balances",
                "offset": 0,
                "slot": "0",
                "type": "t_mapping(t_address,t_uint256)"
            },
            {
                "astId": 706,
                "contract": "contracts/periphery/trust/BSWAN.sol:BSWAN",
                "label": "_allowances",
                "offset": 0,
                "slot": "1",
                "type": "t_mapping(t_address,t_mapping(t_address,t_uint256))"
            },
            {
                "astId": 708,
                "contract": "contracts/periphery/trust/BSWAN.sol:BSWAN",
                "label": "_totalSupply",
                "offset": 0,
                "slot": "2",
                "type": "t_uint256"
            },
            {
                "astId": 710,
                "contract": "contracts/periphery/trust/BSWAN.sol:BSWAN",
                "label": "_decimals",
                "offset": 0,
                "slot": "3",
                "type": "t_uint8"
            },
            {
                "astId": 712,
                "contract": "contracts/periphery/trust/BSWAN.sol:BSWAN",
                "label": "_name",
                "offset": 0,
                "slot": "4",
                "type": "t_string_storage"
            },
            {
                "astId": 714,
                "contract": "contracts/periphery/trust/BSWAN.sol:BSWAN",
                "label": "_symbol",
                "offset": 0,
                "slot": "5",
                "type": "t_string_storage"
            },
            {
                "astId": 4224,
                "contract": "contracts/periphery/trust/BSWAN.sol:BSWAN",
                "label": "_paused",
                "offset": 0,
                "slot": "6",
                "type": "t_bool"
            },
            {
                "astId": 4101,
                "contract": "contracts/periphery/trust/BSWAN.sol:BSWAN",
                "label": "_owner",
                "offset": 1,
                "slot": "6",
                "type": "t_address"
            },
            {
                "astId": 5332,
                "contract": "contracts/periphery/trust/BSWAN.sol:BSWAN",
                "label": "burnedSupply",
                "offset": 0,
                "slot": "7",
                "type": "t_uint256"
            },
            {
                "astId": 5335,
                "contract": "contracts/periphery/trust/BSWAN.sol:BSWAN",
                "label": "buySlopeNum",
                "offset": 0,
                "slot": "8",
                "type": "t_uint256"
            },
            {
                "astId": 5338,
                "contract": "contracts/periphery/trust/BSWAN.sol:BSWAN",
                "label": "buySlopeDen",
                "offset": 0,
                "slot": "9",
                "type": "t_uint256"
            },
            {
                "astId": 5343,
                "contract": "contracts/periphery/trust/BSWAN.sol:BSWAN",
                "label": "currency",
                "offset": 0,
                "slot": "10",
                "type": "t_contract(IERC20)3202"
            },
            {
                "astId": 5346,
                "contract": "contracts/periphery/trust/BSWAN.sol:BSWAN",
                "label": "minInvestment",
                "offset": 0,
                "slot": "11",
                "type": "t_uint256"
            },
            {
                "astId": 5349,
                "contract": "contracts/periphery/trust/BSWAN.sol:BSWAN",
                "label": "revenueCommitmentBasisPoints",
                "offset": 0,
                "slot": "12",
                "type": "t_uint256"
            },
            {
                "astId": 5352,
                "contract": "contracts/periphery/trust/BSWAN.sol:BSWAN",
                "label": "investmentReserveBasisPoints",
                "offset": 0,
                "slot": "13",
                "type": "t_uint256"
            }
        ],
        "types": {
            "t_address": {
                "encoding": "inplace",
                "label": "address",
                "numberOfBytes": "20"
            },
            "t_bool": {
                "encoding": "inplace",
                "label": "bool",
                "numberOfBytes": "1"
            },
            "t_contract(IERC20)3202": {
                "encoding": "inplace",
                "label": "contract IERC20",
                "numberOfBytes": "20"
            },
            "t_mapping(t_address,t_mapping(t_address,t_uint256))": {
                "encoding": "mapping",
                "key": "t_address",
                "label": "mapping(address => mapping(address => uint256))",
                "numberOfBytes": "32",
                "value": "t_mapping(t_address,t_uint256)"
            },
            "t_mapping(t_address,t_uint256)": {
                "encoding": "mapping",
                "key": "t_address",
                "label": "mapping(address => uint256)",
                "numberOfBytes": "32",
                "value": "t_uint256"
            },
            "t_string_storage": {
                "encoding": "bytes",
                "label": "string",
                "numberOfBytes": "32"
            },
            "t_uint256": {
                "encoding": "inplace",
                "label": "uint256",
                "numberOfBytes": "32"
            },
            "t_uint8": {
                "encoding": "inplace",
                "label": "uint8",
                "numberOfBytes": "1"
            }
        }
    }
}