{
    "address": "0x53369fd4680FfE3DfF39Fc6DDa9CfbfD43daeA2E",
    "abi": [
        {
            "inputs": [
                {
                    "internalType": "contract IAddressProvider",
                    "name": "provider",
                    "type": "address"
                }
            ],
            "stateMutability": "nonpayable",
            "type": "constructor"
        },
        {
            "anonymous": false,
            "inputs": [
                {
                    "indexed": true,
                    "internalType": "address",
                    "name": "previousOwner",
                    "type": "address"
                },
                {
                    "indexed": true,
                    "internalType": "address",
                    "name": "newOwner",
                    "type": "address"
                }
            ],
            "name": "OwnershipTransferred",
            "type": "event"
        },
        {
            "inputs": [],
            "name": "ADDRESSES_PROVIDER",
            "outputs": [
                {
                    "internalType": "contract IAddressProvider",
                    "name": "",
                    "type": "address"
                }
            ],
            "stateMutability": "view",
            "type": "function"
        },
        {
            "inputs": [],
            "name": "ADDRESS_PROVIDER",
            "outputs": [
                {
                    "internalType": "contract IAddressProvider",
                    "name": "",
                    "type": "address"
                }
            ],
            "stateMutability": "view",
            "type": "function"
        },
        {
            "inputs": [],
            "name": "MAX_UINT",
            "outputs": [
                {
                    "internalType": "uint256",
                    "name": "",
                    "type": "uint256"
                }
            ],
            "stateMutability": "view",
            "type": "function"
        },
        {
            "inputs": [
                {
                    "internalType": "address",
                    "name": "erc20",
                    "type": "address"
                }
            ],
            "name": "approve",
            "outputs": [],
            "stateMutability": "nonpayable",
            "type": "function"
        },
        {
            "inputs": [
                {
                    "internalType": "bytes32",
                    "name": "_name",
                    "type": "bytes32"
                }
            ],
            "name": "fetchContract",
            "outputs": [
                {
                    "internalType": "address",
                    "name": "",
                    "type": "address"
                }
            ],
            "stateMutability": "view",
            "type": "function"
        },
        {
            "inputs": [
                {
                    "internalType": "uint256",
                    "name": "version",
                    "type": "uint256"
                }
            ],
            "name": "getBuyerEntryParams",
            "outputs": [
                {
                    "components": [
                        {
                            "internalType": "uint256",
                            "name": "currencyValue",
                            "type": "uint256"
                        },
                        {
                            "internalType": "uint256",
                            "name": "timeAdded",
                            "type": "uint256"
                        },
                        {
                            "internalType": "uint256",
                            "name": "xpEarned",
                            "type": "uint256"
                        },
                        {
                            "internalType": "uint8",
                            "name": "invitationEarned",
                            "type": "uint8"
                        }
                    ],
                    "internalType": "struct DataTypes.EntryParams",
                    "name": "",
                    "type": "tuple"
                }
            ],
            "stateMutability": "view",
            "type": "function"
        },
        {
            "inputs": [],
            "name": "getBuyerEntryParams",
            "outputs": [
                {
                    "components": [
                        {
                            "internalType": "uint256",
                            "name": "currencyValue",
                            "type": "uint256"
                        },
                        {
                            "internalType": "uint256",
                            "name": "timeAdded",
                            "type": "uint256"
                        },
                        {
                            "internalType": "uint256",
                            "name": "xpEarned",
                            "type": "uint256"
                        },
                        {
                            "internalType": "uint8",
                            "name": "invitationEarned",
                            "type": "uint8"
                        }
                    ],
                    "internalType": "struct DataTypes.EntryParams",
                    "name": "",
                    "type": "tuple"
                }
            ],
            "stateMutability": "view",
            "type": "function"
        },
        {
            "inputs": [
                {
                    "internalType": "uint256",
                    "name": "version",
                    "type": "uint256"
                }
            ],
            "name": "getDelayTimestamp",
            "outputs": [
                {
                    "components": [
                        {
                            "internalType": "uint256",
                            "name": "selfRefund",
                            "type": "uint256"
                        },
                        {
                            "internalType": "uint256",
                            "name": "closeTrial",
                            "type": "uint256"
                        },
                        {
                            "internalType": "uint256",
                            "name": "endTrial",
                            "type": "uint256"
                        }
                    ],
                    "internalType": "struct DataTypes.DelayTimestamp",
                    "name": "",
                    "type": "tuple"
                }
            ],
            "stateMutability": "view",
            "type": "function"
        },
        {
            "inputs": [],
            "name": "getDelayTimestamp",
            "outputs": [
                {
                    "components": [
                        {
                            "internalType": "uint256",
                            "name": "selfRefund",
                            "type": "uint256"
                        },
                        {
                            "internalType": "uint256",
                            "name": "closeTrial",
                            "type": "uint256"
                        },
                        {
                            "internalType": "uint256",
                            "name": "endTrial",
                            "type": "uint256"
                        }
                    ],
                    "internalType": "struct DataTypes.DelayTimestamp",
                    "name": "",
                    "type": "tuple"
                }
            ],
            "stateMutability": "view",
            "type": "function"
        },
        {
            "inputs": [],
            "name": "getGigCreationParams",
            "outputs": [
                {
                    "components": [
                        {
                            "internalType": "uint256",
                            "name": "currencyValue",
                            "type": "uint256"
                        },
                        {
                            "internalType": "uint256",
                            "name": "xpEarned",
                            "type": "uint256"
                        }
                    ],
                    "internalType": "struct DataTypes.CreationParams",
                    "name": "",
                    "type": "tuple"
                }
            ],
            "stateMutability": "view",
            "type": "function"
        },
        {
            "inputs": [
                {
                    "internalType": "uint256",
                    "name": "version",
                    "type": "uint256"
                }
            ],
            "name": "getGigCreationParams",
            "outputs": [
                {
                    "components": [
                        {
                            "internalType": "uint256",
                            "name": "currencyValue",
                            "type": "uint256"
                        },
                        {
                            "internalType": "uint256",
                            "name": "xpEarned",
                            "type": "uint256"
                        }
                    ],
                    "internalType": "struct DataTypes.CreationParams",
                    "name": "",
                    "type": "tuple"
                }
            ],
            "stateMutability": "view",
            "type": "function"
        },
        {
            "inputs": [],
            "name": "getOrderCreationParams",
            "outputs": [
                {
                    "components": [
                        {
                            "internalType": "uint256",
                            "name": "trialFlat",
                            "type": "uint256"
                        },
                        {
                            "internalType": "uint256",
                            "name": "trialPercent",
                            "type": "uint256"
                        },
                        {
                            "internalType": "uint256",
                            "name": "proceedFlat",
                            "type": "uint256"
                        },
                        {
                            "internalType": "uint256",
                            "name": "proceedPercent",
                            "type": "uint256"
                        }
                    ],
                    "internalType": "struct DataTypes.OrderPriceParams",
                    "name": "",
                    "type": "tuple"
                },
                {
                    "internalType": "uint256",
                    "name": "",
                    "type": "uint256"
                }
            ],
            "stateMutability": "view",
            "type": "function"
        },
        {
            "inputs": [
                {
                    "internalType": "uint256",
                    "name": "version",
                    "type": "uint256"
                }
            ],
            "name": "getOrderCreationParams",
            "outputs": [
                {
                    "components": [
                        {
                            "internalType": "uint256",
                            "name": "trialFlat",
                            "type": "uint256"
                        },
                        {
                            "internalType": "uint256",
                            "name": "trialPercent",
                            "type": "uint256"
                        },
                        {
                            "internalType": "uint256",
                            "name": "proceedFlat",
                            "type": "uint256"
                        },
                        {
                            "internalType": "uint256",
                            "name": "proceedPercent",
                            "type": "uint256"
                        }
                    ],
                    "internalType": "struct DataTypes.OrderPriceParams",
                    "name": "",
                    "type": "tuple"
                },
                {
                    "internalType": "uint256",
                    "name": "",
                    "type": "uint256"
                }
            ],
            "stateMutability": "view",
            "type": "function"
        },
        {
            "inputs": [
                {
                    "internalType": "uint256",
                    "name": "version",
                    "type": "uint256"
                }
            ],
            "name": "getRetributionParams",
            "outputs": [
                {
                    "components": [
                        {
                            "internalType": "uint256",
                            "name": "affiliate",
                            "type": "uint256"
                        },
                        {
                            "internalType": "uint256",
                            "name": "lvl0AffiliateShare",
                            "type": "uint256"
                        }
                    ],
                    "internalType": "struct DataTypes.RetributionParams",
                    "name": "",
                    "type": "tuple"
                }
            ],
            "stateMutability": "view",
            "type": "function"
        },
        {
            "inputs": [],
            "name": "getRetributionParams",
            "outputs": [
                {
                    "components": [
                        {
                            "internalType": "uint256",
                            "name": "affiliate",
                            "type": "uint256"
                        },
                        {
                            "internalType": "uint256",
                            "name": "lvl0AffiliateShare",
                            "type": "uint256"
                        }
                    ],
                    "internalType": "struct DataTypes.RetributionParams",
                    "name": "",
                    "type": "tuple"
                }
            ],
            "stateMutability": "view",
            "type": "function"
        },
        {
            "inputs": [],
            "name": "getSellerEntryParams",
            "outputs": [
                {
                    "components": [
                        {
                            "internalType": "uint256",
                            "name": "currencyValue",
                            "type": "uint256"
                        },
                        {
                            "internalType": "uint256",
                            "name": "timeAdded",
                            "type": "uint256"
                        },
                        {
                            "internalType": "uint256",
                            "name": "xpEarned",
                            "type": "uint256"
                        },
                        {
                            "internalType": "uint8",
                            "name": "invitationEarned",
                            "type": "uint8"
                        }
                    ],
                    "internalType": "struct DataTypes.EntryParams",
                    "name": "",
                    "type": "tuple"
                }
            ],
            "stateMutability": "view",
            "type": "function"
        },
        {
            "inputs": [
                {
                    "internalType": "uint256",
                    "name": "version",
                    "type": "uint256"
                }
            ],
            "name": "getSellerEntryParams",
            "outputs": [
                {
                    "components": [
                        {
                            "internalType": "uint256",
                            "name": "currencyValue",
                            "type": "uint256"
                        },
                        {
                            "internalType": "uint256",
                            "name": "timeAdded",
                            "type": "uint256"
                        },
                        {
                            "internalType": "uint256",
                            "name": "xpEarned",
                            "type": "uint256"
                        },
                        {
                            "internalType": "uint8",
                            "name": "invitationEarned",
                            "type": "uint8"
                        }
                    ],
                    "internalType": "struct DataTypes.EntryParams",
                    "name": "",
                    "type": "tuple"
                }
            ],
            "stateMutability": "view",
            "type": "function"
        },
        {
            "inputs": [
                {
                    "internalType": "uint256",
                    "name": "version",
                    "type": "uint256"
                }
            ],
            "name": "getSellerOrderFees",
            "outputs": [
                {
                    "components": [
                        {
                            "internalType": "uint256",
                            "name": "trialFlat",
                            "type": "uint256"
                        },
                        {
                            "internalType": "uint256",
                            "name": "trialPercent",
                            "type": "uint256"
                        },
                        {
                            "internalType": "uint256",
                            "name": "proceedFlat",
                            "type": "uint256"
                        },
                        {
                            "internalType": "uint256",
                            "name": "proceedPercent",
                            "type": "uint256"
                        }
                    ],
                    "internalType": "struct DataTypes.OrderPriceParams",
                    "name": "",
                    "type": "tuple"
                }
            ],
            "stateMutability": "view",
            "type": "function"
        },
        {
            "inputs": [
                {
                    "internalType": "bytes32",
                    "name": "_role",
                    "type": "bytes32"
                },
                {
                    "internalType": "address",
                    "name": "account",
                    "type": "address"
                }
            ],
            "name": "hasProtocolRole",
            "outputs": [
                {
                    "internalType": "bool",
                    "name": "",
                    "type": "bool"
                }
            ],
            "stateMutability": "view",
            "type": "function"
        },
        {
            "inputs": [
                {
                    "internalType": "uint256",
                    "name": "userId",
                    "type": "uint256"
                },
                {
                    "internalType": "uint256",
                    "name": "gigId",
                    "type": "uint256"
                },
                {
                    "internalType": "contract IUser",
                    "name": "UserContract",
                    "type": "address"
                }
            ],
            "name": "isGigOwner",
            "outputs": [
                {
                    "internalType": "bool",
                    "name": "",
                    "type": "bool"
                }
            ],
            "stateMutability": "view",
            "type": "function"
        },
        {
            "inputs": [
                {
                    "internalType": "address",
                    "name": "account",
                    "type": "address"
                }
            ],
            "name": "isStillBuyer",
            "outputs": [
                {
                    "internalType": "bool",
                    "name": "",
                    "type": "bool"
                }
            ],
            "stateMutability": "view",
            "type": "function"
        },
        {
            "inputs": [
                {
                    "internalType": "address",
                    "name": "account",
                    "type": "address"
                }
            ],
            "name": "isStillSeller",
            "outputs": [
                {
                    "internalType": "bool",
                    "name": "",
                    "type": "bool"
                }
            ],
            "stateMutability": "view",
            "type": "function"
        },
        {
            "inputs": [],
            "name": "kill",
            "outputs": [],
            "stateMutability": "nonpayable",
            "type": "function"
        },
        {
            "inputs": [],
            "name": "owner",
            "outputs": [
                {
                    "internalType": "address",
                    "name": "",
                    "type": "address"
                }
            ],
            "stateMutability": "view",
            "type": "function"
        },
        {
            "inputs": [],
            "name": "renounceOwnership",
            "outputs": [],
            "stateMutability": "nonpayable",
            "type": "function"
        },
        {
            "inputs": [
                {
                    "internalType": "contract IAddressProvider",
                    "name": "_providerAddress",
                    "type": "address"
                }
            ],
            "name": "setProvider",
            "outputs": [],
            "stateMutability": "nonpayable",
            "type": "function"
        },
        {
            "inputs": [
                {
                    "internalType": "address",
                    "name": "newOwner",
                    "type": "address"
                }
            ],
            "name": "transferOwnership",
            "outputs": [],
            "stateMutability": "nonpayable",
            "type": "function"
        },
        {
            "inputs": [
                {
                    "components": [
                        {
                            "internalType": "uint256",
                            "name": "currencyValue",
                            "type": "uint256"
                        },
                        {
                            "internalType": "uint256",
                            "name": "timeAdded",
                            "type": "uint256"
                        },
                        {
                            "internalType": "uint256",
                            "name": "xpEarned",
                            "type": "uint256"
                        },
                        {
                            "internalType": "uint8",
                            "name": "invitationEarned",
                            "type": "uint8"
                        }
                    ],
                    "internalType": "struct DataTypes.EntryParams",
                    "name": "newParams",
                    "type": "tuple"
                }
            ],
            "name": "updateBuyerEntryParams",
            "outputs": [],
            "stateMutability": "nonpayable",
            "type": "function"
        },
        {
            "inputs": [
                {
                    "components": [
                        {
                            "internalType": "uint256",
                            "name": "selfRefund",
                            "type": "uint256"
                        },
                        {
                            "internalType": "uint256",
                            "name": "closeTrial",
                            "type": "uint256"
                        },
                        {
                            "internalType": "uint256",
                            "name": "endTrial",
                            "type": "uint256"
                        }
                    ],
                    "internalType": "struct DataTypes.DelayTimestamp",
                    "name": "newParams",
                    "type": "tuple"
                }
            ],
            "name": "updateDelayTimestamp",
            "outputs": [],
            "stateMutability": "nonpayable",
            "type": "function"
        },
        {
            "inputs": [
                {
                    "components": [
                        {
                            "internalType": "uint256",
                            "name": "currencyValue",
                            "type": "uint256"
                        },
                        {
                            "internalType": "uint256",
                            "name": "xpEarned",
                            "type": "uint256"
                        }
                    ],
                    "internalType": "struct DataTypes.CreationParams",
                    "name": "newParams",
                    "type": "tuple"
                }
            ],
            "name": "updateGigCreationParams",
            "outputs": [],
            "stateMutability": "nonpayable",
            "type": "function"
        },
        {
            "inputs": [
                {
                    "components": [
                        {
                            "internalType": "uint256",
                            "name": "trialFlat",
                            "type": "uint256"
                        },
                        {
                            "internalType": "uint256",
                            "name": "trialPercent",
                            "type": "uint256"
                        },
                        {
                            "internalType": "uint256",
                            "name": "proceedFlat",
                            "type": "uint256"
                        },
                        {
                            "internalType": "uint256",
                            "name": "proceedPercent",
                            "type": "uint256"
                        }
                    ],
                    "internalType": "struct DataTypes.OrderPriceParams",
                    "name": "newParams",
                    "type": "tuple"
                }
            ],
            "name": "updateOrderCreationParams",
            "outputs": [],
            "stateMutability": "nonpayable",
            "type": "function"
        },
        {
            "inputs": [
                {
                    "components": [
                        {
                            "internalType": "uint256",
                            "name": "affiliate",
                            "type": "uint256"
                        },
                        {
                            "internalType": "uint256",
                            "name": "lvl0AffiliateShare",
                            "type": "uint256"
                        }
                    ],
                    "internalType": "struct DataTypes.RetributionParams",
                    "name": "newParams",
                    "type": "tuple"
                }
            ],
            "name": "updateRetributionParams",
            "outputs": [],
            "stateMutability": "nonpayable",
            "type": "function"
        },
        {
            "inputs": [
                {
                    "components": [
                        {
                            "internalType": "uint256",
                            "name": "currencyValue",
                            "type": "uint256"
                        },
                        {
                            "internalType": "uint256",
                            "name": "timeAdded",
                            "type": "uint256"
                        },
                        {
                            "internalType": "uint256",
                            "name": "xpEarned",
                            "type": "uint256"
                        },
                        {
                            "internalType": "uint8",
                            "name": "invitationEarned",
                            "type": "uint8"
                        }
                    ],
                    "internalType": "struct DataTypes.EntryParams",
                    "name": "newParams",
                    "type": "tuple"
                }
            ],
            "name": "updateSellerEntryParams",
            "outputs": [],
            "stateMutability": "nonpayable",
            "type": "function"
        }
    ],
    "transactionHash": "0x8124f3a654bcc2465c6960b4fa8c11d551e797c2eaa49d43537d4e7db709ebf8",
    "args": [
        "0x20Ce94F404343aD2752A2D01b43fa407db9E0D00"
    ],
    "numDeployments": 1,
    "solcInputHash": "11b40aac2c6ba2dcd5f594f6e6f90e03",
    "bytecode": "0x60806040526000196002553480156200001757600080fd5b506040516200218d3803806200218d8339810160408190526200003a9162000116565b806200004f62000049620000c2565b620000c6565b6040805180820190915260018152603560f81b60208201526001600160a01b0382166200009a5760405162461bcd60e51b815260040162000091919062000146565b60405180910390fd5b50600180546001600160a01b0319166001600160a01b0392909216919091179055506200019c565b3390565b600080546001600160a01b038381166001600160a01b0319831681178455604051919092169283917f8be0079c531659141344cd1fd0a4f28419497f9722a3daafe3b4186f6b6457e09190a35050565b60006020828403121562000128578081fd5b81516001600160a01b03811681146200013f578182fd5b9392505050565b6000602080835283518082850152825b81811015620001745785810183015185820160400152820162000156565b81811115620001865783604083870101525b50601f01601f1916929092016040019392505050565b611fe180620001ac6000396000f3fe608060405234801561001057600080fd5b50600436106101fb5760003560e01c8063715018a61161011a5780639b7a220d116100ad578063daea85c51161007c578063daea85c514610402578063e5b5019a14610415578063ea532d461461042a578063f2fde38b1461043d578063f73afd9614610450576101fb565b80639b7a220d146103b3578063b817bcf7146103c6578063cfd8d6c0146103d9578063d618cc64146103ec576101fb565b80638da5cb5b116100e95780638da5cb5b1461037057806391af5b3414610378578063985fadc8146103985780639af1da48146103ab576101fb565b8063715018a61461032f57806372633f981461033757806379a558e71461034a578063882baa001461035d576101fb565b80631cb647051161019257806340717f431161016157806340717f43146102f957806341c0e1b51461030c57806357ddafd314610314578063688c4b2414610327576101fb565b80631cb64705146102c15780632c53f6c4146102c957806333327472146102d15780633e8b9f19146102e6576101fb565b806311e0c07b116101ce57806311e0c07b146102735780631848effa1461029357806319872f761461029b57806319d9603a146102ae576101fb565b806301215c83146102005780630542975c146102155780630adf05d0146102335780630b3f0b5414610253575b600080fd5b61021361020e36600461199d565b610463565b005b61021d610517565b60405161022a9190611cef565b60405180910390f35b6102466102413660046117a0565b610526565b60405161022a9190611e80565b6102666102613660046117a0565b6105c3565b60405161022a9190611e72565b610286610281366004611c40565b610657565b60405161022a9190611d1c565b61021d6106e0565b61021d6102a93660046117a0565b6106ef565b6102136102bc3660046117e7565b610770565b6102666107e7565b61024661087f565b6102d9610912565b60405161022a9190611e64565b6102d96102f43660046117a0565b6109a4565b6102136103073660046118d3565b610a38565b610213610aaf565b6102d96103223660046117a0565b610ae5565b610246610b2a565b610213610b6d565b6102136103453660046118d3565b610b81565b610286610358366004611741565b610bf8565b61021361036b36600461181d565b610cae565b61021d610d25565b61038b6103863660046117a0565b610d34565b60405161022a9190611e8e565b6102866103a63660046117b8565b610dc9565b6102d9610e6a565b6102136103c13660046117e7565b610ead565b6102866103d4366004611741565b610f24565b6102136103e7366004611741565b610fdb565b6103f46110c5565b60405161022a929190611e9c565b610213610410366004611741565b6111eb565b61041d6112c1565b60405161022a9190611d27565b6102466104383660046117a0565b6112c7565b61021361044b366004611741565b61130c565b6103f461045e3660046117a0565b611346565b6d282927aa27a1a7a62fa0a226a4a760911b610481816103a661146f565b6104a65760405162461bcd60e51b815260040161049d90611e2d565b60405180910390fd5b604051633005b9a560e11b8152731A1FEe7EeD918BD762173e4dc5EfDB8a78C924A89063600b734a906104e390600f906011908790600401611f2c565b60006040518083038186803b1580156104fb57600080fd5b505af415801561050f573d6000803e3d6000fd5b505050505050565b6001546001600160a01b031690565b61052e611502565b60405163038d39c160e11b8152731A1FEe7EeD918BD762173e4dc5EfDB8a78C924A89063071a73829061056b906003906005908790600401611ee0565b60806040518083038186803b15801561058357600080fd5b505af4158015610597573d6000803e3d6000fd5b505050506040513d601f19601f820116820180604052508101906105bb919061193e565b90505b919050565b6105cb61152d565b60405162ac321b60e31b8152731A1FEe7EeD918BD762173e4dc5EfDB8a78C924A89063056190d890610607906015906017908790600401611ee0565b60606040518083038186803b15801561061f57600080fd5b505af4158015610633573d6000803e3d6000fd5b505050506040513d601f19601f820116820180604052508101906105bb9190611878565b60405163fbd2817f60e01b81526000906001600160a01b0383169063fbd2817f906106889087908790600401611eb7565b60206040518083038186803b1580156106a057600080fd5b505afa1580156106b4573d6000803e3d6000fd5b505050506040513d601f19601f820116820180604052508101906106d89190611780565b949350505050565b6001546001600160a01b031681565b600154604051630cc397bb60e11b81526000916001600160a01b0316906319872f7690610720908590600401611d27565b60206040518083038186803b15801561073857600080fd5b505afa15801561074c573d6000803e3d6000fd5b505050506040513d601f19601f820116820180604052508101906105bb9190611764565b6d282927aa27a1a7a62fa0a226a4a760911b61078e816103a661146f565b6107aa5760405162461bcd60e51b815260040161049d90611e2d565b604051635f000b3960e01b8152731A1FEe7EeD918BD762173e4dc5EfDB8a78C924A890635f000b39906104e390600c90600e908790600401611ec5565b6107ef61152d565b6040516315d9c37560e11b8152731A1FEe7EeD918BD762173e4dc5EfDB8a78C924A890632bb386ea9061082a90601590601790600401611eb7565b60606040518083038186803b15801561084257600080fd5b505af4158015610856573d6000803e3d6000fd5b505050506040513d601f19601f8201168201806040525081019061087a9190611878565b905090565b610887611502565b60405163a6b16b4360e01b8152731A1FEe7EeD918BD762173e4dc5EfDB8a78C924A89063a6b16b43906108c290600390600590600401611eb7565b60806040518083038186803b1580156108da57600080fd5b505af41580156108ee573d6000803e3d6000fd5b505050506040513d601f19601f8201168201806040525081019061087a919061193e565b61091a61154e565b60405163bfdb039960e01b8152731A1FEe7EeD918BD762173e4dc5EfDB8a78C924A89063bfdb03999061095590600c90600e90600401611eb7565b604080518083038186803b15801561096c57600080fd5b505af4158015610980573d6000803e3d6000fd5b505050506040513d601f19601f8201168201806040525081019061087a9190611802565b6109ac61154e565b60405163907874e560e01b8152731A1FEe7EeD918BD762173e4dc5EfDB8a78C924A89063907874e5906109e990600990600b908790600401611ee0565b604080518083038186803b158015610a0057600080fd5b505af4158015610a14573d6000803e3d6000fd5b505050506040513d601f19601f820116820180604052508101906105bb9190611802565b6d282927aa27a1a7a62fa0a226a4a760911b610a56816103a661146f565b610a725760405162461bcd60e51b815260040161049d90611e2d565b60405163eecd53b160e01b8152731A1FEe7EeD918BD762173e4dc5EfDB8a78C924A89063eecd53b1906104e3906003906005908790600401611f11565b6001546001600160a01b03163314610ad757634e487b7160e01b600052600160045260246000fd5b6001546001600160a01b0316ff5b610aed61154e565b604051639bb062d360e01b8152731A1FEe7EeD918BD762173e4dc5EfDB8a78C924A890639bb062d3906109e990600c90600e908790600401611ee0565b610b32611502565b60405163a6b16b4360e01b8152731A1FEe7EeD918BD762173e4dc5EfDB8a78C924A89063a6b16b43906108c290600690600890600401611eb7565b610b75611473565b610b7f60006114b2565b565b6d282927aa27a1a7a62fa0a226a4a760911b610b9f816103a661146f565b610bbb5760405162461bcd60e51b815260040161049d90611e2d565b60405163eecd53b160e01b8152731A1FEe7EeD918BD762173e4dc5EfDB8a78C924A89063eecd53b1906104e3906006906008908790600401611f11565b6000610c0c64212aaca2a960d91b83610dc9565b80156105bb575042610c24632aa9a2a960e11b6106ef565b6001600160a01b03166369c212f6846040518263ffffffff1660e01b8152600401610c4f9190611cef565b60006040518083038186803b158015610c6757600080fd5b505afa158015610c7b573d6000803e3d6000fd5b505050506040513d6000823e601f3d908101601f19168201604052610ca39190810190611a67565b604001511192915050565b6d282927aa27a1a7a62fa0a226a4a760911b610ccc816103a661146f565b610ce85760405162461bcd60e51b815260040161049d90611e2d565b60405163d93df20360e01b8152731A1FEe7EeD918BD762173e4dc5EfDB8a78C924A89063d93df203906104e3906015906017908790600401611ef6565b6000546001600160a01b031690565b610d3c611568565b60405163759b8c0160e01b8152731A1FEe7EeD918BD762173e4dc5EfDB8a78C924A89063759b8c0190610d79906012906014908790600401611ee0565b60806040518083038186803b158015610d9157600080fd5b505af4158015610da5573d6000803e3d6000fd5b505050506040513d601f19601f820116820180604052508101906105bb9190611a02565b600080610de36a20a1a62fa6a0a720a3a2a960a91b6106ef565b6001600160a01b03166391d1485485856040518363ffffffff1660e01b8152600401610e10929190611d30565b60206040518083038186803b158015610e2857600080fd5b505afa158015610e3c573d6000803e3d6000fd5b505050506040513d601f19601f82011682018060405250810190610e609190611780565b9150505b92915050565b610e7261154e565b604051632fe2848160e01b8152731A1FEe7EeD918BD762173e4dc5EfDB8a78C924A890632fe284819061095590600990600b90600401611eb7565b6d282927aa27a1a7a62fa0a226a4a760911b610ecb816103a661146f565b610ee75760405162461bcd60e51b815260040161049d90611e2d565b6040516313a6a97b60e11b8152731A1FEe7EeD918BD762173e4dc5EfDB8a78C924A89063274d52f6906104e390600990600b908790600401611ec5565b6000610f396529a2a62622a960d11b83610dc9565b80156105bb575042610f51632aa9a2a960e11b6106ef565b6001600160a01b03166369c212f6846040518263ffffffff1660e01b8152600401610f7c9190611cef565b60006040518083038186803b158015610f9457600080fd5b505afa158015610fa8573d6000803e3d6000fd5b505050506040513d6000823e601f3d908101601f19168201604052610fd09190810190611a67565b608001511192915050565b6001600160a01b0381161580610ffb57506001546001600160a01b031633145b806110875750336001600160a01b0316306001600160a01b0316638da5cb5b6040518163ffffffff1660e01b815260040160206040518083038186803b15801561104457600080fd5b505afa158015611058573d6000803e3d6000fd5b505050506040513d601f19601f8201168201806040525081019061107c9190611764565b6001600160a01b0316145b6110a35760405162461bcd60e51b815260040161049d90611d8d565b600180546001600160a01b0319166001600160a01b0392909216919091179055565b6110cd611568565b604051630d0682c560e21b8152600090731A1FEe7EeD918BD762173e4dc5EfDB8a78C924A89063341a0b149061110b90600f90601190600401611eb7565b60806040518083038186803b15801561112357600080fd5b505af4158015611137573d6000803e3d6000fd5b505050506040513d601f19601f8201168201806040525081019061115b9190611a02565b604051639e9886b760e01b8152731A1FEe7EeD918BD762173e4dc5EfDB8a78C924A890639e9886b79061119390601290600401611d27565b60206040518083038186803b1580156111ab57600080fd5b505af41580156111bf573d6000803e3d6000fd5b505050506040513d601f19601f820116820180604052508101906111e39190611c28565b915091509091565b6d282927aa27a1a7a62fa0a226a4a760911b611209816103a661146f565b6112255760405162461bcd60e51b815260040161049d90611e2d565b60006112366211105560ea1b6106ef565b60025460405163095ea7b360e01b81529192506001600160a01b0385169163095ea7b39161126991859190600401611d03565b602060405180830381600087803b15801561128357600080fd5b505af1158015611297573d6000803e3d6000fd5b505050506040513d601f19601f820116820180604052508101906112bb9190611780565b50505050565b60025481565b6112cf611502565b60405163038d39c160e11b8152731A1FEe7EeD918BD762173e4dc5EfDB8a78C924A89063071a73829061056b906006906008908790600401611ee0565b611314611473565b6001600160a01b03811661133a5760405162461bcd60e51b815260040161049d90611d47565b611343816114b2565b50565b61134e611568565b60405163759b8c0160e01b8152600090731A1FEe7EeD918BD762173e4dc5EfDB8a78C924A89063759b8c019061138e90600f906011908890600401611ee0565b60806040518083038186803b1580156113a657600080fd5b505af41580156113ba573d6000803e3d6000fd5b505050506040513d601f19601f820116820180604052508101906113de9190611a02565b604051639e9886b760e01b8152731A1FEe7EeD918BD762173e4dc5EfDB8a78C924A890639e9886b79061141690601290600401611d27565b60206040518083038186803b15801561142e57600080fd5b505af4158015611442573d6000803e3d6000fd5b505050506040513d601f19601f820116820180604052508101906114669190611c28565b91509150915091565b3390565b61147b61146f565b6001600160a01b031661148c610d25565b6001600160a01b031614610b7f5760405162461bcd60e51b815260040161049d90611df8565b600080546001600160a01b038381166001600160a01b0319831681178455604051919092169283917f8be0079c531659141344cd1fd0a4f28419497f9722a3daafe3b4186f6b6457e09190a35050565b6040518060800160405280600081526020016000815260200160008152602001600060ff1681525090565b60405180606001604052806000815260200160008152602001600081525090565b604051806040016040528060008152602001600081525090565b6040518060800160405280600081526020016000815260200160008152602001600081525090565b80516105be81611f87565b600082601f8301126115ab578081fd5b8151602067ffffffffffffffff8211156115c7576115c7611f71565b8082026115d5828201611f47565b8381528281019086840183880185018910156115ef578687fd5b8693505b858410156116115780518352600193909301929184019184016115f3565b50979650505050505050565b600082601f83011261162d578081fd5b815167ffffffffffffffff81111561164757611647611f71565b602061165b601f8301601f19168201611f47565b828152858284870101111561166e578384fd5b835b8381101561168b578581018301518282018401528201611670565b8381111561169b57848385840101525b5095945050505050565b6000604082840312156116b6578081fd5b6040516040810181811067ffffffffffffffff821117156116d9576116d9611f71565b604052823581526020928301359281019290925250919050565b600060408284031215611704578081fd5b6040516040810181811067ffffffffffffffff8211171561172757611727611f71565b604052825181526020928301519281019290925250919050565b600060208284031215611752578081fd5b813561175d81611f87565b9392505050565b600060208284031215611775578081fd5b815161175d81611f87565b600060208284031215611791578081fd5b8151801515811461175d578182fd5b6000602082840312156117b1578081fd5b5035919050565b600080604083850312156117ca578081fd5b8235915060208301356117dc81611f87565b809150509250929050565b6000604082840312156117f8578081fd5b61175d83836116a5565b600060408284031215611813578081fd5b61175d83836116f3565b60006060828403121561182e578081fd5b6040516060810181811067ffffffffffffffff8211171561185157611851611f71565b80604052508235815260208301356020820152604083013560408201528091505092915050565b600060608284031215611889578081fd5b6040516060810181811067ffffffffffffffff821117156118ac576118ac611f71565b80604052508251815260208301516020820152604083015160408201528091505092915050565b6000608082840312156118e4578081fd5b6040516080810181811067ffffffffffffffff8211171561190757611907611f71565b8060405250823581526020830135602082015260408301356040820152606083013561193281611f9c565b60608201529392505050565b60006080828403121561194f578081fd5b6040516080810181811067ffffffffffffffff8211171561197257611972611f71565b8060405250825181526020830151602082015260408301516040820152606083015161193281611f9c565b6000608082840312156119ae578081fd5b6040516080810181811067ffffffffffffffff821117156119d1576119d1611f71565b8060405250823581526020830135602082015260408301356040820152606083013560608201528091505092915050565b600060808284031215611a13578081fd5b6040516080810181811067ffffffffffffffff82111715611a3657611a36611f71565b8060405250825181526020830151602082015260408301516040820152606083015160608201528091505092915050565b600060208284031215611a78578081fd5b815167ffffffffffffffff80821115611a8f578283fd5b81840191506101e0808387031215611aa5578384fd5b611aae81611f47565b9050825182811115611abe578485fd5b611aca8782860161161d565b8252506020830151602082015260408301516040820152606083015160608201526080830151608082015260a083015160a082015260c083015160c0820152611b1560e08401611590565b60e08201526101008084015183811115611b2d578586fd5b611b398882870161159b565b8284015250506101208084015183811115611b52578586fd5b611b5e8882870161159b565b8284015250506101408084015183811115611b77578586fd5b611b838882870161159b565b8284015250506101608084015183811115611b9c578586fd5b611ba88882870161159b565b8284015250506101808084015183811115611bc1578586fd5b611bcd8882870161159b565b8284015250506101a08084015183811115611be6578586fd5b611bf28882870161159b565b8284015250506101c08084015183811115611c0b578586fd5b611c178882870161159b565b918301919091525095945050505050565b600060208284031215611c39578081fd5b5051919050565b600080600060608486031215611c54578081fd5b83359250602084013591506040840135611c6d81611f87565b809150509250925092565b80518252602090810151910152565b8051825260208082015190830152604090810151910152565b80518252602081015160208301526040810151604083015260ff60608201511660608301525050565b805182526020810151602083015260408101516040830152606081015160608301525050565b6001600160a01b0391909116815260200190565b6001600160a01b03929092168252602082015260400190565b901515815260200190565b90815260200190565b9182526001600160a01b0316602082015260400190565b60208082526026908201527f4f776e61626c653a206e6577206f776e657220697320746865207a65726f206160408201526564647265737360d01b606082015260800190565b60208082526045908201527f43616e206f6e6c792062652063616c6c6564206966206164647265737365735060408201527f726f766964657220697320656d7074792c206d73672e73656e646572206f722060608201526437bbb732b960d91b608082015260a00190565b6020808252818101527f4f776e61626c653a2063616c6c6572206973206e6f7420746865206f776e6572604082015260600190565b6020808252601c908201527f5265717569726573206d73672e73656e6465722068617320726f6c6500000000604082015260600190565b60408101610e648284611c78565b60608101610e648284611c87565b60808101610e648284611ca0565b60808101610e648284611cc9565b60a08101611eaa8285611cc9565b8260808301529392505050565b918252602082015260400190565b83815260208101839052608081016106d86040830184611c78565b9283526020830191909152604082015260600190565b8381526020810183905260a081016106d86040830184611c87565b8381526020810183905260c081016106d86040830184611ca0565b8381526020810183905260c081016106d86040830184611cc9565b60405181810167ffffffffffffffff81118282101715611f6957611f69611f71565b604052919050565b634e487b7160e01b600052604160045260246000fd5b6001600160a01b038116811461134357600080fd5b60ff8116811461134357600080fdfea2646970667358221220ee85e6d99c09f6e929d9cfb5cdabef0cda57e22cf0e26c0508d6565a89b795a964736f6c63430008000033",
    "deployedBytecode": "0x608060405234801561001057600080fd5b50600436106101fb5760003560e01c8063715018a61161011a5780639b7a220d116100ad578063daea85c51161007c578063daea85c514610402578063e5b5019a14610415578063ea532d461461042a578063f2fde38b1461043d578063f73afd9614610450576101fb565b80639b7a220d146103b3578063b817bcf7146103c6578063cfd8d6c0146103d9578063d618cc64146103ec576101fb565b80638da5cb5b116100e95780638da5cb5b1461037057806391af5b3414610378578063985fadc8146103985780639af1da48146103ab576101fb565b8063715018a61461032f57806372633f981461033757806379a558e71461034a578063882baa001461035d576101fb565b80631cb647051161019257806340717f431161016157806340717f43146102f957806341c0e1b51461030c57806357ddafd314610314578063688c4b2414610327576101fb565b80631cb64705146102c15780632c53f6c4146102c957806333327472146102d15780633e8b9f19146102e6576101fb565b806311e0c07b116101ce57806311e0c07b146102735780631848effa1461029357806319872f761461029b57806319d9603a146102ae576101fb565b806301215c83146102005780630542975c146102155780630adf05d0146102335780630b3f0b5414610253575b600080fd5b61021361020e36600461199d565b610463565b005b61021d610517565b60405161022a9190611cef565b60405180910390f35b6102466102413660046117a0565b610526565b60405161022a9190611e80565b6102666102613660046117a0565b6105c3565b60405161022a9190611e72565b610286610281366004611c40565b610657565b60405161022a9190611d1c565b61021d6106e0565b61021d6102a93660046117a0565b6106ef565b6102136102bc3660046117e7565b610770565b6102666107e7565b61024661087f565b6102d9610912565b60405161022a9190611e64565b6102d96102f43660046117a0565b6109a4565b6102136103073660046118d3565b610a38565b610213610aaf565b6102d96103223660046117a0565b610ae5565b610246610b2a565b610213610b6d565b6102136103453660046118d3565b610b81565b610286610358366004611741565b610bf8565b61021361036b36600461181d565b610cae565b61021d610d25565b61038b6103863660046117a0565b610d34565b60405161022a9190611e8e565b6102866103a63660046117b8565b610dc9565b6102d9610e6a565b6102136103c13660046117e7565b610ead565b6102866103d4366004611741565b610f24565b6102136103e7366004611741565b610fdb565b6103f46110c5565b60405161022a929190611e9c565b610213610410366004611741565b6111eb565b61041d6112c1565b60405161022a9190611d27565b6102466104383660046117a0565b6112c7565b61021361044b366004611741565b61130c565b6103f461045e3660046117a0565b611346565b6d282927aa27a1a7a62fa0a226a4a760911b610481816103a661146f565b6104a65760405162461bcd60e51b815260040161049d90611e2d565b60405180910390fd5b604051633005b9a560e11b815273__$60257ade2e9256c87b7577fd1b418be579$__9063600b734a906104e390600f906011908790600401611f2c565b60006040518083038186803b1580156104fb57600080fd5b505af415801561050f573d6000803e3d6000fd5b505050505050565b6001546001600160a01b031690565b61052e611502565b60405163038d39c160e11b815273__$60257ade2e9256c87b7577fd1b418be579$__9063071a73829061056b906003906005908790600401611ee0565b60806040518083038186803b15801561058357600080fd5b505af4158015610597573d6000803e3d6000fd5b505050506040513d601f19601f820116820180604052508101906105bb919061193e565b90505b919050565b6105cb61152d565b60405162ac321b60e31b815273__$60257ade2e9256c87b7577fd1b418be579$__9063056190d890610607906015906017908790600401611ee0565b60606040518083038186803b15801561061f57600080fd5b505af4158015610633573d6000803e3d6000fd5b505050506040513d601f19601f820116820180604052508101906105bb9190611878565b60405163fbd2817f60e01b81526000906001600160a01b0383169063fbd2817f906106889087908790600401611eb7565b60206040518083038186803b1580156106a057600080fd5b505afa1580156106b4573d6000803e3d6000fd5b505050506040513d601f19601f820116820180604052508101906106d89190611780565b949350505050565b6001546001600160a01b031681565b600154604051630cc397bb60e11b81526000916001600160a01b0316906319872f7690610720908590600401611d27565b60206040518083038186803b15801561073857600080fd5b505afa15801561074c573d6000803e3d6000fd5b505050506040513d601f19601f820116820180604052508101906105bb9190611764565b6d282927aa27a1a7a62fa0a226a4a760911b61078e816103a661146f565b6107aa5760405162461bcd60e51b815260040161049d90611e2d565b604051635f000b3960e01b815273__$60257ade2e9256c87b7577fd1b418be579$__90635f000b39906104e390600c90600e908790600401611ec5565b6107ef61152d565b6040516315d9c37560e11b815273__$60257ade2e9256c87b7577fd1b418be579$__90632bb386ea9061082a90601590601790600401611eb7565b60606040518083038186803b15801561084257600080fd5b505af4158015610856573d6000803e3d6000fd5b505050506040513d601f19601f8201168201806040525081019061087a9190611878565b905090565b610887611502565b60405163a6b16b4360e01b815273__$60257ade2e9256c87b7577fd1b418be579$__9063a6b16b43906108c290600390600590600401611eb7565b60806040518083038186803b1580156108da57600080fd5b505af41580156108ee573d6000803e3d6000fd5b505050506040513d601f19601f8201168201806040525081019061087a919061193e565b61091a61154e565b60405163bfdb039960e01b815273__$60257ade2e9256c87b7577fd1b418be579$__9063bfdb03999061095590600c90600e90600401611eb7565b604080518083038186803b15801561096c57600080fd5b505af4158015610980573d6000803e3d6000fd5b505050506040513d601f19601f8201168201806040525081019061087a9190611802565b6109ac61154e565b60405163907874e560e01b815273__$60257ade2e9256c87b7577fd1b418be579$__9063907874e5906109e990600990600b908790600401611ee0565b604080518083038186803b158015610a0057600080fd5b505af4158015610a14573d6000803e3d6000fd5b505050506040513d601f19601f820116820180604052508101906105bb9190611802565b6d282927aa27a1a7a62fa0a226a4a760911b610a56816103a661146f565b610a725760405162461bcd60e51b815260040161049d90611e2d565b60405163eecd53b160e01b815273__$60257ade2e9256c87b7577fd1b418be579$__9063eecd53b1906104e3906003906005908790600401611f11565b6001546001600160a01b03163314610ad757634e487b7160e01b600052600160045260246000fd5b6001546001600160a01b0316ff5b610aed61154e565b604051639bb062d360e01b815273__$60257ade2e9256c87b7577fd1b418be579$__90639bb062d3906109e990600c90600e908790600401611ee0565b610b32611502565b60405163a6b16b4360e01b815273__$60257ade2e9256c87b7577fd1b418be579$__9063a6b16b43906108c290600690600890600401611eb7565b610b75611473565b610b7f60006114b2565b565b6d282927aa27a1a7a62fa0a226a4a760911b610b9f816103a661146f565b610bbb5760405162461bcd60e51b815260040161049d90611e2d565b60405163eecd53b160e01b815273__$60257ade2e9256c87b7577fd1b418be579$__9063eecd53b1906104e3906006906008908790600401611f11565b6000610c0c64212aaca2a960d91b83610dc9565b80156105bb575042610c24632aa9a2a960e11b6106ef565b6001600160a01b03166369c212f6846040518263ffffffff1660e01b8152600401610c4f9190611cef565b60006040518083038186803b158015610c6757600080fd5b505afa158015610c7b573d6000803e3d6000fd5b505050506040513d6000823e601f3d908101601f19168201604052610ca39190810190611a67565b604001511192915050565b6d282927aa27a1a7a62fa0a226a4a760911b610ccc816103a661146f565b610ce85760405162461bcd60e51b815260040161049d90611e2d565b60405163d93df20360e01b815273__$60257ade2e9256c87b7577fd1b418be579$__9063d93df203906104e3906015906017908790600401611ef6565b6000546001600160a01b031690565b610d3c611568565b60405163759b8c0160e01b815273__$60257ade2e9256c87b7577fd1b418be579$__9063759b8c0190610d79906012906014908790600401611ee0565b60806040518083038186803b158015610d9157600080fd5b505af4158015610da5573d6000803e3d6000fd5b505050506040513d601f19601f820116820180604052508101906105bb9190611a02565b600080610de36a20a1a62fa6a0a720a3a2a960a91b6106ef565b6001600160a01b03166391d1485485856040518363ffffffff1660e01b8152600401610e10929190611d30565b60206040518083038186803b158015610e2857600080fd5b505afa158015610e3c573d6000803e3d6000fd5b505050506040513d601f19601f82011682018060405250810190610e609190611780565b9150505b92915050565b610e7261154e565b604051632fe2848160e01b815273__$60257ade2e9256c87b7577fd1b418be579$__90632fe284819061095590600990600b90600401611eb7565b6d282927aa27a1a7a62fa0a226a4a760911b610ecb816103a661146f565b610ee75760405162461bcd60e51b815260040161049d90611e2d565b6040516313a6a97b60e11b815273__$60257ade2e9256c87b7577fd1b418be579$__9063274d52f6906104e390600990600b908790600401611ec5565b6000610f396529a2a62622a960d11b83610dc9565b80156105bb575042610f51632aa9a2a960e11b6106ef565b6001600160a01b03166369c212f6846040518263ffffffff1660e01b8152600401610f7c9190611cef565b60006040518083038186803b158015610f9457600080fd5b505afa158015610fa8573d6000803e3d6000fd5b505050506040513d6000823e601f3d908101601f19168201604052610fd09190810190611a67565b608001511192915050565b6001600160a01b0381161580610ffb57506001546001600160a01b031633145b806110875750336001600160a01b0316306001600160a01b0316638da5cb5b6040518163ffffffff1660e01b815260040160206040518083038186803b15801561104457600080fd5b505afa158015611058573d6000803e3d6000fd5b505050506040513d601f19601f8201168201806040525081019061107c9190611764565b6001600160a01b0316145b6110a35760405162461bcd60e51b815260040161049d90611d8d565b600180546001600160a01b0319166001600160a01b0392909216919091179055565b6110cd611568565b604051630d0682c560e21b815260009073__$60257ade2e9256c87b7577fd1b418be579$__9063341a0b149061110b90600f90601190600401611eb7565b60806040518083038186803b15801561112357600080fd5b505af4158015611137573d6000803e3d6000fd5b505050506040513d601f19601f8201168201806040525081019061115b9190611a02565b604051639e9886b760e01b815273__$60257ade2e9256c87b7577fd1b418be579$__90639e9886b79061119390601290600401611d27565b60206040518083038186803b1580156111ab57600080fd5b505af41580156111bf573d6000803e3d6000fd5b505050506040513d601f19601f820116820180604052508101906111e39190611c28565b915091509091565b6d282927aa27a1a7a62fa0a226a4a760911b611209816103a661146f565b6112255760405162461bcd60e51b815260040161049d90611e2d565b60006112366211105560ea1b6106ef565b60025460405163095ea7b360e01b81529192506001600160a01b0385169163095ea7b39161126991859190600401611d03565b602060405180830381600087803b15801561128357600080fd5b505af1158015611297573d6000803e3d6000fd5b505050506040513d601f19601f820116820180604052508101906112bb9190611780565b50505050565b60025481565b6112cf611502565b60405163038d39c160e11b815273__$60257ade2e9256c87b7577fd1b418be579$__9063071a73829061056b906006906008908790600401611ee0565b611314611473565b6001600160a01b03811661133a5760405162461bcd60e51b815260040161049d90611d47565b611343816114b2565b50565b61134e611568565b60405163759b8c0160e01b815260009073__$60257ade2e9256c87b7577fd1b418be579$__9063759b8c019061138e90600f906011908890600401611ee0565b60806040518083038186803b1580156113a657600080fd5b505af41580156113ba573d6000803e3d6000fd5b505050506040513d601f19601f820116820180604052508101906113de9190611a02565b604051639e9886b760e01b815273__$60257ade2e9256c87b7577fd1b418be579$__90639e9886b79061141690601290600401611d27565b60206040518083038186803b15801561142e57600080fd5b505af4158015611442573d6000803e3d6000fd5b505050506040513d601f19601f820116820180604052508101906114669190611c28565b91509150915091565b3390565b61147b61146f565b6001600160a01b031661148c610d25565b6001600160a01b031614610b7f5760405162461bcd60e51b815260040161049d90611df8565b600080546001600160a01b038381166001600160a01b0319831681178455604051919092169283917f8be0079c531659141344cd1fd0a4f28419497f9722a3daafe3b4186f6b6457e09190a35050565b6040518060800160405280600081526020016000815260200160008152602001600060ff1681525090565b60405180606001604052806000815260200160008152602001600081525090565b604051806040016040528060008152602001600081525090565b6040518060800160405280600081526020016000815260200160008152602001600081525090565b80516105be81611f87565b600082601f8301126115ab578081fd5b8151602067ffffffffffffffff8211156115c7576115c7611f71565b8082026115d5828201611f47565b8381528281019086840183880185018910156115ef578687fd5b8693505b858410156116115780518352600193909301929184019184016115f3565b50979650505050505050565b600082601f83011261162d578081fd5b815167ffffffffffffffff81111561164757611647611f71565b602061165b601f8301601f19168201611f47565b828152858284870101111561166e578384fd5b835b8381101561168b578581018301518282018401528201611670565b8381111561169b57848385840101525b5095945050505050565b6000604082840312156116b6578081fd5b6040516040810181811067ffffffffffffffff821117156116d9576116d9611f71565b604052823581526020928301359281019290925250919050565b600060408284031215611704578081fd5b6040516040810181811067ffffffffffffffff8211171561172757611727611f71565b604052825181526020928301519281019290925250919050565b600060208284031215611752578081fd5b813561175d81611f87565b9392505050565b600060208284031215611775578081fd5b815161175d81611f87565b600060208284031215611791578081fd5b8151801515811461175d578182fd5b6000602082840312156117b1578081fd5b5035919050565b600080604083850312156117ca578081fd5b8235915060208301356117dc81611f87565b809150509250929050565b6000604082840312156117f8578081fd5b61175d83836116a5565b600060408284031215611813578081fd5b61175d83836116f3565b60006060828403121561182e578081fd5b6040516060810181811067ffffffffffffffff8211171561185157611851611f71565b80604052508235815260208301356020820152604083013560408201528091505092915050565b600060608284031215611889578081fd5b6040516060810181811067ffffffffffffffff821117156118ac576118ac611f71565b80604052508251815260208301516020820152604083015160408201528091505092915050565b6000608082840312156118e4578081fd5b6040516080810181811067ffffffffffffffff8211171561190757611907611f71565b8060405250823581526020830135602082015260408301356040820152606083013561193281611f9c565b60608201529392505050565b60006080828403121561194f578081fd5b6040516080810181811067ffffffffffffffff8211171561197257611972611f71565b8060405250825181526020830151602082015260408301516040820152606083015161193281611f9c565b6000608082840312156119ae578081fd5b6040516080810181811067ffffffffffffffff821117156119d1576119d1611f71565b8060405250823581526020830135602082015260408301356040820152606083013560608201528091505092915050565b600060808284031215611a13578081fd5b6040516080810181811067ffffffffffffffff82111715611a3657611a36611f71565b8060405250825181526020830151602082015260408301516040820152606083015160608201528091505092915050565b600060208284031215611a78578081fd5b815167ffffffffffffffff80821115611a8f578283fd5b81840191506101e0808387031215611aa5578384fd5b611aae81611f47565b9050825182811115611abe578485fd5b611aca8782860161161d565b8252506020830151602082015260408301516040820152606083015160608201526080830151608082015260a083015160a082015260c083015160c0820152611b1560e08401611590565b60e08201526101008084015183811115611b2d578586fd5b611b398882870161159b565b8284015250506101208084015183811115611b52578586fd5b611b5e8882870161159b565b8284015250506101408084015183811115611b77578586fd5b611b838882870161159b565b8284015250506101608084015183811115611b9c578586fd5b611ba88882870161159b565b8284015250506101808084015183811115611bc1578586fd5b611bcd8882870161159b565b8284015250506101a08084015183811115611be6578586fd5b611bf28882870161159b565b8284015250506101c08084015183811115611c0b578586fd5b611c178882870161159b565b918301919091525095945050505050565b600060208284031215611c39578081fd5b5051919050565b600080600060608486031215611c54578081fd5b83359250602084013591506040840135611c6d81611f87565b809150509250925092565b80518252602090810151910152565b8051825260208082015190830152604090810151910152565b80518252602081015160208301526040810151604083015260ff60608201511660608301525050565b805182526020810151602083015260408101516040830152606081015160608301525050565b6001600160a01b0391909116815260200190565b6001600160a01b03929092168252602082015260400190565b901515815260200190565b90815260200190565b9182526001600160a01b0316602082015260400190565b60208082526026908201527f4f776e61626c653a206e6577206f776e657220697320746865207a65726f206160408201526564647265737360d01b606082015260800190565b60208082526045908201527f43616e206f6e6c792062652063616c6c6564206966206164647265737365735060408201527f726f766964657220697320656d7074792c206d73672e73656e646572206f722060608201526437bbb732b960d91b608082015260a00190565b6020808252818101527f4f776e61626c653a2063616c6c6572206973206e6f7420746865206f776e6572604082015260600190565b6020808252601c908201527f5265717569726573206d73672e73656e6465722068617320726f6c6500000000604082015260600190565b60408101610e648284611c78565b60608101610e648284611c87565b60808101610e648284611ca0565b60808101610e648284611cc9565b60a08101611eaa8285611cc9565b8260808301529392505050565b918252602082015260400190565b83815260208101839052608081016106d86040830184611c78565b9283526020830191909152604082015260600190565b8381526020810183905260a081016106d86040830184611c87565b8381526020810183905260c081016106d86040830184611ca0565b8381526020810183905260c081016106d86040830184611cc9565b60405181810167ffffffffffffffff81118282101715611f6957611f69611f71565b604052919050565b634e487b7160e01b600052604160045260246000fd5b6001600160a01b038116811461134357600080fd5b60ff8116811461134357600080fdfea2646970667358221220ee85e6d99c09f6e929d9cfb5cdabef0cda57e22cf0e26c0508d6565a89b795a964736f6c63430008000033",
    "libraries": {
        "ParamsLogic": "0x1A1FEe7EeD918BD762173e4dc5EfDB8a78C924A8"
    },
    "devdoc": {
        "author": "Blockswan",
        "kind": "dev",
        "methods": {
            "ADDRESSES_PROVIDER()": {
                "returns": {
                    "_0": "The address of the AddressProvider"
                }
            },
            "fetchContract(bytes32)": {
                "params": {
                    "_name": "the bytes32 name of the contract"
                }
            },
            "getBuyerEntryParams()": {
                "returns": {
                    "_0": "parameters The paramaters  when accessing the role status"
                }
            },
            "getDelayTimestamp()": {
                "returns": {
                    "_0": "parameters The delay timestamp parametes"
                }
            },
            "getGigCreationParams()": {
                "returns": {
                    "_0": "parameters The parameters when creating a gig"
                }
            },
            "getOrderCreationParams()": {
                "returns": {
                    "_0": "parameters The parameters when creating an order.",
                    "_1": "sellerFeesParamsVersion The latest fee structur version that will be applied to the seller upon order completion."
                }
            },
            "getRetributionParams()": {
                "returns": {
                    "_0": "retributions The retribution percentage values of the protocol."
                }
            },
            "getSellerEntryParams()": {
                "returns": {
                    "_0": "parameters The paramaters  when accessing the role status"
                }
            },
            "owner()": {
                "details": "Returns the address of the current owner."
            },
            "renounceOwnership()": {
                "details": "Leaves the contract without owner. It will not be possible to call `onlyOwner` functions anymore. Can only be called by the current owner. NOTE: Renouncing ownership will leave the contract without an owner, thereby removing any functionality that is only available to the owner."
            },
            "setProvider(address)": {
                "params": {
                    "_providerAddress": "The address of the AddressProvider"
                }
            },
            "transferOwnership(address)": {
                "details": "Transfers ownership of the contract to a new account (`newOwner`). Can only be called by the current owner."
            },
            "updateBuyerEntryParams((uint256,uint256,uint256,uint8))": {
                "params": {
                    "newParams": "The new buyer entry paramaters"
                }
            },
            "updateDelayTimestamp((uint256,uint256,uint256))": {
                "params": {
                    "newParams": "The new order creation paramaters"
                }
            },
            "updateGigCreationParams((uint256,uint256))": {
                "params": {
                    "newParams": "The new gig creation paramaters"
                }
            },
            "updateOrderCreationParams((uint256,uint256,uint256,uint256))": {
                "params": {
                    "newParams": "The new order creation paramaters"
                }
            },
            "updateRetributionParams((uint256,uint256))": {
                "params": {
                    "newParams": "The new retribution paramaters"
                }
            },
            "updateSellerEntryParams((uint256,uint256,uint256,uint8))": {
                "params": {
                    "newParams": "The new buyer entry paramaters"
                }
            }
        },
        "title": "Protocol Configurator",
        "version": 1
    },
    "userdoc": {
        "kind": "user",
        "methods": {
            "ADDRESSES_PROVIDER()": {
                "notice": "Returns the contract address of the IAddressProvider"
            },
            "fetchContract(bytes32)": {
                "notice": "fetch the contract address from the ADDRESSS_PROVIDERthrows error if address === 0"
            },
            "getBuyerEntryParams()": {
                "notice": "Retrieves the parameters when enterering the protocol as a buyer."
            },
            "getDelayTimestamp()": {
                "notice": "Retrieves the protocol delay timestamp."
            },
            "getGigCreationParams()": {
                "notice": "Retrieves the parameters when creating a gig."
            },
            "getOrderCreationParams()": {
                "notice": "Retrieves the parameters when creating an order."
            },
            "getRetributionParams()": {
                "notice": "Retrieves the retribution percentage values of the protocol."
            },
            "getSellerEntryParams()": {
                "notice": "Retrieves the parameters when enterering the protocol as a seller."
            },
            "kill()": {
                "notice": "kill the current address provider, only callable by the AddressProvider"
            },
            "setProvider(address)": {
                "notice": "set the provider address of the ProviderContract"
            },
            "updateBuyerEntryParams((uint256,uint256,uint256,uint8))": {
                "notice": "Update the  parameters when enterering the protocol as as buyer."
            },
            "updateDelayTimestamp((uint256,uint256,uint256))": {
                "notice": "Update the delays timestamp parameters of the protocol."
            },
            "updateGigCreationParams((uint256,uint256))": {
                "notice": "Update the gig creation parameters of the protocol."
            },
            "updateOrderCreationParams((uint256,uint256,uint256,uint256))": {
                "notice": "Update the order creation parameters of the protocol."
            },
            "updateRetributionParams((uint256,uint256))": {
                "notice": "Update the retributin  parameters of the protocol."
            },
            "updateSellerEntryParams((uint256,uint256,uint256,uint8))": {
                "notice": "Update the  parameters when enterering the protocol as as seller."
            }
        },
        "notice": "Contains all the protocol configuration*",
        "version": 1
    },
    "storageLayout": {
        "storage": [
            {
                "astId": 4101,
                "contract": "contracts/protocol/configuration/ProtocolConfigurator.sol:ProtocolConfigurator",
                "label": "_owner",
                "offset": 0,
                "slot": "0",
                "type": "t_address"
            },
            {
                "astId": 7100,
                "contract": "contracts/protocol/configuration/ProtocolConfigurator.sol:ProtocolConfigurator",
                "label": "ADDRESS_PROVIDER",
                "offset": 0,
                "slot": "1",
                "type": "t_contract(IAddressProvider)4606"
            },
            {
                "astId": 7107,
                "contract": "contracts/protocol/configuration/ProtocolConfigurator.sol:ProtocolConfigurator",
                "label": "MAX_UINT",
                "offset": 0,
                "slot": "2",
                "type": "t_uint256"
            },
            {
                "astId": 6656,
                "contract": "contracts/protocol/configuration/ProtocolConfigurator.sol:ProtocolConfigurator",
                "label": "_buyerEntryParamsVersions",
                "offset": 0,
                "slot": "3",
                "type": "t_struct(UintSet)2884_storage"
            },
            {
                "astId": 6661,
                "contract": "contracts/protocol/configuration/ProtocolConfigurator.sol:ProtocolConfigurator",
                "label": "_buyerEntryParamsHistory",
                "offset": 0,
                "slot": "5",
                "type": "t_mapping(t_uint256,t_struct(EntryParams)10915_storage)"
            },
            {
                "astId": 6664,
                "contract": "contracts/protocol/configuration/ProtocolConfigurator.sol:ProtocolConfigurator",
                "label": "_sellerEntryParamsVersions",
                "offset": 0,
                "slot": "6",
                "type": "t_struct(UintSet)2884_storage"
            },
            {
                "astId": 6669,
                "contract": "contracts/protocol/configuration/ProtocolConfigurator.sol:ProtocolConfigurator",
                "label": "_sellerEntryParamsHistory",
                "offset": 0,
                "slot": "8",
                "type": "t_mapping(t_uint256,t_struct(EntryParams)10915_storage)"
            },
            {
                "astId": 6672,
                "contract": "contracts/protocol/configuration/ProtocolConfigurator.sol:ProtocolConfigurator",
                "label": "_retributionParamsVersions",
                "offset": 0,
                "slot": "9",
                "type": "t_struct(UintSet)2884_storage"
            },
            {
                "astId": 6677,
                "contract": "contracts/protocol/configuration/ProtocolConfigurator.sol:ProtocolConfigurator",
                "label": "_retributionParamsHistory",
                "offset": 0,
                "slot": "11",
                "type": "t_mapping(t_uint256,t_struct(RetributionParams)10934_storage)"
            },
            {
                "astId": 6680,
                "contract": "contracts/protocol/configuration/ProtocolConfigurator.sol:ProtocolConfigurator",
                "label": "_gigCreationParamsVersions",
                "offset": 0,
                "slot": "12",
                "type": "t_struct(UintSet)2884_storage"
            },
            {
                "astId": 6685,
                "contract": "contracts/protocol/configuration/ProtocolConfigurator.sol:ProtocolConfigurator",
                "label": "_gigCreationParamsHistory",
                "offset": 0,
                "slot": "14",
                "type": "t_mapping(t_uint256,t_struct(CreationParams)10920_storage)"
            },
            {
                "astId": 6688,
                "contract": "contracts/protocol/configuration/ProtocolConfigurator.sol:ProtocolConfigurator",
                "label": "_orderCreationParamsVersions",
                "offset": 0,
                "slot": "15",
                "type": "t_struct(UintSet)2884_storage"
            },
            {
                "astId": 6693,
                "contract": "contracts/protocol/configuration/ProtocolConfigurator.sol:ProtocolConfigurator",
                "label": "_orderCreationParamsHistory",
                "offset": 0,
                "slot": "17",
                "type": "t_mapping(t_uint256,t_struct(OrderPriceParams)10929_storage)"
            },
            {
                "astId": 6696,
                "contract": "contracts/protocol/configuration/ProtocolConfigurator.sol:ProtocolConfigurator",
                "label": "_sellerOrderFeesParamsVersions",
                "offset": 0,
                "slot": "18",
                "type": "t_struct(UintSet)2884_storage"
            },
            {
                "astId": 6701,
                "contract": "contracts/protocol/configuration/ProtocolConfigurator.sol:ProtocolConfigurator",
                "label": "_sellerOrderFeesParamsHistory",
                "offset": 0,
                "slot": "20",
                "type": "t_mapping(t_uint256,t_struct(OrderPriceParams)10929_storage)"
            },
            {
                "astId": 6704,
                "contract": "contracts/protocol/configuration/ProtocolConfigurator.sol:ProtocolConfigurator",
                "label": "_delayTimestampVersions",
                "offset": 0,
                "slot": "21",
                "type": "t_struct(UintSet)2884_storage"
            },
            {
                "astId": 6709,
                "contract": "contracts/protocol/configuration/ProtocolConfigurator.sol:ProtocolConfigurator",
                "label": "_delayTimestampHistory",
                "offset": 0,
                "slot": "23",
                "type": "t_mapping(t_uint256,t_struct(DelayTimestamp)10802_storage)"
            }
        ],
        "types": {
            "t_address": {
                "encoding": "inplace",
                "label": "address",
                "numberOfBytes": "20"
            },
            "t_array(t_bytes32)dyn_storage": {
                "base": "t_bytes32",
                "encoding": "dynamic_array",
                "label": "bytes32[]",
                "numberOfBytes": "32"
            },
            "t_bytes32": {
                "encoding": "inplace",
                "label": "bytes32",
                "numberOfBytes": "32"
            },
            "t_contract(IAddressProvider)4606": {
                "encoding": "inplace",
                "label": "contract IAddressProvider",
                "numberOfBytes": "20"
            },
            "t_mapping(t_bytes32,t_uint256)": {
                "encoding": "mapping",
                "key": "t_bytes32",
                "label": "mapping(bytes32 => uint256)",
                "numberOfBytes": "32",
                "value": "t_uint256"
            },
            "t_mapping(t_uint256,t_struct(CreationParams)10920_storage)": {
                "encoding": "mapping",
                "key": "t_uint256",
                "label": "mapping(uint256 => struct DataTypes.CreationParams)",
                "numberOfBytes": "32",
                "value": "t_struct(CreationParams)10920_storage"
            },
            "t_mapping(t_uint256,t_struct(DelayTimestamp)10802_storage)": {
                "encoding": "mapping",
                "key": "t_uint256",
                "label": "mapping(uint256 => struct DataTypes.DelayTimestamp)",
                "numberOfBytes": "32",
                "value": "t_struct(DelayTimestamp)10802_storage"
            },
            "t_mapping(t_uint256,t_struct(EntryParams)10915_storage)": {
                "encoding": "mapping",
                "key": "t_uint256",
                "label": "mapping(uint256 => struct DataTypes.EntryParams)",
                "numberOfBytes": "32",
                "value": "t_struct(EntryParams)10915_storage"
            },
            "t_mapping(t_uint256,t_struct(OrderPriceParams)10929_storage)": {
                "encoding": "mapping",
                "key": "t_uint256",
                "label": "mapping(uint256 => struct DataTypes.OrderPriceParams)",
                "numberOfBytes": "32",
                "value": "t_struct(OrderPriceParams)10929_storage"
            },
            "t_mapping(t_uint256,t_struct(RetributionParams)10934_storage)": {
                "encoding": "mapping",
                "key": "t_uint256",
                "label": "mapping(uint256 => struct DataTypes.RetributionParams)",
                "numberOfBytes": "32",
                "value": "t_struct(RetributionParams)10934_storage"
            },
            "t_struct(CreationParams)10920_storage": {
                "encoding": "inplace",
                "label": "struct DataTypes.CreationParams",
                "members": [
                    {
                        "astId": 10917,
                        "contract": "contracts/protocol/configuration/ProtocolConfigurator.sol:ProtocolConfigurator",
                        "label": "currencyValue",
                        "offset": 0,
                        "slot": "0",
                        "type": "t_uint256"
                    },
                    {
                        "astId": 10919,
                        "contract": "contracts/protocol/configuration/ProtocolConfigurator.sol:ProtocolConfigurator",
                        "label": "xpEarned",
                        "offset": 0,
                        "slot": "1",
                        "type": "t_uint256"
                    }
                ],
                "numberOfBytes": "64"
            },
            "t_struct(DelayTimestamp)10802_storage": {
                "encoding": "inplace",
                "label": "struct DataTypes.DelayTimestamp",
                "members": [
                    {
                        "astId": 10797,
                        "contract": "contracts/protocol/configuration/ProtocolConfigurator.sol:ProtocolConfigurator",
                        "label": "selfRefund",
                        "offset": 0,
                        "slot": "0",
                        "type": "t_uint256"
                    },
                    {
                        "astId": 10799,
                        "contract": "contracts/protocol/configuration/ProtocolConfigurator.sol:ProtocolConfigurator",
                        "label": "closeTrial",
                        "offset": 0,
                        "slot": "1",
                        "type": "t_uint256"
                    },
                    {
                        "astId": 10801,
                        "contract": "contracts/protocol/configuration/ProtocolConfigurator.sol:ProtocolConfigurator",
                        "label": "endTrial",
                        "offset": 0,
                        "slot": "2",
                        "type": "t_uint256"
                    }
                ],
                "numberOfBytes": "96"
            },
            "t_struct(EntryParams)10915_storage": {
                "encoding": "inplace",
                "label": "struct DataTypes.EntryParams",
                "members": [
                    {
                        "astId": 10908,
                        "contract": "contracts/protocol/configuration/ProtocolConfigurator.sol:ProtocolConfigurator",
                        "label": "currencyValue",
                        "offset": 0,
                        "slot": "0",
                        "type": "t_uint256"
                    },
                    {
                        "astId": 10910,
                        "contract": "contracts/protocol/configuration/ProtocolConfigurator.sol:ProtocolConfigurator",
                        "label": "timeAdded",
                        "offset": 0,
                        "slot": "1",
                        "type": "t_uint256"
                    },
                    {
                        "astId": 10912,
                        "contract": "contracts/protocol/configuration/ProtocolConfigurator.sol:ProtocolConfigurator",
                        "label": "xpEarned",
                        "offset": 0,
                        "slot": "2",
                        "type": "t_uint256"
                    },
                    {
                        "astId": 10914,
                        "contract": "contracts/protocol/configuration/ProtocolConfigurator.sol:ProtocolConfigurator",
                        "label": "invitationEarned",
                        "offset": 0,
                        "slot": "3",
                        "type": "t_uint8"
                    }
                ],
                "numberOfBytes": "128"
            },
            "t_struct(OrderPriceParams)10929_storage": {
                "encoding": "inplace",
                "label": "struct DataTypes.OrderPriceParams",
                "members": [
                    {
                        "astId": 10922,
                        "contract": "contracts/protocol/configuration/ProtocolConfigurator.sol:ProtocolConfigurator",
                        "label": "trialFlat",
                        "offset": 0,
                        "slot": "0",
                        "type": "t_uint256"
                    },
                    {
                        "astId": 10924,
                        "contract": "contracts/protocol/configuration/ProtocolConfigurator.sol:ProtocolConfigurator",
                        "label": "trialPercent",
                        "offset": 0,
                        "slot": "1",
                        "type": "t_uint256"
                    },
                    {
                        "astId": 10926,
                        "contract": "contracts/protocol/configuration/ProtocolConfigurator.sol:ProtocolConfigurator",
                        "label": "proceedFlat",
                        "offset": 0,
                        "slot": "2",
                        "type": "t_uint256"
                    },
                    {
                        "astId": 10928,
                        "contract": "contracts/protocol/configuration/ProtocolConfigurator.sol:ProtocolConfigurator",
                        "label": "proceedPercent",
                        "offset": 0,
                        "slot": "3",
                        "type": "t_uint256"
                    }
                ],
                "numberOfBytes": "128"
            },
            "t_struct(RetributionParams)10934_storage": {
                "encoding": "inplace",
                "label": "struct DataTypes.RetributionParams",
                "members": [
                    {
                        "astId": 10931,
                        "contract": "contracts/protocol/configuration/ProtocolConfigurator.sol:ProtocolConfigurator",
                        "label": "affiliate",
                        "offset": 0,
                        "slot": "0",
                        "type": "t_uint256"
                    },
                    {
                        "astId": 10933,
                        "contract": "contracts/protocol/configuration/ProtocolConfigurator.sol:ProtocolConfigurator",
                        "label": "lvl0AffiliateShare",
                        "offset": 0,
                        "slot": "1",
                        "type": "t_uint256"
                    }
                ],
                "numberOfBytes": "64"
            },
            "t_struct(Set)2412_storage": {
                "encoding": "inplace",
                "label": "struct EnumerableSet.Set",
                "members": [
                    {
                        "astId": 2407,
                        "contract": "contracts/protocol/configuration/ProtocolConfigurator.sol:ProtocolConfigurator",
                        "label": "_values",
                        "offset": 0,
                        "slot": "0",
                        "type": "t_array(t_bytes32)dyn_storage"
                    },
                    {
                        "astId": 2411,
                        "contract": "contracts/protocol/configuration/ProtocolConfigurator.sol:ProtocolConfigurator",
                        "label": "_indexes",
                        "offset": 0,
                        "slot": "1",
                        "type": "t_mapping(t_bytes32,t_uint256)"
                    }
                ],
                "numberOfBytes": "64"
            },
            "t_struct(UintSet)2884_storage": {
                "encoding": "inplace",
                "label": "struct EnumerableSet.UintSet",
                "members": [
                    {
                        "astId": 2883,
                        "contract": "contracts/protocol/configuration/ProtocolConfigurator.sol:ProtocolConfigurator",
                        "label": "_inner",
                        "offset": 0,
                        "slot": "0",
                        "type": "t_struct(Set)2412_storage"
                    }
                ],
                "numberOfBytes": "64"
            },
            "t_uint256": {
                "encoding": "inplace",
                "label": "uint256",
                "numberOfBytes": "32"
            },
            "t_uint8": {
                "encoding": "inplace",
                "label": "uint8",
                "numberOfBytes": "1"
            }
        }
    }
}