{
  "address": "0x3619DbE27d7c1e7E91aA738697Ae7Bc5FC3eACA5",
  "abi": [
    {
      "inputs": [
        {
          "internalType": "address",
          "name": "owner",
          "type": "address"
        }
      ],
      "stateMutability": "nonpayable",
      "type": "constructor"
    },
    {
      "anonymous": false,
      "inputs": [
        {
          "indexed": true,
          "internalType": "address",
          "name": "addressProvider",
          "type": "address"
        },
        {
          "indexed": true,
          "internalType": "uint256",
          "name": "id",
          "type": "uint256"
        }
      ],
      "name": "AddressProviderRegistered",
      "type": "event"
    },
    {
      "anonymous": false,
      "inputs": [
        {
          "indexed": true,
          "internalType": "address",
          "name": "addressProvider",
          "type": "address"
        },
        {
          "indexed": true,
          "internalType": "uint256",
          "name": "id",
          "type": "uint256"
        }
      ],
      "name": "AddressProviderUnregistered",
      "type": "event"
    },
    {
      "anonymous": false,
      "inputs": [
        {
          "indexed": true,
          "internalType": "address",
          "name": "previousOwner",
          "type": "address"
        },
        {
          "indexed": true,
          "internalType": "address",
          "name": "newOwner",
          "type": "address"
        }
      ],
      "name": "OwnershipTransferred",
      "type": "event"
    },
    {
      "inputs": [
        {
          "internalType": "uint256",
          "name": "id",
          "type": "uint256"
        }
      ],
      "name": "getAddressProviderById",
      "outputs": [
        {
          "internalType": "address",
          "name": "",
          "type": "address"
        }
      ],
      "stateMutability": "view",
      "type": "function"
    },
    {
      "inputs": [
        {
          "internalType": "address",
          "name": "addresses_provider",
          "type": "address"
        }
      ],
      "name": "getAddressProviderIdByAddress",
      "outputs": [
        {
          "internalType": "uint256",
          "name": "",
          "type": "uint256"
        }
      ],
      "stateMutability": "view",
      "type": "function"
    },
    {
      "inputs": [],
      "name": "getAddressProvidersList",
      "outputs": [
        {
          "internalType": "address[]",
          "name": "",
          "type": "address[]"
        }
      ],
      "stateMutability": "view",
      "type": "function"
    },
    {
      "inputs": [],
      "name": "owner",
      "outputs": [
        {
          "internalType": "address",
          "name": "",
          "type": "address"
        }
      ],
      "stateMutability": "view",
      "type": "function"
    },
    {
      "inputs": [
        {
          "internalType": "address",
          "name": "provider",
          "type": "address"
        },
        {
          "internalType": "uint256",
          "name": "id",
          "type": "uint256"
        }
      ],
      "name": "registerAddressProvider",
      "outputs": [],
      "stateMutability": "nonpayable",
      "type": "function"
    },
    {
      "inputs": [],
      "name": "renounceOwnership",
      "outputs": [],
      "stateMutability": "nonpayable",
      "type": "function"
    },
    {
      "inputs": [
        {
          "internalType": "address",
          "name": "newOwner",
          "type": "address"
        }
      ],
      "name": "transferOwnership",
      "outputs": [],
      "stateMutability": "nonpayable",
      "type": "function"
    },
    {
      "inputs": [
        {
          "internalType": "address",
          "name": "provider",
          "type": "address"
        }
      ],
      "name": "unregisterAddressProvider",
      "outputs": [],
      "stateMutability": "nonpayable",
      "type": "function"
    }
  ],
  "transactionHash": "0xff56ce4b8645dab99d3c0f87e052ec9912db223b93f4bdb55c44d56a925f893b",
  "args": [
    "0xc783df8a850f42e7F7e57013759C285caa701eB6"
  ],
  "numDeployments": 1,
  "solcInputHash": "11b40aac2c6ba2dcd5f594f6e6f90e03",
  "bytecode": "0x608060405234801561001057600080fd5b50604051610a79380380610a7983398101604081905261002f91610135565b61003f61003a61004e565b610052565b610048816100a2565b506101de565b3390565b600080546001600160a01b038381166001600160a01b0319831681178455604051919092169283917f8be0079c531659141344cd1fd0a4f28419497f9722a3daafe3b4186f6b6457e09190a35050565b6100aa6100e5565b6001600160a01b0381166100d95760405162461bcd60e51b81526004016100d090610163565b60405180910390fd5b6100e281610052565b50565b6100ed61004e565b6001600160a01b03166100fe610126565b6001600160a01b0316146101245760405162461bcd60e51b81526004016100d0906101a9565b565b6000546001600160a01b031690565b600060208284031215610146578081fd5b81516001600160a01b038116811461015c578182fd5b9392505050565b60208082526026908201527f4f776e61626c653a206e6577206f776e657220697320746865207a65726f206160408201526564647265737360d01b606082015260800190565b6020808252818101527f4f776e61626c653a2063616c6c6572206973206e6f7420746865206f776e6572604082015260600190565b61088c806101ed6000396000f3fe608060405234801561001057600080fd5b50600436106100885760003560e01c8063c4ea1e0d1161005b578063c4ea1e0d146100db578063d1bb2da1146100f0578063f2e596b014610110578063f2fde38b1461012357610088565b8063389140b81461008d578063715018a6146100a25780638da5cb5b146100aa5780639219d4f5146100c8575b600080fd5b6100a061009b366004610699565b610136565b005b6100a061021a565b6100b261022e565b6040516100bf91906106fb565b60405180910390f35b6100a06100d63660046106ba565b61023d565b6100e361039f565b6040516100bf919061070f565b6101036100fe366004610699565b610401565b6040516100bf919061082a565b6100b261011e3660046106e3565b610420565b6100a0610131366004610699565b61043b565b61013e610475565b6001600160a01b03811660009081526002602090815260409182902054825180840190935260018352603360f81b918301919091526101995760405162461bcd60e51b8152600401610190919061075c565b60405180910390fd5b506001600160a01b038116600081815260026020818152604080842080548086526003845291852080546001600160a01b031916905594845291905291556101e0826104b4565b60405181906001600160a01b038416907f3e06e57ffab5d06682097dfd2c8e17f93d2bbc7402a5c2f707aed83bac07524b90600090a35050565b610222610475565b61022c60006105ce565b565b6000546001600160a01b031690565b610245610475565b6040805180820190915260018152603160f81b60208201528161027b5760405162461bcd60e51b8152600401610190919061075c565b5060008181526003602090815260409182902054825180840190935260018352603160f81b918301919091526001600160a01b0316156102ce5760405162461bcd60e51b8152600401610190919061075c565b506001600160a01b03821660009081526002602090815260409182902054825180840190935260018352601960f91b91830191909152156103225760405162461bcd60e51b8152600401610190919061075c565b506001600160a01b03821660008181526002602090815260408083208590558483526003909152902080546001600160a01b03191690911790556103658261061e565b60405181906001600160a01b038416907fa02a24d3ac97788fe126a9444ac70c0ec7f66c5021cec9f2c9d5682b142904cc90600090a35050565b606060018054806020026020016040519081016040528092919081815260200182805480156103f757602002820191906000526020600020905b81546001600160a01b031681526001909101906020018083116103d9575b5050505050905090565b6001600160a01b0381166000908152600260205260409020545b919050565b6000908152600360205260409020546001600160a01b031690565b610443610475565b6001600160a01b0381166104695760405162461bcd60e51b8152600401610190906107af565b610472816105ce565b50565b61047d61067e565b6001600160a01b031661048e61022e565b6001600160a01b03161461022c5760405162461bcd60e51b8152600401610190906107f5565b6001600160a01b0381166000908152600460205260408120805490829055600180549192916104e39190610833565b9050808210156105885760006001828154811061051057634e487b7160e01b600052603260045260246000fd5b600091825260209091200154600180546001600160a01b03909216925082918590811061054d57634e487b7160e01b600052603260045260246000fd5b600091825260208083209190910180546001600160a01b0319166001600160a01b039485161790559290911681526004909152604090208290555b60018054806105a757634e487b7160e01b600052603160045260246000fd5b600082815260209020810160001990810180546001600160a01b0319169055019055505050565b600080546001600160a01b038381166001600160a01b0319831681178455604051919092169283917f8be0079c531659141344cd1fd0a4f28419497f9722a3daafe3b4186f6b6457e09190a35050565b600180546001600160a01b0390921660008181526004602052604081208490558383018355919091527fb10e2d527612073b26eecdfd717e6a320cf44b4afac2b0732d9fcbe2b7fa0cf690910180546001600160a01b0319169091179055565b3390565b80356001600160a01b038116811461041b57600080fd5b6000602082840312156106aa578081fd5b6106b382610682565b9392505050565b600080604083850312156106cc578081fd5b6106d583610682565b946020939093013593505050565b6000602082840312156106f4578081fd5b5035919050565b6001600160a01b0391909116815260200190565b6020808252825182820181905260009190848201906040850190845b818110156107505783516001600160a01b03168352928401929184019160010161072b565b50909695505050505050565b6000602080835283518082850152825b818110156107885785810183015185820160400152820161076c565b818111156107995783604083870101525b50601f01601f1916929092016040019392505050565b60208082526026908201527f4f776e61626c653a206e6577206f776e657220697320746865207a65726f206160408201526564647265737360d01b606082015260800190565b6020808252818101527f4f776e61626c653a2063616c6c6572206973206e6f7420746865206f776e6572604082015260600190565b90815260200190565b60008282101561085157634e487b7160e01b81526011600452602481fd5b50039056fea26469706673582212200bddeda4cfc030907b1964a87556efd059e178922da4ac24fc32e0db073e4a0264736f6c63430008000033",
  "devdoc": {
    "author": "Blockswan",
    "details": "Used for indexing purposes of Blockswan protocol's marketplaces. The id assigned to an AddressesProvider refers to the market it is connected with, for example with `1` for the Blockswan main market and `2` for the next created.*",
    "kind": "dev",
    "methods": {
      "constructor": {
        "details": "Constructor.",
        "params": {
          "owner": "The owner address of this contract."
        }
      },
      "getAddressProviderById(uint256)": {
        "params": {
          "id": "The id of the marketplace"
        },
        "returns": {
          "_0": "The address of the AddressProvider with the given id or zero address if it is not registered"
        }
      },
      "getAddressProviderIdByAddress(address)": {
        "params": {
          "addressProvider": "The address of the AddressProvider"
        },
        "returns": {
          "_0": "The id of the AddressProvider or 0 if is not registered"
        }
      },
      "getAddressProvidersList()": {
        "returns": {
          "_0": "The list of addresses providers*"
        }
      },
      "owner()": {
        "details": "Returns the address of the current owner."
      },
      "registerAddressProvider(address,uint256)": {
        "details": "The protocol AddressesProvider must not already be registered in the registryThe id must not be used by an already registered protocol AddressesProvider",
        "params": {
          "id": "The id for the new AddressesProvider, referring to the marketplace it belongs to*",
          "provider": "The address of the new protocol AddressesProvider"
        }
      },
      "renounceOwnership()": {
        "details": "Leaves the contract without owner. It will not be possible to call `onlyOwner` functions anymore. Can only be called by the current owner. NOTE: Renouncing ownership will leave the contract without an owner, thereby removing any functionality that is only available to the owner."
      },
      "transferOwnership(address)": {
        "details": "Transfers ownership of the contract to a new account (`newOwner`). Can only be called by the current owner."
      },
      "unregisterAddressProvider(address)": {
        "params": {
          "provider": "The protocol AddressesProvider address*"
        }
      }
    },
    "title": "Provider Registry",
    "version": 1
  },
  "userdoc": {
    "kind": "user",
    "methods": {
      "getAddressProviderById(uint256)": {
        "notice": "Returns the address of a registered AddressProvider"
      },
      "getAddressProviderIdByAddress(address)": {
        "notice": "Returns the id of a registered AddressProvider"
      },
      "getAddressProvidersList()": {
        "notice": "Returns the list of registered addresses providers"
      },
      "registerAddressProvider(address,uint256)": {
        "notice": "Registers an addresses provider"
      },
      "unregisterAddressProvider(address)": {
        "notice": "Removes an addresses provider from the list of registered addresses providers"
      }
    },
    "notice": "Main registry of Addresses_provider of Blockswan marketplaces.",
    "version": 1
  },
  "storageLayout": {
    "storage": [
      {
        "astId": 4101,
        "contract": "contracts/protocol/configuration/ProviderRegistry.sol:ProviderRegistry",
        "label": "_owner",
        "offset": 0,
        "slot": "0",
        "type": "t_address"
      },
      {
        "astId": 7576,
        "contract": "contracts/protocol/configuration/ProviderRegistry.sol:ProviderRegistry",
        "label": "_addressProvidersList",
        "offset": 0,
        "slot": "1",
        "type": "t_array(t_address)dyn_storage"
      },
      {
        "astId": 7580,
        "contract": "contracts/protocol/configuration/ProviderRegistry.sol:ProviderRegistry",
        "label": "_addressProviderToId",
        "offset": 0,
        "slot": "2",
        "type": "t_mapping(t_address,t_uint256)"
      },
      {
        "astId": 7584,
        "contract": "contracts/protocol/configuration/ProviderRegistry.sol:ProviderRegistry",
        "label": "_idToAddressProvider",
        "offset": 0,
        "slot": "3",
        "type": "t_mapping(t_uint256,t_address)"
      },
      {
        "astId": 7588,
        "contract": "contracts/protocol/configuration/ProviderRegistry.sol:ProviderRegistry",
        "label": "_addressProvidersIndexes",
        "offset": 0,
        "slot": "4",
        "type": "t_mapping(t_address,t_uint256)"
      }
    ],
    "types": {
      "t_address": {
        "encoding": "inplace",
        "label": "address",
        "numberOfBytes": "20"
      },
      "t_array(t_address)dyn_storage": {
        "base": "t_address",
        "encoding": "dynamic_array",
        "label": "address[]",
        "numberOfBytes": "32"
      },
      "t_mapping(t_address,t_uint256)": {
        "encoding": "mapping",
        "key": "t_address",
        "label": "mapping(address => uint256)",
        "numberOfBytes": "32",
        "value": "t_uint256"
      },
      "t_mapping(t_uint256,t_address)": {
        "encoding": "mapping",
        "key": "t_uint256",
        "label": "mapping(uint256 => address)",
        "numberOfBytes": "32",
        "value": "t_address"
      },
      "t_uint256": {
        "encoding": "inplace",
        "label": "uint256",
        "numberOfBytes": "32"
      }
    }
  }
}