{
    "address": "0x5F6CaC05CDF893f029b29F44d368eAeD40e573B6",
    "abi": [
        {
            "inputs": [
                {
                    "internalType": "contract IAddressProvider",
                    "name": "provider",
                    "type": "address"
                }
            ],
            "stateMutability": "nonpayable",
            "type": "constructor"
        },
        {
            "anonymous": false,
            "inputs": [
                {
                    "indexed": true,
                    "internalType": "address",
                    "name": "previousOwner",
                    "type": "address"
                },
                {
                    "indexed": true,
                    "internalType": "address",
                    "name": "newOwner",
                    "type": "address"
                }
            ],
            "name": "OwnershipTransferred",
            "type": "event"
        },
        {
            "anonymous": false,
            "inputs": [
                {
                    "indexed": true,
                    "internalType": "uint256",
                    "name": "userId",
                    "type": "uint256"
                },
                {
                    "indexed": true,
                    "internalType": "address",
                    "name": "userAddress",
                    "type": "address"
                },
                {
                    "components": [
                        {
                            "internalType": "uint256",
                            "name": "newId",
                            "type": "uint256"
                        },
                        {
                            "internalType": "string",
                            "name": "metadata",
                            "type": "string"
                        },
                        {
                            "internalType": "uint256",
                            "name": "inviterId",
                            "type": "uint256"
                        },
                        {
                            "internalType": "address",
                            "name": "wallet",
                            "type": "address"
                        }
                    ],
                    "indexed": false,
                    "internalType": "struct InputTypes.CreateUserInput",
                    "name": "userData",
                    "type": "tuple"
                }
            ],
            "name": "UserAdded",
            "type": "event"
        },
        {
            "anonymous": false,
            "inputs": [
                {
                    "indexed": true,
                    "internalType": "uint256",
                    "name": "userId",
                    "type": "uint256"
                },
                {
                    "indexed": true,
                    "internalType": "address",
                    "name": "userAddress",
                    "type": "address"
                },
                {
                    "components": [
                        {
                            "internalType": "string",
                            "name": "metadata",
                            "type": "string"
                        },
                        {
                            "internalType": "uint256",
                            "name": "inviterId",
                            "type": "uint256"
                        },
                        {
                            "internalType": "uint256",
                            "name": "buyerUntil",
                            "type": "uint256"
                        },
                        {
                            "internalType": "uint256",
                            "name": "buyerInvites",
                            "type": "uint256"
                        },
                        {
                            "internalType": "uint256",
                            "name": "sellerUntil",
                            "type": "uint256"
                        },
                        {
                            "internalType": "uint256",
                            "name": "sellerInvites",
                            "type": "uint256"
                        },
                        {
                            "internalType": "uint256",
                            "name": "userId",
                            "type": "uint256"
                        },
                        {
                            "internalType": "address",
                            "name": "wallet",
                            "type": "address"
                        },
                        {
                            "internalType": "uint256[]",
                            "name": "gigIds",
                            "type": "uint256[]"
                        },
                        {
                            "internalType": "uint256[]",
                            "name": "offerIds",
                            "type": "uint256[]"
                        },
                        {
                            "internalType": "uint256[]",
                            "name": "bidIds",
                            "type": "uint256[]"
                        },
                        {
                            "internalType": "uint256[]",
                            "name": "buyerOrderIds",
                            "type": "uint256[]"
                        },
                        {
                            "internalType": "uint256[]",
                            "name": "gigReviewsIds",
                            "type": "uint256[]"
                        },
                        {
                            "internalType": "uint256[]",
                            "name": "userReviewsIds",
                            "type": "uint256[]"
                        },
                        {
                            "internalType": "uint256[]",
                            "name": "reviewsIds",
                            "type": "uint256[]"
                        }
                    ],
                    "indexed": false,
                    "internalType": "struct OutputTypes.UserOutput",
                    "name": "userData",
                    "type": "tuple"
                }
            ],
            "name": "UserEdited",
            "type": "event"
        },
        {
            "inputs": [],
            "name": "ADDRESSES_PROVIDER",
            "outputs": [
                {
                    "internalType": "contract IAddressProvider",
                    "name": "",
                    "type": "address"
                }
            ],
            "stateMutability": "view",
            "type": "function"
        },
        {
            "inputs": [],
            "name": "ADDRESS_PROVIDER",
            "outputs": [
                {
                    "internalType": "contract IAddressProvider",
                    "name": "",
                    "type": "address"
                }
            ],
            "stateMutability": "view",
            "type": "function"
        },
        {
            "inputs": [],
            "name": "MAX_UINT",
            "outputs": [
                {
                    "internalType": "uint256",
                    "name": "",
                    "type": "uint256"
                }
            ],
            "stateMutability": "view",
            "type": "function"
        },
        {
            "inputs": [
                {
                    "internalType": "address",
                    "name": "erc20",
                    "type": "address"
                }
            ],
            "name": "approve",
            "outputs": [],
            "stateMutability": "nonpayable",
            "type": "function"
        },
        {
            "inputs": [],
            "name": "becomeBuyer",
            "outputs": [],
            "stateMutability": "nonpayable",
            "type": "function"
        },
        {
            "inputs": [],
            "name": "becomeSeller",
            "outputs": [],
            "stateMutability": "nonpayable",
            "type": "function"
        },
        {
            "inputs": [
                {
                    "internalType": "uint256",
                    "name": "buyerId",
                    "type": "uint256"
                },
                {
                    "internalType": "uint256",
                    "name": "newOrderId",
                    "type": "uint256"
                }
            ],
            "name": "createBuyerOrder",
            "outputs": [
                {
                    "internalType": "bool",
                    "name": "",
                    "type": "bool"
                }
            ],
            "stateMutability": "nonpayable",
            "type": "function"
        },
        {
            "inputs": [
                {
                    "internalType": "address",
                    "name": "caller",
                    "type": "address"
                },
                {
                    "internalType": "uint256",
                    "name": "newGigId",
                    "type": "uint256"
                }
            ],
            "name": "createGig",
            "outputs": [
                {
                    "internalType": "bool",
                    "name": "",
                    "type": "bool"
                }
            ],
            "stateMutability": "nonpayable",
            "type": "function"
        },
        {
            "inputs": [
                {
                    "internalType": "string",
                    "name": "metadata",
                    "type": "string"
                },
                {
                    "internalType": "uint256",
                    "name": "inviterId",
                    "type": "uint256"
                }
            ],
            "name": "createUser",
            "outputs": [],
            "stateMutability": "nonpayable",
            "type": "function"
        },
        {
            "inputs": [
                {
                    "internalType": "bytes32",
                    "name": "_name",
                    "type": "bytes32"
                }
            ],
            "name": "fetchContract",
            "outputs": [
                {
                    "internalType": "address",
                    "name": "",
                    "type": "address"
                }
            ],
            "stateMutability": "view",
            "type": "function"
        },
        {
            "inputs": [
                {
                    "internalType": "uint256",
                    "name": "userId",
                    "type": "uint256"
                }
            ],
            "name": "getAddressById",
            "outputs": [
                {
                    "internalType": "address",
                    "name": "",
                    "type": "address"
                }
            ],
            "stateMutability": "view",
            "type": "function"
        },
        {
            "inputs": [
                {
                    "internalType": "address",
                    "name": "account",
                    "type": "address"
                }
            ],
            "name": "getIdByAddress",
            "outputs": [
                {
                    "internalType": "uint256",
                    "name": "",
                    "type": "uint256"
                }
            ],
            "stateMutability": "view",
            "type": "function"
        },
        {
            "inputs": [
                {
                    "internalType": "uint256",
                    "name": "userId",
                    "type": "uint256"
                }
            ],
            "name": "getInvitersById",
            "outputs": [
                {
                    "internalType": "address",
                    "name": "",
                    "type": "address"
                },
                {
                    "internalType": "address",
                    "name": "",
                    "type": "address"
                }
            ],
            "stateMutability": "view",
            "type": "function"
        },
        {
            "inputs": [
                {
                    "internalType": "address",
                    "name": "account",
                    "type": "address"
                }
            ],
            "name": "getInvitersByUserAddress",
            "outputs": [
                {
                    "internalType": "address",
                    "name": "",
                    "type": "address"
                },
                {
                    "internalType": "address",
                    "name": "",
                    "type": "address"
                }
            ],
            "stateMutability": "view",
            "type": "function"
        },
        {
            "inputs": [
                {
                    "internalType": "address",
                    "name": "pubKey",
                    "type": "address"
                }
            ],
            "name": "getUserByAddress",
            "outputs": [
                {
                    "components": [
                        {
                            "internalType": "string",
                            "name": "metadata",
                            "type": "string"
                        },
                        {
                            "internalType": "uint256",
                            "name": "inviterId",
                            "type": "uint256"
                        },
                        {
                            "internalType": "uint256",
                            "name": "buyerUntil",
                            "type": "uint256"
                        },
                        {
                            "internalType": "uint256",
                            "name": "buyerInvites",
                            "type": "uint256"
                        },
                        {
                            "internalType": "uint256",
                            "name": "sellerUntil",
                            "type": "uint256"
                        },
                        {
                            "internalType": "uint256",
                            "name": "sellerInvites",
                            "type": "uint256"
                        },
                        {
                            "internalType": "uint256",
                            "name": "userId",
                            "type": "uint256"
                        },
                        {
                            "internalType": "address",
                            "name": "wallet",
                            "type": "address"
                        },
                        {
                            "internalType": "uint256[]",
                            "name": "gigIds",
                            "type": "uint256[]"
                        },
                        {
                            "internalType": "uint256[]",
                            "name": "offerIds",
                            "type": "uint256[]"
                        },
                        {
                            "internalType": "uint256[]",
                            "name": "bidIds",
                            "type": "uint256[]"
                        },
                        {
                            "internalType": "uint256[]",
                            "name": "buyerOrderIds",
                            "type": "uint256[]"
                        },
                        {
                            "internalType": "uint256[]",
                            "name": "gigReviewsIds",
                            "type": "uint256[]"
                        },
                        {
                            "internalType": "uint256[]",
                            "name": "userReviewsIds",
                            "type": "uint256[]"
                        },
                        {
                            "internalType": "uint256[]",
                            "name": "reviewsIds",
                            "type": "uint256[]"
                        }
                    ],
                    "internalType": "struct OutputTypes.UserOutput",
                    "name": "",
                    "type": "tuple"
                }
            ],
            "stateMutability": "view",
            "type": "function"
        },
        {
            "inputs": [
                {
                    "internalType": "uint256",
                    "name": "userId",
                    "type": "uint256"
                }
            ],
            "name": "getUserById",
            "outputs": [
                {
                    "components": [
                        {
                            "internalType": "string",
                            "name": "metadata",
                            "type": "string"
                        },
                        {
                            "internalType": "uint256",
                            "name": "inviterId",
                            "type": "uint256"
                        },
                        {
                            "internalType": "uint256",
                            "name": "buyerUntil",
                            "type": "uint256"
                        },
                        {
                            "internalType": "uint256",
                            "name": "buyerInvites",
                            "type": "uint256"
                        },
                        {
                            "internalType": "uint256",
                            "name": "sellerUntil",
                            "type": "uint256"
                        },
                        {
                            "internalType": "uint256",
                            "name": "sellerInvites",
                            "type": "uint256"
                        },
                        {
                            "internalType": "uint256",
                            "name": "userId",
                            "type": "uint256"
                        },
                        {
                            "internalType": "address",
                            "name": "wallet",
                            "type": "address"
                        },
                        {
                            "internalType": "uint256[]",
                            "name": "gigIds",
                            "type": "uint256[]"
                        },
                        {
                            "internalType": "uint256[]",
                            "name": "offerIds",
                            "type": "uint256[]"
                        },
                        {
                            "internalType": "uint256[]",
                            "name": "bidIds",
                            "type": "uint256[]"
                        },
                        {
                            "internalType": "uint256[]",
                            "name": "buyerOrderIds",
                            "type": "uint256[]"
                        },
                        {
                            "internalType": "uint256[]",
                            "name": "gigReviewsIds",
                            "type": "uint256[]"
                        },
                        {
                            "internalType": "uint256[]",
                            "name": "userReviewsIds",
                            "type": "uint256[]"
                        },
                        {
                            "internalType": "uint256[]",
                            "name": "reviewsIds",
                            "type": "uint256[]"
                        }
                    ],
                    "internalType": "struct OutputTypes.UserOutput",
                    "name": "",
                    "type": "tuple"
                }
            ],
            "stateMutability": "view",
            "type": "function"
        },
        {
            "inputs": [],
            "name": "getUserList",
            "outputs": [
                {
                    "components": [
                        {
                            "internalType": "string",
                            "name": "metadata",
                            "type": "string"
                        },
                        {
                            "internalType": "uint256",
                            "name": "inviterId",
                            "type": "uint256"
                        },
                        {
                            "internalType": "uint256",
                            "name": "buyerUntil",
                            "type": "uint256"
                        },
                        {
                            "internalType": "uint256",
                            "name": "buyerInvites",
                            "type": "uint256"
                        },
                        {
                            "internalType": "uint256",
                            "name": "sellerUntil",
                            "type": "uint256"
                        },
                        {
                            "internalType": "uint256",
                            "name": "sellerInvites",
                            "type": "uint256"
                        },
                        {
                            "internalType": "uint256",
                            "name": "userId",
                            "type": "uint256"
                        },
                        {
                            "internalType": "address",
                            "name": "wallet",
                            "type": "address"
                        },
                        {
                            "internalType": "uint256[]",
                            "name": "gigIds",
                            "type": "uint256[]"
                        },
                        {
                            "internalType": "uint256[]",
                            "name": "offerIds",
                            "type": "uint256[]"
                        },
                        {
                            "internalType": "uint256[]",
                            "name": "bidIds",
                            "type": "uint256[]"
                        },
                        {
                            "internalType": "uint256[]",
                            "name": "buyerOrderIds",
                            "type": "uint256[]"
                        },
                        {
                            "internalType": "uint256[]",
                            "name": "gigReviewsIds",
                            "type": "uint256[]"
                        },
                        {
                            "internalType": "uint256[]",
                            "name": "userReviewsIds",
                            "type": "uint256[]"
                        },
                        {
                            "internalType": "uint256[]",
                            "name": "reviewsIds",
                            "type": "uint256[]"
                        }
                    ],
                    "internalType": "struct OutputTypes.UserOutput[]",
                    "name": "",
                    "type": "tuple[]"
                }
            ],
            "stateMutability": "view",
            "type": "function"
        },
        {
            "inputs": [],
            "name": "getUsersCount",
            "outputs": [
                {
                    "internalType": "uint256",
                    "name": "",
                    "type": "uint256"
                }
            ],
            "stateMutability": "view",
            "type": "function"
        },
        {
            "inputs": [
                {
                    "internalType": "bytes32",
                    "name": "_role",
                    "type": "bytes32"
                },
                {
                    "internalType": "address",
                    "name": "account",
                    "type": "address"
                }
            ],
            "name": "hasProtocolRole",
            "outputs": [
                {
                    "internalType": "bool",
                    "name": "",
                    "type": "bool"
                }
            ],
            "stateMutability": "view",
            "type": "function"
        },
        {
            "inputs": [
                {
                    "internalType": "uint256",
                    "name": "userId",
                    "type": "uint256"
                },
                {
                    "internalType": "uint256",
                    "name": "gigId",
                    "type": "uint256"
                },
                {
                    "internalType": "contract IUser",
                    "name": "UserContract",
                    "type": "address"
                }
            ],
            "name": "isGigOwner",
            "outputs": [
                {
                    "internalType": "bool",
                    "name": "",
                    "type": "bool"
                }
            ],
            "stateMutability": "view",
            "type": "function"
        },
        {
            "inputs": [
                {
                    "internalType": "uint256",
                    "name": "userId",
                    "type": "uint256"
                },
                {
                    "internalType": "uint256",
                    "name": "gigId",
                    "type": "uint256"
                }
            ],
            "name": "isGigOwner",
            "outputs": [
                {
                    "internalType": "bool",
                    "name": "",
                    "type": "bool"
                }
            ],
            "stateMutability": "view",
            "type": "function"
        },
        {
            "inputs": [
                {
                    "internalType": "address",
                    "name": "account",
                    "type": "address"
                }
            ],
            "name": "isStillBuyer",
            "outputs": [
                {
                    "internalType": "bool",
                    "name": "",
                    "type": "bool"
                }
            ],
            "stateMutability": "view",
            "type": "function"
        },
        {
            "inputs": [
                {
                    "internalType": "address",
                    "name": "account",
                    "type": "address"
                }
            ],
            "name": "isStillSeller",
            "outputs": [
                {
                    "internalType": "bool",
                    "name": "",
                    "type": "bool"
                }
            ],
            "stateMutability": "view",
            "type": "function"
        },
        {
            "inputs": [],
            "name": "kill",
            "outputs": [],
            "stateMutability": "nonpayable",
            "type": "function"
        },
        {
            "inputs": [],
            "name": "owner",
            "outputs": [
                {
                    "internalType": "address",
                    "name": "",
                    "type": "address"
                }
            ],
            "stateMutability": "view",
            "type": "function"
        },
        {
            "inputs": [],
            "name": "renounceOwnership",
            "outputs": [],
            "stateMutability": "nonpayable",
            "type": "function"
        },
        {
            "inputs": [
                {
                    "internalType": "contract IAddressProvider",
                    "name": "_providerAddress",
                    "type": "address"
                }
            ],
            "name": "setProvider",
            "outputs": [],
            "stateMutability": "nonpayable",
            "type": "function"
        },
        {
            "inputs": [
                {
                    "internalType": "address",
                    "name": "newOwner",
                    "type": "address"
                }
            ],
            "name": "transferOwnership",
            "outputs": [],
            "stateMutability": "nonpayable",
            "type": "function"
        }
    ],
    "transactionHash": "0x47e31d202b5e8d69c56a787f0c99edb67e831b886662bcb5453752b64829f582",
    "args": [
        "0x20Ce94F404343aD2752A2D01b43fa407db9E0D00"
    ],
    "numDeployments": 1,
    "solcInputHash": "11b40aac2c6ba2dcd5f594f6e6f90e03",
    "bytecode": "0x60806040526000196008553480156200001757600080fd5b5060405162002bf538038062002bf58339810160408190526200003a9162000118565b806200004f62000049620000c2565b620000c6565b6040805180820190915260018152603560f81b60208201526001600160a01b0382166200009a5760405162461bcd60e51b815260040162000091919062000148565b60405180910390fd5b50600780546001600160a01b0319166001600160a01b0392909216919091179055506200019e565b3390565b600680546001600160a01b038381166001600160a01b0319831681179093556040519116919082907f8be0079c531659141344cd1fd0a4f28419497f9722a3daafe3b4186f6b6457e090600090a35050565b6000602082840312156200012a578081fd5b81516001600160a01b038116811462000141578182fd5b9392505050565b6000602080835283518082850152825b81811015620001765785810183015185820160400152820162000158565b81811115620001885783604083870101525b50601f01601f1916929092016040019392505050565b612a4780620001ae6000396000f3fe608060405234801561001057600080fd5b50600436106101c45760003560e01c8063982714b6116100f9578063cfd8d6c011610097578063dff3b49711610071578063dff3b49714610388578063e5b5019a1461039b578063f2fde38b146103a3578063fbd2817f146103b6576101c4565b8063cfd8d6c01461034f578063daea85c514610362578063dd06ef0214610375576101c4565b8063adcd2d21116100d3578063adcd2d21146102f3578063b817bcf714610306578063b852204314610319578063bebf138f1461032e576101c4565b8063982714b6146102b8578063985fadc8146102cb578063a4a1e263146102de576101c4565b806369c212f61161016657806379a558e71161014057806379a558e7146102825780638d80c922146102955780638da5cb5b146102a85780638f299b1e146102b0576101c4565b806369c212f6146102475780636ed6da9e14610267578063715018a61461027a576101c4565b8063128fdb48116101a2578063128fdb481461021c5780631848effa1461022457806319872f761461022c57806341c0e1b51461023f576101c4565b80630542975c146101c957806311e0c07b146101e7578063121ef24314610207575b600080fd5b6101d16103c9565b6040516101de91906124aa565b60405180910390f35b6101fa6101f53660046122a8565b6103d8565b6040516101de9190612577565b61021a610215366004611f19565b610461565b005b61021a610638565b6101d1610849565b6101d161023a366004611edd565b610858565b61021a6108e1565b61025a610255366004611e21565b610917565b6040516101de9190612897565b61025a610275366004611edd565b6109d7565b61021a610a4c565b6101fa610290366004611e21565b610a60565b6101d16102a3366004611edd565b610b16565b6101d1610b23565b61021a610b32565b6101fa6102c6366004612287565b610cd2565b6101fa6102d9366004611ef5565b610db7565b6102e6610dfe565b6040516101de9190612582565b6101fa610301366004611e92565b610e11565b6101fa610314366004611e21565b610ea3565b610321610f5a565b6040516101de9190612517565b61034161033c366004611edd565b611026565b6040516101de9291906124be565b61021a61035d366004611e21565b611151565b61021a610370366004611e21565b61123b565b610341610383366004611e21565b61130b565b6102e6610396366004611e21565b611350565b6102e661135d565b61021a6103b1366004611e21565b611363565b6101fa6103c4366004612287565b61139d565b6007546001600160a01b031690565b60405163fbd2817f60e01b81526000906001600160a01b0383169063fbd2817f9061040990879087906004016128df565b60206040518083038186803b15801561042157600080fd5b505afa158015610435573d6000803e3d6000fd5b505050506040513d601f19601f820116820180604052508101906104599190611ebd565b949350505050565b600061046b610dfe565b9050801561047b5780821061047e565b81155b60405180604001604052806002815260200161031360f41b815250906104c05760405162461bcd60e51b81526004016104b791906125a2565b60405180910390fd5b506000819050600060405180608001604052808381526020018681526020018581526020016104ed61142e565b6001600160a01b0316905260405163729dfdcd60e11b815290915060009073D6C850aeBFDC46D7F4c207e445cC0d6B0919BDBe9063e53bfb9a9061053d908490600290600590889060040161279e565b60206040518083038186803b15801561055557600080fd5b505af4158015610569573d6000803e3d6000fd5b505050506040513d601f19601f8201168201806040525081019061058d9190611ebd565b90508080156105ae575060016105a1610dfe565b6105ab9190612972565b83145b604051806040016040528060018152602001600760fb1b815250906105e65760405162461bcd60e51b81526004016104b791906125a2565b506105ef61142e565b6001600160a01b0316837fbee9c5c7ffbde119e3d12f30b5b584a6b78652a5ce90278f90c9c98c0f3178db846040516106289190612846565b60405180910390a3505050505050565b600061064261142e565b9050600061065864212aaca2a960d91b83610db7565b90508015604051806040016040528060018152602001603960f81b815250906106945760405162461bcd60e51b81526004016104b791906125a2565b5060006106a964212aaca2a960d91b84611432565b90506106bd64212aaca2a960d91b8461156d565b60408051606080820183526001600160a01b038616825283830180516020908101519084015251015160ff16818301529051633bb7b3f960e01b815260009173D6C850aeBFDC46D7F4c207e445cC0d6B0919BDBe91633bb7b3f99161072d91600291600591879190600401612803565b60206040518083038186803b15801561074557600080fd5b505af4158015610759573d6000803e3d6000fd5b505050506040513d601f19601f8201168201806040525081019061077d9190611ebd565b90508060405180604001604052806002815260200161313160f01b815250906107b95760405162461bcd60e51b81526004016104b791906125a2565b506107d36b2122a1a7a6a2afa12aaca2a960a11b856115e7565b6108436040518060c00160405280866001600160a01b0316815260200184600001516001600160a01b0316815260200184602001516001600160a01b0316815260200184608001516000015181526020018460800151602001518152602001846080015160400151815250611622565b50505050565b6007546001600160a01b031681565b600754604051630cc397bb60e11b81526000916001600160a01b0316906319872f7690610889908590600401612582565b60206040518083038186803b1580156108a157600080fd5b505afa1580156108b5573d6000803e3d6000fd5b505050506040513d601f19601f820116820180604052508101906108d99190611e3d565b90505b919050565b6007546001600160a01b0316331461090957634e487b7160e01b600052600160045260246000fd5b6007546001600160a01b0316ff5b61091f611c29565b6001600160a01b038216600090815260056020526040902073D6C850aeBFDC46D7F4c207e445cC0d6B0919BDBe632aa8eb808261095d600287611820565b866040518463ffffffff1660e01b815260040161097c939291906128c0565b60006040518083038186803b15801561099457600080fd5b505af41580156109a8573d6000803e3d6000fd5b505050506040513d6000823e601f3d908101601f191682016040526109d091908101906120ae565b9392505050565b6109df611c29565b60006005816109ee8186611835565b6001600160a01b031681526020810191909152604001600020905073D6C850aeBFDC46D7F4c207e445cC0d6B0919BDBe632aa8eb808285610a2e81610b16565b6040518463ffffffff1660e01b815260040161097c939291906128c0565b610a54611841565b610a5e6000611880565b565b6000610a7464212aaca2a960d91b83610db7565b80156108d9575042610a8c632aa9a2a960e11b610858565b6001600160a01b03166369c212f6846040518263ffffffff1660e01b8152600401610ab791906124aa565b60006040518083038186803b158015610acf57600080fd5b505afa158015610ae3573d6000803e3d6000fd5b505050506040513d6000823e601f3d908101601f19168201604052610b0b91908101906120ae565b604001511192915050565b6000806109d08184611835565b6006546001600160a01b031690565b6000610b3c61142e565b90506000610b536529a2a62622a960d11b83610db7565b9050801560405180604001604052806002815260200161189960f11b81525090610b905760405162461bcd60e51b81526004016104b791906125a2565b506000610ba66529a2a62622a960d11b84611432565b9050610bbb6529a2a62622a960d11b8461156d565b60408051606080820183526001600160a01b038616825283830180516020908101519084015251015160ff16818301529051633ea5a5a360e11b815260009173D6C850aeBFDC46D7F4c207e445cC0d6B0919BDBe91637d4b4b4691610c2b91600291600591879190600401612803565b60206040518083038186803b158015610c4357600080fd5b505af4158015610c57573d6000803e3d6000fd5b505050506040513d601f19601f82011682018060405250810190610c7b9190611ebd565b90508060405180604001604052806002815260200161313360f01b81525090610cb75760405162461bcd60e51b81526004016104b791906125a2565b506107d36c2122a1a7a6a2afa9a2a62622a960991b856115e7565b60006427a92222a960d91b610ce681610858565b6001600160a01b0316610cf761142e565b6001600160a01b031614610d1d5760405162461bcd60e51b81526004016104b790612740565b60405163a292a61360e01b815260009073D6C850aeBFDC46D7F4c207e445cC0d6B0919BDBe9063a292a61390610d5e908790899086906005906004016128ed565b60206040518083038186803b158015610d7657600080fd5b505af4158015610d8a573d6000803e3d6000fd5b505050506040513d601f19601f82011682018060405250810190610dae9190611ebd565b95945050505050565b600080610dd16a20a1a62fa6a0a720a3a2a960a91b610858565b6001600160a01b03166391d1485485856040518363ffffffff1660e01b815260040161040992919061258b565b600080610e0b60006118d2565b91505090565b60006247494760e81b610e2381610858565b6001600160a01b0316610e3461142e565b6001600160a01b031614610e5a5760405162461bcd60e51b81526004016104b790612740565b600073D6C850aeBFDC46D7F4c207e445cC0d6B0919BDBe63a2caedd685610e8088611350565b600060056040518563ffffffff1660e01b8152600401610d5e94939291906128ed565b6000610eb86529a2a62622a960d11b83610db7565b80156108d9575042610ed0632aa9a2a960e11b610858565b6001600160a01b03166369c212f6846040518263ffffffff1660e01b8152600401610efb91906124aa565b60006040518083038186803b158015610f1357600080fd5b505afa158015610f27573d6000803e3d6000fd5b505050506040513d6000823e601f3d908101601f19168201604052610f4f91908101906120ae565b608001511192915050565b60606000610f66610dfe565b905060008167ffffffffffffffff811115610f9157634e487b7160e01b600052604160045260246000fd5b604051908082528060200260200182016040528015610fca57816020015b610fb7611c29565b815260200190600190039081610faf5790505b50905060005b8281101561101f57610fe1816109d7565b82828151811061100157634e487b7160e01b600052603260045260246000fd5b60200260200101819052508080611017906129b5565b915050610fd0565b5091505090565b600080600073D6C850aeBFDC46D7F4c207e445cC0d6B0919BDBe63f1193ae985600060056040518463ffffffff1660e01b8152600401611068939291906128aa565b60206040518083038186803b15801561108057600080fd5b505af4158015611094573d6000803e3d6000fd5b505050506040513d601f19601f820116820180604052508101906110b8919061226f565b604051631900f20b60e21b815290915073500D1d6A4c7D8Ae28240b47c8FCde034D827fD5e90636403c82c906110f89084906000906005906004016128aa565b604080518083038186803b15801561110f57600080fd5b505af4158015611123573d6000803e3d6000fd5b505050506040513d601f19601f820116820180604052508101906111479190611e59565b9250925050915091565b6001600160a01b038116158061117157506007546001600160a01b031633145b806111fd5750336001600160a01b0316306001600160a01b0316638da5cb5b6040518163ffffffff1660e01b815260040160206040518083038186803b1580156111ba57600080fd5b505afa1580156111ce573d6000803e3d6000fd5b505050506040513d601f19601f820116820180604052508101906111f29190611e3d565b6001600160a01b0316145b6112195760405162461bcd60e51b81526004016104b7906125fb565b600780546001600160a01b0319166001600160a01b0392909216919091179055565b6d282927aa27a1a7a62fa0a226a4a760911b611259816102d961142e565b6112755760405162461bcd60e51b81526004016104b790612709565b60006112866211105560ea1b610858565b60085460405163095ea7b360e01b81529192506001600160a01b0385169163095ea7b3916112b9918591906004016124fe565b602060405180830381600087803b1580156112d357600080fd5b505af11580156112e7573d6000803e3d6000fd5b505050506040513d601f19601f820116820180604052508101906108439190611ebd565b600080600073D6C850aeBFDC46D7F4c207e445cC0d6B0919BDBe635e80e951856002600060056040518563ffffffff1660e01b815260040161106894939291906124d8565b60006108d9600283611820565b60085481565b61136b611841565b6001600160a01b0381166113915760405162461bcd60e51b81526004016104b7906125b5565b61139a81611880565b50565b604051630dde020f60e01b815260009073D6C850aeBFDC46D7F4c207e445cC0d6B0919BDBe90630dde020f906113de908690869086906005906004016128ed565b60206040518083038186803b1580156113f657600080fd5b505af415801561140a573d6000803e3d6000fd5b505050506040513d601f19601f820116820180604052508101906109d09190611ebd565b3390565b61143a611ca8565b611442611ce6565b64212aaca2a960d91b8414156114615761145a6118dd565b905061146c565b61146961197b565b90505b6000806114788561130b565b9150915060006114866119dc565b6040805160608101825286518152825160208083019190915283015181830152905163013a9d5b60e01b815291925060009173500D1d6A4c7D8Ae28240b47c8FCde034D827fD5e9163013a9d5b916114e19190600401612825565b60606040518083038186803b1580156114f957600080fd5b505af415801561150d573d6000803e3d6000fd5b505050506040513d601f19601f820116820180604052508101906115319190611f95565b6040805160a0810182526001600160a01b0396871681529490951660208501529383019490945260608201526080810191909152949350505050565b6115846a20a1a62fa6a0a720a3a2a960a91b610858565b6001600160a01b0316632f2ff15d83836040518363ffffffff1660e01b81526004016115b192919061258b565b600060405180830381600087803b1580156115cb57600080fd5b505af11580156115df573d6000803e3d6000fd5b505050505050565b6115f561058560f41b610858565b6001600160a01b031663293c6a3a83836040518363ffffffff1660e01b81526004016115b192919061258b565b60006116336211105560ea1b610858565b905060008260a0015183608001518460600151611650919061295a565b61165a919061295a565b90506116ea83600001513083856001600160a01b031663e5a6b10f6040518163ffffffff1660e01b8152600401602060405180830381600087803b1580156116a157600080fd5b505af11580156116b5573d6000803e3d6000fd5b505050506040513d601f19601f820116820180604052508101906116d99190611e3d565b6001600160a01b0316929190611a74565b60208301516060840151604051636203b43b60e11b81526001600160a01b0385169263c40768769261171e926004016124fe565b600060405180830381600087803b15801561173857600080fd5b505af115801561174c573d6000803e3d6000fd5b50505060408085015160808601519151636203b43b60e11b81526001600160a01b038616935063c40768769261178592916004016124fe565b600060405180830381600087803b15801561179f57600080fd5b505af11580156117b3573d6000803e3d6000fd5b5050505060a0830151604051636203b43b60e11b81526001600160a01b0384169163c4076876916117e9916000916004016124fe565b600060405180830381600087803b15801561180357600080fd5b505af1158015611817573d6000803e3d6000fd5b50505050505050565b60006109d0836001600160a01b038416611ae6565b60006109d08383611b26565b61184961142e565b6001600160a01b031661185a610b23565b6001600160a01b031614610a5e5760405162461bcd60e51b81526004016104b79061269d565b600680546001600160a01b038381166001600160a01b0319831681179093556040519116919082907f8be0079c531659141344cd1fd0a4f28419497f9722a3daafe3b4186f6b6457e090600090a35050565b60006108d982611b5e565b6118e5611ce6565b61190674282927aa27a1a7a62fa1a7a72324a3aaa920aa27a960591b610858565b6001600160a01b0316632c53f6c46040518163ffffffff1660e01b815260040160806040518083038186803b15801561193e57600080fd5b505afa158015611952573d6000803e3d6000fd5b505050506040513d601f19601f820116820180604052508101906119769190611ff0565b905090565b611983611ce6565b6119a474282927aa27a1a7a62fa1a7a72324a3aaa920aa27a960591b610858565b6001600160a01b031663688c4b246040518163ffffffff1660e01b815260040160806040518083038186803b15801561193e57600080fd5b6119e4611d11565b611a0574282927aa27a1a7a62fa1a7a72324a3aaa920aa27a960591b610858565b6001600160a01b0316639af1da486040518163ffffffff1660e01b8152600401604080518083038186803b158015611a3c57600080fd5b505afa158015611a50573d6000803e3d6000fd5b505050506040513d601f19601f820116820180604052508101906119769190612060565b6040516323b872dd60e01b8082526001600160a01b038581166004840152841660248301526044820183905290600080606483828a5af1611ab9573d6000803e3d6000fd5b50611ac385611b62565b611adf5760405162461bcd60e51b81526004016104b790612666565b5050505050565b600081815260028301602052604081205480151580611b0a5750611b0a8484611c09565b6109d05760405162461bcd60e51b81526004016104b7906126d2565b6000826000018281548110611b4b57634e487b7160e01b600052603260045260246000fd5b9060005260206000200154905092915050565b5490565b6000611b86565b62461bcd60e51b6000526020600452806024528160445260646000fd5b3d8015611bc55760208114611bf657611bc07f475076323a206d616c666f726d6564207472616e7366657220726573756c7400601f611b69565b611c03565b823b611bed57611bed7311d41d8c8e881b9bdd08184818dbdb9d1c9858dd60621b6014611b69565b60019150611c03565b3d6000803e600051151591505b50919050565b60008181526001830160205260408120546109d090849084908490151584565b604051806101e001604052806060815260200160008152602001600081526020016000815260200160008152602001600081526020016000815260200160006001600160a01b03168152602001606081526020016060815260200160608152602001606081526020016060815260200160608152602001606081525090565b6040805160a08101825260008082526020820152908101611cc7611ce6565b8152602001611cd4611d11565b8152602001611ce1611d2b565b905290565b6040518060800160405280600081526020016000815260200160008152602001600060ff1681525090565b604051806040016040528060008152602001600081525090565b60405180606001604052806000815260200160008152602001600081525090565b80516108dc816129fc565b600082601f830112611d67578081fd5b8151602067ffffffffffffffff821115611d8357611d836129e6565b808202611d91828201612908565b838152828101908684018388018501891015611dab578687fd5b8693505b85841015611dcd578051835260019390930192918401918401611daf565b50979650505050505050565b600082601f830112611de9578081fd5b8151611dfc611df782612932565b612908565b818152846020838601011115611e10578283fd5b610459826020830160208701612989565b600060208284031215611e32578081fd5b81356109d0816129fc565b600060208284031215611e4e578081fd5b81516109d0816129fc565b60008060408385031215611e6b578081fd5b8251611e76816129fc565b6020840151909250611e87816129fc565b809150509250929050565b60008060408385031215611ea4578182fd5b8235611eaf816129fc565b946020939093013593505050565b600060208284031215611ece578081fd5b815180151581146109d0578182fd5b600060208284031215611eee578081fd5b5035919050565b60008060408385031215611f07578182fd5b823591506020830135611e87816129fc565b60008060408385031215611f2b578182fd5b823567ffffffffffffffff811115611f41578283fd5b8301601f81018513611f51578283fd5b8035611f5f611df782612932565b818152866020838501011115611f73578485fd5b8160208401602083013790810160209081019490945295939092013593505050565b600060608284031215611fa6578081fd5b6040516060810181811067ffffffffffffffff82111715611fc957611fc96129e6565b80604052508251815260208301516020820152604083015160408201528091505092915050565b600060808284031215612001578081fd5b6040516080810181811067ffffffffffffffff82111715612024576120246129e6565b8060405250825181526020830151602082015260408301516040820152606083015160ff81168114612054578283fd5b60608201529392505050565b600060408284031215612071578081fd5b6040516040810181811067ffffffffffffffff82111715612094576120946129e6565b604052825181526020928301519281019290925250919050565b6000602082840312156120bf578081fd5b815167ffffffffffffffff808211156120d6578283fd5b81840191506101e08083870312156120ec578384fd5b6120f581612908565b9050825182811115612105578485fd5b61211187828601611dd9565b8252506020830151602082015260408301516040820152606083015160608201526080830151608082015260a083015160a082015260c083015160c082015261215c60e08401611d4c565b60e08201526101008084015183811115612174578586fd5b61218088828701611d57565b8284015250506101208084015183811115612199578586fd5b6121a588828701611d57565b82840152505061014080840151838111156121be578586fd5b6121ca88828701611d57565b82840152505061016080840151838111156121e3578586fd5b6121ef88828701611d57565b8284015250506101808084015183811115612208578586fd5b61221488828701611d57565b8284015250506101a0808401518381111561222d578586fd5b61223988828701611d57565b8284015250506101c08084015183811115612252578586fd5b61225e88828701611d57565b918301919091525095945050505050565b600060208284031215612280578081fd5b5051919050565b60008060408385031215612299578182fd5b50508035926020909101359150565b6000806000606084860312156122bc578081fd5b833592506020840135915060408401356122d5816129fc565b809150509250925092565b6001600160a01b03169052565b6000815180845260208085019450808401835b8381101561231c57815187529582019590820190600101612300565b509495945050505050565b6000815180845261233f816020860160208601612989565b601f01601f19169290920160200192915050565b80516001600160a01b031682526020808201519083015260409081015160ff16910152565b60006101e0825181855261238e82860182612327565b9150506020830151602085015260408301516040850152606083015160608501526080830151608085015260a083015160a085015260c083015160c085015260e08301516123df60e08601826122e0565b5061010080840151858303828701526123f883826122ed565b92505050610120808401518583038287015261241483826122ed565b92505050610140808401518583038287015261243083826122ed565b92505050610160808401518583038287015261244c83826122ed565b92505050610180808401518583038287015261246883826122ed565b925050506101a0808401518583038287015261248483826122ed565b925050506101c080840151858303828701526124a083826122ed565b9695505050505050565b6001600160a01b0391909116815260200190565b6001600160a01b0392831681529116602082015260400190565b6001600160a01b0394909416845260208401929092526040830152606082015260800190565b6001600160a01b03929092168252602082015260400190565b6000602080830181845280855180835260408601915060408482028701019250838701855b8281101561256a57603f19888603018452612558858351612378565b9450928501929085019060010161253c565b5092979650505050505050565b901515815260200190565b90815260200190565b9182526001600160a01b0316602082015260400190565b6000602082526109d06020830184612327565b60208082526026908201527f4f776e61626c653a206e6577206f776e657220697320746865207a65726f206160408201526564647265737360d01b606082015260800190565b60208082526045908201527f43616e206f6e6c792062652063616c6c6564206966206164647265737365735060408201527f726f766964657220697320656d7074792c206d73672e73656e646572206f722060608201526437bbb732b960d91b608082015260a00190565b60208082526019908201527f475076323a206661696c6564207472616e7366657246726f6d00000000000000604082015260600190565b6020808252818101527f4f776e61626c653a2063616c6c6572206973206e6f7420746865206f776e6572604082015260600190565b6020808252601e908201527f456e756d657261626c654d61703a206e6f6e6578697374656e74206b65790000604082015260600190565b6020808252601c908201527f5265717569726573206d73672e73656e6465722068617320726f6c6500000000604082015260600190565b602080825260409082018190527f5265717569726573206d73672e73656e6465722069732066726f6d20636f6e74908201527f726163742061646472657373207265676973746572656420746f205f6e616d65606082015260800190565b600085825284602083015283604083015260806060830152825160808301526020830151608060a08401526127d7610100840182612327565b604085015160c08501526060909401516001600160a01b031660e0909301929092525090949350505050565b848152602081018490526040810183905260c08101610dae6060830184612353565b81518152602080830151908201526040918201519181019190915260600190565b6000602082528251602083015260208301516080604084015261286c60a0840182612327565b6040850151606085810191909152909401516001600160a01b03166080909301929092525090919050565b6000602082526109d06020830184612378565b9283526020830191909152604082015260600190565b92835260208301919091526001600160a01b0316604082015260600190565b918252602082015260400190565b93845260208401929092526040830152606082015260800190565b60405181810167ffffffffffffffff8111828210171561292a5761292a6129e6565b604052919050565b600067ffffffffffffffff82111561294c5761294c6129e6565b50601f01601f191660200190565b6000821982111561296d5761296d6129d0565b500190565b600082821015612984576129846129d0565b500390565b60005b838110156129a457818101518382015260200161298c565b838111156108435750506000910152565b60006000198214156129c9576129c96129d0565b5060010190565b634e487b7160e01b600052601160045260246000fd5b634e487b7160e01b600052604160045260246000fd5b6001600160a01b038116811461139a57600080fdfea2646970667358221220ae34e67b5f1d0ff9787e9695ac43549351dafd830a80c003dc19603a4101452864736f6c63430008000033",
    "deployedBytecode": "0x608060405234801561001057600080fd5b50600436106101c45760003560e01c8063982714b6116100f9578063cfd8d6c011610097578063dff3b49711610071578063dff3b49714610388578063e5b5019a1461039b578063f2fde38b146103a3578063fbd2817f146103b6576101c4565b8063cfd8d6c01461034f578063daea85c514610362578063dd06ef0214610375576101c4565b8063adcd2d21116100d3578063adcd2d21146102f3578063b817bcf714610306578063b852204314610319578063bebf138f1461032e576101c4565b8063982714b6146102b8578063985fadc8146102cb578063a4a1e263146102de576101c4565b806369c212f61161016657806379a558e71161014057806379a558e7146102825780638d80c922146102955780638da5cb5b146102a85780638f299b1e146102b0576101c4565b806369c212f6146102475780636ed6da9e14610267578063715018a61461027a576101c4565b8063128fdb48116101a2578063128fdb481461021c5780631848effa1461022457806319872f761461022c57806341c0e1b51461023f576101c4565b80630542975c146101c957806311e0c07b146101e7578063121ef24314610207575b600080fd5b6101d16103c9565b6040516101de91906124aa565b60405180910390f35b6101fa6101f53660046122a8565b6103d8565b6040516101de9190612577565b61021a610215366004611f19565b610461565b005b61021a610638565b6101d1610849565b6101d161023a366004611edd565b610858565b61021a6108e1565b61025a610255366004611e21565b610917565b6040516101de9190612897565b61025a610275366004611edd565b6109d7565b61021a610a4c565b6101fa610290366004611e21565b610a60565b6101d16102a3366004611edd565b610b16565b6101d1610b23565b61021a610b32565b6101fa6102c6366004612287565b610cd2565b6101fa6102d9366004611ef5565b610db7565b6102e6610dfe565b6040516101de9190612582565b6101fa610301366004611e92565b610e11565b6101fa610314366004611e21565b610ea3565b610321610f5a565b6040516101de9190612517565b61034161033c366004611edd565b611026565b6040516101de9291906124be565b61021a61035d366004611e21565b611151565b61021a610370366004611e21565b61123b565b610341610383366004611e21565b61130b565b6102e6610396366004611e21565b611350565b6102e661135d565b61021a6103b1366004611e21565b611363565b6101fa6103c4366004612287565b61139d565b6007546001600160a01b031690565b60405163fbd2817f60e01b81526000906001600160a01b0383169063fbd2817f9061040990879087906004016128df565b60206040518083038186803b15801561042157600080fd5b505afa158015610435573d6000803e3d6000fd5b505050506040513d601f19601f820116820180604052508101906104599190611ebd565b949350505050565b600061046b610dfe565b9050801561047b5780821061047e565b81155b60405180604001604052806002815260200161031360f41b815250906104c05760405162461bcd60e51b81526004016104b791906125a2565b60405180910390fd5b506000819050600060405180608001604052808381526020018681526020018581526020016104ed61142e565b6001600160a01b0316905260405163729dfdcd60e11b815290915060009073__$2fdc6bd74422c331d4350e08f48e4d7efc$__9063e53bfb9a9061053d908490600290600590889060040161279e565b60206040518083038186803b15801561055557600080fd5b505af4158015610569573d6000803e3d6000fd5b505050506040513d601f19601f8201168201806040525081019061058d9190611ebd565b90508080156105ae575060016105a1610dfe565b6105ab9190612972565b83145b604051806040016040528060018152602001600760fb1b815250906105e65760405162461bcd60e51b81526004016104b791906125a2565b506105ef61142e565b6001600160a01b0316837fbee9c5c7ffbde119e3d12f30b5b584a6b78652a5ce90278f90c9c98c0f3178db846040516106289190612846565b60405180910390a3505050505050565b600061064261142e565b9050600061065864212aaca2a960d91b83610db7565b90508015604051806040016040528060018152602001603960f81b815250906106945760405162461bcd60e51b81526004016104b791906125a2565b5060006106a964212aaca2a960d91b84611432565b90506106bd64212aaca2a960d91b8461156d565b60408051606080820183526001600160a01b038616825283830180516020908101519084015251015160ff16818301529051633bb7b3f960e01b815260009173__$2fdc6bd74422c331d4350e08f48e4d7efc$__91633bb7b3f99161072d91600291600591879190600401612803565b60206040518083038186803b15801561074557600080fd5b505af4158015610759573d6000803e3d6000fd5b505050506040513d601f19601f8201168201806040525081019061077d9190611ebd565b90508060405180604001604052806002815260200161313160f01b815250906107b95760405162461bcd60e51b81526004016104b791906125a2565b506107d36b2122a1a7a6a2afa12aaca2a960a11b856115e7565b6108436040518060c00160405280866001600160a01b0316815260200184600001516001600160a01b0316815260200184602001516001600160a01b0316815260200184608001516000015181526020018460800151602001518152602001846080015160400151815250611622565b50505050565b6007546001600160a01b031681565b600754604051630cc397bb60e11b81526000916001600160a01b0316906319872f7690610889908590600401612582565b60206040518083038186803b1580156108a157600080fd5b505afa1580156108b5573d6000803e3d6000fd5b505050506040513d601f19601f820116820180604052508101906108d99190611e3d565b90505b919050565b6007546001600160a01b0316331461090957634e487b7160e01b600052600160045260246000fd5b6007546001600160a01b0316ff5b61091f611c29565b6001600160a01b038216600090815260056020526040902073__$2fdc6bd74422c331d4350e08f48e4d7efc$__632aa8eb808261095d600287611820565b866040518463ffffffff1660e01b815260040161097c939291906128c0565b60006040518083038186803b15801561099457600080fd5b505af41580156109a8573d6000803e3d6000fd5b505050506040513d6000823e601f3d908101601f191682016040526109d091908101906120ae565b9392505050565b6109df611c29565b60006005816109ee8186611835565b6001600160a01b031681526020810191909152604001600020905073__$2fdc6bd74422c331d4350e08f48e4d7efc$__632aa8eb808285610a2e81610b16565b6040518463ffffffff1660e01b815260040161097c939291906128c0565b610a54611841565b610a5e6000611880565b565b6000610a7464212aaca2a960d91b83610db7565b80156108d9575042610a8c632aa9a2a960e11b610858565b6001600160a01b03166369c212f6846040518263ffffffff1660e01b8152600401610ab791906124aa565b60006040518083038186803b158015610acf57600080fd5b505afa158015610ae3573d6000803e3d6000fd5b505050506040513d6000823e601f3d908101601f19168201604052610b0b91908101906120ae565b604001511192915050565b6000806109d08184611835565b6006546001600160a01b031690565b6000610b3c61142e565b90506000610b536529a2a62622a960d11b83610db7565b9050801560405180604001604052806002815260200161189960f11b81525090610b905760405162461bcd60e51b81526004016104b791906125a2565b506000610ba66529a2a62622a960d11b84611432565b9050610bbb6529a2a62622a960d11b8461156d565b60408051606080820183526001600160a01b038616825283830180516020908101519084015251015160ff16818301529051633ea5a5a360e11b815260009173__$2fdc6bd74422c331d4350e08f48e4d7efc$__91637d4b4b4691610c2b91600291600591879190600401612803565b60206040518083038186803b158015610c4357600080fd5b505af4158015610c57573d6000803e3d6000fd5b505050506040513d601f19601f82011682018060405250810190610c7b9190611ebd565b90508060405180604001604052806002815260200161313360f01b81525090610cb75760405162461bcd60e51b81526004016104b791906125a2565b506107d36c2122a1a7a6a2afa9a2a62622a960991b856115e7565b60006427a92222a960d91b610ce681610858565b6001600160a01b0316610cf761142e565b6001600160a01b031614610d1d5760405162461bcd60e51b81526004016104b790612740565b60405163a292a61360e01b815260009073__$2fdc6bd74422c331d4350e08f48e4d7efc$__9063a292a61390610d5e908790899086906005906004016128ed565b60206040518083038186803b158015610d7657600080fd5b505af4158015610d8a573d6000803e3d6000fd5b505050506040513d601f19601f82011682018060405250810190610dae9190611ebd565b95945050505050565b600080610dd16a20a1a62fa6a0a720a3a2a960a91b610858565b6001600160a01b03166391d1485485856040518363ffffffff1660e01b815260040161040992919061258b565b600080610e0b60006118d2565b91505090565b60006247494760e81b610e2381610858565b6001600160a01b0316610e3461142e565b6001600160a01b031614610e5a5760405162461bcd60e51b81526004016104b790612740565b600073__$2fdc6bd74422c331d4350e08f48e4d7efc$__63a2caedd685610e8088611350565b600060056040518563ffffffff1660e01b8152600401610d5e94939291906128ed565b6000610eb86529a2a62622a960d11b83610db7565b80156108d9575042610ed0632aa9a2a960e11b610858565b6001600160a01b03166369c212f6846040518263ffffffff1660e01b8152600401610efb91906124aa565b60006040518083038186803b158015610f1357600080fd5b505afa158015610f27573d6000803e3d6000fd5b505050506040513d6000823e601f3d908101601f19168201604052610f4f91908101906120ae565b608001511192915050565b60606000610f66610dfe565b905060008167ffffffffffffffff811115610f9157634e487b7160e01b600052604160045260246000fd5b604051908082528060200260200182016040528015610fca57816020015b610fb7611c29565b815260200190600190039081610faf5790505b50905060005b8281101561101f57610fe1816109d7565b82828151811061100157634e487b7160e01b600052603260045260246000fd5b60200260200101819052508080611017906129b5565b915050610fd0565b5091505090565b600080600073__$2fdc6bd74422c331d4350e08f48e4d7efc$__63f1193ae985600060056040518463ffffffff1660e01b8152600401611068939291906128aa565b60206040518083038186803b15801561108057600080fd5b505af4158015611094573d6000803e3d6000fd5b505050506040513d601f19601f820116820180604052508101906110b8919061226f565b604051631900f20b60e21b815290915073__$30e2c0763bc74e29ca837c0a99f7d1b333$__90636403c82c906110f89084906000906005906004016128aa565b604080518083038186803b15801561110f57600080fd5b505af4158015611123573d6000803e3d6000fd5b505050506040513d601f19601f820116820180604052508101906111479190611e59565b9250925050915091565b6001600160a01b038116158061117157506007546001600160a01b031633145b806111fd5750336001600160a01b0316306001600160a01b0316638da5cb5b6040518163ffffffff1660e01b815260040160206040518083038186803b1580156111ba57600080fd5b505afa1580156111ce573d6000803e3d6000fd5b505050506040513d601f19601f820116820180604052508101906111f29190611e3d565b6001600160a01b0316145b6112195760405162461bcd60e51b81526004016104b7906125fb565b600780546001600160a01b0319166001600160a01b0392909216919091179055565b6d282927aa27a1a7a62fa0a226a4a760911b611259816102d961142e565b6112755760405162461bcd60e51b81526004016104b790612709565b60006112866211105560ea1b610858565b60085460405163095ea7b360e01b81529192506001600160a01b0385169163095ea7b3916112b9918591906004016124fe565b602060405180830381600087803b1580156112d357600080fd5b505af11580156112e7573d6000803e3d6000fd5b505050506040513d601f19601f820116820180604052508101906108439190611ebd565b600080600073__$2fdc6bd74422c331d4350e08f48e4d7efc$__635e80e951856002600060056040518563ffffffff1660e01b815260040161106894939291906124d8565b60006108d9600283611820565b60085481565b61136b611841565b6001600160a01b0381166113915760405162461bcd60e51b81526004016104b7906125b5565b61139a81611880565b50565b604051630dde020f60e01b815260009073__$2fdc6bd74422c331d4350e08f48e4d7efc$__90630dde020f906113de908690869086906005906004016128ed565b60206040518083038186803b1580156113f657600080fd5b505af415801561140a573d6000803e3d6000fd5b505050506040513d601f19601f820116820180604052508101906109d09190611ebd565b3390565b61143a611ca8565b611442611ce6565b64212aaca2a960d91b8414156114615761145a6118dd565b905061146c565b61146961197b565b90505b6000806114788561130b565b9150915060006114866119dc565b6040805160608101825286518152825160208083019190915283015181830152905163013a9d5b60e01b815291925060009173__$30e2c0763bc74e29ca837c0a99f7d1b333$__9163013a9d5b916114e19190600401612825565b60606040518083038186803b1580156114f957600080fd5b505af415801561150d573d6000803e3d6000fd5b505050506040513d601f19601f820116820180604052508101906115319190611f95565b6040805160a0810182526001600160a01b0396871681529490951660208501529383019490945260608201526080810191909152949350505050565b6115846a20a1a62fa6a0a720a3a2a960a91b610858565b6001600160a01b0316632f2ff15d83836040518363ffffffff1660e01b81526004016115b192919061258b565b600060405180830381600087803b1580156115cb57600080fd5b505af11580156115df573d6000803e3d6000fd5b505050505050565b6115f561058560f41b610858565b6001600160a01b031663293c6a3a83836040518363ffffffff1660e01b81526004016115b192919061258b565b60006116336211105560ea1b610858565b905060008260a0015183608001518460600151611650919061295a565b61165a919061295a565b90506116ea83600001513083856001600160a01b031663e5a6b10f6040518163ffffffff1660e01b8152600401602060405180830381600087803b1580156116a157600080fd5b505af11580156116b5573d6000803e3d6000fd5b505050506040513d601f19601f820116820180604052508101906116d99190611e3d565b6001600160a01b0316929190611a74565b60208301516060840151604051636203b43b60e11b81526001600160a01b0385169263c40768769261171e926004016124fe565b600060405180830381600087803b15801561173857600080fd5b505af115801561174c573d6000803e3d6000fd5b50505060408085015160808601519151636203b43b60e11b81526001600160a01b038616935063c40768769261178592916004016124fe565b600060405180830381600087803b15801561179f57600080fd5b505af11580156117b3573d6000803e3d6000fd5b5050505060a0830151604051636203b43b60e11b81526001600160a01b0384169163c4076876916117e9916000916004016124fe565b600060405180830381600087803b15801561180357600080fd5b505af1158015611817573d6000803e3d6000fd5b50505050505050565b60006109d0836001600160a01b038416611ae6565b60006109d08383611b26565b61184961142e565b6001600160a01b031661185a610b23565b6001600160a01b031614610a5e5760405162461bcd60e51b81526004016104b79061269d565b600680546001600160a01b038381166001600160a01b0319831681179093556040519116919082907f8be0079c531659141344cd1fd0a4f28419497f9722a3daafe3b4186f6b6457e090600090a35050565b60006108d982611b5e565b6118e5611ce6565b61190674282927aa27a1a7a62fa1a7a72324a3aaa920aa27a960591b610858565b6001600160a01b0316632c53f6c46040518163ffffffff1660e01b815260040160806040518083038186803b15801561193e57600080fd5b505afa158015611952573d6000803e3d6000fd5b505050506040513d601f19601f820116820180604052508101906119769190611ff0565b905090565b611983611ce6565b6119a474282927aa27a1a7a62fa1a7a72324a3aaa920aa27a960591b610858565b6001600160a01b031663688c4b246040518163ffffffff1660e01b815260040160806040518083038186803b15801561193e57600080fd5b6119e4611d11565b611a0574282927aa27a1a7a62fa1a7a72324a3aaa920aa27a960591b610858565b6001600160a01b0316639af1da486040518163ffffffff1660e01b8152600401604080518083038186803b158015611a3c57600080fd5b505afa158015611a50573d6000803e3d6000fd5b505050506040513d601f19601f820116820180604052508101906119769190612060565b6040516323b872dd60e01b8082526001600160a01b038581166004840152841660248301526044820183905290600080606483828a5af1611ab9573d6000803e3d6000fd5b50611ac385611b62565b611adf5760405162461bcd60e51b81526004016104b790612666565b5050505050565b600081815260028301602052604081205480151580611b0a5750611b0a8484611c09565b6109d05760405162461bcd60e51b81526004016104b7906126d2565b6000826000018281548110611b4b57634e487b7160e01b600052603260045260246000fd5b9060005260206000200154905092915050565b5490565b6000611b86565b62461bcd60e51b6000526020600452806024528160445260646000fd5b3d8015611bc55760208114611bf657611bc07f475076323a206d616c666f726d6564207472616e7366657220726573756c7400601f611b69565b611c03565b823b611bed57611bed7311d41d8c8e881b9bdd08184818dbdb9d1c9858dd60621b6014611b69565b60019150611c03565b3d6000803e600051151591505b50919050565b60008181526001830160205260408120546109d090849084908490151584565b604051806101e001604052806060815260200160008152602001600081526020016000815260200160008152602001600081526020016000815260200160006001600160a01b03168152602001606081526020016060815260200160608152602001606081526020016060815260200160608152602001606081525090565b6040805160a08101825260008082526020820152908101611cc7611ce6565b8152602001611cd4611d11565b8152602001611ce1611d2b565b905290565b6040518060800160405280600081526020016000815260200160008152602001600060ff1681525090565b604051806040016040528060008152602001600081525090565b60405180606001604052806000815260200160008152602001600081525090565b80516108dc816129fc565b600082601f830112611d67578081fd5b8151602067ffffffffffffffff821115611d8357611d836129e6565b808202611d91828201612908565b838152828101908684018388018501891015611dab578687fd5b8693505b85841015611dcd578051835260019390930192918401918401611daf565b50979650505050505050565b600082601f830112611de9578081fd5b8151611dfc611df782612932565b612908565b818152846020838601011115611e10578283fd5b610459826020830160208701612989565b600060208284031215611e32578081fd5b81356109d0816129fc565b600060208284031215611e4e578081fd5b81516109d0816129fc565b60008060408385031215611e6b578081fd5b8251611e76816129fc565b6020840151909250611e87816129fc565b809150509250929050565b60008060408385031215611ea4578182fd5b8235611eaf816129fc565b946020939093013593505050565b600060208284031215611ece578081fd5b815180151581146109d0578182fd5b600060208284031215611eee578081fd5b5035919050565b60008060408385031215611f07578182fd5b823591506020830135611e87816129fc565b60008060408385031215611f2b578182fd5b823567ffffffffffffffff811115611f41578283fd5b8301601f81018513611f51578283fd5b8035611f5f611df782612932565b818152866020838501011115611f73578485fd5b8160208401602083013790810160209081019490945295939092013593505050565b600060608284031215611fa6578081fd5b6040516060810181811067ffffffffffffffff82111715611fc957611fc96129e6565b80604052508251815260208301516020820152604083015160408201528091505092915050565b600060808284031215612001578081fd5b6040516080810181811067ffffffffffffffff82111715612024576120246129e6565b8060405250825181526020830151602082015260408301516040820152606083015160ff81168114612054578283fd5b60608201529392505050565b600060408284031215612071578081fd5b6040516040810181811067ffffffffffffffff82111715612094576120946129e6565b604052825181526020928301519281019290925250919050565b6000602082840312156120bf578081fd5b815167ffffffffffffffff808211156120d6578283fd5b81840191506101e08083870312156120ec578384fd5b6120f581612908565b9050825182811115612105578485fd5b61211187828601611dd9565b8252506020830151602082015260408301516040820152606083015160608201526080830151608082015260a083015160a082015260c083015160c082015261215c60e08401611d4c565b60e08201526101008084015183811115612174578586fd5b61218088828701611d57565b8284015250506101208084015183811115612199578586fd5b6121a588828701611d57565b82840152505061014080840151838111156121be578586fd5b6121ca88828701611d57565b82840152505061016080840151838111156121e3578586fd5b6121ef88828701611d57565b8284015250506101808084015183811115612208578586fd5b61221488828701611d57565b8284015250506101a0808401518381111561222d578586fd5b61223988828701611d57565b8284015250506101c08084015183811115612252578586fd5b61225e88828701611d57565b918301919091525095945050505050565b600060208284031215612280578081fd5b5051919050565b60008060408385031215612299578182fd5b50508035926020909101359150565b6000806000606084860312156122bc578081fd5b833592506020840135915060408401356122d5816129fc565b809150509250925092565b6001600160a01b03169052565b6000815180845260208085019450808401835b8381101561231c57815187529582019590820190600101612300565b509495945050505050565b6000815180845261233f816020860160208601612989565b601f01601f19169290920160200192915050565b80516001600160a01b031682526020808201519083015260409081015160ff16910152565b60006101e0825181855261238e82860182612327565b9150506020830151602085015260408301516040850152606083015160608501526080830151608085015260a083015160a085015260c083015160c085015260e08301516123df60e08601826122e0565b5061010080840151858303828701526123f883826122ed565b92505050610120808401518583038287015261241483826122ed565b92505050610140808401518583038287015261243083826122ed565b92505050610160808401518583038287015261244c83826122ed565b92505050610180808401518583038287015261246883826122ed565b925050506101a0808401518583038287015261248483826122ed565b925050506101c080840151858303828701526124a083826122ed565b9695505050505050565b6001600160a01b0391909116815260200190565b6001600160a01b0392831681529116602082015260400190565b6001600160a01b0394909416845260208401929092526040830152606082015260800190565b6001600160a01b03929092168252602082015260400190565b6000602080830181845280855180835260408601915060408482028701019250838701855b8281101561256a57603f19888603018452612558858351612378565b9450928501929085019060010161253c565b5092979650505050505050565b901515815260200190565b90815260200190565b9182526001600160a01b0316602082015260400190565b6000602082526109d06020830184612327565b60208082526026908201527f4f776e61626c653a206e6577206f776e657220697320746865207a65726f206160408201526564647265737360d01b606082015260800190565b60208082526045908201527f43616e206f6e6c792062652063616c6c6564206966206164647265737365735060408201527f726f766964657220697320656d7074792c206d73672e73656e646572206f722060608201526437bbb732b960d91b608082015260a00190565b60208082526019908201527f475076323a206661696c6564207472616e7366657246726f6d00000000000000604082015260600190565b6020808252818101527f4f776e61626c653a2063616c6c6572206973206e6f7420746865206f776e6572604082015260600190565b6020808252601e908201527f456e756d657261626c654d61703a206e6f6e6578697374656e74206b65790000604082015260600190565b6020808252601c908201527f5265717569726573206d73672e73656e6465722068617320726f6c6500000000604082015260600190565b602080825260409082018190527f5265717569726573206d73672e73656e6465722069732066726f6d20636f6e74908201527f726163742061646472657373207265676973746572656420746f205f6e616d65606082015260800190565b600085825284602083015283604083015260806060830152825160808301526020830151608060a08401526127d7610100840182612327565b604085015160c08501526060909401516001600160a01b031660e0909301929092525090949350505050565b848152602081018490526040810183905260c08101610dae6060830184612353565b81518152602080830151908201526040918201519181019190915260600190565b6000602082528251602083015260208301516080604084015261286c60a0840182612327565b6040850151606085810191909152909401516001600160a01b03166080909301929092525090919050565b6000602082526109d06020830184612378565b9283526020830191909152604082015260600190565b92835260208301919091526001600160a01b0316604082015260600190565b918252602082015260400190565b93845260208401929092526040830152606082015260800190565b60405181810167ffffffffffffffff8111828210171561292a5761292a6129e6565b604052919050565b600067ffffffffffffffff82111561294c5761294c6129e6565b50601f01601f191660200190565b6000821982111561296d5761296d6129d0565b500190565b600082821015612984576129846129d0565b500390565b60005b838110156129a457818101518382015260200161298c565b838111156108435750506000910152565b60006000198214156129c9576129c96129d0565b5060010190565b634e487b7160e01b600052601160045260246000fd5b634e487b7160e01b600052604160045260246000fd5b6001600160a01b038116811461139a57600080fdfea2646970667358221220ae34e67b5f1d0ff9787e9695ac43549351dafd830a80c003dc19603a4101452864736f6c63430008000033",
    "libraries": {
        "UserLogic": "0xD6C850aeBFDC46D7F4c207e445cC0d6B0919BDBe",
        "InviterLogic": "0x500D1d6A4c7D8Ae28240b47c8FCde034D827fD5e",
        "UserDataLogic": "0xc4905364b78a742ccce7B890A89514061E47068D"
    },
    "devdoc": {
        "author": "Blockswan",
        "details": "To be covered by a proxy contract, owned by the addressProvider of the specific marketplaceAll admin functions are callable by the protocolConfigurator contract defined also in the   addressProvider*",
        "kind": "dev",
        "methods": {
            "ADDRESSES_PROVIDER()": {
                "returns": {
                    "_0": "The address of the AddressProvider"
                }
            },
            "constructor": {
                "details": "Constructor.",
                "params": {
                    "provider": "The address of the AddressProvider"
                }
            },
            "createBuyerOrder(uint256,uint256)": {
                "params": {
                    "buyerId": "the id of the buyer",
                    "newOrderId": "the new gig orderId."
                },
                "returns": {
                    "_0": "success the relation has been addded.*"
                }
            },
            "createGig(address,uint256)": {
                "params": {
                    "caller": "the wallet creating the gig.",
                    "newGigId": "the new gig id."
                },
                "returns": {
                    "_0": "success the relation has been addded.*"
                }
            },
            "createUser(string,uint256)": {
                "params": {
                    "inviterId": "the userID of whom invited the newUser*",
                    "metadata": "the user related information"
                }
            },
            "fetchContract(bytes32)": {
                "params": {
                    "_name": "the bytes32 name of the contract"
                }
            },
            "getAddressById(uint256)": {
                "params": {
                    "userId": "The id of the user."
                },
                "returns": {
                    "_0": "userAddress the wallet of the user*"
                }
            },
            "getIdByAddress(address)": {
                "params": {
                    "account": "The address of the user"
                },
                "returns": {
                    "_0": "userId The userId associated to the account address*"
                }
            },
            "getInvitersById(uint256)": {
                "params": {
                    "userId": "the user id to get the inviters from"
                },
                "returns": {
                    "_0": "address the pubkey of inviter0",
                    "_1": "address the pubkey of inviter1*"
                }
            },
            "getInvitersByUserAddress(address)": {
                "params": {
                    "account": "the wallet to get the inviters from"
                },
                "returns": {
                    "_0": "address the pubkey of inviter0",
                    "_1": "address the pubkey of inviter1*"
                }
            },
            "getUserByAddress(address)": {
                "params": {
                    "pubKey": "The address as parameter."
                },
                "returns": {
                    "_0": "User the user linked to the public key*"
                }
            },
            "getUserById(uint256)": {
                "params": {
                    "userId": "The id of the user."
                },
                "returns": {
                    "_0": "User The data associated to the user it*"
                }
            },
            "getUserList()": {
                "details": "It does not include dropped users",
                "returns": {
                    "_0": "A data array of the underlying user.*"
                }
            },
            "getUsersCount()": {
                "returns": {
                    "_0": "the current revision*"
                }
            },
            "isGigOwner(uint256,uint256)": {
                "params": {
                    "gigId": "the gigId",
                    "userId": "the user id to check if he own the gig"
                },
                "returns": {
                    "_0": "bool if the gigId is owned by the given userId*"
                }
            },
            "owner()": {
                "details": "Returns the address of the current owner."
            },
            "renounceOwnership()": {
                "details": "Leaves the contract without owner. It will not be possible to call `onlyOwner` functions anymore. Can only be called by the current owner. NOTE: Renouncing ownership will leave the contract without an owner, thereby removing any functionality that is only available to the owner."
            },
            "setProvider(address)": {
                "params": {
                    "_providerAddress": "The address of the AddressProvider"
                }
            },
            "transferOwnership(address)": {
                "details": "Transfers ownership of the contract to a new account (`newOwner`). Can only be called by the current owner."
            }
        },
        "title": "User contract",
        "version": 1
    },
    "userdoc": {
        "kind": "user",
        "methods": {
            "ADDRESSES_PROVIDER()": {
                "notice": "Returns the contract address of the IAddressProvider"
            },
            "createBuyerOrder(uint256,uint256)": {
                "notice": "add the order id to the user buyerOrderIds set."
            },
            "createGig(address,uint256)": {
                "notice": "add the gig id to the user gigIds set."
            },
            "createUser(string,uint256)": {
                "notice": "Create a new users with the msg.sender wallet"
            },
            "fetchContract(bytes32)": {
                "notice": "fetch the contract address from the ADDRESSS_PROVIDERthrows error if address === 0"
            },
            "getAddressById(uint256)": {
                "notice": "Returns the user wallet address."
            },
            "getIdByAddress(address)": {
                "notice": "Returns the user id from a given address."
            },
            "getInvitersById(uint256)": {
                "notice": "retrieves the inviters wallet for a given userId"
            },
            "getInvitersByUserAddress(address)": {
                "notice": "retrieves the inviters wallet for a given wallet account"
            },
            "getUserByAddress(address)": {
                "notice": "Returns the user for a given public key."
            },
            "getUserById(uint256)": {
                "notice": "Returns the user data."
            },
            "getUserList()": {
                "notice": "Returns the list of all initialized users."
            },
            "getUsersCount()": {
                "notice": "Returns the current revision of the contract"
            },
            "isGigOwner(uint256,uint256)": {
                "notice": "return true if the gigId is owned by the given userId"
            },
            "kill()": {
                "notice": "kill the current address provider, only callable by the AddressProvider"
            },
            "setProvider(address)": {
                "notice": "set the provider address of the ProviderContract"
            }
        },
        "notice": "User data within an Blockswan protocol's marketplace - Users can:   # login   # edit profile   # invite users   # choose affiliates   # get the access rights to the protocol",
        "version": 1
    },
    "storageLayout": {
        "storage": [
            {
                "astId": 12750,
                "contract": "contracts/protocol/user/User.sol:User",
                "label": "_userIdToAddress",
                "offset": 0,
                "slot": "0",
                "type": "t_struct(AddressSet)2727_storage"
            },
            {
                "astId": 12753,
                "contract": "contracts/protocol/user/User.sol:User",
                "label": "_userAddressToId",
                "offset": 0,
                "slot": "2",
                "type": "t_struct(AddressToUintMap)1969_storage"
            },
            {
                "astId": 12758,
                "contract": "contracts/protocol/user/User.sol:User",
                "label": "_users",
                "offset": 0,
                "slot": "5",
                "type": "t_mapping(t_address,t_struct(User)10836_storage)"
            },
            {
                "astId": 4101,
                "contract": "contracts/protocol/user/User.sol:User",
                "label": "_owner",
                "offset": 0,
                "slot": "6",
                "type": "t_address"
            },
            {
                "astId": 7100,
                "contract": "contracts/protocol/user/User.sol:User",
                "label": "ADDRESS_PROVIDER",
                "offset": 0,
                "slot": "7",
                "type": "t_contract(IAddressProvider)4606"
            },
            {
                "astId": 7107,
                "contract": "contracts/protocol/user/User.sol:User",
                "label": "MAX_UINT",
                "offset": 0,
                "slot": "8",
                "type": "t_uint256"
            }
        ],
        "types": {
            "t_address": {
                "encoding": "inplace",
                "label": "address",
                "numberOfBytes": "20"
            },
            "t_array(t_bytes32)dyn_storage": {
                "base": "t_bytes32",
                "encoding": "dynamic_array",
                "label": "bytes32[]",
                "numberOfBytes": "32"
            },
            "t_bytes32": {
                "encoding": "inplace",
                "label": "bytes32",
                "numberOfBytes": "32"
            },
            "t_contract(IAddressProvider)4606": {
                "encoding": "inplace",
                "label": "contract IAddressProvider",
                "numberOfBytes": "20"
            },
            "t_mapping(t_address,t_struct(User)10836_storage)": {
                "encoding": "mapping",
                "key": "t_address",
                "label": "mapping(address => struct DataTypes.User)",
                "numberOfBytes": "32",
                "value": "t_struct(User)10836_storage"
            },
            "t_mapping(t_bytes32,t_bytes32)": {
                "encoding": "mapping",
                "key": "t_bytes32",
                "label": "mapping(bytes32 => bytes32)",
                "numberOfBytes": "32",
                "value": "t_bytes32"
            },
            "t_mapping(t_bytes32,t_uint256)": {
                "encoding": "mapping",
                "key": "t_bytes32",
                "label": "mapping(bytes32 => uint256)",
                "numberOfBytes": "32",
                "value": "t_uint256"
            },
            "t_string_storage": {
                "encoding": "bytes",
                "label": "string",
                "numberOfBytes": "32"
            },
            "t_struct(AddressSet)2727_storage": {
                "encoding": "inplace",
                "label": "struct EnumerableSet.AddressSet",
                "members": [
                    {
                        "astId": 2726,
                        "contract": "contracts/protocol/user/User.sol:User",
                        "label": "_inner",
                        "offset": 0,
                        "slot": "0",
                        "type": "t_struct(Set)2412_storage"
                    }
                ],
                "numberOfBytes": "64"
            },
            "t_struct(AddressToUintMap)1969_storage": {
                "encoding": "inplace",
                "label": "struct EnumerableMap.AddressToUintMap",
                "members": [
                    {
                        "astId": 1968,
                        "contract": "contracts/protocol/user/User.sol:User",
                        "label": "_inner",
                        "offset": 0,
                        "slot": "0",
                        "type": "t_struct(Bytes32ToBytes32Map)1295_storage"
                    }
                ],
                "numberOfBytes": "96"
            },
            "t_struct(Bytes32Set)2606_storage": {
                "encoding": "inplace",
                "label": "struct EnumerableSet.Bytes32Set",
                "members": [
                    {
                        "astId": 2605,
                        "contract": "contracts/protocol/user/User.sol:User",
                        "label": "_inner",
                        "offset": 0,
                        "slot": "0",
                        "type": "t_struct(Set)2412_storage"
                    }
                ],
                "numberOfBytes": "64"
            },
            "t_struct(Bytes32ToBytes32Map)1295_storage": {
                "encoding": "inplace",
                "label": "struct EnumerableMap.Bytes32ToBytes32Map",
                "members": [
                    {
                        "astId": 1290,
                        "contract": "contracts/protocol/user/User.sol:User",
                        "label": "_keys",
                        "offset": 0,
                        "slot": "0",
                        "type": "t_struct(Bytes32Set)2606_storage"
                    },
                    {
                        "astId": 1294,
                        "contract": "contracts/protocol/user/User.sol:User",
                        "label": "_values",
                        "offset": 0,
                        "slot": "2",
                        "type": "t_mapping(t_bytes32,t_bytes32)"
                    }
                ],
                "numberOfBytes": "96"
            },
            "t_struct(Set)2412_storage": {
                "encoding": "inplace",
                "label": "struct EnumerableSet.Set",
                "members": [
                    {
                        "astId": 2407,
                        "contract": "contracts/protocol/user/User.sol:User",
                        "label": "_values",
                        "offset": 0,
                        "slot": "0",
                        "type": "t_array(t_bytes32)dyn_storage"
                    },
                    {
                        "astId": 2411,
                        "contract": "contracts/protocol/user/User.sol:User",
                        "label": "_indexes",
                        "offset": 0,
                        "slot": "1",
                        "type": "t_mapping(t_bytes32,t_uint256)"
                    }
                ],
                "numberOfBytes": "64"
            },
            "t_struct(UintSet)2884_storage": {
                "encoding": "inplace",
                "label": "struct EnumerableSet.UintSet",
                "members": [
                    {
                        "astId": 2883,
                        "contract": "contracts/protocol/user/User.sol:User",
                        "label": "_inner",
                        "offset": 0,
                        "slot": "0",
                        "type": "t_struct(Set)2412_storage"
                    }
                ],
                "numberOfBytes": "64"
            },
            "t_struct(User)10836_storage": {
                "encoding": "inplace",
                "label": "struct DataTypes.User",
                "members": [
                    {
                        "astId": 10804,
                        "contract": "contracts/protocol/user/User.sol:User",
                        "label": "metadata",
                        "offset": 0,
                        "slot": "0",
                        "type": "t_string_storage"
                    },
                    {
                        "astId": 10806,
                        "contract": "contracts/protocol/user/User.sol:User",
                        "label": "inviterId",
                        "offset": 0,
                        "slot": "1",
                        "type": "t_uint256"
                    },
                    {
                        "astId": 10808,
                        "contract": "contracts/protocol/user/User.sol:User",
                        "label": "buyerUntil",
                        "offset": 0,
                        "slot": "2",
                        "type": "t_uint256"
                    },
                    {
                        "astId": 10810,
                        "contract": "contracts/protocol/user/User.sol:User",
                        "label": "buyerInvites",
                        "offset": 0,
                        "slot": "3",
                        "type": "t_uint256"
                    },
                    {
                        "astId": 10812,
                        "contract": "contracts/protocol/user/User.sol:User",
                        "label": "sellerUntil",
                        "offset": 0,
                        "slot": "4",
                        "type": "t_uint256"
                    },
                    {
                        "astId": 10814,
                        "contract": "contracts/protocol/user/User.sol:User",
                        "label": "sellerInvites",
                        "offset": 0,
                        "slot": "5",
                        "type": "t_uint256"
                    },
                    {
                        "astId": 10817,
                        "contract": "contracts/protocol/user/User.sol:User",
                        "label": "gigIds",
                        "offset": 0,
                        "slot": "6",
                        "type": "t_struct(UintSet)2884_storage"
                    },
                    {
                        "astId": 10820,
                        "contract": "contracts/protocol/user/User.sol:User",
                        "label": "offerIds",
                        "offset": 0,
                        "slot": "8",
                        "type": "t_struct(UintSet)2884_storage"
                    },
                    {
                        "astId": 10823,
                        "contract": "contracts/protocol/user/User.sol:User",
                        "label": "bidIds",
                        "offset": 0,
                        "slot": "10",
                        "type": "t_struct(UintSet)2884_storage"
                    },
                    {
                        "astId": 10826,
                        "contract": "contracts/protocol/user/User.sol:User",
                        "label": "buyerOrderIds",
                        "offset": 0,
                        "slot": "12",
                        "type": "t_struct(UintSet)2884_storage"
                    },
                    {
                        "astId": 10829,
                        "contract": "contracts/protocol/user/User.sol:User",
                        "label": "gigReviewsIds",
                        "offset": 0,
                        "slot": "14",
                        "type": "t_struct(UintSet)2884_storage"
                    },
                    {
                        "astId": 10832,
                        "contract": "contracts/protocol/user/User.sol:User",
                        "label": "userReviewsIds",
                        "offset": 0,
                        "slot": "16",
                        "type": "t_struct(UintSet)2884_storage"
                    },
                    {
                        "astId": 10835,
                        "contract": "contracts/protocol/user/User.sol:User",
                        "label": "reviewsIds",
                        "offset": 0,
                        "slot": "18",
                        "type": "t_struct(UintSet)2884_storage"
                    }
                ],
                "numberOfBytes": "640"
            },
            "t_uint256": {
                "encoding": "inplace",
                "label": "uint256",
                "numberOfBytes": "32"
            }
        }
    }
}