{
  "address": "0x5bfD2cB87429f3187072A243fB76B6C97A00E495",
  "abi": [
    {
      "inputs": [
        {
          "internalType": "uint256",
          "name": "evidenceUntil",
          "type": "uint256"
        },
        {
          "internalType": "uint256",
          "name": "commitUntil",
          "type": "uint256"
        },
        {
          "internalType": "uint256",
          "name": "voteUntil",
          "type": "uint256"
        },
        {
          "internalType": "uint256",
          "name": "appealUntil",
          "type": "uint256"
        }
      ],
      "name": "calcDisputeDelaysFromBlock",
      "outputs": [
        {
          "internalType": "uint256[]",
          "name": "delays",
          "type": "uint256[]"
        }
      ],
      "stateMutability": "view",
      "type": "function"
    }
  ],
  "transactionHash": "0x246d35a0820395c805f593d59eb7fdd35ad4fbffdcf64789c5c4dd264d7182aa",
  "args": [],
  "numDeployments": 1,
  "solcInputHash": "540ab05e3117b642ab74c32eb85f094d",
  "bytecode": "0x613f9861003a600b82828239805160001a60731461002d57634e487b7160e01b600052600060045260246000fd5b30600052607381538281f3fe73000000000000000000000000000000000000000030146080604052600436106101205760003560e01c806390bc2a91116100ac578063a191f9b31161007b578063a191f9b3146102dd578063a59ae3a4146102fd578063d5a22c1e14610310578063e06f7e741461033d578063ebc3655d1461035d57610120565b806390bc2a911461025d578063987198041461027d5780639d403dc51461029d5780639e3918e6146102bd57610120565b8063425791c4116100f3578063425791c4146101bd5780634aac5052146101dd5780635f8fdbc5146101fd5780636a7809e51461021d5780637254894a1461023d57610120565b80630b4b3b1f14610125578063101ee79114610147578063115e1e5f1461017d578063369de64f1461019d575b600080fd5b81801561013157600080fd5b50610145610140366004613282565b61038d565b005b81801561015357600080fd5b5061016761016236600461335b565b610390565b6040516101749190613a66565b60405180910390f35b61019061018b3660046134af565b610523565b60405161017491906139f5565b8180156101a957600080fd5b506101676101b83660046134d0565b610538565b8180156101c957600080fd5b506101676101d83660046133fb565b6106c9565b6101f06101eb3660046137c5565b610a97565b6040516101749190613a53565b81801561020957600080fd5b506101456102183660046132d1565b610c20565b81801561022957600080fd5b50610145610238366004613282565b6111f0565b81801561024957600080fd5b506101676102583660046135b8565b611619565b81801561026957600080fd5b50610167610278366004613530565b611786565b81801561028957600080fd5b506101456102983660046134af565b6118f9565b8180156102a957600080fd5b506101676102b8366004613675565b611c7e565b8180156102c957600080fd5b506101456102d83660046134af565b611e9b565b6102f06102eb3660046134af565b61215c565b6040516101749190613a84565b61019061030b3660046134af565b6122bd565b81801561031c57600080fd5b5061033061032b36600461329a565b61237f565b6040516101749190613ca6565b81801561034957600080fd5b506101906103583660046135b8565b61261d565b81801561036957600080fd5b5061037d610378366004613282565b612843565b6040516101749493929190613dfe565b50565b6000828180600583015460ff1660048111156103bc57634e487b7160e01b600052602160045260246000fd5b14604051806040016040528060028152602001610d4d60f21b815250906103ff5760405162461bcd60e51b81526004016103f69190613a71565b60405180910390fd5b5060405163db7e892160e01b81526000907319eF137F58a21bda3aa9a259cCf37cd6A0859CA69063db7e89219061043a9089906004016139f5565b60206040518083038186803b15801561045257600080fd5b505af4158015610466573d6000803e3d6000fd5b505050506040513d601f19601f8201168201806040525081019061048a919061365d565b6040516331d0395d60e11b8152909150736418479cc723c4121c86E0ECC459a73547C932e1906363a072ba906104c69084908990600401613dcf565b60206040518083038186803b1580156104de57600080fd5b505af41580156104f2573d6000803e3d6000fd5b505050506040513d601f19601f820116820180604052508101906105169190613268565b5060019695505050505050565b60008281526020829052604090205b92915050565b600084600180600583015460ff16600481111561056557634e487b7160e01b600052602160045260246000fd5b14604051806040016040528060028152602001610d4d60f21b8152509061059f5760405162461bcd60e51b81526004016103f69190613a71565b5060405163db7e892160e01b81526000907319eF137F58a21bda3aa9a259cCf37cd6A0859CA69063db7e8921906105da908b906004016139f5565b60206040518083038186803b1580156105f257600080fd5b505af4158015610606573d6000803e3d6000fd5b505050506040513d601f19601f8201168201806040525081019061062a919061365d565b60405163ba30c1a760e01b8152909150736418479cc723c4121c86E0ECC459a73547C932e19063ba30c1a79061066a90849089908c908c90600401613ce4565b60206040518083038186803b15801561068257600080fd5b505af4158015610696573d6000803e3d6000fd5b505050506040513d601f19601f820116820180604052508101906106ba9190613268565b50600198975050505050505050565b600082600480600583015460ff1660048111156106f657634e487b7160e01b600052602160045260246000fd5b14604051806040016040528060028152602001610d4d60f21b815250906107305760405162461bcd60e51b81526004016103f69190613a71565b5060405163db7e892160e01b81526000907319eF137F58a21bda3aa9a259cCf37cd6A0859CA69063db7e89219061076b9089906004016139f5565b60206040518083038186803b15801561078357600080fd5b505af4158015610797573d6000803e3d6000fd5b505050506040513d601f19601f820116820180604052508101906107bb919061365d565b60405163164ca46760e31b8152909150737481003653ea47b7889C8eAb8d7c2A0577aFbd129063b2652338906107f59084906004016139f5565b60206040518083038186803b15801561080d57600080fd5b505af4158015610821573d6000803e3d6000fd5b505050506040513d601f19601f820116820180604052508101906108459190613268565b60405180604001604052806002815260200161363160f01b8152509061087e5760405162461bcd60e51b81526004016103f69190613a71565b506040516345597be160e11b81527319eF137F58a21bda3aa9a259cCf37cd6A0859CA690638ab2f7c2906108b9908990600090600401613c84565b60206040518083038186803b1580156108d157600080fd5b505af41580156108e5573d6000803e3d6000fd5b505050506040513d601f19601f820116820180604052508101906109099190613268565b50604051636377233f60e11b81527319eF137F58a21bda3aa9a259cCf37cd6A0859CA69063c6ee467e906109419089906004016139f5565b60206040518083038186803b15801561095957600080fd5b505af415801561096d573d6000803e3d6000fd5b505050506040513d601f19601f820116820180604052508101906109919190613268565b50845160405163230ef19960e21b81527319eF137F58a21bda3aa9a259cCf37cd6A0859CA691638c3bc664916109cb918a91600401613c98565b60206040518083038186803b1580156109e357600080fd5b505af41580156109f7573d6000803e3d6000fd5b505050506040513d601f19601f82011682018060405250810190610a1b9190613268565b506040805160c08101825286820151815260608088015160208084019190915288015182840152835490820152600183015460808083019190915287015160a0820152905163365e702360e21b8152736418479cc723c4121c86E0ECC459a73547C932e19163d979c08c916104c69160068b01916004016139fe565b60408051600480825260a0820190925260609142919060208201608080368337019050509150610ac78682613e8c565b82600081518110610ae857634e487b7160e01b600052603260045260246000fd5b6020026020010181815250508482600081518110610b1657634e487b7160e01b600052603260045260246000fd5b6020026020010151610b289190613e8c565b82600181518110610b4957634e487b7160e01b600052603260045260246000fd5b6020026020010181815250508382600181518110610b7757634e487b7160e01b600052603260045260246000fd5b6020026020010151610b899190613e8c565b82600281518110610baa57634e487b7160e01b600052603260045260246000fd5b6020026020010181815250508282600281518110610bd857634e487b7160e01b600052603260045260246000fd5b6020026020010151610bea9190613e8c565b82600381518110610c0b57634e487b7160e01b600052603260045260246000fd5b60200260200101818152505050949350505050565b81600080600583015460ff166004811115610c4b57634e487b7160e01b600052602160045260246000fd5b14604051806040016040528060028152602001610d4d60f21b81525090610c855760405162461bcd60e51b81526004016103f69190613a71565b5083600401600081548110610caa57634e487b7160e01b600052603260045260246000fd5b90600052602060002001548042101560405180604001604052806002815260200161353360f01b81525090610cf25760405162461bcd60e51b81526004016103f69190613a71565b5060405163db7e892160e01b81526000907319eF137F58a21bda3aa9a259cCf37cd6A0859CA69063db7e892190610d2d9089906004016139f5565b60206040518083038186803b158015610d4557600080fd5b505af4158015610d59573d6000803e3d6000fd5b505050506040513d601f19601f82011682018060405250810190610d7d919061365d565b60405163e6053cff60e01b8152909150736418479cc723c4121c86E0ECC459a73547C932e19063e6053cff90610db79084906004016139f5565b60206040518083038186803b158015610dcf57600080fd5b505af4158015610de3573d6000803e3d6000fd5b505050506040513d601f19601f82011682018060405250810190610e079190613268565b15610f2957604080860151905163230ef19960e21b81527319eF137F58a21bda3aa9a259cCf37cd6A0859CA691638c3bc66491610e48918a91600401613c98565b60206040518083038186803b158015610e6057600080fd5b505af4158015610e74573d6000803e3d6000fd5b505050506040513d601f19601f82011682018060405250810190610e989190613268565b506040516345597be160e11b81527319eF137F58a21bda3aa9a259cCf37cd6A0859CA690638ab2f7c290610ed3908990600190600401613c84565b60206040518083038186803b158015610eeb57600080fd5b505af4158015610eff573d6000803e3d6000fd5b505050506040513d601f19601f82011682018060405250810190610f239190613268565b506111e8565b604080860151905163230ef19960e21b81527319eF137F58a21bda3aa9a259cCf37cd6A0859CA691638c3bc66491610f65918a91600401613c98565b60206040518083038186803b158015610f7d57600080fd5b505af4158015610f91573d6000803e3d6000fd5b505050506040513d601f19601f82011682018060405250810190610fb59190613268565b50606085015160405163230ef19960e21b81527319eF137F58a21bda3aa9a259cCf37cd6A0859CA691638c3bc66491610ff2918a91600401613c98565b60206040518083038186803b15801561100a57600080fd5b505af415801561101e573d6000803e3d6000fd5b505050506040513d601f19601f820116820180604052508101906110429190613268565b50608085015160405163230ef19960e21b81527319eF137F58a21bda3aa9a259cCf37cd6A0859CA691638c3bc6649161107f918a91600401613c98565b60206040518083038186803b15801561109757600080fd5b505af41580156110ab573d6000803e3d6000fd5b505050506040513d601f19601f820116820180604052508101906110cf9190613268565b506040516345597be160e11b81527319eF137F58a21bda3aa9a259cCf37cd6A0859CA690638ab2f7c29061110a908990600390600401613c84565b60206040518083038186803b15801561112257600080fd5b505af4158015611136573d6000803e3d6000fd5b505050506040513d601f19601f8201168201806040525081019061115a9190613268565b5060405163764a60fb60e11b8152737481003653ea47b7889C8eAb8d7c2A0577aFbd129063ec94c1f69061119690849061271090600401613c98565b60206040518083038186803b1580156111ae57600080fd5b505af41580156111c2573d6000803e3d6000fd5b505050506040513d601f19601f820116820180604052508101906111e69190613268565b505b505050505050565b80600380600583015460ff16600481111561121b57634e487b7160e01b600052602160045260246000fd5b14604051806040016040528060028152602001610d4d60f21b815250906112555760405162461bcd60e51b81526004016103f69190613a71565b508260040160038154811061127a57634e487b7160e01b600052603260045260246000fd5b90600052602060002001548042101560405180604001604052806002815260200161353360f01b815250906112c25760405162461bcd60e51b81526004016103f69190613a71565b506040516345597be160e11b81527319eF137F58a21bda3aa9a259cCf37cd6A0859CA690638ab2f7c2906112fc9087906004908101613c84565b60206040518083038186803b15801561131457600080fd5b505af4158015611328573d6000803e3d6000fd5b505050506040513d601f19601f8201168201806040525081019061134c9190613268565b5060405163db7e892160e01b81526000907319eF137F58a21bda3aa9a259cCf37cd6A0859CA69063db7e8921906113879088906004016139f5565b60206040518083038186803b15801561139f57600080fd5b505af41580156113b3573d6000803e3d6000fd5b505050506040513d601f19601f820116820180604052508101906113d7919061365d565b60078101546040516389e48ba160e01b8152919250906000908190737481003653ea47b7889C8eAb8d7c2A0577aFbd12906389e48ba19061141c9086906004016139f5565b604080518083038186803b15801561143357600080fd5b505af4158015611447573d6000803e3d6000fd5b505050506040513d601f19601f8201168201806040525081019061146b9190613775565b60405163c0b088f760e01b81529193509150737481003653ea47b7889C8eAb8d7c2A0577aFbd12906357d47234908690736418479cc723c4121c86E0ECC459a73547C932e19063c0b088f7906114c990849089908990600401613de8565b60206040518083038186803b1580156114e157600080fd5b505af41580156114f5573d6000803e3d6000fd5b505050506040513d601f19601f82011682018060405250810190611519919061365d565b6040518363ffffffff1660e01b8152600401611536929190613c98565b60206040518083038186803b15801561154e57600080fd5b505af4158015611562573d6000803e3d6000fd5b505050506040513d601f19601f820116820180604052508101906115869190613268565b5060405163d1e1ddff60e01b8152737481003653ea47b7889C8eAb8d7c2A0577aFbd129063d1e1ddff906115be9087906004016139f5565b60206040518083038186803b1580156115d657600080fd5b505af41580156115ea573d6000803e3d6000fd5b505050506040513d601f19601f8201168201806040525081019061160e9190613268565b505050505050505050565b600083600380600583015460ff16600481111561164657634e487b7160e01b600052602160045260246000fd5b14604051806040016040528060028152602001610d4d60f21b815250906116805760405162461bcd60e51b81526004016103f69190613a71565b5060405163db7e892160e01b81526000907319eF137F58a21bda3aa9a259cCf37cd6A0859CA69063db7e8921906116bb908a906004016139f5565b60206040518083038186803b1580156116d357600080fd5b505af41580156116e7573d6000803e3d6000fd5b505050506040513d601f19601f8201168201806040525081019061170b919061365d565b6040516317eb2c5b60e11b8152909150736418479cc723c4121c86E0ECC459a73547C932e190632fd658b6906117499084908a908a90600401613de8565b60006040518083038186803b15801561176157600080fd5b505af4158015611775573d6000803e3d6000fd5b5060019a9950505050505050505050565b600085600280600583015460ff1660048111156117b357634e487b7160e01b600052602160045260246000fd5b14604051806040016040528060028152602001610d4d60f21b815250906117ed5760405162461bcd60e51b81526004016103f69190613a71565b5060405163db7e892160e01b81526000907319eF137F58a21bda3aa9a259cCf37cd6A0859CA69063db7e892190611828908c906004016139f5565b60206040518083038186803b15801561184057600080fd5b505af4158015611854573d6000803e3d6000fd5b505050506040513d601f19601f82011682018060405250810190611878919061365d565b604051635dd10b2960e11b8152909150736418479cc723c4121c86E0ECC459a73547C932e19063bba21652906118ba90849089908d908d908d90600401613d1b565b60006040518083038186803b1580156118d257600080fd5b505af41580156118e6573d6000803e3d6000fd5b5060019c9b505050505050505050505050565b81600280600583015460ff16600481111561192457634e487b7160e01b600052602160045260246000fd5b14604051806040016040528060028152602001610d4d60f21b8152509061195e5760405162461bcd60e51b81526004016103f69190613a71565b508360040160028154811061198357634e487b7160e01b600052603260045260246000fd5b90600052602060002001548042101560405180604001604052806002815260200161353360f01b815250906119cb5760405162461bcd60e51b81526004016103f69190613a71565b5060405163db7e892160e01b815285906000907319eF137F58a21bda3aa9a259cCf37cd6A0859CA69063db7e892190611a089085906004016139f5565b60206040518083038186803b158015611a2057600080fd5b505af4158015611a34573d6000803e3d6000fd5b505050506040513d601f19601f82011682018060405250810190611a58919061365d565b9050600081600901541160405180604001604052806002815260200161353760f01b81525090611a9b5760405162461bcd60e51b81526004016103f69190613a71565b506040516345597be160e11b81527319eF137F58a21bda3aa9a259cCf37cd6A0859CA690638ab2f7c290611ad6908a90600390600401613c84565b60206040518083038186803b158015611aee57600080fd5b505af4158015611b02573d6000803e3d6000fd5b505050506040513d601f19601f82011682018060405250810190611b269190613268565b5060405163230ef19960e21b81527319eF137F58a21bda3aa9a259cCf37cd6A0859CA690638c3bc66490611b60908a908a90600401613c98565b60206040518083038186803b158015611b7857600080fd5b505af4158015611b8c573d6000803e3d6000fd5b505050506040513d601f19601f82011682018060405250810190611bb09190613268565b5060405163db7e892160e01b81526000907319eF137F58a21bda3aa9a259cCf37cd6A0859CA69063db7e892190611beb908b906004016139f5565b60206040518083038186803b158015611c0357600080fd5b505af4158015611c17573d6000803e3d6000fd5b505050506040513d601f19601f82011682018060405250810190611c3b919061365d565b9050737481003653ea47b7889C8eAb8d7c2A0577aFbd1263ec94c1f682611c6181612aa3565b6040518363ffffffff1660e01b81526004016115be929190613c98565b80516000908190611c90908690612b26565b90506000611ca2846000015186610523565b60e085015160405163230ef19960e21b81529192507319eF137F58a21bda3aa9a259cCf37cd6A0859CA691638c3bc66491611ce291859190600401613c98565b60206040518083038186803b158015611cfa57600080fd5b505af4158015611d0e573d6000803e3d6000fd5b505050506040513d601f19601f82011682018060405250810190611d329190613268565b5080600601736418479cc723c4121c86E0ECC459a73547C932e163d979c08c90916040518060c001604052808860a0015181526020018860c0015181526020018860800151815260200188604001518152602001886060015181526020018861010001518152506040518363ffffffff1660e01b8152600401611db69291906139fe565b60206040518083038186803b158015611dce57600080fd5b505af4158015611de2573d6000803e3d6000fd5b505050506040513d601f19601f82011682018060405250810190611e069190613268565b5060405163218d0a6360e01b81527319eF137F58a21bda3aa9a259cCf37cd6A0859CA69063218d0a6390611e3e9084906004016139f5565b60206040518083038186803b158015611e5657600080fd5b505af4158015611e6a573d6000803e3d6000fd5b505050506040513d601f19601f82011682018060405250810190611e8e9190613268565b50909150505b9392505050565b81600180600583015460ff166004811115611ec657634e487b7160e01b600052602160045260246000fd5b14604051806040016040528060028152602001610d4d60f21b81525090611f005760405162461bcd60e51b81526004016103f69190613a71565b5083600401600181548110611f2557634e487b7160e01b600052603260045260246000fd5b90600052602060002001548042101560405180604001604052806002815260200161353360f01b81525090611f6d5760405162461bcd60e51b81526004016103f69190613a71565b5060405163db7e892160e01b815285906000907319eF137F58a21bda3aa9a259cCf37cd6A0859CA69063db7e892190611faa9085906004016139f5565b60206040518083038186803b158015611fc257600080fd5b505af4158015611fd6573d6000803e3d6000fd5b505050506040513d601f19601f82011682018060405250810190611ffa919061365d565b9050600081600a015411604051806040016040528060028152602001611a9b60f11b8152509061203d5760405162461bcd60e51b81526004016103f69190613a71565b5060405163230ef19960e21b81527319eF137F58a21bda3aa9a259cCf37cd6A0859CA690638c3bc66490612077908a908a90600401613c98565b60206040518083038186803b15801561208f57600080fd5b505af41580156120a3573d6000803e3d6000fd5b505050506040513d601f19601f820116820180604052508101906120c79190613268565b506040516345597be160e11b81527319eF137F58a21bda3aa9a259cCf37cd6A0859CA690638ab2f7c290612102908a90600290600401613c84565b60206040518083038186803b15801561211a57600080fd5b505af415801561212e573d6000803e3d6000fd5b505050506040513d601f19601f820116820180604052508101906121529190613268565b5050505050505050565b612164612bba565b60405180610100016040528084600001548152602001838152602001846001015481526020018460020154815260200184600301548152602001846004018054806020026020016040519081016040528092919081815260200182805480156121ec57602002820191906000526020600020905b8154815260200190600101908083116121d8575b5050509183525050600585015460209091019060ff16600481111561222157634e487b7160e01b600052602160045260246000fd5b8152602001736418479cc723c4121c86E0ECC459a73547C932e163327d2e01866006016040518263ffffffff1660e01b815260040161226091906139f5565b60006040518083038186803b15801561227857600080fd5b505af415801561228c573d6000803e3d6000fd5b505050506040513d6000823e601f3d908101601f191682016040526122b49190810190613052565b90529392505050565b60405163db7e892160e01b815260009081907319eF137F58a21bda3aa9a259cCf37cd6A0859CA69063db7e8921906122f99087906004016139f5565b60206040518083038186803b15801561231157600080fd5b505af4158015612325573d6000803e3d6000fd5b505050506040513d601f19601f82011682018060405250810190612349919061365d565b9050600081600301548461235d9190613ea4565b612368906002613ea4565b9050612376816103e8612b32565b95945050505050565b612387612c1e565b60405163c466486960e01b81526000907319eF137F58a21bda3aa9a259cCf37cd6A0859CA69063c4664869906123c39088908790600401613c98565b60206040518083038186803b1580156123db57600080fd5b505af41580156123ef573d6000803e3d6000fd5b505050506040513d601f19601f82011682018060405250810190612413919061365d565b6007810154604051635f09024560e11b815291925090600090737481003653ea47b7889C8eAb8d7c2A0577aFbd129063be12048a906124589086908690600401613c98565b60206040518083038186803b15801561247057600080fd5b505af4158015612484573d6000803e3d6000fd5b505050506040513d601f19601f820116820180604052508101906124a8919061365d565b9050600080737481003653ea47b7889C8eAb8d7c2A0577aFbd126389e48ba1856040518263ffffffff1660e01b81526004016124e491906139f5565b604080518083038186803b1580156124fb57600080fd5b505af415801561250f573d6000803e3d6000fd5b505050506040513d601f19601f820116820180604052508101906125339190613775565b9150915084736418479cc723c4121c86E0ECC459a73547C932e16301d84af590916040518061010001604052808c6001600160a01b03168152602001868152602001858152602001888152602001878152602001896004015481526020018960050154815260200189600601548152506040518363ffffffff1660e01b81526004016125c0929190613d66565b60a06040518083038186803b1580156125d857600080fd5b505af41580156125ec573d6000803e3d6000fd5b505050506040513d601f19601f8201168201806040525081019061261091906135e3565b9998505050505050505050565b6000808211604051806040016040528060028152602001611b1960f11b8152509061265b5760405162461bcd60e51b81526004016103f69190613a71565b50600080736418479cc723c4121c86E0ECC459a73547C932e16304fb8e1a877319eF137F58a21bda3aa9a259cCf37cd6A0859CA663c46648699091886040518363ffffffff1660e01b81526004016126b4929190613c98565b60206040518083038186803b1580156126cc57600080fd5b505af41580156126e0573d6000803e3d6000fd5b505050506040513d601f19601f82011682018060405250810190612704919061365d565b7319eF137F58a21bda3aa9a259cCf37cd6A0859CA663c46648698a61272a60018b613ec3565b6040518363ffffffff1660e01b8152600401612747929190613c98565b60206040518083038186803b15801561275f57600080fd5b505af4158015612773573d6000803e3d6000fd5b505050506040513d601f19601f82011682018060405250810190612797919061365d565b886040518463ffffffff1660e01b81526004016127b693929190613de8565b604080518083038186803b1580156127cd57600080fd5b505af41580156127e1573d6000803e3d6000fd5b505050506040513d601f19601f82011682018060405250810190612805919061374a565b915091508060405180604001604052806002815260200161363360f01b81525090611e8e5760405162461bcd60e51b81526004016103f69190613a71565b600080808084600480600583015460ff16600481111561287357634e487b7160e01b600052602160045260246000fd5b14604051806040016040528060028152602001610d4d60f21b815250906128ad5760405162461bcd60e51b81526004016103f69190613a71565b506003870154604080518082019091526002815261363560f01b60208201528891156128ec5760405162461bcd60e51b81526004016103f69190613a71565b5060405163db7e892160e01b81526000907319eF137F58a21bda3aa9a259cCf37cd6A0859CA69063db7e892190612927908c906004016139f5565b60206040518083038186803b15801561293f57600080fd5b505af4158015612953573d6000803e3d6000fd5b505050506040513d601f19601f82011682018060405250810190612977919061365d565b60405162ffd60560e01b8152909150736418479cc723c4121c86E0ECC459a73547C932e19062ffd605906129af9084906004016139f5565b60606040518083038186803b1580156129c757600080fd5b505af41580156129db573d6000803e3d6000fd5b505050506040513d601f19601f820116820180604052508101906129ff9190613798565b60018c01546040516305d5e26960e21b8152939b50995090975095507319eF137F58a21bda3aa9a259cCf37cd6A0859CA69063175789a490612a47908c908c90600401613c98565b60206040518083038186803b158015612a5f57600080fd5b505af4158015612a73573d6000803e3d6000fd5b505050506040513d601f19601f82011682018060405250810190612a979190613268565b50505050509193509193565b60008080805b600b811015612b1b578185600c0182600b8110612ad657634e487b7160e01b600052603260045260246000fd5b01541115612b095780925084600c0181600b8110612b0457634e487b7160e01b600052603260045260246000fd5b015491505b80612b1381613f06565b915050612aa9565b50909150505b919050565b6000611e948383612b58565b600081156113881983900484111517612b4a57600080fd5b506127109102611388010490565b6000612b648383612ba2565b612b9a57508154600181810184556000848152602080822090930184905584548482528286019093526040902091909155610532565b506000610532565b60009081526001919091016020526040902054151590565b60405180610100016040528060008152602001600081526020016000815260200160008152602001600081526020016060815260200160006004811115612c1157634e487b7160e01b600052602160045260246000fd5b8152602001606081525090565b6040518060a001604052806000151581526020016000151581526020016000815260200160008152602001600081525090565b8051612b2181613f4d565b600082601f830112612c6c578081fd5b81356020612c81612c7c83613e42565b613e19565b8281528181019085830183850287018401881015612c9d578586fd5b855b85811015612cc4578135612cb281613f4d565b84529284019290840190600101612c9f565b5090979650505050505050565b600082601f830112612ce1578081fd5b81516020612cf1612c7c83613e42565b8281528181019085830183850287018401881015612d0d578586fd5b855b85811015612cc4578151612d2281613f4d565b84529284019290840190600101612d0f565b600082601f830112612d44578081fd5b81516020612d54612c7c83613e42565b82815281810190858301855b85811015612cc45781518801606080601f19838d03011215612d80578889fd5b604080518281016001600160401b038282108183111715612da357612da3613f37565b818452858b0151835285840151838c0152938501519380851115612dc5578c8dfd5b5050612dd58d8a85870101613007565b91810191909152865250509284019290840190600101612d60565b600082601f830112612e00578081fd5b81516020612e10612c7c83613e42565b82815281810190858301855b85811015612cc4578151880160c080601f19838d03011215612e3c578889fd5b604080518281016001600160401b038282108183111715612e5f57612e5f613f37565b818452612e6d8b8701612c51565b8352838601518b8401526060860151848401526080860151606084015260a0935083860151915080821115612ea0578c8dfd5b50612eaf8e8b83880101613007565b608083015250612ec0838501612fab565b91810191909152865250509284019290840190600101612e1c565b600082601f830112612eeb578081fd5b6040516101608082018281106001600160401b0382111715612f0f57612f0f613f37565b6040528184828101871015612f22578485fd5b8492505b600b831015612f4657805182526001929092019160209182019101612f26565b509195945050505050565b600082601f830112612f61578081fd5b81516020612f71612c7c83613e42565b8281528181019085830183850287018401881015612f8d578586fd5b855b85811015612cc457815184529284019290840190600101612f8f565b80518015158114612b2157600080fd5b600082601f830112612fcb578081fd5b8135612fd9612c7c82613e65565b818152846020838601011115612fed578283fd5b816020850160208301379081016020019190915292915050565b600082601f830112613017578081fd5b8151613025612c7c82613e65565b818152846020838601011115613039578283fd5b61304a826020830160208701613eda565b949350505050565b60006020808385031215613064578182fd5b82516001600160401b038082111561307a578384fd5b818501915085601f83011261308d578384fd5b815161309b612c7c82613e42565b81815284810190848601875b8481101561325957815187016103c0818d03601f190112156130c757898afd5b6130d2610280613e19565b89820151815260408201518a820152606082015160408201526080820151606082015260a0820151608082015260c082015160a082015260e082015160c08201526101008083015160e083015261012080840151828401526101409150818401518184015250610160808401518284015261018091508184015181840152506101a06131608f828601612edb565b82840152610300840151915089821115613178578c8dfd5b6131868f8d84870101612f51565b90830152506103208201516101c0820152610340820151888111156131a9578b8cfd5b6131b78e8c83860101612df0565b6101e083015250610360820151888111156131d0578b8cfd5b6131de8e8c83860101612d34565b61020083015250610380820151888111156131f7578b8cfd5b6132058e8c83860101612cd1565b610220830152506103a08201518881111561321e578b8cfd5b61322c8e8c83860101612cd1565b610240830152506132406103c08301612fab565b61026082015285525092870192908701906001016130a7565b50909998505050505050505050565b600060208284031215613279578081fd5b611e9482612fab565b600060208284031215613293578081fd5b5035919050565b6000806000606084860312156132ae578182fd5b8335925060208401356132c081613f4d565b929592945050506040919091013590565b60008082840360c08112156132e4578283fd5b8335925060a0601f19820112156132f9578182fd5b5060405160a081018181106001600160401b038211171561331c5761331c613f37565b80604052506020840135815260408401356020820152606084013560408201526080840135606082015260a08401356080820152809150509250929050565b6000806040838503121561336d578182fd5b8235915060208301356001600160401b038082111561338a578283fd5b908401906060828703121561339d578283fd5b6040516060810181811083821117156133b8576133b8613f37565b806040525082358152602083013560208201526040830135828111156133dc578485fd5b6133e888828601612fbb565b6040830152508093505050509250929050565b6000806040838503121561340d578182fd5b8235915060208301356001600160401b038082111561342a578283fd5b9084019060a0828703121561343d578283fd5b60405160a08101818110838211171561345857613458613f37565b806040525082358152602083013560208201526040830135604082015260608301356060820152608083013582811115613490578485fd5b61349c88828601612c5c565b6080830152508093505050509250929050565b600080604083850312156134c1578182fd5b50508035926020909101359150565b600080600080608085870312156134e5578182fd5b843593506020850135925060408501356001600160401b03811115613508578283fd5b61351487828801612fbb565b925050606085013561352581613f4d565b939692955090935050565b600080600080600060a08688031215613547578283fd5b853594506020860135935060408601356001600160401b038082111561356b578485fd5b61357789838a01612fbb565b9450606088013591508082111561358c578283fd5b5061359988828901612fbb565b92505060808601356135aa81613f4d565b809150509295509295909350565b6000806000606084860312156135cc578081fd5b505081359360208301359350604090920135919050565b600060a082840312156135f4578081fd5b60405160a081018181106001600160401b038211171561361657613616613f37565b60405261362283612fab565b815261363060208401612fab565b60208201526040830151604082015260608301516060820152608083015160808201528091505092915050565b60006020828403121561366e578081fd5b5051919050565b600080600060608486031215613689578081fd5b833592506020840135915060408401356001600160401b03808211156136ad578283fd5b81860191506101208083890312156136c3578384fd5b6136cc81613e19565b9050823581526020830135602082015260408301356040820152606083013560608201526080830135608082015260a083013560a082015260c083013560c082015260e083013560e0820152610100808401358381111561372b578586fd5b6137378a828701612c5c565b8284015250508093505050509250925092565b6000806040838503121561375c578182fd5b8251915061376c60208401612fab565b90509250929050565b60008060408385031215613787578182fd5b505080516020909101519092909150565b6000806000606084860312156137ac578081fd5b8351925060208401519150604084015190509250925092565b600080600080608085870312156137da578182fd5b5050823594602084013594506040840135936060013592509050565b6000815180845260208085019450808401835b8381101561382e5781516001600160a01b031687529582019590820190600101613809565b509495945050505050565b6000815180845260208085018081965082840281019150828601855b8581101561387f57828403895261386d8483516139cc565b98850198935090840190600101613855565b5091979650505050505050565b6000815180845260208085018081965082840281019150828601855b8581101561387f578284038952815180516001600160a01b031685528581015186860152604080820151908601526060808201519086015260808082015160c082880181905291906138fc838901826139a0565b60a094850151151598909401979097525050988501989350908401906001016138a8565b8060005b600b811015613943578151845260209384019390910190600101613924565b50505050565b6000815180845260208085019450808401835b8381101561382e5781518752958201959082019060010161395c565b15159052565b6005811061399c57634e487b7160e01b600052602160045260246000fd5b9052565b600081518084526139b8816020860160208601613eda565b601f01601f19169290920160200192915050565b6000815183526020820151602084015260408201516060604085015261304a60608501826139a0565b90815260200190565b600083825260406020830152825160408301526020830151606083015260408301516080830152606083015160a0830152608083015160c083015260a083015160c060e08401526123766101008401826137f6565b600060208252611e946020830184613949565b901515815260200190565b600060208252611e9460208301846139a0565b60006020808352610120845182850152818501516040818187015280870151915060608281880152808801519250608083818901528089015193508360a089015260a089015193506101008060c08a0152613ae1868a0186613949565b945060c08a0151613af560e08b018261397e565b5060e08a0151601f198a87038101838c0152815180885291890191898801908a810289018b018c5b82811015613c7157848b830301845285516103c0815184528e8201518f8501528b8201518c8501528a8201518b850152898201518a85015260a082015160a085015260c082015160c085015260e082015160e085015288820151898501528d8201518e85015261014080830151818601525061016080830151818601525061018080830151613bae82870182613920565b50506101a0820151816102e0860152613bc982860182613949565b9150506101c08201516103008501526101e0820151848203610320860152613bf1828261388c565b915050610200820151848203610340860152613c0d8282613839565b915050610220820151848203610360860152613c2982826137f6565b915050610240820151848203610380860152613c4582826137f6565b9150506102608201519150613c5e6103a0850183613978565b968e0196948e0194925050600101613b1d565b509e9d5050505050505050505050505050565b82815260408101611e94602083018461397e565b918252602082015260400190565b600060a08201905082511515825260208301511515602083015260408301516040830152606083015160608301526080830151608083015292915050565b600085825260018060a01b038516602083015283604083015260806060830152613d1160808301846139a0565b9695505050505050565b600086825260018060a01b038616602083015284604083015260a06060830152613d4860a08301856139a0565b8281036080840152613d5a81856139a0565b98975050505050505050565b60006101208201905083825260018060a01b038351166020830152602083015160408301526040830151606083015260608301516080830152608083015160a083015260a083015160c083015260c083015160e083015260e08301516101008301529392505050565b60008382526040602083015261304a60408301846139cc565b9283526020830191909152604082015260600190565b93845260208401929092526040830152606082015260800190565b6040518181016001600160401b0381118282101715613e3a57613e3a613f37565b604052919050565b60006001600160401b03821115613e5b57613e5b613f37565b5060209081020190565b60006001600160401b03821115613e7e57613e7e613f37565b50601f01601f191660200190565b60008219821115613e9f57613e9f613f21565b500190565b6000816000190483118215151615613ebe57613ebe613f21565b500290565b600082821015613ed557613ed5613f21565b500390565b60005b83811015613ef5578181015183820152602001613edd565b838111156139435750506000910152565b6000600019821415613f1a57613f1a613f21565b5060010190565b634e487b7160e01b600052601160045260246000fd5b634e487b7160e01b600052604160045260246000fd5b6001600160a01b038116811461038d57600080fdfea264697066735822122046a2a8726e484139bbf8a92327e855b0e55f05d251cf620780cdd8bf3978d42a64736f6c63430008000033",
  "deployedBytecode": "0x73000000000000000000000000000000000000000030146080604052600436106101205760003560e01c806390bc2a91116100ac578063a191f9b31161007b578063a191f9b3146102dd578063a59ae3a4146102fd578063d5a22c1e14610310578063e06f7e741461033d578063ebc3655d1461035d57610120565b806390bc2a911461025d578063987198041461027d5780639d403dc51461029d5780639e3918e6146102bd57610120565b8063425791c4116100f3578063425791c4146101bd5780634aac5052146101dd5780635f8fdbc5146101fd5780636a7809e51461021d5780637254894a1461023d57610120565b80630b4b3b1f14610125578063101ee79114610147578063115e1e5f1461017d578063369de64f1461019d575b600080fd5b81801561013157600080fd5b50610145610140366004613282565b61038d565b005b81801561015357600080fd5b5061016761016236600461335b565b610390565b6040516101749190613a66565b60405180910390f35b61019061018b3660046134af565b610523565b60405161017491906139f5565b8180156101a957600080fd5b506101676101b83660046134d0565b610538565b8180156101c957600080fd5b506101676101d83660046133fb565b6106c9565b6101f06101eb3660046137c5565b610a97565b6040516101749190613a53565b81801561020957600080fd5b506101456102183660046132d1565b610c20565b81801561022957600080fd5b50610145610238366004613282565b6111f0565b81801561024957600080fd5b506101676102583660046135b8565b611619565b81801561026957600080fd5b50610167610278366004613530565b611786565b81801561028957600080fd5b506101456102983660046134af565b6118f9565b8180156102a957600080fd5b506101676102b8366004613675565b611c7e565b8180156102c957600080fd5b506101456102d83660046134af565b611e9b565b6102f06102eb3660046134af565b61215c565b6040516101749190613a84565b61019061030b3660046134af565b6122bd565b81801561031c57600080fd5b5061033061032b36600461329a565b61237f565b6040516101749190613ca6565b81801561034957600080fd5b506101906103583660046135b8565b61261d565b81801561036957600080fd5b5061037d610378366004613282565b612843565b6040516101749493929190613dfe565b50565b6000828180600583015460ff1660048111156103bc57634e487b7160e01b600052602160045260246000fd5b14604051806040016040528060028152602001610d4d60f21b815250906103ff5760405162461bcd60e51b81526004016103f69190613a71565b60405180910390fd5b5060405163db7e892160e01b815260009073__$a30805314670aba7a268b004e381771f39$__9063db7e89219061043a9089906004016139f5565b60206040518083038186803b15801561045257600080fd5b505af4158015610466573d6000803e3d6000fd5b505050506040513d601f19601f8201168201806040525081019061048a919061365d565b6040516331d0395d60e11b815290915073__$81e31c3dd8ba021b250581ddc9f3365d5d$__906363a072ba906104c69084908990600401613dcf565b60206040518083038186803b1580156104de57600080fd5b505af41580156104f2573d6000803e3d6000fd5b505050506040513d601f19601f820116820180604052508101906105169190613268565b5060019695505050505050565b60008281526020829052604090205b92915050565b600084600180600583015460ff16600481111561056557634e487b7160e01b600052602160045260246000fd5b14604051806040016040528060028152602001610d4d60f21b8152509061059f5760405162461bcd60e51b81526004016103f69190613a71565b5060405163db7e892160e01b815260009073__$a30805314670aba7a268b004e381771f39$__9063db7e8921906105da908b906004016139f5565b60206040518083038186803b1580156105f257600080fd5b505af4158015610606573d6000803e3d6000fd5b505050506040513d601f19601f8201168201806040525081019061062a919061365d565b60405163ba30c1a760e01b815290915073__$81e31c3dd8ba021b250581ddc9f3365d5d$__9063ba30c1a79061066a90849089908c908c90600401613ce4565b60206040518083038186803b15801561068257600080fd5b505af4158015610696573d6000803e3d6000fd5b505050506040513d601f19601f820116820180604052508101906106ba9190613268565b50600198975050505050505050565b600082600480600583015460ff1660048111156106f657634e487b7160e01b600052602160045260246000fd5b14604051806040016040528060028152602001610d4d60f21b815250906107305760405162461bcd60e51b81526004016103f69190613a71565b5060405163db7e892160e01b815260009073__$a30805314670aba7a268b004e381771f39$__9063db7e89219061076b9089906004016139f5565b60206040518083038186803b15801561078357600080fd5b505af4158015610797573d6000803e3d6000fd5b505050506040513d601f19601f820116820180604052508101906107bb919061365d565b60405163164ca46760e31b815290915073__$af828e0c356433108d8dfb596a8a6763fb$__9063b2652338906107f59084906004016139f5565b60206040518083038186803b15801561080d57600080fd5b505af4158015610821573d6000803e3d6000fd5b505050506040513d601f19601f820116820180604052508101906108459190613268565b60405180604001604052806002815260200161363160f01b8152509061087e5760405162461bcd60e51b81526004016103f69190613a71565b506040516345597be160e11b815273__$a30805314670aba7a268b004e381771f39$__90638ab2f7c2906108b9908990600090600401613c84565b60206040518083038186803b1580156108d157600080fd5b505af41580156108e5573d6000803e3d6000fd5b505050506040513d601f19601f820116820180604052508101906109099190613268565b50604051636377233f60e11b815273__$a30805314670aba7a268b004e381771f39$__9063c6ee467e906109419089906004016139f5565b60206040518083038186803b15801561095957600080fd5b505af415801561096d573d6000803e3d6000fd5b505050506040513d601f19601f820116820180604052508101906109919190613268565b50845160405163230ef19960e21b815273__$a30805314670aba7a268b004e381771f39$__91638c3bc664916109cb918a91600401613c98565b60206040518083038186803b1580156109e357600080fd5b505af41580156109f7573d6000803e3d6000fd5b505050506040513d601f19601f82011682018060405250810190610a1b9190613268565b506040805160c08101825286820151815260608088015160208084019190915288015182840152835490820152600183015460808083019190915287015160a0820152905163365e702360e21b815273__$81e31c3dd8ba021b250581ddc9f3365d5d$__9163d979c08c916104c69160068b01916004016139fe565b60408051600480825260a0820190925260609142919060208201608080368337019050509150610ac78682613e8c565b82600081518110610ae857634e487b7160e01b600052603260045260246000fd5b6020026020010181815250508482600081518110610b1657634e487b7160e01b600052603260045260246000fd5b6020026020010151610b289190613e8c565b82600181518110610b4957634e487b7160e01b600052603260045260246000fd5b6020026020010181815250508382600181518110610b7757634e487b7160e01b600052603260045260246000fd5b6020026020010151610b899190613e8c565b82600281518110610baa57634e487b7160e01b600052603260045260246000fd5b6020026020010181815250508282600281518110610bd857634e487b7160e01b600052603260045260246000fd5b6020026020010151610bea9190613e8c565b82600381518110610c0b57634e487b7160e01b600052603260045260246000fd5b60200260200101818152505050949350505050565b81600080600583015460ff166004811115610c4b57634e487b7160e01b600052602160045260246000fd5b14604051806040016040528060028152602001610d4d60f21b81525090610c855760405162461bcd60e51b81526004016103f69190613a71565b5083600401600081548110610caa57634e487b7160e01b600052603260045260246000fd5b90600052602060002001548042101560405180604001604052806002815260200161353360f01b81525090610cf25760405162461bcd60e51b81526004016103f69190613a71565b5060405163db7e892160e01b815260009073__$a30805314670aba7a268b004e381771f39$__9063db7e892190610d2d9089906004016139f5565b60206040518083038186803b158015610d4557600080fd5b505af4158015610d59573d6000803e3d6000fd5b505050506040513d601f19601f82011682018060405250810190610d7d919061365d565b60405163e6053cff60e01b815290915073__$81e31c3dd8ba021b250581ddc9f3365d5d$__9063e6053cff90610db79084906004016139f5565b60206040518083038186803b158015610dcf57600080fd5b505af4158015610de3573d6000803e3d6000fd5b505050506040513d601f19601f82011682018060405250810190610e079190613268565b15610f2957604080860151905163230ef19960e21b815273__$a30805314670aba7a268b004e381771f39$__91638c3bc66491610e48918a91600401613c98565b60206040518083038186803b158015610e6057600080fd5b505af4158015610e74573d6000803e3d6000fd5b505050506040513d601f19601f82011682018060405250810190610e989190613268565b506040516345597be160e11b815273__$a30805314670aba7a268b004e381771f39$__90638ab2f7c290610ed3908990600190600401613c84565b60206040518083038186803b158015610eeb57600080fd5b505af4158015610eff573d6000803e3d6000fd5b505050506040513d601f19601f82011682018060405250810190610f239190613268565b506111e8565b604080860151905163230ef19960e21b815273__$a30805314670aba7a268b004e381771f39$__91638c3bc66491610f65918a91600401613c98565b60206040518083038186803b158015610f7d57600080fd5b505af4158015610f91573d6000803e3d6000fd5b505050506040513d601f19601f82011682018060405250810190610fb59190613268565b50606085015160405163230ef19960e21b815273__$a30805314670aba7a268b004e381771f39$__91638c3bc66491610ff2918a91600401613c98565b60206040518083038186803b15801561100a57600080fd5b505af415801561101e573d6000803e3d6000fd5b505050506040513d601f19601f820116820180604052508101906110429190613268565b50608085015160405163230ef19960e21b815273__$a30805314670aba7a268b004e381771f39$__91638c3bc6649161107f918a91600401613c98565b60206040518083038186803b15801561109757600080fd5b505af41580156110ab573d6000803e3d6000fd5b505050506040513d601f19601f820116820180604052508101906110cf9190613268565b506040516345597be160e11b815273__$a30805314670aba7a268b004e381771f39$__90638ab2f7c29061110a908990600390600401613c84565b60206040518083038186803b15801561112257600080fd5b505af4158015611136573d6000803e3d6000fd5b505050506040513d601f19601f8201168201806040525081019061115a9190613268565b5060405163764a60fb60e11b815273__$af828e0c356433108d8dfb596a8a6763fb$__9063ec94c1f69061119690849061271090600401613c98565b60206040518083038186803b1580156111ae57600080fd5b505af41580156111c2573d6000803e3d6000fd5b505050506040513d601f19601f820116820180604052508101906111e69190613268565b505b505050505050565b80600380600583015460ff16600481111561121b57634e487b7160e01b600052602160045260246000fd5b14604051806040016040528060028152602001610d4d60f21b815250906112555760405162461bcd60e51b81526004016103f69190613a71565b508260040160038154811061127a57634e487b7160e01b600052603260045260246000fd5b90600052602060002001548042101560405180604001604052806002815260200161353360f01b815250906112c25760405162461bcd60e51b81526004016103f69190613a71565b506040516345597be160e11b815273__$a30805314670aba7a268b004e381771f39$__90638ab2f7c2906112fc9087906004908101613c84565b60206040518083038186803b15801561131457600080fd5b505af4158015611328573d6000803e3d6000fd5b505050506040513d601f19601f8201168201806040525081019061134c9190613268565b5060405163db7e892160e01b815260009073__$a30805314670aba7a268b004e381771f39$__9063db7e8921906113879088906004016139f5565b60206040518083038186803b15801561139f57600080fd5b505af41580156113b3573d6000803e3d6000fd5b505050506040513d601f19601f820116820180604052508101906113d7919061365d565b60078101546040516389e48ba160e01b815291925090600090819073__$af828e0c356433108d8dfb596a8a6763fb$__906389e48ba19061141c9086906004016139f5565b604080518083038186803b15801561143357600080fd5b505af4158015611447573d6000803e3d6000fd5b505050506040513d601f19601f8201168201806040525081019061146b9190613775565b60405163c0b088f760e01b8152919350915073__$af828e0c356433108d8dfb596a8a6763fb$__906357d4723490869073__$81e31c3dd8ba021b250581ddc9f3365d5d$__9063c0b088f7906114c990849089908990600401613de8565b60206040518083038186803b1580156114e157600080fd5b505af41580156114f5573d6000803e3d6000fd5b505050506040513d601f19601f82011682018060405250810190611519919061365d565b6040518363ffffffff1660e01b8152600401611536929190613c98565b60206040518083038186803b15801561154e57600080fd5b505af4158015611562573d6000803e3d6000fd5b505050506040513d601f19601f820116820180604052508101906115869190613268565b5060405163d1e1ddff60e01b815273__$af828e0c356433108d8dfb596a8a6763fb$__9063d1e1ddff906115be9087906004016139f5565b60206040518083038186803b1580156115d657600080fd5b505af41580156115ea573d6000803e3d6000fd5b505050506040513d601f19601f8201168201806040525081019061160e9190613268565b505050505050505050565b600083600380600583015460ff16600481111561164657634e487b7160e01b600052602160045260246000fd5b14604051806040016040528060028152602001610d4d60f21b815250906116805760405162461bcd60e51b81526004016103f69190613a71565b5060405163db7e892160e01b815260009073__$a30805314670aba7a268b004e381771f39$__9063db7e8921906116bb908a906004016139f5565b60206040518083038186803b1580156116d357600080fd5b505af41580156116e7573d6000803e3d6000fd5b505050506040513d601f19601f8201168201806040525081019061170b919061365d565b6040516317eb2c5b60e11b815290915073__$81e31c3dd8ba021b250581ddc9f3365d5d$__90632fd658b6906117499084908a908a90600401613de8565b60006040518083038186803b15801561176157600080fd5b505af4158015611775573d6000803e3d6000fd5b5060019a9950505050505050505050565b600085600280600583015460ff1660048111156117b357634e487b7160e01b600052602160045260246000fd5b14604051806040016040528060028152602001610d4d60f21b815250906117ed5760405162461bcd60e51b81526004016103f69190613a71565b5060405163db7e892160e01b815260009073__$a30805314670aba7a268b004e381771f39$__9063db7e892190611828908c906004016139f5565b60206040518083038186803b15801561184057600080fd5b505af4158015611854573d6000803e3d6000fd5b505050506040513d601f19601f82011682018060405250810190611878919061365d565b604051635dd10b2960e11b815290915073__$81e31c3dd8ba021b250581ddc9f3365d5d$__9063bba21652906118ba90849089908d908d908d90600401613d1b565b60006040518083038186803b1580156118d257600080fd5b505af41580156118e6573d6000803e3d6000fd5b5060019c9b505050505050505050505050565b81600280600583015460ff16600481111561192457634e487b7160e01b600052602160045260246000fd5b14604051806040016040528060028152602001610d4d60f21b8152509061195e5760405162461bcd60e51b81526004016103f69190613a71565b508360040160028154811061198357634e487b7160e01b600052603260045260246000fd5b90600052602060002001548042101560405180604001604052806002815260200161353360f01b815250906119cb5760405162461bcd60e51b81526004016103f69190613a71565b5060405163db7e892160e01b8152859060009073__$a30805314670aba7a268b004e381771f39$__9063db7e892190611a089085906004016139f5565b60206040518083038186803b158015611a2057600080fd5b505af4158015611a34573d6000803e3d6000fd5b505050506040513d601f19601f82011682018060405250810190611a58919061365d565b9050600081600901541160405180604001604052806002815260200161353760f01b81525090611a9b5760405162461bcd60e51b81526004016103f69190613a71565b506040516345597be160e11b815273__$a30805314670aba7a268b004e381771f39$__90638ab2f7c290611ad6908a90600390600401613c84565b60206040518083038186803b158015611aee57600080fd5b505af4158015611b02573d6000803e3d6000fd5b505050506040513d601f19601f82011682018060405250810190611b269190613268565b5060405163230ef19960e21b815273__$a30805314670aba7a268b004e381771f39$__90638c3bc66490611b60908a908a90600401613c98565b60206040518083038186803b158015611b7857600080fd5b505af4158015611b8c573d6000803e3d6000fd5b505050506040513d601f19601f82011682018060405250810190611bb09190613268565b5060405163db7e892160e01b815260009073__$a30805314670aba7a268b004e381771f39$__9063db7e892190611beb908b906004016139f5565b60206040518083038186803b158015611c0357600080fd5b505af4158015611c17573d6000803e3d6000fd5b505050506040513d601f19601f82011682018060405250810190611c3b919061365d565b905073__$af828e0c356433108d8dfb596a8a6763fb$__63ec94c1f682611c6181612aa3565b6040518363ffffffff1660e01b81526004016115be929190613c98565b80516000908190611c90908690612b26565b90506000611ca2846000015186610523565b60e085015160405163230ef19960e21b815291925073__$a30805314670aba7a268b004e381771f39$__91638c3bc66491611ce291859190600401613c98565b60206040518083038186803b158015611cfa57600080fd5b505af4158015611d0e573d6000803e3d6000fd5b505050506040513d601f19601f82011682018060405250810190611d329190613268565b508060060173__$81e31c3dd8ba021b250581ddc9f3365d5d$__63d979c08c90916040518060c001604052808860a0015181526020018860c0015181526020018860800151815260200188604001518152602001886060015181526020018861010001518152506040518363ffffffff1660e01b8152600401611db69291906139fe565b60206040518083038186803b158015611dce57600080fd5b505af4158015611de2573d6000803e3d6000fd5b505050506040513d601f19601f82011682018060405250810190611e069190613268565b5060405163218d0a6360e01b815273__$a30805314670aba7a268b004e381771f39$__9063218d0a6390611e3e9084906004016139f5565b60206040518083038186803b158015611e5657600080fd5b505af4158015611e6a573d6000803e3d6000fd5b505050506040513d601f19601f82011682018060405250810190611e8e9190613268565b50909150505b9392505050565b81600180600583015460ff166004811115611ec657634e487b7160e01b600052602160045260246000fd5b14604051806040016040528060028152602001610d4d60f21b81525090611f005760405162461bcd60e51b81526004016103f69190613a71565b5083600401600181548110611f2557634e487b7160e01b600052603260045260246000fd5b90600052602060002001548042101560405180604001604052806002815260200161353360f01b81525090611f6d5760405162461bcd60e51b81526004016103f69190613a71565b5060405163db7e892160e01b8152859060009073__$a30805314670aba7a268b004e381771f39$__9063db7e892190611faa9085906004016139f5565b60206040518083038186803b158015611fc257600080fd5b505af4158015611fd6573d6000803e3d6000fd5b505050506040513d601f19601f82011682018060405250810190611ffa919061365d565b9050600081600a015411604051806040016040528060028152602001611a9b60f11b8152509061203d5760405162461bcd60e51b81526004016103f69190613a71565b5060405163230ef19960e21b815273__$a30805314670aba7a268b004e381771f39$__90638c3bc66490612077908a908a90600401613c98565b60206040518083038186803b15801561208f57600080fd5b505af41580156120a3573d6000803e3d6000fd5b505050506040513d601f19601f820116820180604052508101906120c79190613268565b506040516345597be160e11b815273__$a30805314670aba7a268b004e381771f39$__90638ab2f7c290612102908a90600290600401613c84565b60206040518083038186803b15801561211a57600080fd5b505af415801561212e573d6000803e3d6000fd5b505050506040513d601f19601f820116820180604052508101906121529190613268565b5050505050505050565b612164612bba565b60405180610100016040528084600001548152602001838152602001846001015481526020018460020154815260200184600301548152602001846004018054806020026020016040519081016040528092919081815260200182805480156121ec57602002820191906000526020600020905b8154815260200190600101908083116121d8575b5050509183525050600585015460209091019060ff16600481111561222157634e487b7160e01b600052602160045260246000fd5b815260200173__$81e31c3dd8ba021b250581ddc9f3365d5d$__63327d2e01866006016040518263ffffffff1660e01b815260040161226091906139f5565b60006040518083038186803b15801561227857600080fd5b505af415801561228c573d6000803e3d6000fd5b505050506040513d6000823e601f3d908101601f191682016040526122b49190810190613052565b90529392505050565b60405163db7e892160e01b8152600090819073__$a30805314670aba7a268b004e381771f39$__9063db7e8921906122f99087906004016139f5565b60206040518083038186803b15801561231157600080fd5b505af4158015612325573d6000803e3d6000fd5b505050506040513d601f19601f82011682018060405250810190612349919061365d565b9050600081600301548461235d9190613ea4565b612368906002613ea4565b9050612376816103e8612b32565b95945050505050565b612387612c1e565b60405163c466486960e01b815260009073__$a30805314670aba7a268b004e381771f39$__9063c4664869906123c39088908790600401613c98565b60206040518083038186803b1580156123db57600080fd5b505af41580156123ef573d6000803e3d6000fd5b505050506040513d601f19601f82011682018060405250810190612413919061365d565b6007810154604051635f09024560e11b81529192509060009073__$af828e0c356433108d8dfb596a8a6763fb$__9063be12048a906124589086908690600401613c98565b60206040518083038186803b15801561247057600080fd5b505af4158015612484573d6000803e3d6000fd5b505050506040513d601f19601f820116820180604052508101906124a8919061365d565b905060008073__$af828e0c356433108d8dfb596a8a6763fb$__6389e48ba1856040518263ffffffff1660e01b81526004016124e491906139f5565b604080518083038186803b1580156124fb57600080fd5b505af415801561250f573d6000803e3d6000fd5b505050506040513d601f19601f820116820180604052508101906125339190613775565b915091508473__$81e31c3dd8ba021b250581ddc9f3365d5d$__6301d84af590916040518061010001604052808c6001600160a01b03168152602001868152602001858152602001888152602001878152602001896004015481526020018960050154815260200189600601548152506040518363ffffffff1660e01b81526004016125c0929190613d66565b60a06040518083038186803b1580156125d857600080fd5b505af41580156125ec573d6000803e3d6000fd5b505050506040513d601f19601f8201168201806040525081019061261091906135e3565b9998505050505050505050565b6000808211604051806040016040528060028152602001611b1960f11b8152509061265b5760405162461bcd60e51b81526004016103f69190613a71565b5060008073__$81e31c3dd8ba021b250581ddc9f3365d5d$__6304fb8e1a8773__$a30805314670aba7a268b004e381771f39$__63c46648699091886040518363ffffffff1660e01b81526004016126b4929190613c98565b60206040518083038186803b1580156126cc57600080fd5b505af41580156126e0573d6000803e3d6000fd5b505050506040513d601f19601f82011682018060405250810190612704919061365d565b73__$a30805314670aba7a268b004e381771f39$__63c46648698a61272a60018b613ec3565b6040518363ffffffff1660e01b8152600401612747929190613c98565b60206040518083038186803b15801561275f57600080fd5b505af4158015612773573d6000803e3d6000fd5b505050506040513d601f19601f82011682018060405250810190612797919061365d565b886040518463ffffffff1660e01b81526004016127b693929190613de8565b604080518083038186803b1580156127cd57600080fd5b505af41580156127e1573d6000803e3d6000fd5b505050506040513d601f19601f82011682018060405250810190612805919061374a565b915091508060405180604001604052806002815260200161363360f01b81525090611e8e5760405162461bcd60e51b81526004016103f69190613a71565b600080808084600480600583015460ff16600481111561287357634e487b7160e01b600052602160045260246000fd5b14604051806040016040528060028152602001610d4d60f21b815250906128ad5760405162461bcd60e51b81526004016103f69190613a71565b506003870154604080518082019091526002815261363560f01b60208201528891156128ec5760405162461bcd60e51b81526004016103f69190613a71565b5060405163db7e892160e01b815260009073__$a30805314670aba7a268b004e381771f39$__9063db7e892190612927908c906004016139f5565b60206040518083038186803b15801561293f57600080fd5b505af4158015612953573d6000803e3d6000fd5b505050506040513d601f19601f82011682018060405250810190612977919061365d565b60405162ffd60560e01b815290915073__$81e31c3dd8ba021b250581ddc9f3365d5d$__9062ffd605906129af9084906004016139f5565b60606040518083038186803b1580156129c757600080fd5b505af41580156129db573d6000803e3d6000fd5b505050506040513d601f19601f820116820180604052508101906129ff9190613798565b60018c01546040516305d5e26960e21b8152939b509950909750955073__$a30805314670aba7a268b004e381771f39$__9063175789a490612a47908c908c90600401613c98565b60206040518083038186803b158015612a5f57600080fd5b505af4158015612a73573d6000803e3d6000fd5b505050506040513d601f19601f82011682018060405250810190612a979190613268565b50505050509193509193565b60008080805b600b811015612b1b578185600c0182600b8110612ad657634e487b7160e01b600052603260045260246000fd5b01541115612b095780925084600c0181600b8110612b0457634e487b7160e01b600052603260045260246000fd5b015491505b80612b1381613f06565b915050612aa9565b50909150505b919050565b6000611e948383612b58565b600081156113881983900484111517612b4a57600080fd5b506127109102611388010490565b6000612b648383612ba2565b612b9a57508154600181810184556000848152602080822090930184905584548482528286019093526040902091909155610532565b506000610532565b60009081526001919091016020526040902054151590565b60405180610100016040528060008152602001600081526020016000815260200160008152602001600081526020016060815260200160006004811115612c1157634e487b7160e01b600052602160045260246000fd5b8152602001606081525090565b6040518060a001604052806000151581526020016000151581526020016000815260200160008152602001600081525090565b8051612b2181613f4d565b600082601f830112612c6c578081fd5b81356020612c81612c7c83613e42565b613e19565b8281528181019085830183850287018401881015612c9d578586fd5b855b85811015612cc4578135612cb281613f4d565b84529284019290840190600101612c9f565b5090979650505050505050565b600082601f830112612ce1578081fd5b81516020612cf1612c7c83613e42565b8281528181019085830183850287018401881015612d0d578586fd5b855b85811015612cc4578151612d2281613f4d565b84529284019290840190600101612d0f565b600082601f830112612d44578081fd5b81516020612d54612c7c83613e42565b82815281810190858301855b85811015612cc45781518801606080601f19838d03011215612d80578889fd5b604080518281016001600160401b038282108183111715612da357612da3613f37565b818452858b0151835285840151838c0152938501519380851115612dc5578c8dfd5b5050612dd58d8a85870101613007565b91810191909152865250509284019290840190600101612d60565b600082601f830112612e00578081fd5b81516020612e10612c7c83613e42565b82815281810190858301855b85811015612cc4578151880160c080601f19838d03011215612e3c578889fd5b604080518281016001600160401b038282108183111715612e5f57612e5f613f37565b818452612e6d8b8701612c51565b8352838601518b8401526060860151848401526080860151606084015260a0935083860151915080821115612ea0578c8dfd5b50612eaf8e8b83880101613007565b608083015250612ec0838501612fab565b91810191909152865250509284019290840190600101612e1c565b600082601f830112612eeb578081fd5b6040516101608082018281106001600160401b0382111715612f0f57612f0f613f37565b6040528184828101871015612f22578485fd5b8492505b600b831015612f4657805182526001929092019160209182019101612f26565b509195945050505050565b600082601f830112612f61578081fd5b81516020612f71612c7c83613e42565b8281528181019085830183850287018401881015612f8d578586fd5b855b85811015612cc457815184529284019290840190600101612f8f565b80518015158114612b2157600080fd5b600082601f830112612fcb578081fd5b8135612fd9612c7c82613e65565b818152846020838601011115612fed578283fd5b816020850160208301379081016020019190915292915050565b600082601f830112613017578081fd5b8151613025612c7c82613e65565b818152846020838601011115613039578283fd5b61304a826020830160208701613eda565b949350505050565b60006020808385031215613064578182fd5b82516001600160401b038082111561307a578384fd5b818501915085601f83011261308d578384fd5b815161309b612c7c82613e42565b81815284810190848601875b8481101561325957815187016103c0818d03601f190112156130c757898afd5b6130d2610280613e19565b89820151815260408201518a820152606082015160408201526080820151606082015260a0820151608082015260c082015160a082015260e082015160c08201526101008083015160e083015261012080840151828401526101409150818401518184015250610160808401518284015261018091508184015181840152506101a06131608f828601612edb565b82840152610300840151915089821115613178578c8dfd5b6131868f8d84870101612f51565b90830152506103208201516101c0820152610340820151888111156131a9578b8cfd5b6131b78e8c83860101612df0565b6101e083015250610360820151888111156131d0578b8cfd5b6131de8e8c83860101612d34565b61020083015250610380820151888111156131f7578b8cfd5b6132058e8c83860101612cd1565b610220830152506103a08201518881111561321e578b8cfd5b61322c8e8c83860101612cd1565b610240830152506132406103c08301612fab565b61026082015285525092870192908701906001016130a7565b50909998505050505050505050565b600060208284031215613279578081fd5b611e9482612fab565b600060208284031215613293578081fd5b5035919050565b6000806000606084860312156132ae578182fd5b8335925060208401356132c081613f4d565b929592945050506040919091013590565b60008082840360c08112156132e4578283fd5b8335925060a0601f19820112156132f9578182fd5b5060405160a081018181106001600160401b038211171561331c5761331c613f37565b80604052506020840135815260408401356020820152606084013560408201526080840135606082015260a08401356080820152809150509250929050565b6000806040838503121561336d578182fd5b8235915060208301356001600160401b038082111561338a578283fd5b908401906060828703121561339d578283fd5b6040516060810181811083821117156133b8576133b8613f37565b806040525082358152602083013560208201526040830135828111156133dc578485fd5b6133e888828601612fbb565b6040830152508093505050509250929050565b6000806040838503121561340d578182fd5b8235915060208301356001600160401b038082111561342a578283fd5b9084019060a0828703121561343d578283fd5b60405160a08101818110838211171561345857613458613f37565b806040525082358152602083013560208201526040830135604082015260608301356060820152608083013582811115613490578485fd5b61349c88828601612c5c565b6080830152508093505050509250929050565b600080604083850312156134c1578182fd5b50508035926020909101359150565b600080600080608085870312156134e5578182fd5b843593506020850135925060408501356001600160401b03811115613508578283fd5b61351487828801612fbb565b925050606085013561352581613f4d565b939692955090935050565b600080600080600060a08688031215613547578283fd5b853594506020860135935060408601356001600160401b038082111561356b578485fd5b61357789838a01612fbb565b9450606088013591508082111561358c578283fd5b5061359988828901612fbb565b92505060808601356135aa81613f4d565b809150509295509295909350565b6000806000606084860312156135cc578081fd5b505081359360208301359350604090920135919050565b600060a082840312156135f4578081fd5b60405160a081018181106001600160401b038211171561361657613616613f37565b60405261362283612fab565b815261363060208401612fab565b60208201526040830151604082015260608301516060820152608083015160808201528091505092915050565b60006020828403121561366e578081fd5b5051919050565b600080600060608486031215613689578081fd5b833592506020840135915060408401356001600160401b03808211156136ad578283fd5b81860191506101208083890312156136c3578384fd5b6136cc81613e19565b9050823581526020830135602082015260408301356040820152606083013560608201526080830135608082015260a083013560a082015260c083013560c082015260e083013560e0820152610100808401358381111561372b578586fd5b6137378a828701612c5c565b8284015250508093505050509250925092565b6000806040838503121561375c578182fd5b8251915061376c60208401612fab565b90509250929050565b60008060408385031215613787578182fd5b505080516020909101519092909150565b6000806000606084860312156137ac578081fd5b8351925060208401519150604084015190509250925092565b600080600080608085870312156137da578182fd5b5050823594602084013594506040840135936060013592509050565b6000815180845260208085019450808401835b8381101561382e5781516001600160a01b031687529582019590820190600101613809565b509495945050505050565b6000815180845260208085018081965082840281019150828601855b8581101561387f57828403895261386d8483516139cc565b98850198935090840190600101613855565b5091979650505050505050565b6000815180845260208085018081965082840281019150828601855b8581101561387f578284038952815180516001600160a01b031685528581015186860152604080820151908601526060808201519086015260808082015160c082880181905291906138fc838901826139a0565b60a094850151151598909401979097525050988501989350908401906001016138a8565b8060005b600b811015613943578151845260209384019390910190600101613924565b50505050565b6000815180845260208085019450808401835b8381101561382e5781518752958201959082019060010161395c565b15159052565b6005811061399c57634e487b7160e01b600052602160045260246000fd5b9052565b600081518084526139b8816020860160208601613eda565b601f01601f19169290920160200192915050565b6000815183526020820151602084015260408201516060604085015261304a60608501826139a0565b90815260200190565b600083825260406020830152825160408301526020830151606083015260408301516080830152606083015160a0830152608083015160c083015260a083015160c060e08401526123766101008401826137f6565b600060208252611e946020830184613949565b901515815260200190565b600060208252611e9460208301846139a0565b60006020808352610120845182850152818501516040818187015280870151915060608281880152808801519250608083818901528089015193508360a089015260a089015193506101008060c08a0152613ae1868a0186613949565b945060c08a0151613af560e08b018261397e565b5060e08a0151601f198a87038101838c0152815180885291890191898801908a810289018b018c5b82811015613c7157848b830301845285516103c0815184528e8201518f8501528b8201518c8501528a8201518b850152898201518a85015260a082015160a085015260c082015160c085015260e082015160e085015288820151898501528d8201518e85015261014080830151818601525061016080830151818601525061018080830151613bae82870182613920565b50506101a0820151816102e0860152613bc982860182613949565b9150506101c08201516103008501526101e0820151848203610320860152613bf1828261388c565b915050610200820151848203610340860152613c0d8282613839565b915050610220820151848203610360860152613c2982826137f6565b915050610240820151848203610380860152613c4582826137f6565b9150506102608201519150613c5e6103a0850183613978565b968e0196948e0194925050600101613b1d565b509e9d5050505050505050505050505050565b82815260408101611e94602083018461397e565b918252602082015260400190565b600060a08201905082511515825260208301511515602083015260408301516040830152606083015160608301526080830151608083015292915050565b600085825260018060a01b038516602083015283604083015260806060830152613d1160808301846139a0565b9695505050505050565b600086825260018060a01b038616602083015284604083015260a06060830152613d4860a08301856139a0565b8281036080840152613d5a81856139a0565b98975050505050505050565b60006101208201905083825260018060a01b038351166020830152602083015160408301526040830151606083015260608301516080830152608083015160a083015260a083015160c083015260c083015160e083015260e08301516101008301529392505050565b60008382526040602083015261304a60408301846139cc565b9283526020830191909152604082015260600190565b93845260208401929092526040830152606082015260800190565b6040518181016001600160401b0381118282101715613e3a57613e3a613f37565b604052919050565b60006001600160401b03821115613e5b57613e5b613f37565b5060209081020190565b60006001600160401b03821115613e7e57613e7e613f37565b50601f01601f191660200190565b60008219821115613e9f57613e9f613f21565b500190565b6000816000190483118215151615613ebe57613ebe613f21565b500290565b600082821015613ed557613ed5613f21565b500390565b60005b83811015613ef5578181015183820152602001613edd565b838111156139435750506000910152565b6000600019821415613f1a57613f1a613f21565b5060010190565b634e487b7160e01b600052601160045260246000fd5b634e487b7160e01b600052604160045260246000fd5b6001600160a01b038116811461038d57600080fdfea264697066735822122046a2a8726e484139bbf8a92327e855b0e55f05d251cf620780cdd8bf3978d42a64736f6c63430008000033",
  "libraries": {
    "DisputeDataLogic": "0x19eF137F58a21bda3aa9a259cCf37cd6A0859CA6",
    "RoundLogic": "0x6418479cc723c4121c86E0ECC459a73547C932e1",
    "RoundDataLogic": "0x7481003653ea47b7889C8eAb8d7c2A0577aFbd12",
    "InviterLogic": "0x85F0Fe200F946f76fc92AD911b4D21c196D8b71B",
    "SortitionSumTreeFactory": "0x98a5eA2D890197043Ab890082ABDf3402c50E0d9"
  },
  "devdoc": {
    "author": "Blockswan",
    "kind": "dev",
    "methods": {},
    "title": "Dispute logic library",
    "version": 1
  },
  "userdoc": {
    "kind": "user",
    "methods": {},
    "notice": "Implements the logic for dispute specific functions",
    "version": 1
  },
  "storageLayout": {
    "storage": [],
    "types": null
  }
}