{
  "address": "0x24c03e89796af2d6c021d475cAe56916dF15852C",
  "abi": [
    {
      "inputs": [
        {
          "internalType": "uint256",
          "name": "minStake",
          "type": "uint256"
        },
        {
          "internalType": "uint256",
          "name": "alpha",
          "type": "uint256"
        }
      ],
      "name": "calcTokenToFreeze",
      "outputs": [
        {
          "internalType": "uint256",
          "name": "",
          "type": "uint256"
        }
      ],
      "stateMutability": "pure",
      "type": "function"
    }
  ],
  "transactionHash": "0x4505b0c22f444c9c95156fc6a36d4e641b7938b5b1d3df7965227b934a460cc1",
  "args": [],
  "numDeployments": 1,
  "solcInputHash": "540ab05e3117b642ab74c32eb85f094d",
  "bytecode": "0x610baf61003a600b82828239805160001a60731461002d57634e487b7160e01b600052600060045260246000fd5b30600052607381538281f3fe73000000000000000000000000000000000000000030146080604052600436106100875760003560e01c806360b1276a1161006557806360b1276a14610102578063aeee99be14610122578063c818c63414610142578063f4c811bc1461016257610087565b8063043abc961461008c5780633e8973e5146100c2578063425a03c4146100e2575b600080fd5b81801561009857600080fd5b506100ac6100a73660046108c0565b610182565b6040516100b99190610a4e565b60405180910390f35b6100d56100d03660046109f5565b6101c8565b6040516100b99190610a16565b6100f56100f0366004610836565b6101dd565b6040516100b99190610a3a565b81801561010e57600080fd5b506100ac61011d366004610879565b610319565b81801561012e57600080fd5b506100ac61013d36600461090f565b610350565b61015561015036600461080b565b6103e3565b6040516100b99190610a90565b81801561016e57600080fd5b506100ac61017d3660046108c0565b610421565b600061018e848761045c565b61019e5761019c8487610471565b505b60006101aa8785610486565b90506101b981888a89876104a4565b50600198975050505050505050565b60006101d483836104dd565b90505b92915050565b6000806101e983610503565b90506000610281828773FCe408569B048522B547B782d83f6b594709572E63b8c7740f9091896040518363ffffffff1660e01b815260040161022c929190610aa7565b60206040518083038186803b15801561024457600080fd5b505af4158015610258573d6000803e3d6000fd5b505050506040513d601f19601f8201168201806040525081019061027c9190610861565b61053e565b6040516388c1d46760e01b815290915073FCe408569B048522B547B782d83f6b594709572E906388c1d467906102bf90899089908690600401610ab5565b60206040518083038186803b1580156102d757600080fd5b505af41580156102eb573d6000803e3d6000fd5b505050506040513d601f19601f8201168201806040525081019061030f91906107e8565b9695505050505050565b6000806103268685610486565b9050600087826001015461033a9190610ae3565b6001830181905590506101b982888a89886104a4565b6000805b85518110156103d657600086828151811061037f57634e487b7160e01b600052603260045260246000fd5b6020026020010151905060006103958287610486565b905060008982600101546103a99190610acb565b6001830181905590506103bf82848c8b8a61059d565b5050505080806103ce90610afa565b915050610354565b5060019695505050505050565b6103eb6107c3565b506001600160a01b0390911660009081526020918252604090819020815180830190925280548252600101549181019190915290565b60008061042e8785610486565b905061043d81888a898761059d565b50805461044e576101b985886105b3565b506001979650505050505050565b60006101d4836001600160a01b0384166105c8565b60006101d4836001600160a01b0384166105e0565b6001600160a01b038216600090815260208290526040902092915050565b6000838660000160008282546104ba9190610acb565b925050819055506104d1828685896000015461062a565b50600195945050505050565b6000811561138819839004841115176104f557600080fd5b506127109102611388010490565b6000444243408460405160200161051d9493929190610a1f565b6040516020818303038152906040528051906020012060001c90505b919050565b60008082116105685760405162461bcd60e51b815260040161055f90610a59565b60405180910390fd5b818360405160200161057a9190610a16565b6040516020818303038152906040528051906020012060001c6101d49190610b15565b6000838660000160008282546104ba9190610ae3565b60006101d4836001600160a01b0384166106a6565b60009081526001919091016020526040902054151590565b60006105ec83836105c8565b610622575081546001818101845560008481526020808220909301849055845484825282860190935260409020919091556101d7565b5060006101d7565b604051631712e1c560e11b81527398a5eA2D890197043Ab890082ABDf3402c50E0d990632e25c38a90610670908790869086906001600160a01b038a1690600401610a1f565b60006040518083038186803b15801561068857600080fd5b505af415801561069c573d6000803e3d6000fd5b5050505050505050565b600081815260018301602052604081205480156107b95760006106ca600183610ae3565b85549091506000906106de90600190610ae3565b905081811461075f57600086600001828154811061070c57634e487b7160e01b600052603260045260246000fd5b906000526020600020015490508087600001848154811061073d57634e487b7160e01b600052603260045260246000fd5b6000918252602080832090910192909255918252600188019052604090208390555b855486908061077e57634e487b7160e01b600052603160045260246000fd5b6001900381819060005260206000200160009055905585600101600086815260200190815260200160002060009055600193505050506101d7565b60009150506101d7565b604051806040016040528060008152602001600081525090565b803561053981610b61565b6000602082840312156107f9578081fd5b815161080481610b61565b9392505050565b6000806040838503121561081d578081fd5b823561082881610b61565b946020939093013593505050565b60008060006060848603121561084a578081fd5b505081359360208301359350604090920135919050565b600060208284031215610872578081fd5b5051919050565b600080600080600060a08688031215610890578081fd5b8535945060208601356108a281610b61565b94979496505050506040830135926060810135926080909101359150565b60008060008060008060c087890312156108d8578081fd5b8635955060208701356108ea81610b61565b95989597505050506040840135936060810135936080820135935060a0909101359150565b600080600080600060a08688031215610926578081fd5b8535945060208087013567ffffffffffffffff80821115610945578384fd5b818901915089601f830112610958578384fd5b81358181111561096a5761096a610b4b565b8381026040518582820101818110858211171561098957610989610b4b565b604052828152858101935084860182860187018e10156109a7578788fd5b8795505b838610156109d0576109bc816107dd565b8552600195909501949386019386016109ab565b50999c999b505050506040880135976060810135976080909101359650945050505050565b60008060408385031215610a07578182fd5b50508035926020909101359150565b90815260200190565b93845260208401929092526040830152606082015260800190565b6001600160a01b0391909116815260200190565b901515815260200190565b6020808252601a908201527f6d6178206d7573742062652067726561746572207468616e2030000000000000604082015260600190565b815181526020918201519181019190915260400190565b918252602082015260400190565b9283526020830191909152604082015260600190565b60008219821115610ade57610ade610b35565b500190565b600082821015610af557610af5610b35565b500390565b6000600019821415610b0e57610b0e610b35565b5060010190565b600082610b3057634e487b7160e01b81526012600452602481fd5b500690565b634e487b7160e01b600052601160045260246000fd5b634e487b7160e01b600052604160045260246000fd5b6001600160a01b0381168114610b7657600080fd5b5056fea26469706673582212208db07078c4ffb3374080e702a5551e5394ef34b7110635bcebc9fa071267ec8064736f6c63430008000033",
  "deployedBytecode": "0x73000000000000000000000000000000000000000030146080604052600436106100875760003560e01c806360b1276a1161006557806360b1276a14610102578063aeee99be14610122578063c818c63414610142578063f4c811bc1461016257610087565b8063043abc961461008c5780633e8973e5146100c2578063425a03c4146100e2575b600080fd5b81801561009857600080fd5b506100ac6100a73660046108c0565b610182565b6040516100b99190610a4e565b60405180910390f35b6100d56100d03660046109f5565b6101c8565b6040516100b99190610a16565b6100f56100f0366004610836565b6101dd565b6040516100b99190610a3a565b81801561010e57600080fd5b506100ac61011d366004610879565b610319565b81801561012e57600080fd5b506100ac61013d36600461090f565b610350565b61015561015036600461080b565b6103e3565b6040516100b99190610a90565b81801561016e57600080fd5b506100ac61017d3660046108c0565b610421565b600061018e848761045c565b61019e5761019c8487610471565b505b60006101aa8785610486565b90506101b981888a89876104a4565b50600198975050505050505050565b60006101d483836104dd565b90505b92915050565b6000806101e983610503565b90506000610281828773__$b1d473f7cf7b653a454669f58de072d057$__63b8c7740f9091896040518363ffffffff1660e01b815260040161022c929190610aa7565b60206040518083038186803b15801561024457600080fd5b505af4158015610258573d6000803e3d6000fd5b505050506040513d601f19601f8201168201806040525081019061027c9190610861565b61053e565b6040516388c1d46760e01b815290915073__$b1d473f7cf7b653a454669f58de072d057$__906388c1d467906102bf90899089908690600401610ab5565b60206040518083038186803b1580156102d757600080fd5b505af41580156102eb573d6000803e3d6000fd5b505050506040513d601f19601f8201168201806040525081019061030f91906107e8565b9695505050505050565b6000806103268685610486565b9050600087826001015461033a9190610ae3565b6001830181905590506101b982888a89886104a4565b6000805b85518110156103d657600086828151811061037f57634e487b7160e01b600052603260045260246000fd5b6020026020010151905060006103958287610486565b905060008982600101546103a99190610acb565b6001830181905590506103bf82848c8b8a61059d565b5050505080806103ce90610afa565b915050610354565b5060019695505050505050565b6103eb6107c3565b506001600160a01b0390911660009081526020918252604090819020815180830190925280548252600101549181019190915290565b60008061042e8785610486565b905061043d81888a898761059d565b50805461044e576101b985886105b3565b506001979650505050505050565b60006101d4836001600160a01b0384166105c8565b60006101d4836001600160a01b0384166105e0565b6001600160a01b038216600090815260208290526040902092915050565b6000838660000160008282546104ba9190610acb565b925050819055506104d1828685896000015461062a565b50600195945050505050565b6000811561138819839004841115176104f557600080fd5b506127109102611388010490565b6000444243408460405160200161051d9493929190610a1f565b6040516020818303038152906040528051906020012060001c90505b919050565b60008082116105685760405162461bcd60e51b815260040161055f90610a59565b60405180910390fd5b818360405160200161057a9190610a16565b6040516020818303038152906040528051906020012060001c6101d49190610b15565b6000838660000160008282546104ba9190610ae3565b60006101d4836001600160a01b0384166106a6565b60009081526001919091016020526040902054151590565b60006105ec83836105c8565b610622575081546001818101845560008481526020808220909301849055845484825282860190935260409020919091556101d7565b5060006101d7565b604051631712e1c560e11b815273__$819dd864b9a28b29592cd77136582b47ce$__90632e25c38a90610670908790869086906001600160a01b038a1690600401610a1f565b60006040518083038186803b15801561068857600080fd5b505af415801561069c573d6000803e3d6000fd5b5050505050505050565b600081815260018301602052604081205480156107b95760006106ca600183610ae3565b85549091506000906106de90600190610ae3565b905081811461075f57600086600001828154811061070c57634e487b7160e01b600052603260045260246000fd5b906000526020600020015490508087600001848154811061073d57634e487b7160e01b600052603260045260246000fd5b6000918252602080832090910192909255918252600188019052604090208390555b855486908061077e57634e487b7160e01b600052603160045260246000fd5b6001900381819060005260206000200160009055905585600101600086815260200190815260200160002060009055600193505050506101d7565b60009150506101d7565b604051806040016040528060008152602001600081525090565b803561053981610b61565b6000602082840312156107f9578081fd5b815161080481610b61565b9392505050565b6000806040838503121561081d578081fd5b823561082881610b61565b946020939093013593505050565b60008060006060848603121561084a578081fd5b505081359360208301359350604090920135919050565b600060208284031215610872578081fd5b5051919050565b600080600080600060a08688031215610890578081fd5b8535945060208601356108a281610b61565b94979496505050506040830135926060810135926080909101359150565b60008060008060008060c087890312156108d8578081fd5b8635955060208701356108ea81610b61565b95989597505050506040840135936060810135936080820135935060a0909101359150565b600080600080600060a08688031215610926578081fd5b8535945060208087013567ffffffffffffffff80821115610945578384fd5b818901915089601f830112610958578384fd5b81358181111561096a5761096a610b4b565b8381026040518582820101818110858211171561098957610989610b4b565b604052828152858101935084860182860187018e10156109a7578788fd5b8795505b838610156109d0576109bc816107dd565b8552600195909501949386019386016109ab565b50999c999b505050506040880135976060810135976080909101359650945050505050565b60008060408385031215610a07578182fd5b50508035926020909101359150565b90815260200190565b93845260208401929092526040830152606082015260800190565b6001600160a01b0391909116815260200190565b901515815260200190565b6020808252601a908201527f6d6178206d7573742062652067726561746572207468616e2030000000000000604082015260600190565b815181526020918201519181019190915260400190565b918252602082015260400190565b9283526020830191909152604082015260600190565b60008219821115610ade57610ade610b35565b500190565b600082821015610af557610af5610b35565b500390565b6000600019821415610b0e57610b0e610b35565b5060010190565b600082610b3057634e487b7160e01b81526012600452602481fd5b500690565b634e487b7160e01b600052601160045260246000fd5b634e487b7160e01b600052604160045260246000fd5b6001600160a01b0381168114610b7657600080fd5b5056fea26469706673582212208db07078c4ffb3374080e702a5551e5394ef34b7110635bcebc9fa071267ec8064736f6c63430008000033",
  "libraries": {
    "JuryDataLogic": "0xFCe408569B048522B547B782d83f6b594709572E",
    "SortitionSumTreeFactory": "0x98a5eA2D890197043Ab890082ABDf3402c50E0d9"
  },
  "devdoc": {
    "author": "Blockswan",
    "kind": "dev",
    "methods": {},
    "title": "Jury logic library",
    "version": 1
  },
  "userdoc": {
    "kind": "user",
    "methods": {},
    "notice": "Implements the logic for jury specific functions",
    "version": 1
  },
  "storageLayout": {
    "storage": [],
    "types": null
  }
}