{
  "address": "0x1D3CA752288a88a4523674f568EDF4dB9c97F053",
  "abi": [
    {
      "inputs": [
        {
          "internalType": "uint256",
          "name": "winningChoice",
          "type": "uint256"
        },
        {
          "internalType": "uint256",
          "name": "amount",
          "type": "uint256"
        }
      ],
      "name": "calcRulingValues",
      "outputs": [
        {
          "internalType": "uint256",
          "name": "toProcecutor",
          "type": "uint256"
        },
        {
          "internalType": "uint256",
          "name": "toDefendant",
          "type": "uint256"
        }
      ],
      "stateMutability": "pure",
      "type": "function"
    }
  ],
  "transactionHash": "0x63995de4140bfc706d023e563755599653a02b443804e7cd63252af5e9e07178",
  "args": [],
  "numDeployments": 1,
  "solcInputHash": "540ab05e3117b642ab74c32eb85f094d",
  "bytecode": "0x61197f61003a600b82828239805160001a60731461002d57634e487b7160e01b600052600060045260246000fd5b30600052607381538281f3fe730000000000000000000000000000000000000000301460806040526004361061009d5760003560e01c8063681caa2111610070578063681caa21146101585780638432345714610185578063937bb083146101a65780639ce385c0146101c6578063b54a2e19146101e65761009d565b8063146cc32c146100a257806334d61bae146100d95780634d52915714610107578063679173cc14610129575b600080fd5b8180156100ae57600080fd5b506100c26100bd366004611546565b610206565b6040516100d0929190611853565b60405180910390f35b8180156100e557600080fd5b506100f96100f436600461140d565b610368565b6040516100d09291906116ae565b81801561011357600080fd5b5061012761012236600461151b565b6107ac565b005b81801561013557600080fd5b5061014961014436600461151b565b610860565b6040516100d0939291906116d1565b81801561016457600080fd5b50610178610173366004611577565b6109fd565b6040516100d091906116a3565b610198610193366004611509565b610b4d565b6040516100d0929190611845565b8180156101b257600080fd5b506100c26101c1366004611546565b610b7a565b6101d96101d43660046113ec565b610c2f565b6040516100d0919061173a565b6101f96101f4366004611509565b610e39565b6040516100d091906116f0565b60008060006102158785610e39565b90506102218187610e48565b61022b8186610f0f565b610236816001610fd1565b604051638cc5542760e01b8152731F6749f7E332b641396991528C54625360e1D78a90638cc5542790610270908490600390600401611810565b60206040518083038186803b15801561028857600080fd5b505af415801561029c573d6000803e3d6000fd5b505050506040513d601f19601f820116820180604052508101906102c091906113cc565b5060405163f4b84e5960e01b815273923E3688a583db59f5C692DDfDFFB555A502a1059063f4b84e59906102fb9060078501906004016116f0565b60206040518083038186803b15801561031357600080fd5b505af4158015610327573d6000803e3d6000fd5b505050506040513d601f19601f8201168201806040525081019061034b91906114f1565b600b909101549092506001600160a01b0316905094509492505050565b60008060006103888460800151600001518761109290919063ffffffff16565b9050600061039e85608001516000015187610e39565b855160a08701516060880151805160209091015160405163da6e40d560e01b815294955073923E3688a583db59f5C692DDfDFFB555A502a1059463da6e40d5946103f3946007890194919390926004016116f9565b60206040518083038186803b15801561040b57600080fd5b505af415801561041f573d6000803e3d6000fd5b505050506040513d601f19601f8201168201806040525081019061044391906113cc565b50602085015160405163029af90f60e61b8152731F6749f7E332b641396991528C54625360e1D78a9163a6be43c091610480918591600401611824565b60206040518083038186803b15801561049857600080fd5b505af41580156104ac573d6000803e3d6000fd5b505050506040513d601f19601f820116820180604052508101906104d091906113cc565b506040808601519051631a7bd7bd60e31b8152731F6749f7E332b641396991528C54625360e1D78a9163d3debde89161050d918591600401611824565b60206040518083038186803b15801561052557600080fd5b505af4158015610539573d6000803e3d6000fd5b505050506040513d601f19601f8201168201806040525081019061055d91906113cc565b50608085015160200151604051632131ae7160e21b8152731F6749f7E332b641396991528C54625360e1D78a916384c6b9c49161059e918591600401611845565b60206040518083038186803b1580156105b657600080fd5b505af41580156105ca573d6000803e3d6000fd5b505050506040513d601f19601f820116820180604052508101906105ee91906113cc565b5060808501516040908101519051638c20f44760e01b8152731F6749f7E332b641396991528C54625360e1D78a91638c20f44791610630918591600401611845565b60206040518083038186803b15801561064857600080fd5b505af415801561065c573d6000803e3d6000fd5b505050506040513d601f19601f8201168201806040525081019061068091906113cc565b5060808501516060015160405163135310a560e21b8152731F6749f7E332b641396991528C54625360e1D78a91634d4c4294916106c1918591600401611845565b60206040518083038186803b1580156106d957600080fd5b505af41580156106ed573d6000803e3d6000fd5b505050506040513d601f19601f8201168201806040525081019061071191906113cc565b5060405163f4b84e5960e01b8152829073923E3688a583db59f5C692DDfDFFB555A502a1059063f4b84e599061074e9060078601906004016116f0565b60206040518083038186803b15801561076657600080fd5b505af415801561077a573d6000803e3d6000fd5b505050506040513d601f19601f8201168201806040525081019061079e91906114f1565b935093505050935093915050565b60006107b88483610e39565b90506107c48184610e48565b6107cf816000610fd1565b604051638cc5542760e01b8152731F6749f7E332b641396991528C54625360e1D78a90638cc5542790610809908490600190600401611810565b60206040518083038186803b15801561082157600080fd5b505af4158015610835573d6000803e3d6000fd5b505050506040513d601f19601f8201168201806040525081019061085991906113cc565b5050505050565b61086861119f565b60008060006108778786610e39565b90506108838187610f0f565b61088e816001610fd1565b604051638cc5542760e01b8152731F6749f7E332b641396991528C54625360e1D78a90638cc55427906108c8908490600390600401611810565b60206040518083038186803b1580156108e057600080fd5b505af41580156108f4573d6000803e3d6000fd5b505050506040513d601f19601f8201168201806040525081019061091891906113cc565b5060038101546040516302e4aa8f60e61b815260078301919073923E3688a583db59f5C692DDfDFFB555A502a1059063b92aa3c09061095b9085906004016116f0565b60206040518083038186803b15801561097357600080fd5b505af4158015610987573d6000803e3d6000fd5b505050506040513d601f19601f820116820180604052508101906109ab91906114f1565b6040805160a0810182528454815260018501546020820152600285015491810191909152600384015460608201526004909301546001600160a01b031660808401529199909850909650945050505050565b600080610a0a8784610e39565b9050610a168187610f0f565b610a208186610e48565b610a2b816001610fd1565b604051638cc5542760e01b8152731F6749f7E332b641396991528C54625360e1D78a90638cc5542790610a65908490600290600401611810565b60206040518083038186803b158015610a7d57600080fd5b505af4158015610a91573d6000803e3d6000fd5b505050506040513d601f19601f82011682018060405250810190610ab591906113cc565b50604051635b4bca6b60e01b8152731F6749f7E332b641396991528C54625360e1D78a90635b4bca6b90610aef9084908890600401611845565b60206040518083038186803b158015610b0757600080fd5b505af4158015610b1b573d6000803e3d6000fd5b505050506040513d601f19601f82011682018060405250810190610b3f91906113cc565b506001979650505050505050565b600080610b6583610b60866103e86118ac565b6110a5565b9150610b7182846118cb565b90509250929050565b6000806000610b898785610e39565b9050610b958187610f0f565b610ba0816000610fd1565b600a810154610bb0908690611894565b4211604051806040016040528060028152602001610c8d60f21b81525090610bf45760405162461bcd60e51b8152600401610beb91906116be565b60405180910390fd5b50604051638cc5542760e01b8152731F6749f7E332b641396991528C54625360e1D78a90638cc5542790610270908490600390600401611810565b610c376111d7565b604051806101600160405280846000018054610c52906118e2565b80601f0160208091040260200160405190810160405280929190818152602001828054610c7e906118e2565b8015610ccb5780601f10610ca057610100808354040283529160200191610ccb565b820191906000526020600020905b815481529060010190602001808311610cae57829003601f168201915b50505050508152602001846001018054610ce4906118e2565b80601f0160208091040260200160405190810160405280929190818152602001828054610d10906118e2565b8015610d5d5780601f10610d3257610100808354040283529160200191610d5d565b820191906000526020600020905b815481529060010190602001808311610d4057829003601f168201915b5050505050815260200183815260200184600201548152602001846003015481526020018460040154815260200184600501548152602001610da185600d016110cb565b8152600685015460ff90811615156020808401919091526040805160a08101825260078901548152600889015492810192909252600988015482820152600a880154606080840191909152600b8901546001600160a01b0316608084015290840191909152600c870154920191166003811115610e2e57634e487b7160e01b600052602160045260246000fd5b905290505b92915050565b60009182526020526040902090565b60405163a6bbe89f60e01b8152731F6749f7E332b641396991528C54625360e1D78a9063a6bbe89f90610e819085908590600401611845565b60206040518083038186803b158015610e9957600080fd5b505af4158015610ead573d6000803e3d6000fd5b505050506040513d601f19601f82011682018060405250810190610ed191906113cc565b60405180604001604052806002815260200161323160f01b81525090610f0a5760405162461bcd60e51b8152600401610beb91906116be565b505050565b60405163bad1835360e01b8152731F6749f7E332b641396991528C54625360e1D78a9063bad1835390610f489085908590600401611845565b60206040518083038186803b158015610f6057600080fd5b505af4158015610f74573d6000803e3d6000fd5b505050506040513d601f19601f82011682018060405250810190610f9891906113cc565b60405180604001604052806002815260200161191960f11b81525090610f0a5760405162461bcd60e51b8152600401610beb91906116be565b60405162a2d74b60e41b8152731F6749f7E332b641396991528C54625360e1D78a90630a2d74b0906110099085908590600401611810565b60206040518083038186803b15801561102157600080fd5b505af4158015611035573d6000803e3d6000fd5b505050506040513d601f19601f8201168201806040525081019061105991906113cc565b60405180604001604052806002815260200161323360f01b81525090610f0a5760405162461bcd60e51b8152600401610beb91906116be565b600061109e83836110e1565b9392505050565b6000811561138819839004841115176110bd57600080fd5b506127109102611388010490565b606060006110d88361112b565b9150505b919050565b60006110ed8383611187565b61112357508154600181810184556000848152602080822090930184905584548482528286019093526040902091909155610e33565b506000610e33565b60608160000180548060200260200160405190810160405280929190818152602001828054801561117b57602002820191906000526020600020905b815481526020019060010190808311611167575b50505050509050919050565b60009081526001919091016020526040902054151590565b6040518060a001604052806000815260200160008152602001600081526020016000815260200160006001600160a01b031681525090565b604051806101600160405280606081526020016060815260200160008152602001600081526020016000815260200160008152602001600081526020016060815260200160001515815260200161122c61119f565b81526020016000905290565b80356001600160a01b03811681146110dc57600080fd5b600082601f83011261125f578081fd5b813567ffffffffffffffff81111561127957611279611933565b61128c601f8201601f191660200161186a565b8181528460208386010111156112a0578283fd5b816020850160208301379081016020019190915292915050565b6000604082840312156112cb578081fd5b6040516040810181811067ffffffffffffffff821117156112ee576112ee611933565b604052823581526020928301359281019290925250919050565b600060808284031215611319578081fd5b6040516040810181811067ffffffffffffffff8211171561133c5761133c611933565b60405290508061134c84846112ba565b815261135b84604085016112ba565b60208201525092915050565b600060808284031215611378578081fd5b6040516080810181811067ffffffffffffffff8211171561139b5761139b611933565b8060405250809150823581526020830135602082015260408301356040820152606083013560608201525092915050565b6000602082840312156113dd578081fd5b8151801515811461109e578182fd5b600080604083850312156113fe578081fd5b50508035926020909101359150565b600080600060608486031215611421578081fd5b8335925060208401359150604084013567ffffffffffffffff80821115611446578283fd5b90850190610180828803121561145a578283fd5b61146460c061186a565b82358152602083013582811115611479578485fd5b6114858982860161124f565b60208301525060408301358281111561149c578485fd5b6114a88982860161124f565b6040830152506114bb8860608501611308565b60608201526114cd8860e08501611367565b60808201526114df6101608401611238565b60a08201528093505050509250925092565b600060208284031215611502578081fd5b5051919050565b600080604083850312156113fe578182fd5b60008060006060848603121561152f578283fd5b505081359360208301359350604090920135919050565b6000806000806080858703121561155b578081fd5b5050823594602084013594506040840135936060013592509050565b600080600080600060a0868803121561158e578283fd5b505083359560208501359550604085013594606081013594506080013592509050565b6000815180845260208085019450808401835b838110156115e0578151875295820195908201906001016115c4565b509495945050505050565b15159052565b6004811061160f57634e487b7160e01b600052602160045260246000fd5b9052565b60008151808452815b818110156116385760208185018101518683018201520161161c565b818111156116495782602083870101525b50601f01601f19169290920160200192915050565b80518252602090810151910152565b805182526020808201519083015260408082015190830152606080820151908301526080908101516001600160a01b0316910152565b901515815260200190565b9115158252602082015260400190565b60006020825261109e6020830184611613565b60e081016116df828661166d565b60a082019390935260c00152919050565b90815260200190565b858152602081018590526001600160a01b038416604082015260e08101611723606083018561165e565b61173060a083018461165e565b9695505050505050565b60006020825282516101e0806020850152611759610200850183611613565b91506020850151601f19808685030160408701526117778483611613565b93506040870151606087015260608701516080870152608087015160a087015260a087015160c087015260c087015160e087015260e087015191506101008187860301818801526117c885846115b1565b945080880151925050506101206117e1818701836115eb565b86015190506101406117f58682018361166d565b8601519050611806858301826115f1565b5090949350505050565b8281526040810161109e60208301846115f1565b60008382526040602083015261183d6040830184611613565b949350505050565b918252602082015260400190565b9182526001600160a01b0316602082015260400190565b60405181810167ffffffffffffffff8111828210171561188c5761188c611933565b604052919050565b600082198211156118a7576118a761191d565b500190565b60008160001904831182151516156118c6576118c661191d565b500290565b6000828210156118dd576118dd61191d565b500390565b6002810460018216806118f657607f821691505b6020821081141561191757634e487b7160e01b600052602260045260246000fd5b50919050565b634e487b7160e01b600052601160045260246000fd5b634e487b7160e01b600052604160045260246000fdfea264697066735822122086cd8f48cacd635d90180e78117ed9c9abe2a2087ba1b0b1c0c0a83510eb9f8264736f6c63430008000033",
  "deployedBytecode": "0x730000000000000000000000000000000000000000301460806040526004361061009d5760003560e01c8063681caa2111610070578063681caa21146101585780638432345714610185578063937bb083146101a65780639ce385c0146101c6578063b54a2e19146101e65761009d565b8063146cc32c146100a257806334d61bae146100d95780634d52915714610107578063679173cc14610129575b600080fd5b8180156100ae57600080fd5b506100c26100bd366004611546565b610206565b6040516100d0929190611853565b60405180910390f35b8180156100e557600080fd5b506100f96100f436600461140d565b610368565b6040516100d09291906116ae565b81801561011357600080fd5b5061012761012236600461151b565b6107ac565b005b81801561013557600080fd5b5061014961014436600461151b565b610860565b6040516100d0939291906116d1565b81801561016457600080fd5b50610178610173366004611577565b6109fd565b6040516100d091906116a3565b610198610193366004611509565b610b4d565b6040516100d0929190611845565b8180156101b257600080fd5b506100c26101c1366004611546565b610b7a565b6101d96101d43660046113ec565b610c2f565b6040516100d0919061173a565b6101f96101f4366004611509565b610e39565b6040516100d091906116f0565b60008060006102158785610e39565b90506102218187610e48565b61022b8186610f0f565b610236816001610fd1565b604051638cc5542760e01b815273__$b4fe748c53f8821a645d4d1b5c6d8eb652$__90638cc5542790610270908490600390600401611810565b60206040518083038186803b15801561028857600080fd5b505af415801561029c573d6000803e3d6000fd5b505050506040513d601f19601f820116820180604052508101906102c091906113cc565b5060405163f4b84e5960e01b815273__$550f058dba878dd89fc9dbefa555bd334f$__9063f4b84e59906102fb9060078501906004016116f0565b60206040518083038186803b15801561031357600080fd5b505af4158015610327573d6000803e3d6000fd5b505050506040513d601f19601f8201168201806040525081019061034b91906114f1565b600b909101549092506001600160a01b0316905094509492505050565b60008060006103888460800151600001518761109290919063ffffffff16565b9050600061039e85608001516000015187610e39565b855160a08701516060880151805160209091015160405163da6e40d560e01b815294955073__$550f058dba878dd89fc9dbefa555bd334f$__9463da6e40d5946103f3946007890194919390926004016116f9565b60206040518083038186803b15801561040b57600080fd5b505af415801561041f573d6000803e3d6000fd5b505050506040513d601f19601f8201168201806040525081019061044391906113cc565b50602085015160405163029af90f60e61b815273__$b4fe748c53f8821a645d4d1b5c6d8eb652$__9163a6be43c091610480918591600401611824565b60206040518083038186803b15801561049857600080fd5b505af41580156104ac573d6000803e3d6000fd5b505050506040513d601f19601f820116820180604052508101906104d091906113cc565b506040808601519051631a7bd7bd60e31b815273__$b4fe748c53f8821a645d4d1b5c6d8eb652$__9163d3debde89161050d918591600401611824565b60206040518083038186803b15801561052557600080fd5b505af4158015610539573d6000803e3d6000fd5b505050506040513d601f19601f8201168201806040525081019061055d91906113cc565b50608085015160200151604051632131ae7160e21b815273__$b4fe748c53f8821a645d4d1b5c6d8eb652$__916384c6b9c49161059e918591600401611845565b60206040518083038186803b1580156105b657600080fd5b505af41580156105ca573d6000803e3d6000fd5b505050506040513d601f19601f820116820180604052508101906105ee91906113cc565b5060808501516040908101519051638c20f44760e01b815273__$b4fe748c53f8821a645d4d1b5c6d8eb652$__91638c20f44791610630918591600401611845565b60206040518083038186803b15801561064857600080fd5b505af415801561065c573d6000803e3d6000fd5b505050506040513d601f19601f8201168201806040525081019061068091906113cc565b5060808501516060015160405163135310a560e21b815273__$b4fe748c53f8821a645d4d1b5c6d8eb652$__91634d4c4294916106c1918591600401611845565b60206040518083038186803b1580156106d957600080fd5b505af41580156106ed573d6000803e3d6000fd5b505050506040513d601f19601f8201168201806040525081019061071191906113cc565b5060405163f4b84e5960e01b8152829073__$550f058dba878dd89fc9dbefa555bd334f$__9063f4b84e599061074e9060078601906004016116f0565b60206040518083038186803b15801561076657600080fd5b505af415801561077a573d6000803e3d6000fd5b505050506040513d601f19601f8201168201806040525081019061079e91906114f1565b935093505050935093915050565b60006107b88483610e39565b90506107c48184610e48565b6107cf816000610fd1565b604051638cc5542760e01b815273__$b4fe748c53f8821a645d4d1b5c6d8eb652$__90638cc5542790610809908490600190600401611810565b60206040518083038186803b15801561082157600080fd5b505af4158015610835573d6000803e3d6000fd5b505050506040513d601f19601f8201168201806040525081019061085991906113cc565b5050505050565b61086861119f565b60008060006108778786610e39565b90506108838187610f0f565b61088e816001610fd1565b604051638cc5542760e01b815273__$b4fe748c53f8821a645d4d1b5c6d8eb652$__90638cc55427906108c8908490600390600401611810565b60206040518083038186803b1580156108e057600080fd5b505af41580156108f4573d6000803e3d6000fd5b505050506040513d601f19601f8201168201806040525081019061091891906113cc565b5060038101546040516302e4aa8f60e61b815260078301919073__$550f058dba878dd89fc9dbefa555bd334f$__9063b92aa3c09061095b9085906004016116f0565b60206040518083038186803b15801561097357600080fd5b505af4158015610987573d6000803e3d6000fd5b505050506040513d601f19601f820116820180604052508101906109ab91906114f1565b6040805160a0810182528454815260018501546020820152600285015491810191909152600384015460608201526004909301546001600160a01b031660808401529199909850909650945050505050565b600080610a0a8784610e39565b9050610a168187610f0f565b610a208186610e48565b610a2b816001610fd1565b604051638cc5542760e01b815273__$b4fe748c53f8821a645d4d1b5c6d8eb652$__90638cc5542790610a65908490600290600401611810565b60206040518083038186803b158015610a7d57600080fd5b505af4158015610a91573d6000803e3d6000fd5b505050506040513d601f19601f82011682018060405250810190610ab591906113cc565b50604051635b4bca6b60e01b815273__$b4fe748c53f8821a645d4d1b5c6d8eb652$__90635b4bca6b90610aef9084908890600401611845565b60206040518083038186803b158015610b0757600080fd5b505af4158015610b1b573d6000803e3d6000fd5b505050506040513d601f19601f82011682018060405250810190610b3f91906113cc565b506001979650505050505050565b600080610b6583610b60866103e86118ac565b6110a5565b9150610b7182846118cb565b90509250929050565b6000806000610b898785610e39565b9050610b958187610f0f565b610ba0816000610fd1565b600a810154610bb0908690611894565b4211604051806040016040528060028152602001610c8d60f21b81525090610bf45760405162461bcd60e51b8152600401610beb91906116be565b60405180910390fd5b50604051638cc5542760e01b815273__$b4fe748c53f8821a645d4d1b5c6d8eb652$__90638cc5542790610270908490600390600401611810565b610c376111d7565b604051806101600160405280846000018054610c52906118e2565b80601f0160208091040260200160405190810160405280929190818152602001828054610c7e906118e2565b8015610ccb5780601f10610ca057610100808354040283529160200191610ccb565b820191906000526020600020905b815481529060010190602001808311610cae57829003601f168201915b50505050508152602001846001018054610ce4906118e2565b80601f0160208091040260200160405190810160405280929190818152602001828054610d10906118e2565b8015610d5d5780601f10610d3257610100808354040283529160200191610d5d565b820191906000526020600020905b815481529060010190602001808311610d4057829003601f168201915b5050505050815260200183815260200184600201548152602001846003015481526020018460040154815260200184600501548152602001610da185600d016110cb565b8152600685015460ff90811615156020808401919091526040805160a08101825260078901548152600889015492810192909252600988015482820152600a880154606080840191909152600b8901546001600160a01b0316608084015290840191909152600c870154920191166003811115610e2e57634e487b7160e01b600052602160045260246000fd5b905290505b92915050565b60009182526020526040902090565b60405163a6bbe89f60e01b815273__$b4fe748c53f8821a645d4d1b5c6d8eb652$__9063a6bbe89f90610e819085908590600401611845565b60206040518083038186803b158015610e9957600080fd5b505af4158015610ead573d6000803e3d6000fd5b505050506040513d601f19601f82011682018060405250810190610ed191906113cc565b60405180604001604052806002815260200161323160f01b81525090610f0a5760405162461bcd60e51b8152600401610beb91906116be565b505050565b60405163bad1835360e01b815273__$b4fe748c53f8821a645d4d1b5c6d8eb652$__9063bad1835390610f489085908590600401611845565b60206040518083038186803b158015610f6057600080fd5b505af4158015610f74573d6000803e3d6000fd5b505050506040513d601f19601f82011682018060405250810190610f9891906113cc565b60405180604001604052806002815260200161191960f11b81525090610f0a5760405162461bcd60e51b8152600401610beb91906116be565b60405162a2d74b60e41b815273__$b4fe748c53f8821a645d4d1b5c6d8eb652$__90630a2d74b0906110099085908590600401611810565b60206040518083038186803b15801561102157600080fd5b505af4158015611035573d6000803e3d6000fd5b505050506040513d601f19601f8201168201806040525081019061105991906113cc565b60405180604001604052806002815260200161323360f01b81525090610f0a5760405162461bcd60e51b8152600401610beb91906116be565b600061109e83836110e1565b9392505050565b6000811561138819839004841115176110bd57600080fd5b506127109102611388010490565b606060006110d88361112b565b9150505b919050565b60006110ed8383611187565b61112357508154600181810184556000848152602080822090930184905584548482528286019093526040902091909155610e33565b506000610e33565b60608160000180548060200260200160405190810160405280929190818152602001828054801561117b57602002820191906000526020600020905b815481526020019060010190808311611167575b50505050509050919050565b60009081526001919091016020526040902054151590565b6040518060a001604052806000815260200160008152602001600081526020016000815260200160006001600160a01b031681525090565b604051806101600160405280606081526020016060815260200160008152602001600081526020016000815260200160008152602001600081526020016060815260200160001515815260200161122c61119f565b81526020016000905290565b80356001600160a01b03811681146110dc57600080fd5b600082601f83011261125f578081fd5b813567ffffffffffffffff81111561127957611279611933565b61128c601f8201601f191660200161186a565b8181528460208386010111156112a0578283fd5b816020850160208301379081016020019190915292915050565b6000604082840312156112cb578081fd5b6040516040810181811067ffffffffffffffff821117156112ee576112ee611933565b604052823581526020928301359281019290925250919050565b600060808284031215611319578081fd5b6040516040810181811067ffffffffffffffff8211171561133c5761133c611933565b60405290508061134c84846112ba565b815261135b84604085016112ba565b60208201525092915050565b600060808284031215611378578081fd5b6040516080810181811067ffffffffffffffff8211171561139b5761139b611933565b8060405250809150823581526020830135602082015260408301356040820152606083013560608201525092915050565b6000602082840312156113dd578081fd5b8151801515811461109e578182fd5b600080604083850312156113fe578081fd5b50508035926020909101359150565b600080600060608486031215611421578081fd5b8335925060208401359150604084013567ffffffffffffffff80821115611446578283fd5b90850190610180828803121561145a578283fd5b61146460c061186a565b82358152602083013582811115611479578485fd5b6114858982860161124f565b60208301525060408301358281111561149c578485fd5b6114a88982860161124f565b6040830152506114bb8860608501611308565b60608201526114cd8860e08501611367565b60808201526114df6101608401611238565b60a08201528093505050509250925092565b600060208284031215611502578081fd5b5051919050565b600080604083850312156113fe578182fd5b60008060006060848603121561152f578283fd5b505081359360208301359350604090920135919050565b6000806000806080858703121561155b578081fd5b5050823594602084013594506040840135936060013592509050565b600080600080600060a0868803121561158e578283fd5b505083359560208501359550604085013594606081013594506080013592509050565b6000815180845260208085019450808401835b838110156115e0578151875295820195908201906001016115c4565b509495945050505050565b15159052565b6004811061160f57634e487b7160e01b600052602160045260246000fd5b9052565b60008151808452815b818110156116385760208185018101518683018201520161161c565b818111156116495782602083870101525b50601f01601f19169290920160200192915050565b80518252602090810151910152565b805182526020808201519083015260408082015190830152606080820151908301526080908101516001600160a01b0316910152565b901515815260200190565b9115158252602082015260400190565b60006020825261109e6020830184611613565b60e081016116df828661166d565b60a082019390935260c00152919050565b90815260200190565b858152602081018590526001600160a01b038416604082015260e08101611723606083018561165e565b61173060a083018461165e565b9695505050505050565b60006020825282516101e0806020850152611759610200850183611613565b91506020850151601f19808685030160408701526117778483611613565b93506040870151606087015260608701516080870152608087015160a087015260a087015160c087015260c087015160e087015260e087015191506101008187860301818801526117c885846115b1565b945080880151925050506101206117e1818701836115eb565b86015190506101406117f58682018361166d565b8601519050611806858301826115f1565b5090949350505050565b8281526040810161109e60208301846115f1565b60008382526040602083015261183d6040830184611613565b949350505050565b918252602082015260400190565b9182526001600160a01b0316602082015260400190565b60405181810167ffffffffffffffff8111828210171561188c5761188c611933565b604052919050565b600082198211156118a7576118a761191d565b500190565b60008160001904831182151516156118c6576118c661191d565b500290565b6000828210156118dd576118dd61191d565b500390565b6002810460018216806118f657607f821691505b6020821081141561191757634e487b7160e01b600052602260045260246000fd5b50919050565b634e487b7160e01b600052601160045260246000fd5b634e487b7160e01b600052604160045260246000fdfea264697066735822122086cd8f48cacd635d90180e78117ed9c9abe2a2087ba1b0b1c0c0a83510eb9f8264736f6c63430008000033",
  "libraries": {
    "InviterLogic": "0x85F0Fe200F946f76fc92AD911b4D21c196D8b71B",
    "OrderDataLogic": "0x1F6749f7E332b641396991528C54625360e1D78a",
    "InvoiceLogic": "0x923E3688a583db59f5C692DDfDFFB555A502a105"
  },
  "devdoc": {
    "author": "Blockswan",
    "kind": "dev",
    "methods": {},
    "title": "Order logic library",
    "version": 1
  },
  "userdoc": {
    "kind": "user",
    "methods": {},
    "notice": "Implements the logic for order specific functions",
    "version": 1
  },
  "storageLayout": {
    "storage": [],
    "types": null
  }
}