{
  "address": "0x2522C919CaFf64eF49712Ffcf327fCc9cAe7e692",
  "abi": [
    {
      "inputs": [
        {
          "internalType": "contract IAddressProvider",
          "name": "provider",
          "type": "address"
        }
      ],
      "stateMutability": "nonpayable",
      "type": "constructor"
    },
    {
      "anonymous": false,
      "inputs": [
        {
          "indexed": true,
          "internalType": "address",
          "name": "previousOwner",
          "type": "address"
        },
        {
          "indexed": true,
          "internalType": "address",
          "name": "newOwner",
          "type": "address"
        }
      ],
      "name": "OwnershipTransferred",
      "type": "event"
    },
    {
      "inputs": [],
      "name": "ADDRESSES_PROVIDER",
      "outputs": [
        {
          "internalType": "contract IAddressProvider",
          "name": "",
          "type": "address"
        }
      ],
      "stateMutability": "view",
      "type": "function"
    },
    {
      "inputs": [],
      "name": "ADDRESS_PROVIDER",
      "outputs": [
        {
          "internalType": "contract IAddressProvider",
          "name": "",
          "type": "address"
        }
      ],
      "stateMutability": "view",
      "type": "function"
    },
    {
      "inputs": [],
      "name": "MAX_UINT",
      "outputs": [
        {
          "internalType": "uint256",
          "name": "",
          "type": "uint256"
        }
      ],
      "stateMutability": "view",
      "type": "function"
    },
    {
      "inputs": [
        {
          "internalType": "address",
          "name": "erc20",
          "type": "address"
        }
      ],
      "name": "approve",
      "outputs": [],
      "stateMutability": "nonpayable",
      "type": "function"
    },
    {
      "inputs": [
        {
          "internalType": "bytes32",
          "name": "_name",
          "type": "bytes32"
        }
      ],
      "name": "fetchContract",
      "outputs": [
        {
          "internalType": "address",
          "name": "",
          "type": "address"
        }
      ],
      "stateMutability": "view",
      "type": "function"
    },
    {
      "inputs": [
        {
          "internalType": "uint256",
          "name": "version",
          "type": "uint256"
        }
      ],
      "name": "getBuyerEntryParams",
      "outputs": [
        {
          "components": [
            {
              "internalType": "uint256",
              "name": "currencyValue",
              "type": "uint256"
            },
            {
              "internalType": "uint256",
              "name": "timeAdded",
              "type": "uint256"
            },
            {
              "internalType": "uint256",
              "name": "xpEarned",
              "type": "uint256"
            },
            {
              "internalType": "uint8",
              "name": "invitationEarned",
              "type": "uint8"
            }
          ],
          "internalType": "struct DataTypes.EntryParams",
          "name": "",
          "type": "tuple"
        }
      ],
      "stateMutability": "view",
      "type": "function"
    },
    {
      "inputs": [],
      "name": "getBuyerEntryParams",
      "outputs": [
        {
          "components": [
            {
              "internalType": "uint256",
              "name": "currencyValue",
              "type": "uint256"
            },
            {
              "internalType": "uint256",
              "name": "timeAdded",
              "type": "uint256"
            },
            {
              "internalType": "uint256",
              "name": "xpEarned",
              "type": "uint256"
            },
            {
              "internalType": "uint8",
              "name": "invitationEarned",
              "type": "uint8"
            }
          ],
          "internalType": "struct DataTypes.EntryParams",
          "name": "",
          "type": "tuple"
        }
      ],
      "stateMutability": "view",
      "type": "function"
    },
    {
      "inputs": [
        {
          "internalType": "uint256",
          "name": "version",
          "type": "uint256"
        }
      ],
      "name": "getDelayTimestamp",
      "outputs": [
        {
          "components": [
            {
              "internalType": "uint256",
              "name": "selfRefund",
              "type": "uint256"
            },
            {
              "internalType": "uint256",
              "name": "evidence",
              "type": "uint256"
            },
            {
              "internalType": "uint256",
              "name": "commit",
              "type": "uint256"
            },
            {
              "internalType": "uint256",
              "name": "vote",
              "type": "uint256"
            },
            {
              "internalType": "uint256",
              "name": "appeal",
              "type": "uint256"
            }
          ],
          "internalType": "struct DataTypes.DelayTimestamp",
          "name": "",
          "type": "tuple"
        }
      ],
      "stateMutability": "view",
      "type": "function"
    },
    {
      "inputs": [],
      "name": "getDelayTimestamp",
      "outputs": [
        {
          "components": [
            {
              "internalType": "uint256",
              "name": "selfRefund",
              "type": "uint256"
            },
            {
              "internalType": "uint256",
              "name": "evidence",
              "type": "uint256"
            },
            {
              "internalType": "uint256",
              "name": "commit",
              "type": "uint256"
            },
            {
              "internalType": "uint256",
              "name": "vote",
              "type": "uint256"
            },
            {
              "internalType": "uint256",
              "name": "appeal",
              "type": "uint256"
            }
          ],
          "internalType": "struct DataTypes.DelayTimestamp",
          "name": "",
          "type": "tuple"
        }
      ],
      "stateMutability": "view",
      "type": "function"
    },
    {
      "inputs": [
        {
          "internalType": "uint256",
          "name": "version",
          "type": "uint256"
        }
      ],
      "name": "getDisputeParams",
      "outputs": [
        {
          "components": [
            {
              "internalType": "uint256",
              "name": "minStake",
              "type": "uint256"
            },
            {
              "internalType": "uint256",
              "name": "alpha",
              "type": "uint256"
            },
            {
              "internalType": "uint256",
              "name": "feePerJuror",
              "type": "uint256"
            },
            {
              "internalType": "uint256",
              "name": "maxVotes",
              "type": "uint256"
            }
          ],
          "internalType": "struct DataTypes.DisputeParams",
          "name": "",
          "type": "tuple"
        }
      ],
      "stateMutability": "view",
      "type": "function"
    },
    {
      "inputs": [],
      "name": "getDisputeParams",
      "outputs": [
        {
          "components": [
            {
              "internalType": "uint256",
              "name": "minStake",
              "type": "uint256"
            },
            {
              "internalType": "uint256",
              "name": "alpha",
              "type": "uint256"
            },
            {
              "internalType": "uint256",
              "name": "feePerJuror",
              "type": "uint256"
            },
            {
              "internalType": "uint256",
              "name": "maxVotes",
              "type": "uint256"
            }
          ],
          "internalType": "struct DataTypes.DisputeParams",
          "name": "",
          "type": "tuple"
        }
      ],
      "stateMutability": "view",
      "type": "function"
    },
    {
      "inputs": [],
      "name": "getGigCreationParams",
      "outputs": [
        {
          "components": [
            {
              "internalType": "uint256",
              "name": "currencyValue",
              "type": "uint256"
            },
            {
              "internalType": "uint256",
              "name": "xpEarned",
              "type": "uint256"
            }
          ],
          "internalType": "struct DataTypes.CreationParams",
          "name": "",
          "type": "tuple"
        }
      ],
      "stateMutability": "view",
      "type": "function"
    },
    {
      "inputs": [
        {
          "internalType": "uint256",
          "name": "version",
          "type": "uint256"
        }
      ],
      "name": "getGigCreationParams",
      "outputs": [
        {
          "components": [
            {
              "internalType": "uint256",
              "name": "currencyValue",
              "type": "uint256"
            },
            {
              "internalType": "uint256",
              "name": "xpEarned",
              "type": "uint256"
            }
          ],
          "internalType": "struct DataTypes.CreationParams",
          "name": "",
          "type": "tuple"
        }
      ],
      "stateMutability": "view",
      "type": "function"
    },
    {
      "inputs": [],
      "name": "getOrderCreationParams",
      "outputs": [
        {
          "components": [
            {
              "internalType": "uint256",
              "name": "flat",
              "type": "uint256"
            },
            {
              "internalType": "uint256",
              "name": "percent",
              "type": "uint256"
            }
          ],
          "internalType": "struct DataTypes.FeeParams",
          "name": "",
          "type": "tuple"
        }
      ],
      "stateMutability": "view",
      "type": "function"
    },
    {
      "inputs": [
        {
          "internalType": "uint256",
          "name": "version",
          "type": "uint256"
        }
      ],
      "name": "getOrderCreationParams",
      "outputs": [
        {
          "components": [
            {
              "internalType": "uint256",
              "name": "flat",
              "type": "uint256"
            },
            {
              "internalType": "uint256",
              "name": "percent",
              "type": "uint256"
            }
          ],
          "internalType": "struct DataTypes.FeeParams",
          "name": "",
          "type": "tuple"
        }
      ],
      "stateMutability": "view",
      "type": "function"
    },
    {
      "inputs": [
        {
          "internalType": "uint256",
          "name": "version",
          "type": "uint256"
        }
      ],
      "name": "getRetributionParams",
      "outputs": [
        {
          "components": [
            {
              "internalType": "uint256",
              "name": "affiliate",
              "type": "uint256"
            },
            {
              "internalType": "uint256",
              "name": "lvl0AffiliateShare",
              "type": "uint256"
            }
          ],
          "internalType": "struct DataTypes.RetributionParams",
          "name": "",
          "type": "tuple"
        }
      ],
      "stateMutability": "view",
      "type": "function"
    },
    {
      "inputs": [],
      "name": "getRetributionParams",
      "outputs": [
        {
          "components": [
            {
              "internalType": "uint256",
              "name": "affiliate",
              "type": "uint256"
            },
            {
              "internalType": "uint256",
              "name": "lvl0AffiliateShare",
              "type": "uint256"
            }
          ],
          "internalType": "struct DataTypes.RetributionParams",
          "name": "",
          "type": "tuple"
        }
      ],
      "stateMutability": "view",
      "type": "function"
    },
    {
      "inputs": [],
      "name": "getSellerEntryParams",
      "outputs": [
        {
          "components": [
            {
              "internalType": "uint256",
              "name": "currencyValue",
              "type": "uint256"
            },
            {
              "internalType": "uint256",
              "name": "timeAdded",
              "type": "uint256"
            },
            {
              "internalType": "uint256",
              "name": "xpEarned",
              "type": "uint256"
            },
            {
              "internalType": "uint8",
              "name": "invitationEarned",
              "type": "uint8"
            }
          ],
          "internalType": "struct DataTypes.EntryParams",
          "name": "",
          "type": "tuple"
        }
      ],
      "stateMutability": "view",
      "type": "function"
    },
    {
      "inputs": [
        {
          "internalType": "uint256",
          "name": "version",
          "type": "uint256"
        }
      ],
      "name": "getSellerEntryParams",
      "outputs": [
        {
          "components": [
            {
              "internalType": "uint256",
              "name": "currencyValue",
              "type": "uint256"
            },
            {
              "internalType": "uint256",
              "name": "timeAdded",
              "type": "uint256"
            },
            {
              "internalType": "uint256",
              "name": "xpEarned",
              "type": "uint256"
            },
            {
              "internalType": "uint8",
              "name": "invitationEarned",
              "type": "uint8"
            }
          ],
          "internalType": "struct DataTypes.EntryParams",
          "name": "",
          "type": "tuple"
        }
      ],
      "stateMutability": "view",
      "type": "function"
    },
    {
      "inputs": [],
      "name": "getSellerOrderFees",
      "outputs": [
        {
          "components": [
            {
              "internalType": "uint256",
              "name": "flat",
              "type": "uint256"
            },
            {
              "internalType": "uint256",
              "name": "percent",
              "type": "uint256"
            }
          ],
          "internalType": "struct DataTypes.FeeParams",
          "name": "",
          "type": "tuple"
        }
      ],
      "stateMutability": "view",
      "type": "function"
    },
    {
      "inputs": [
        {
          "internalType": "uint256",
          "name": "version",
          "type": "uint256"
        }
      ],
      "name": "getSellerOrderFees",
      "outputs": [
        {
          "components": [
            {
              "internalType": "uint256",
              "name": "flat",
              "type": "uint256"
            },
            {
              "internalType": "uint256",
              "name": "percent",
              "type": "uint256"
            }
          ],
          "internalType": "struct DataTypes.FeeParams",
          "name": "",
          "type": "tuple"
        }
      ],
      "stateMutability": "view",
      "type": "function"
    },
    {
      "inputs": [
        {
          "internalType": "bytes32",
          "name": "_role",
          "type": "bytes32"
        },
        {
          "internalType": "address",
          "name": "account",
          "type": "address"
        }
      ],
      "name": "hasProtocolRole",
      "outputs": [
        {
          "internalType": "bool",
          "name": "",
          "type": "bool"
        }
      ],
      "stateMutability": "view",
      "type": "function"
    },
    {
      "inputs": [
        {
          "internalType": "uint256",
          "name": "userId",
          "type": "uint256"
        },
        {
          "internalType": "uint256",
          "name": "gigId",
          "type": "uint256"
        },
        {
          "internalType": "contract IUser",
          "name": "UserContract",
          "type": "address"
        }
      ],
      "name": "isGigOwner",
      "outputs": [
        {
          "internalType": "bool",
          "name": "",
          "type": "bool"
        }
      ],
      "stateMutability": "view",
      "type": "function"
    },
    {
      "inputs": [
        {
          "internalType": "address",
          "name": "account",
          "type": "address"
        }
      ],
      "name": "isStillBuyer",
      "outputs": [
        {
          "internalType": "bool",
          "name": "",
          "type": "bool"
        }
      ],
      "stateMutability": "view",
      "type": "function"
    },
    {
      "inputs": [
        {
          "internalType": "address",
          "name": "account",
          "type": "address"
        }
      ],
      "name": "isStillSeller",
      "outputs": [
        {
          "internalType": "bool",
          "name": "",
          "type": "bool"
        }
      ],
      "stateMutability": "view",
      "type": "function"
    },
    {
      "inputs": [],
      "name": "kill",
      "outputs": [],
      "stateMutability": "nonpayable",
      "type": "function"
    },
    {
      "inputs": [],
      "name": "owner",
      "outputs": [
        {
          "internalType": "address",
          "name": "",
          "type": "address"
        }
      ],
      "stateMutability": "view",
      "type": "function"
    },
    {
      "inputs": [],
      "name": "renounceOwnership",
      "outputs": [],
      "stateMutability": "nonpayable",
      "type": "function"
    },
    {
      "inputs": [
        {
          "internalType": "contract IAddressProvider",
          "name": "_providerAddress",
          "type": "address"
        }
      ],
      "name": "setProvider",
      "outputs": [],
      "stateMutability": "nonpayable",
      "type": "function"
    },
    {
      "inputs": [
        {
          "internalType": "address",
          "name": "newOwner",
          "type": "address"
        }
      ],
      "name": "transferOwnership",
      "outputs": [],
      "stateMutability": "nonpayable",
      "type": "function"
    },
    {
      "inputs": [
        {
          "components": [
            {
              "internalType": "uint256",
              "name": "currencyValue",
              "type": "uint256"
            },
            {
              "internalType": "uint256",
              "name": "timeAdded",
              "type": "uint256"
            },
            {
              "internalType": "uint256",
              "name": "xpEarned",
              "type": "uint256"
            },
            {
              "internalType": "uint8",
              "name": "invitationEarned",
              "type": "uint8"
            }
          ],
          "internalType": "struct DataTypes.EntryParams",
          "name": "newParams",
          "type": "tuple"
        }
      ],
      "name": "updateBuyerEntryParams",
      "outputs": [],
      "stateMutability": "nonpayable",
      "type": "function"
    },
    {
      "inputs": [
        {
          "components": [
            {
              "internalType": "uint256",
              "name": "selfRefund",
              "type": "uint256"
            },
            {
              "internalType": "uint256",
              "name": "evidence",
              "type": "uint256"
            },
            {
              "internalType": "uint256",
              "name": "commit",
              "type": "uint256"
            },
            {
              "internalType": "uint256",
              "name": "vote",
              "type": "uint256"
            },
            {
              "internalType": "uint256",
              "name": "appeal",
              "type": "uint256"
            }
          ],
          "internalType": "struct DataTypes.DelayTimestamp",
          "name": "newParams",
          "type": "tuple"
        }
      ],
      "name": "updateDelayTimestamp",
      "outputs": [],
      "stateMutability": "nonpayable",
      "type": "function"
    },
    {
      "inputs": [
        {
          "components": [
            {
              "internalType": "uint256",
              "name": "minStake",
              "type": "uint256"
            },
            {
              "internalType": "uint256",
              "name": "alpha",
              "type": "uint256"
            },
            {
              "internalType": "uint256",
              "name": "feePerJuror",
              "type": "uint256"
            },
            {
              "internalType": "uint256",
              "name": "maxVotes",
              "type": "uint256"
            }
          ],
          "internalType": "struct DataTypes.DisputeParams",
          "name": "newParams",
          "type": "tuple"
        }
      ],
      "name": "updateDisputeParams",
      "outputs": [],
      "stateMutability": "nonpayable",
      "type": "function"
    },
    {
      "inputs": [
        {
          "components": [
            {
              "internalType": "uint256",
              "name": "currencyValue",
              "type": "uint256"
            },
            {
              "internalType": "uint256",
              "name": "xpEarned",
              "type": "uint256"
            }
          ],
          "internalType": "struct DataTypes.CreationParams",
          "name": "newParams",
          "type": "tuple"
        }
      ],
      "name": "updateGigCreationParams",
      "outputs": [],
      "stateMutability": "nonpayable",
      "type": "function"
    },
    {
      "inputs": [
        {
          "components": [
            {
              "internalType": "uint256",
              "name": "flat",
              "type": "uint256"
            },
            {
              "internalType": "uint256",
              "name": "percent",
              "type": "uint256"
            }
          ],
          "internalType": "struct DataTypes.FeeParams",
          "name": "newParams",
          "type": "tuple"
        }
      ],
      "name": "updateOrderCreationParams",
      "outputs": [],
      "stateMutability": "nonpayable",
      "type": "function"
    },
    {
      "inputs": [
        {
          "components": [
            {
              "internalType": "uint256",
              "name": "affiliate",
              "type": "uint256"
            },
            {
              "internalType": "uint256",
              "name": "lvl0AffiliateShare",
              "type": "uint256"
            }
          ],
          "internalType": "struct DataTypes.RetributionParams",
          "name": "newParams",
          "type": "tuple"
        }
      ],
      "name": "updateRetributionParams",
      "outputs": [],
      "stateMutability": "nonpayable",
      "type": "function"
    },
    {
      "inputs": [
        {
          "components": [
            {
              "internalType": "uint256",
              "name": "currencyValue",
              "type": "uint256"
            },
            {
              "internalType": "uint256",
              "name": "timeAdded",
              "type": "uint256"
            },
            {
              "internalType": "uint256",
              "name": "xpEarned",
              "type": "uint256"
            },
            {
              "internalType": "uint8",
              "name": "invitationEarned",
              "type": "uint8"
            }
          ],
          "internalType": "struct DataTypes.EntryParams",
          "name": "newParams",
          "type": "tuple"
        }
      ],
      "name": "updateSellerEntryParams",
      "outputs": [],
      "stateMutability": "nonpayable",
      "type": "function"
    },
    {
      "inputs": [
        {
          "components": [
            {
              "internalType": "uint256",
              "name": "flat",
              "type": "uint256"
            },
            {
              "internalType": "uint256",
              "name": "percent",
              "type": "uint256"
            }
          ],
          "internalType": "struct DataTypes.FeeParams",
          "name": "newParams",
          "type": "tuple"
        }
      ],
      "name": "updateSellerOrderFees",
      "outputs": [],
      "stateMutability": "nonpayable",
      "type": "function"
    }
  ],
  "transactionHash": "0x9fa896db9b6309c25bc0b726271210af4311d0fd5c3da7a6db619e0f9dd230be",
  "args": [
    "0xc4b6Cd0bc2BBF47077d321d3c878c31b01e17aD5"
  ],
  "numDeployments": 1,
  "solcInputHash": "540ab05e3117b642ab74c32eb85f094d",
  "bytecode": "0x60806040526000196002553480156200001757600080fd5b506040516200225b3803806200225b8339810160408190526200003a9162000116565b806200004f62000049620000c2565b620000c6565b6040805180820190915260018152603560f81b60208201526001600160a01b0382166200009a5760405162461bcd60e51b815260040162000091919062000146565b60405180910390fd5b50600180546001600160a01b0319166001600160a01b0392909216919091179055506200019c565b3390565b600080546001600160a01b038381166001600160a01b0319831681178455604051919092169283917f8be0079c531659141344cd1fd0a4f28419497f9722a3daafe3b4186f6b6457e09190a35050565b60006020828403121562000128578081fd5b81516001600160a01b03811681146200013f578182fd5b9392505050565b6000602080835283518082850152825b81811015620001745785810183015185820160400152820162000156565b81811115620001865783604083870101525b50601f01601f1916929092016040019392505050565b6120af80620001ac6000396000f3fe608060405234801561001057600080fd5b50600436106102325760003560e01c806372633f9811610130578063a92eaa75116100b8578063e5b5019a1161007c578063e5b5019a14610474578063ea532d4614610489578063ee203f111461049c578063f2fde38b146104af578063f73afd96146104c257610232565b8063a92eaa7514610420578063b817bcf714610433578063cfd8d6c014610446578063d618cc6414610459578063daea85c51461046157610232565b80638da5cb5b116100ff5780638da5cb5b146103d757806391af5b34146103df578063985fadc8146103f25780639af1da48146104055780639b7a220d1461040d57610232565b806372633f981461039657806379a558e7146103a957806382db8b07146103bc5780638504ce21146103c457610232565b80632c53f6c4116101be5780634169a7d3116101825780634169a7d31461034b57806341c0e1b51461036b57806357ddafd314610373578063688c4b2414610386578063715018a61461038e57610232565b80632c53f6c41461030057806333327472146103085780633388aed91461031d5780633e8b9f191461032557806340717f431461033857610232565b80631848effa116102055780631848effa146102b557806319872f76146102bd57806319d9603a146102d05780631cb64705146102e557806324771302146102ed57610232565b80630542975c146102375780630adf05d0146102555780630b3f0b541461027557806311e0c07b14610295575b600080fd5b61023f6104d5565b60405161024c9190611dd8565b60405180910390f35b610268610263366004611862565b6104e4565b60405161024c9190611f77565b610288610283366004611862565b610581565b60405161024c9190611f5b565b6102a86102a3366004611d12565b610615565b60405161024c9190611e05565b61023f61069e565b61023f6102cb366004611862565b6106ad565b6102e36102de3660046118a9565b61072e565b005b6102886107e2565b6102e36102fb3660046118a9565b61087a565b6102686108f1565b610310610984565b60405161024c9190611f4d565b610310610a16565b610310610333366004611862565b610a59565b6102e3610346366004611a87565b610aed565b61035e610359366004611862565b610b64565b60405161024c9190611f69565b6102e3610bf9565b610310610381366004611862565b610c2f565b610268610c74565b6102e3610cb7565b6102e36103a4366004611a87565b610ccb565b6102a86103b7366004611803565b610d42565b61035e610df8565b6102e36103d23660046118a9565b610e8b565b61023f610f02565b6103106103ed366004611862565b610f11565b6102a861040036600461187a565b610f56565b610310610ff7565b6102e361041b3660046118a9565b61103a565b6102e361042e3660046119bd565b6110b1565b6102a8610441366004611803565b611128565b6102e3610454366004611803565b6111df565b6103106112c9565b6102e361046f366004611803565b61130c565b61047c6113e2565b60405161024c9190611e10565b610268610497366004611862565b6113e8565b6102e36104aa3660046118df565b61142d565b6102e36104bd366004611803565b6114a4565b6103106104d0366004611862565b6114de565b6001546001600160a01b031690565b6104ec6115b6565b60405163038d39c160e11b81527316436d2A7f5Ab6336F00388F148A476cf3Cf31c89063071a738290610529906003906005908790600401611fae565b60806040518083038186803b15801561054157600080fd5b505af4158015610555573d6000803e3d6000fd5b505050506040513d601f19601f820116820180604052508101906105799190611af2565b90505b919050565b6105896115e1565b60405162ac321b60e31b81527316436d2A7f5Ab6336F00388F148A476cf3Cf31c89063056190d8906105c5906015906017908790600401611fae565b60a06040518083038186803b1580156105dd57600080fd5b505af41580156105f1573d6000803e3d6000fd5b505050506040513d601f19601f82011682018060405250810190610579919061194e565b60405163fbd2817f60e01b81526000906001600160a01b0383169063fbd2817f906106469087908790600401611f85565b60206040518083038186803b15801561065e57600080fd5b505afa158015610672573d6000803e3d6000fd5b505050506040513d601f19601f820116820180604052508101906106969190611842565b949350505050565b6001546001600160a01b031681565b600154604051630cc397bb60e11b81526000916001600160a01b0316906319872f76906106de908590600401611e10565b60206040518083038186803b1580156106f657600080fd5b505afa15801561070a573d6000803e3d6000fd5b505050506040513d601f19601f820116820180604052508101906105799190611826565b6d282927aa27a1a7a62fa0a226a4a760911b61074c81610400611523565b6107715760405162461bcd60e51b815260040161076890611f16565b60405180910390fd5b604051635f000b3960e01b81527316436d2A7f5Ab6336F00388F148A476cf3Cf31c890635f000b39906107ae90600c90600e908790600401611f93565b60006040518083038186803b1580156107c657600080fd5b505af41580156107da573d6000803e3d6000fd5b505050505050565b6107ea6115e1565b6040516315d9c37560e11b81527316436d2A7f5Ab6336F00388F148A476cf3Cf31c890632bb386ea9061082590601590601790600401611f85565b60a06040518083038186803b15801561083d57600080fd5b505af4158015610851573d6000803e3d6000fd5b505050506040513d601f19601f82011682018060405250810190610875919061194e565b905090565b6d282927aa27a1a7a62fa0a226a4a760911b61089881610400611523565b6108b45760405162461bcd60e51b815260040161076890611f16565b6040516305142c2f60e31b81527316436d2A7f5Ab6336F00388F148A476cf3Cf31c8906328a16178906107ae90600f906011908790600401611f93565b6108f96115b6565b60405163a6b16b4360e01b81527316436d2A7f5Ab6336F00388F148A476cf3Cf31c89063a6b16b439061093490600390600590600401611f85565b60806040518083038186803b15801561094c57600080fd5b505af4158015610960573d6000803e3d6000fd5b505050506040513d601f19601f820116820180604052508101906108759190611af2565b61098c611610565b60405163bfdb039960e01b81527316436d2A7f5Ab6336F00388F148A476cf3Cf31c89063bfdb0399906109c790600c90600e90600401611f85565b604080518083038186803b1580156109de57600080fd5b505af41580156109f2573d6000803e3d6000fd5b505050506040513d601f19601f8201168201806040525081019061087591906118c4565b610a1e611610565b60405163bb395b3d60e01b81527316436d2A7f5Ab6336F00388F148A476cf3Cf31c89063bb395b3d906109c790601290601490600401611f85565b610a61611610565b60405163907874e560e01b81527316436d2A7f5Ab6336F00388F148A476cf3Cf31c89063907874e590610a9e90600990600b908790600401611fae565b604080518083038186803b158015610ab557600080fd5b505af4158015610ac9573d6000803e3d6000fd5b505050506040513d601f19601f8201168201806040525081019061057991906118c4565b6d282927aa27a1a7a62fa0a226a4a760911b610b0b81610400611523565b610b275760405162461bcd60e51b815260040161076890611f16565b60405163eecd53b160e01b81527316436d2A7f5Ab6336F00388F148A476cf3Cf31c89063eecd53b1906107ae906003906005908790600401611ffa565b610b6c61162a565b60405163bc57ade760e01b81527316436d2A7f5Ab6336F00388F148A476cf3Cf31c89063bc57ade790610ba990601890601a908790600401611fae565b60806040518083038186803b158015610bc157600080fd5b505af4158015610bd5573d6000803e3d6000fd5b505050506040513d601f19601f820116820180604052508101906105799190611a22565b6001546001600160a01b03163314610c2157634e487b7160e01b600052600160045260246000fd5b6001546001600160a01b0316ff5b610c37611610565b604051639bb062d360e01b81527316436d2A7f5Ab6336F00388F148A476cf3Cf31c890639bb062d390610a9e90600c90600e908790600401611fae565b610c7c6115b6565b60405163a6b16b4360e01b81527316436d2A7f5Ab6336F00388F148A476cf3Cf31c89063a6b16b439061093490600690600890600401611f85565b610cbf611527565b610cc96000611566565b565b6d282927aa27a1a7a62fa0a226a4a760911b610ce981610400611523565b610d055760405162461bcd60e51b815260040161076890611f16565b60405163eecd53b160e01b81527316436d2A7f5Ab6336F00388F148A476cf3Cf31c89063eecd53b1906107ae906006906008908790600401611ffa565b6000610d5664212aaca2a960d91b83610f56565b8015610579575042610d6e632aa9a2a960e11b6106ad565b6001600160a01b03166369c212f6846040518263ffffffff1660e01b8152600401610d999190611dd8565b60006040518083038186803b158015610db157600080fd5b505afa158015610dc5573d6000803e3d6000fd5b505050506040513d6000823e601f3d908101601f19168201604052610ded9190810190611b51565b604001511192915050565b610e0061162a565b604051631dc6afd560e31b81527316436d2A7f5Ab6336F00388F148A476cf3Cf31c89063ee357ea890610e3b90601890601a90600401611f85565b60806040518083038186803b158015610e5357600080fd5b505af4158015610e67573d6000803e3d6000fd5b505050506040513d601f19601f820116820180604052508101906108759190611a22565b6d282927aa27a1a7a62fa0a226a4a760911b610ea981610400611523565b610ec55760405162461bcd60e51b815260040161076890611f16565b6040516305142c2f60e31b81527316436d2A7f5Ab6336F00388F148A476cf3Cf31c8906328a16178906107ae906012906014908790600401611f93565b6000546001600160a01b031690565b610f19611610565b60405163ee999bd560e01b81527316436d2A7f5Ab6336F00388F148A476cf3Cf31c89063ee999bd590610a9e906012906014908790600401611fae565b600080610f706a20a1a62fa6a0a720a3a2a960a91b6106ad565b6001600160a01b03166391d1485485856040518363ffffffff1660e01b8152600401610f9d929190611e19565b60206040518083038186803b158015610fb557600080fd5b505afa158015610fc9573d6000803e3d6000fd5b505050506040513d601f19601f82011682018060405250810190610fed9190611842565b9150505b92915050565b610fff611610565b604051632fe2848160e01b81527316436d2A7f5Ab6336F00388F148A476cf3Cf31c890632fe28481906109c790600990600b90600401611f85565b6d282927aa27a1a7a62fa0a226a4a760911b61105881610400611523565b6110745760405162461bcd60e51b815260040161076890611f16565b6040516313a6a97b60e11b81527316436d2A7f5Ab6336F00388F148A476cf3Cf31c89063274d52f6906107ae90600990600b908790600401611f93565b6d282927aa27a1a7a62fa0a226a4a760911b6110cf81610400611523565b6110eb5760405162461bcd60e51b815260040161076890611f16565b604051630fda974d60e41b81527316436d2A7f5Ab6336F00388F148A476cf3Cf31c89063fda974d0906107ae90601890601a908790600401611fdf565b600061113d6529a2a62622a960d11b83610f56565b8015610579575042611155632aa9a2a960e11b6106ad565b6001600160a01b03166369c212f6846040518263ffffffff1660e01b81526004016111809190611dd8565b60006040518083038186803b15801561119857600080fd5b505afa1580156111ac573d6000803e3d6000fd5b505050506040513d6000823e601f3d908101601f191682016040526111d49190810190611b51565b608001511192915050565b6001600160a01b03811615806111ff57506001546001600160a01b031633145b8061128b5750336001600160a01b0316306001600160a01b0316638da5cb5b6040518163ffffffff1660e01b815260040160206040518083038186803b15801561124857600080fd5b505afa15801561125c573d6000803e3d6000fd5b505050506040513d601f19601f820116820180604052508101906112809190611826565b6001600160a01b0316145b6112a75760405162461bcd60e51b815260040161076890611e76565b600180546001600160a01b0319166001600160a01b0392909216919091179055565b6112d1611610565b60405163bb395b3d60e01b81527316436d2A7f5Ab6336F00388F148A476cf3Cf31c89063bb395b3d906109c790600f90601190600401611f85565b6d282927aa27a1a7a62fa0a226a4a760911b61132a81610400611523565b6113465760405162461bcd60e51b815260040161076890611f16565b60006113576211105560ea1b6106ad565b60025460405163095ea7b360e01b81529192506001600160a01b0385169163095ea7b39161138a91859190600401611dec565b602060405180830381600087803b1580156113a457600080fd5b505af11580156113b8573d6000803e3d6000fd5b505050506040513d601f19601f820116820180604052508101906113dc9190611842565b50505050565b60025481565b6113f06115b6565b60405163038d39c160e11b81527316436d2A7f5Ab6336F00388F148A476cf3Cf31c89063071a738290610529906006906008908790600401611fae565b6d282927aa27a1a7a62fa0a226a4a760911b61144b81610400611523565b6114675760405162461bcd60e51b815260040161076890611f16565b60405163d93df20360e01b81527316436d2A7f5Ab6336F00388F148A476cf3Cf31c89063d93df203906107ae906015906017908790600401611fc4565b6114ac611527565b6001600160a01b0381166114d25760405162461bcd60e51b815260040161076890611e30565b6114db81611566565b50565b6114e6611610565b60405163ee999bd560e01b81527316436d2A7f5Ab6336F00388F148A476cf3Cf31c89063ee999bd590610a9e90600f906011908790600401611fae565b3390565b61152f611523565b6001600160a01b0316611540610f02565b6001600160a01b031614610cc95760405162461bcd60e51b815260040161076890611ee1565b600080546001600160a01b038381166001600160a01b0319831681178455604051919092169283917f8be0079c531659141344cd1fd0a4f28419497f9722a3daafe3b4186f6b6457e09190a35050565b6040518060800160405280600081526020016000815260200160008152602001600060ff1681525090565b6040518060a0016040528060008152602001600081526020016000815260200160008152602001600081525090565b604051806040016040528060008152602001600081525090565b6040518060800160405280600081526020016000815260200160008152602001600081525090565b805161057c81612055565b600082601f83011261166d578081fd5b8151602067ffffffffffffffff8211156116895761168961203f565b808202611697828201612015565b8381528281019086840183880185018910156116b1578687fd5b8693505b858410156116d35780518352600193909301929184019184016116b5565b50979650505050505050565b600082601f8301126116ef578081fd5b815167ffffffffffffffff8111156117095761170961203f565b602061171d601f8301601f19168201612015565b8281528582848701011115611730578384fd5b835b8381101561174d578581018301518282018401528201611732565b8381111561175d57848385840101525b5095945050505050565b600060408284031215611778578081fd5b6040516040810181811067ffffffffffffffff8211171561179b5761179b61203f565b604052823581526020928301359281019290925250919050565b6000604082840312156117c6578081fd5b6040516040810181811067ffffffffffffffff821117156117e9576117e961203f565b604052825181526020928301519281019290925250919050565b600060208284031215611814578081fd5b813561181f81612055565b9392505050565b600060208284031215611837578081fd5b815161181f81612055565b600060208284031215611853578081fd5b8151801515811461181f578182fd5b600060208284031215611873578081fd5b5035919050565b6000806040838503121561188c578081fd5b82359150602083013561189e81612055565b809150509250929050565b6000604082840312156118ba578081fd5b61181f8383611767565b6000604082840312156118d5578081fd5b61181f83836117b5565b600060a082840312156118f0578081fd5b60405160a0810181811067ffffffffffffffff821117156119135761191361203f565b806040525082358152602083013560208201526040830135604082015260608301356060820152608083013560808201528091505092915050565b600060a0828403121561195f578081fd5b60405160a0810181811067ffffffffffffffff821117156119825761198261203f565b806040525082518152602083015160208201526040830151604082015260608301516060820152608083015160808201528091505092915050565b6000608082840312156119ce578081fd5b6040516080810181811067ffffffffffffffff821117156119f1576119f161203f565b8060405250823581526020830135602082015260408301356040820152606083013560608201528091505092915050565b600060808284031215611a33578081fd5b6040516080810181811067ffffffffffffffff82111715611a5657611a5661203f565b8060405250825181526020830151602082015260408301516040820152606083015160608201528091505092915050565b600060808284031215611a98578081fd5b6040516080810181811067ffffffffffffffff82111715611abb57611abb61203f565b80604052508235815260208301356020820152604083013560408201526060830135611ae68161206a565b60608201529392505050565b600060808284031215611b03578081fd5b6040516080810181811067ffffffffffffffff82111715611b2657611b2661203f565b80604052508251815260208301516020820152604083015160408201526060830151611ae68161206a565b600060208284031215611b62578081fd5b815167ffffffffffffffff80821115611b79578283fd5b81840191506101e0808387031215611b8f578384fd5b611b9881612015565b9050825182811115611ba8578485fd5b611bb4878286016116df565b8252506020830151602082015260408301516040820152606083015160608201526080830151608082015260a083015160a082015260c083015160c0820152611bff60e08401611652565b60e08201526101008084015183811115611c17578586fd5b611c238882870161165d565b8284015250506101208084015183811115611c3c578586fd5b611c488882870161165d565b8284015250506101408084015183811115611c61578586fd5b611c6d8882870161165d565b8284015250506101608084015183811115611c86578586fd5b611c928882870161165d565b8284015250506101808084015183811115611cab578586fd5b611cb78882870161165d565b8284015250506101a08084015183811115611cd0578586fd5b611cdc8882870161165d565b8284015250506101c08084015183811115611cf5578586fd5b611d018882870161165d565b918301919091525095945050505050565b600080600060608486031215611d26578081fd5b83359250602084013591506040840135611d3f81612055565b809150509250925092565b80518252602090810151910152565b80518252602081015160208301526040810151604083015260608101516060830152608081015160808301525050565b805182526020810151602083015260408101516040830152606081015160608301525050565b80518252602081015160208301526040810151604083015260ff60608201511660608301525050565b6001600160a01b0391909116815260200190565b6001600160a01b03929092168252602082015260400190565b901515815260200190565b90815260200190565b9182526001600160a01b0316602082015260400190565b60208082526026908201527f4f776e61626c653a206e6577206f776e657220697320746865207a65726f206160408201526564647265737360d01b606082015260800190565b60208082526045908201527f43616e206f6e6c792062652063616c6c6564206966206164647265737365735060408201527f726f766964657220697320656d7074792c206d73672e73656e646572206f722060608201526437bbb732b960d91b608082015260a00190565b6020808252818101527f4f776e61626c653a2063616c6c6572206973206e6f7420746865206f776e6572604082015260600190565b6020808252601c908201527f5265717569726573206d73672e73656e6465722068617320726f6c6500000000604082015260600190565b60408101610ff18284611d4a565b60a08101610ff18284611d59565b60808101610ff18284611d89565b60808101610ff18284611daf565b918252602082015260400190565b83815260208101839052608081016106966040830184611d4a565b9283526020830191909152604082015260600190565b8381526020810183905260e081016106966040830184611d59565b8381526020810183905260c081016106966040830184611d89565b8381526020810183905260c081016106966040830184611daf565b60405181810167ffffffffffffffff811182821017156120375761203761203f565b604052919050565b634e487b7160e01b600052604160045260246000fd5b6001600160a01b03811681146114db57600080fd5b60ff811681146114db57600080fdfea2646970667358221220bc573e35b2af0c3122d8625193ab55ffc4138a62df6868c8f2a9db05f1eb3ff664736f6c63430008000033",
  "deployedBytecode": "0x608060405234801561001057600080fd5b50600436106102325760003560e01c806372633f9811610130578063a92eaa75116100b8578063e5b5019a1161007c578063e5b5019a14610474578063ea532d4614610489578063ee203f111461049c578063f2fde38b146104af578063f73afd96146104c257610232565b8063a92eaa7514610420578063b817bcf714610433578063cfd8d6c014610446578063d618cc6414610459578063daea85c51461046157610232565b80638da5cb5b116100ff5780638da5cb5b146103d757806391af5b34146103df578063985fadc8146103f25780639af1da48146104055780639b7a220d1461040d57610232565b806372633f981461039657806379a558e7146103a957806382db8b07146103bc5780638504ce21146103c457610232565b80632c53f6c4116101be5780634169a7d3116101825780634169a7d31461034b57806341c0e1b51461036b57806357ddafd314610373578063688c4b2414610386578063715018a61461038e57610232565b80632c53f6c41461030057806333327472146103085780633388aed91461031d5780633e8b9f191461032557806340717f431461033857610232565b80631848effa116102055780631848effa146102b557806319872f76146102bd57806319d9603a146102d05780631cb64705146102e557806324771302146102ed57610232565b80630542975c146102375780630adf05d0146102555780630b3f0b541461027557806311e0c07b14610295575b600080fd5b61023f6104d5565b60405161024c9190611dd8565b60405180910390f35b610268610263366004611862565b6104e4565b60405161024c9190611f77565b610288610283366004611862565b610581565b60405161024c9190611f5b565b6102a86102a3366004611d12565b610615565b60405161024c9190611e05565b61023f61069e565b61023f6102cb366004611862565b6106ad565b6102e36102de3660046118a9565b61072e565b005b6102886107e2565b6102e36102fb3660046118a9565b61087a565b6102686108f1565b610310610984565b60405161024c9190611f4d565b610310610a16565b610310610333366004611862565b610a59565b6102e3610346366004611a87565b610aed565b61035e610359366004611862565b610b64565b60405161024c9190611f69565b6102e3610bf9565b610310610381366004611862565b610c2f565b610268610c74565b6102e3610cb7565b6102e36103a4366004611a87565b610ccb565b6102a86103b7366004611803565b610d42565b61035e610df8565b6102e36103d23660046118a9565b610e8b565b61023f610f02565b6103106103ed366004611862565b610f11565b6102a861040036600461187a565b610f56565b610310610ff7565b6102e361041b3660046118a9565b61103a565b6102e361042e3660046119bd565b6110b1565b6102a8610441366004611803565b611128565b6102e3610454366004611803565b6111df565b6103106112c9565b6102e361046f366004611803565b61130c565b61047c6113e2565b60405161024c9190611e10565b610268610497366004611862565b6113e8565b6102e36104aa3660046118df565b61142d565b6102e36104bd366004611803565b6114a4565b6103106104d0366004611862565b6114de565b6001546001600160a01b031690565b6104ec6115b6565b60405163038d39c160e11b815273__$60257ade2e9256c87b7577fd1b418be579$__9063071a738290610529906003906005908790600401611fae565b60806040518083038186803b15801561054157600080fd5b505af4158015610555573d6000803e3d6000fd5b505050506040513d601f19601f820116820180604052508101906105799190611af2565b90505b919050565b6105896115e1565b60405162ac321b60e31b815273__$60257ade2e9256c87b7577fd1b418be579$__9063056190d8906105c5906015906017908790600401611fae565b60a06040518083038186803b1580156105dd57600080fd5b505af41580156105f1573d6000803e3d6000fd5b505050506040513d601f19601f82011682018060405250810190610579919061194e565b60405163fbd2817f60e01b81526000906001600160a01b0383169063fbd2817f906106469087908790600401611f85565b60206040518083038186803b15801561065e57600080fd5b505afa158015610672573d6000803e3d6000fd5b505050506040513d601f19601f820116820180604052508101906106969190611842565b949350505050565b6001546001600160a01b031681565b600154604051630cc397bb60e11b81526000916001600160a01b0316906319872f76906106de908590600401611e10565b60206040518083038186803b1580156106f657600080fd5b505afa15801561070a573d6000803e3d6000fd5b505050506040513d601f19601f820116820180604052508101906105799190611826565b6d282927aa27a1a7a62fa0a226a4a760911b61074c81610400611523565b6107715760405162461bcd60e51b815260040161076890611f16565b60405180910390fd5b604051635f000b3960e01b815273__$60257ade2e9256c87b7577fd1b418be579$__90635f000b39906107ae90600c90600e908790600401611f93565b60006040518083038186803b1580156107c657600080fd5b505af41580156107da573d6000803e3d6000fd5b505050505050565b6107ea6115e1565b6040516315d9c37560e11b815273__$60257ade2e9256c87b7577fd1b418be579$__90632bb386ea9061082590601590601790600401611f85565b60a06040518083038186803b15801561083d57600080fd5b505af4158015610851573d6000803e3d6000fd5b505050506040513d601f19601f82011682018060405250810190610875919061194e565b905090565b6d282927aa27a1a7a62fa0a226a4a760911b61089881610400611523565b6108b45760405162461bcd60e51b815260040161076890611f16565b6040516305142c2f60e31b815273__$60257ade2e9256c87b7577fd1b418be579$__906328a16178906107ae90600f906011908790600401611f93565b6108f96115b6565b60405163a6b16b4360e01b815273__$60257ade2e9256c87b7577fd1b418be579$__9063a6b16b439061093490600390600590600401611f85565b60806040518083038186803b15801561094c57600080fd5b505af4158015610960573d6000803e3d6000fd5b505050506040513d601f19601f820116820180604052508101906108759190611af2565b61098c611610565b60405163bfdb039960e01b815273__$60257ade2e9256c87b7577fd1b418be579$__9063bfdb0399906109c790600c90600e90600401611f85565b604080518083038186803b1580156109de57600080fd5b505af41580156109f2573d6000803e3d6000fd5b505050506040513d601f19601f8201168201806040525081019061087591906118c4565b610a1e611610565b60405163bb395b3d60e01b815273__$60257ade2e9256c87b7577fd1b418be579$__9063bb395b3d906109c790601290601490600401611f85565b610a61611610565b60405163907874e560e01b815273__$60257ade2e9256c87b7577fd1b418be579$__9063907874e590610a9e90600990600b908790600401611fae565b604080518083038186803b158015610ab557600080fd5b505af4158015610ac9573d6000803e3d6000fd5b505050506040513d601f19601f8201168201806040525081019061057991906118c4565b6d282927aa27a1a7a62fa0a226a4a760911b610b0b81610400611523565b610b275760405162461bcd60e51b815260040161076890611f16565b60405163eecd53b160e01b815273__$60257ade2e9256c87b7577fd1b418be579$__9063eecd53b1906107ae906003906005908790600401611ffa565b610b6c61162a565b60405163bc57ade760e01b815273__$60257ade2e9256c87b7577fd1b418be579$__9063bc57ade790610ba990601890601a908790600401611fae565b60806040518083038186803b158015610bc157600080fd5b505af4158015610bd5573d6000803e3d6000fd5b505050506040513d601f19601f820116820180604052508101906105799190611a22565b6001546001600160a01b03163314610c2157634e487b7160e01b600052600160045260246000fd5b6001546001600160a01b0316ff5b610c37611610565b604051639bb062d360e01b815273__$60257ade2e9256c87b7577fd1b418be579$__90639bb062d390610a9e90600c90600e908790600401611fae565b610c7c6115b6565b60405163a6b16b4360e01b815273__$60257ade2e9256c87b7577fd1b418be579$__9063a6b16b439061093490600690600890600401611f85565b610cbf611527565b610cc96000611566565b565b6d282927aa27a1a7a62fa0a226a4a760911b610ce981610400611523565b610d055760405162461bcd60e51b815260040161076890611f16565b60405163eecd53b160e01b815273__$60257ade2e9256c87b7577fd1b418be579$__9063eecd53b1906107ae906006906008908790600401611ffa565b6000610d5664212aaca2a960d91b83610f56565b8015610579575042610d6e632aa9a2a960e11b6106ad565b6001600160a01b03166369c212f6846040518263ffffffff1660e01b8152600401610d999190611dd8565b60006040518083038186803b158015610db157600080fd5b505afa158015610dc5573d6000803e3d6000fd5b505050506040513d6000823e601f3d908101601f19168201604052610ded9190810190611b51565b604001511192915050565b610e0061162a565b604051631dc6afd560e31b815273__$60257ade2e9256c87b7577fd1b418be579$__9063ee357ea890610e3b90601890601a90600401611f85565b60806040518083038186803b158015610e5357600080fd5b505af4158015610e67573d6000803e3d6000fd5b505050506040513d601f19601f820116820180604052508101906108759190611a22565b6d282927aa27a1a7a62fa0a226a4a760911b610ea981610400611523565b610ec55760405162461bcd60e51b815260040161076890611f16565b6040516305142c2f60e31b815273__$60257ade2e9256c87b7577fd1b418be579$__906328a16178906107ae906012906014908790600401611f93565b6000546001600160a01b031690565b610f19611610565b60405163ee999bd560e01b815273__$60257ade2e9256c87b7577fd1b418be579$__9063ee999bd590610a9e906012906014908790600401611fae565b600080610f706a20a1a62fa6a0a720a3a2a960a91b6106ad565b6001600160a01b03166391d1485485856040518363ffffffff1660e01b8152600401610f9d929190611e19565b60206040518083038186803b158015610fb557600080fd5b505afa158015610fc9573d6000803e3d6000fd5b505050506040513d601f19601f82011682018060405250810190610fed9190611842565b9150505b92915050565b610fff611610565b604051632fe2848160e01b815273__$60257ade2e9256c87b7577fd1b418be579$__90632fe28481906109c790600990600b90600401611f85565b6d282927aa27a1a7a62fa0a226a4a760911b61105881610400611523565b6110745760405162461bcd60e51b815260040161076890611f16565b6040516313a6a97b60e11b815273__$60257ade2e9256c87b7577fd1b418be579$__9063274d52f6906107ae90600990600b908790600401611f93565b6d282927aa27a1a7a62fa0a226a4a760911b6110cf81610400611523565b6110eb5760405162461bcd60e51b815260040161076890611f16565b604051630fda974d60e41b815273__$60257ade2e9256c87b7577fd1b418be579$__9063fda974d0906107ae90601890601a908790600401611fdf565b600061113d6529a2a62622a960d11b83610f56565b8015610579575042611155632aa9a2a960e11b6106ad565b6001600160a01b03166369c212f6846040518263ffffffff1660e01b81526004016111809190611dd8565b60006040518083038186803b15801561119857600080fd5b505afa1580156111ac573d6000803e3d6000fd5b505050506040513d6000823e601f3d908101601f191682016040526111d49190810190611b51565b608001511192915050565b6001600160a01b03811615806111ff57506001546001600160a01b031633145b8061128b5750336001600160a01b0316306001600160a01b0316638da5cb5b6040518163ffffffff1660e01b815260040160206040518083038186803b15801561124857600080fd5b505afa15801561125c573d6000803e3d6000fd5b505050506040513d601f19601f820116820180604052508101906112809190611826565b6001600160a01b0316145b6112a75760405162461bcd60e51b815260040161076890611e76565b600180546001600160a01b0319166001600160a01b0392909216919091179055565b6112d1611610565b60405163bb395b3d60e01b815273__$60257ade2e9256c87b7577fd1b418be579$__9063bb395b3d906109c790600f90601190600401611f85565b6d282927aa27a1a7a62fa0a226a4a760911b61132a81610400611523565b6113465760405162461bcd60e51b815260040161076890611f16565b60006113576211105560ea1b6106ad565b60025460405163095ea7b360e01b81529192506001600160a01b0385169163095ea7b39161138a91859190600401611dec565b602060405180830381600087803b1580156113a457600080fd5b505af11580156113b8573d6000803e3d6000fd5b505050506040513d601f19601f820116820180604052508101906113dc9190611842565b50505050565b60025481565b6113f06115b6565b60405163038d39c160e11b815273__$60257ade2e9256c87b7577fd1b418be579$__9063071a738290610529906006906008908790600401611fae565b6d282927aa27a1a7a62fa0a226a4a760911b61144b81610400611523565b6114675760405162461bcd60e51b815260040161076890611f16565b60405163d93df20360e01b815273__$60257ade2e9256c87b7577fd1b418be579$__9063d93df203906107ae906015906017908790600401611fc4565b6114ac611527565b6001600160a01b0381166114d25760405162461bcd60e51b815260040161076890611e30565b6114db81611566565b50565b6114e6611610565b60405163ee999bd560e01b815273__$60257ade2e9256c87b7577fd1b418be579$__9063ee999bd590610a9e90600f906011908790600401611fae565b3390565b61152f611523565b6001600160a01b0316611540610f02565b6001600160a01b031614610cc95760405162461bcd60e51b815260040161076890611ee1565b600080546001600160a01b038381166001600160a01b0319831681178455604051919092169283917f8be0079c531659141344cd1fd0a4f28419497f9722a3daafe3b4186f6b6457e09190a35050565b6040518060800160405280600081526020016000815260200160008152602001600060ff1681525090565b6040518060a0016040528060008152602001600081526020016000815260200160008152602001600081525090565b604051806040016040528060008152602001600081525090565b6040518060800160405280600081526020016000815260200160008152602001600081525090565b805161057c81612055565b600082601f83011261166d578081fd5b8151602067ffffffffffffffff8211156116895761168961203f565b808202611697828201612015565b8381528281019086840183880185018910156116b1578687fd5b8693505b858410156116d35780518352600193909301929184019184016116b5565b50979650505050505050565b600082601f8301126116ef578081fd5b815167ffffffffffffffff8111156117095761170961203f565b602061171d601f8301601f19168201612015565b8281528582848701011115611730578384fd5b835b8381101561174d578581018301518282018401528201611732565b8381111561175d57848385840101525b5095945050505050565b600060408284031215611778578081fd5b6040516040810181811067ffffffffffffffff8211171561179b5761179b61203f565b604052823581526020928301359281019290925250919050565b6000604082840312156117c6578081fd5b6040516040810181811067ffffffffffffffff821117156117e9576117e961203f565b604052825181526020928301519281019290925250919050565b600060208284031215611814578081fd5b813561181f81612055565b9392505050565b600060208284031215611837578081fd5b815161181f81612055565b600060208284031215611853578081fd5b8151801515811461181f578182fd5b600060208284031215611873578081fd5b5035919050565b6000806040838503121561188c578081fd5b82359150602083013561189e81612055565b809150509250929050565b6000604082840312156118ba578081fd5b61181f8383611767565b6000604082840312156118d5578081fd5b61181f83836117b5565b600060a082840312156118f0578081fd5b60405160a0810181811067ffffffffffffffff821117156119135761191361203f565b806040525082358152602083013560208201526040830135604082015260608301356060820152608083013560808201528091505092915050565b600060a0828403121561195f578081fd5b60405160a0810181811067ffffffffffffffff821117156119825761198261203f565b806040525082518152602083015160208201526040830151604082015260608301516060820152608083015160808201528091505092915050565b6000608082840312156119ce578081fd5b6040516080810181811067ffffffffffffffff821117156119f1576119f161203f565b8060405250823581526020830135602082015260408301356040820152606083013560608201528091505092915050565b600060808284031215611a33578081fd5b6040516080810181811067ffffffffffffffff82111715611a5657611a5661203f565b8060405250825181526020830151602082015260408301516040820152606083015160608201528091505092915050565b600060808284031215611a98578081fd5b6040516080810181811067ffffffffffffffff82111715611abb57611abb61203f565b80604052508235815260208301356020820152604083013560408201526060830135611ae68161206a565b60608201529392505050565b600060808284031215611b03578081fd5b6040516080810181811067ffffffffffffffff82111715611b2657611b2661203f565b80604052508251815260208301516020820152604083015160408201526060830151611ae68161206a565b600060208284031215611b62578081fd5b815167ffffffffffffffff80821115611b79578283fd5b81840191506101e0808387031215611b8f578384fd5b611b9881612015565b9050825182811115611ba8578485fd5b611bb4878286016116df565b8252506020830151602082015260408301516040820152606083015160608201526080830151608082015260a083015160a082015260c083015160c0820152611bff60e08401611652565b60e08201526101008084015183811115611c17578586fd5b611c238882870161165d565b8284015250506101208084015183811115611c3c578586fd5b611c488882870161165d565b8284015250506101408084015183811115611c61578586fd5b611c6d8882870161165d565b8284015250506101608084015183811115611c86578586fd5b611c928882870161165d565b8284015250506101808084015183811115611cab578586fd5b611cb78882870161165d565b8284015250506101a08084015183811115611cd0578586fd5b611cdc8882870161165d565b8284015250506101c08084015183811115611cf5578586fd5b611d018882870161165d565b918301919091525095945050505050565b600080600060608486031215611d26578081fd5b83359250602084013591506040840135611d3f81612055565b809150509250925092565b80518252602090810151910152565b80518252602081015160208301526040810151604083015260608101516060830152608081015160808301525050565b805182526020810151602083015260408101516040830152606081015160608301525050565b80518252602081015160208301526040810151604083015260ff60608201511660608301525050565b6001600160a01b0391909116815260200190565b6001600160a01b03929092168252602082015260400190565b901515815260200190565b90815260200190565b9182526001600160a01b0316602082015260400190565b60208082526026908201527f4f776e61626c653a206e6577206f776e657220697320746865207a65726f206160408201526564647265737360d01b606082015260800190565b60208082526045908201527f43616e206f6e6c792062652063616c6c6564206966206164647265737365735060408201527f726f766964657220697320656d7074792c206d73672e73656e646572206f722060608201526437bbb732b960d91b608082015260a00190565b6020808252818101527f4f776e61626c653a2063616c6c6572206973206e6f7420746865206f776e6572604082015260600190565b6020808252601c908201527f5265717569726573206d73672e73656e6465722068617320726f6c6500000000604082015260600190565b60408101610ff18284611d4a565b60a08101610ff18284611d59565b60808101610ff18284611d89565b60808101610ff18284611daf565b918252602082015260400190565b83815260208101839052608081016106966040830184611d4a565b9283526020830191909152604082015260600190565b8381526020810183905260e081016106966040830184611d59565b8381526020810183905260c081016106966040830184611d89565b8381526020810183905260c081016106966040830184611daf565b60405181810167ffffffffffffffff811182821017156120375761203761203f565b604052919050565b634e487b7160e01b600052604160045260246000fd5b6001600160a01b03811681146114db57600080fd5b60ff811681146114db57600080fdfea2646970667358221220bc573e35b2af0c3122d8625193ab55ffc4138a62df6868c8f2a9db05f1eb3ff664736f6c63430008000033",
  "libraries": {
    "ParamsLogic": "0x16436d2A7f5Ab6336F00388F148A476cf3Cf31c8"
  },
  "devdoc": {
    "author": "Blockswan",
    "kind": "dev",
    "methods": {
      "ADDRESSES_PROVIDER()": {
        "returns": {
          "_0": "The address of the AddressProvider"
        }
      },
      "fetchContract(bytes32)": {
        "params": {
          "_name": "the bytes32 name of the contract"
        }
      },
      "owner()": {
        "details": "Returns the address of the current owner."
      },
      "renounceOwnership()": {
        "details": "Leaves the contract without owner. It will not be possible to call `onlyOwner` functions anymore. Can only be called by the current owner. NOTE: Renouncing ownership will leave the contract without an owner, thereby removing any functionality that is only available to the owner."
      },
      "setProvider(address)": {
        "params": {
          "_providerAddress": "The address of the AddressProvider"
        }
      },
      "transferOwnership(address)": {
        "details": "Transfers ownership of the contract to a new account (`newOwner`). Can only be called by the current owner."
      }
    },
    "title": "Protocol Configurator",
    "version": 1
  },
  "userdoc": {
    "kind": "user",
    "methods": {
      "ADDRESSES_PROVIDER()": {
        "notice": "Returns the contract address of the IAddressProvider"
      },
      "fetchContract(bytes32)": {
        "notice": "fetch the contract address from the ADDRESSS_PROVIDERthrows error if address === 0"
      },
      "kill()": {
        "notice": "kill the current address provider, only callable by the AddressProvider"
      },
      "setProvider(address)": {
        "notice": "set the provider address of the ProviderContract"
      }
    },
    "notice": "Contains all the protocol configuration*",
    "version": 1
  },
  "storageLayout": {
    "storage": [
      {
        "astId": 4823,
        "contract": "contracts/protocol/configuration/ProtocolConfigurator.sol:ProtocolConfigurator",
        "label": "_owner",
        "offset": 0,
        "slot": "0",
        "type": "t_address"
      },
      {
        "astId": 8024,
        "contract": "contracts/protocol/configuration/ProtocolConfigurator.sol:ProtocolConfigurator",
        "label": "ADDRESS_PROVIDER",
        "offset": 0,
        "slot": "1",
        "type": "t_contract(IAddressProvider)5328"
      },
      {
        "astId": 8031,
        "contract": "contracts/protocol/configuration/ProtocolConfigurator.sol:ProtocolConfigurator",
        "label": "MAX_UINT",
        "offset": 0,
        "slot": "2",
        "type": "t_uint256"
      },
      {
        "astId": 7545,
        "contract": "contracts/protocol/configuration/ProtocolConfigurator.sol:ProtocolConfigurator",
        "label": "_buyerEntryParamsVersions",
        "offset": 0,
        "slot": "3",
        "type": "t_struct(UintSet)3606_storage"
      },
      {
        "astId": 7550,
        "contract": "contracts/protocol/configuration/ProtocolConfigurator.sol:ProtocolConfigurator",
        "label": "_buyerEntryParamsHistory",
        "offset": 0,
        "slot": "5",
        "type": "t_mapping(t_uint256,t_struct(EntryParams)18271_storage)"
      },
      {
        "astId": 7553,
        "contract": "contracts/protocol/configuration/ProtocolConfigurator.sol:ProtocolConfigurator",
        "label": "_sellerEntryParamsVersions",
        "offset": 0,
        "slot": "6",
        "type": "t_struct(UintSet)3606_storage"
      },
      {
        "astId": 7558,
        "contract": "contracts/protocol/configuration/ProtocolConfigurator.sol:ProtocolConfigurator",
        "label": "_sellerEntryParamsHistory",
        "offset": 0,
        "slot": "8",
        "type": "t_mapping(t_uint256,t_struct(EntryParams)18271_storage)"
      },
      {
        "astId": 7561,
        "contract": "contracts/protocol/configuration/ProtocolConfigurator.sol:ProtocolConfigurator",
        "label": "_retributionParamsVersions",
        "offset": 0,
        "slot": "9",
        "type": "t_struct(UintSet)3606_storage"
      },
      {
        "astId": 7566,
        "contract": "contracts/protocol/configuration/ProtocolConfigurator.sol:ProtocolConfigurator",
        "label": "_retributionParamsHistory",
        "offset": 0,
        "slot": "11",
        "type": "t_mapping(t_uint256,t_struct(RetributionParams)18295_storage)"
      },
      {
        "astId": 7569,
        "contract": "contracts/protocol/configuration/ProtocolConfigurator.sol:ProtocolConfigurator",
        "label": "_gigCreationParamsVersions",
        "offset": 0,
        "slot": "12",
        "type": "t_struct(UintSet)3606_storage"
      },
      {
        "astId": 7574,
        "contract": "contracts/protocol/configuration/ProtocolConfigurator.sol:ProtocolConfigurator",
        "label": "_gigCreationParamsHistory",
        "offset": 0,
        "slot": "14",
        "type": "t_mapping(t_uint256,t_struct(CreationParams)18276_storage)"
      },
      {
        "astId": 7577,
        "contract": "contracts/protocol/configuration/ProtocolConfigurator.sol:ProtocolConfigurator",
        "label": "_orderCreationParamsVersions",
        "offset": 0,
        "slot": "15",
        "type": "t_struct(UintSet)3606_storage"
      },
      {
        "astId": 7582,
        "contract": "contracts/protocol/configuration/ProtocolConfigurator.sol:ProtocolConfigurator",
        "label": "_orderCreationParamsHistory",
        "offset": 0,
        "slot": "17",
        "type": "t_mapping(t_uint256,t_struct(FeeParams)18290_storage)"
      },
      {
        "astId": 7585,
        "contract": "contracts/protocol/configuration/ProtocolConfigurator.sol:ProtocolConfigurator",
        "label": "_sellerOrderFeesParamsVersions",
        "offset": 0,
        "slot": "18",
        "type": "t_struct(UintSet)3606_storage"
      },
      {
        "astId": 7590,
        "contract": "contracts/protocol/configuration/ProtocolConfigurator.sol:ProtocolConfigurator",
        "label": "_sellerOrderFeesParamsHistory",
        "offset": 0,
        "slot": "20",
        "type": "t_mapping(t_uint256,t_struct(FeeParams)18290_storage)"
      },
      {
        "astId": 7593,
        "contract": "contracts/protocol/configuration/ProtocolConfigurator.sol:ProtocolConfigurator",
        "label": "_delayTimestampVersions",
        "offset": 0,
        "slot": "21",
        "type": "t_struct(UintSet)3606_storage"
      },
      {
        "astId": 7598,
        "contract": "contracts/protocol/configuration/ProtocolConfigurator.sol:ProtocolConfigurator",
        "label": "_delayTimestampHistory",
        "offset": 0,
        "slot": "23",
        "type": "t_mapping(t_uint256,t_struct(DelayTimestamp)18061_storage)"
      },
      {
        "astId": 7601,
        "contract": "contracts/protocol/configuration/ProtocolConfigurator.sol:ProtocolConfigurator",
        "label": "_disputeParamsVersions",
        "offset": 0,
        "slot": "24",
        "type": "t_struct(UintSet)3606_storage"
      },
      {
        "astId": 7606,
        "contract": "contracts/protocol/configuration/ProtocolConfigurator.sol:ProtocolConfigurator",
        "label": "_disputeParamsHistory",
        "offset": 0,
        "slot": "26",
        "type": "t_mapping(t_uint256,t_struct(DisputeParams)18304_storage)"
      }
    ],
    "types": {
      "t_address": {
        "encoding": "inplace",
        "label": "address",
        "numberOfBytes": "20"
      },
      "t_array(t_bytes32)dyn_storage": {
        "base": "t_bytes32",
        "encoding": "dynamic_array",
        "label": "bytes32[]",
        "numberOfBytes": "32"
      },
      "t_bytes32": {
        "encoding": "inplace",
        "label": "bytes32",
        "numberOfBytes": "32"
      },
      "t_contract(IAddressProvider)5328": {
        "encoding": "inplace",
        "label": "contract IAddressProvider",
        "numberOfBytes": "20"
      },
      "t_mapping(t_bytes32,t_uint256)": {
        "encoding": "mapping",
        "key": "t_bytes32",
        "label": "mapping(bytes32 => uint256)",
        "numberOfBytes": "32",
        "value": "t_uint256"
      },
      "t_mapping(t_uint256,t_struct(CreationParams)18276_storage)": {
        "encoding": "mapping",
        "key": "t_uint256",
        "label": "mapping(uint256 => struct DataTypes.CreationParams)",
        "numberOfBytes": "32",
        "value": "t_struct(CreationParams)18276_storage"
      },
      "t_mapping(t_uint256,t_struct(DelayTimestamp)18061_storage)": {
        "encoding": "mapping",
        "key": "t_uint256",
        "label": "mapping(uint256 => struct DataTypes.DelayTimestamp)",
        "numberOfBytes": "32",
        "value": "t_struct(DelayTimestamp)18061_storage"
      },
      "t_mapping(t_uint256,t_struct(DisputeParams)18304_storage)": {
        "encoding": "mapping",
        "key": "t_uint256",
        "label": "mapping(uint256 => struct DataTypes.DisputeParams)",
        "numberOfBytes": "32",
        "value": "t_struct(DisputeParams)18304_storage"
      },
      "t_mapping(t_uint256,t_struct(EntryParams)18271_storage)": {
        "encoding": "mapping",
        "key": "t_uint256",
        "label": "mapping(uint256 => struct DataTypes.EntryParams)",
        "numberOfBytes": "32",
        "value": "t_struct(EntryParams)18271_storage"
      },
      "t_mapping(t_uint256,t_struct(FeeParams)18290_storage)": {
        "encoding": "mapping",
        "key": "t_uint256",
        "label": "mapping(uint256 => struct DataTypes.FeeParams)",
        "numberOfBytes": "32",
        "value": "t_struct(FeeParams)18290_storage"
      },
      "t_mapping(t_uint256,t_struct(RetributionParams)18295_storage)": {
        "encoding": "mapping",
        "key": "t_uint256",
        "label": "mapping(uint256 => struct DataTypes.RetributionParams)",
        "numberOfBytes": "32",
        "value": "t_struct(RetributionParams)18295_storage"
      },
      "t_struct(CreationParams)18276_storage": {
        "encoding": "inplace",
        "label": "struct DataTypes.CreationParams",
        "members": [
          {
            "astId": 18273,
            "contract": "contracts/protocol/configuration/ProtocolConfigurator.sol:ProtocolConfigurator",
            "label": "currencyValue",
            "offset": 0,
            "slot": "0",
            "type": "t_uint256"
          },
          {
            "astId": 18275,
            "contract": "contracts/protocol/configuration/ProtocolConfigurator.sol:ProtocolConfigurator",
            "label": "xpEarned",
            "offset": 0,
            "slot": "1",
            "type": "t_uint256"
          }
        ],
        "numberOfBytes": "64"
      },
      "t_struct(DelayTimestamp)18061_storage": {
        "encoding": "inplace",
        "label": "struct DataTypes.DelayTimestamp",
        "members": [
          {
            "astId": 18052,
            "contract": "contracts/protocol/configuration/ProtocolConfigurator.sol:ProtocolConfigurator",
            "label": "selfRefund",
            "offset": 0,
            "slot": "0",
            "type": "t_uint256"
          },
          {
            "astId": 18054,
            "contract": "contracts/protocol/configuration/ProtocolConfigurator.sol:ProtocolConfigurator",
            "label": "evidence",
            "offset": 0,
            "slot": "1",
            "type": "t_uint256"
          },
          {
            "astId": 18056,
            "contract": "contracts/protocol/configuration/ProtocolConfigurator.sol:ProtocolConfigurator",
            "label": "commit",
            "offset": 0,
            "slot": "2",
            "type": "t_uint256"
          },
          {
            "astId": 18058,
            "contract": "contracts/protocol/configuration/ProtocolConfigurator.sol:ProtocolConfigurator",
            "label": "vote",
            "offset": 0,
            "slot": "3",
            "type": "t_uint256"
          },
          {
            "astId": 18060,
            "contract": "contracts/protocol/configuration/ProtocolConfigurator.sol:ProtocolConfigurator",
            "label": "appeal",
            "offset": 0,
            "slot": "4",
            "type": "t_uint256"
          }
        ],
        "numberOfBytes": "160"
      },
      "t_struct(DisputeParams)18304_storage": {
        "encoding": "inplace",
        "label": "struct DataTypes.DisputeParams",
        "members": [
          {
            "astId": 18297,
            "contract": "contracts/protocol/configuration/ProtocolConfigurator.sol:ProtocolConfigurator",
            "label": "minStake",
            "offset": 0,
            "slot": "0",
            "type": "t_uint256"
          },
          {
            "astId": 18299,
            "contract": "contracts/protocol/configuration/ProtocolConfigurator.sol:ProtocolConfigurator",
            "label": "alpha",
            "offset": 0,
            "slot": "1",
            "type": "t_uint256"
          },
          {
            "astId": 18301,
            "contract": "contracts/protocol/configuration/ProtocolConfigurator.sol:ProtocolConfigurator",
            "label": "feePerJuror",
            "offset": 0,
            "slot": "2",
            "type": "t_uint256"
          },
          {
            "astId": 18303,
            "contract": "contracts/protocol/configuration/ProtocolConfigurator.sol:ProtocolConfigurator",
            "label": "maxVotes",
            "offset": 0,
            "slot": "3",
            "type": "t_uint256"
          }
        ],
        "numberOfBytes": "128"
      },
      "t_struct(EntryParams)18271_storage": {
        "encoding": "inplace",
        "label": "struct DataTypes.EntryParams",
        "members": [
          {
            "astId": 18264,
            "contract": "contracts/protocol/configuration/ProtocolConfigurator.sol:ProtocolConfigurator",
            "label": "currencyValue",
            "offset": 0,
            "slot": "0",
            "type": "t_uint256"
          },
          {
            "astId": 18266,
            "contract": "contracts/protocol/configuration/ProtocolConfigurator.sol:ProtocolConfigurator",
            "label": "timeAdded",
            "offset": 0,
            "slot": "1",
            "type": "t_uint256"
          },
          {
            "astId": 18268,
            "contract": "contracts/protocol/configuration/ProtocolConfigurator.sol:ProtocolConfigurator",
            "label": "xpEarned",
            "offset": 0,
            "slot": "2",
            "type": "t_uint256"
          },
          {
            "astId": 18270,
            "contract": "contracts/protocol/configuration/ProtocolConfigurator.sol:ProtocolConfigurator",
            "label": "invitationEarned",
            "offset": 0,
            "slot": "3",
            "type": "t_uint8"
          }
        ],
        "numberOfBytes": "128"
      },
      "t_struct(FeeParams)18290_storage": {
        "encoding": "inplace",
        "label": "struct DataTypes.FeeParams",
        "members": [
          {
            "astId": 18287,
            "contract": "contracts/protocol/configuration/ProtocolConfigurator.sol:ProtocolConfigurator",
            "label": "flat",
            "offset": 0,
            "slot": "0",
            "type": "t_uint256"
          },
          {
            "astId": 18289,
            "contract": "contracts/protocol/configuration/ProtocolConfigurator.sol:ProtocolConfigurator",
            "label": "percent",
            "offset": 0,
            "slot": "1",
            "type": "t_uint256"
          }
        ],
        "numberOfBytes": "64"
      },
      "t_struct(RetributionParams)18295_storage": {
        "encoding": "inplace",
        "label": "struct DataTypes.RetributionParams",
        "members": [
          {
            "astId": 18292,
            "contract": "contracts/protocol/configuration/ProtocolConfigurator.sol:ProtocolConfigurator",
            "label": "affiliate",
            "offset": 0,
            "slot": "0",
            "type": "t_uint256"
          },
          {
            "astId": 18294,
            "contract": "contracts/protocol/configuration/ProtocolConfigurator.sol:ProtocolConfigurator",
            "label": "lvl0AffiliateShare",
            "offset": 0,
            "slot": "1",
            "type": "t_uint256"
          }
        ],
        "numberOfBytes": "64"
      },
      "t_struct(Set)3134_storage": {
        "encoding": "inplace",
        "label": "struct EnumerableSet.Set",
        "members": [
          {
            "astId": 3129,
            "contract": "contracts/protocol/configuration/ProtocolConfigurator.sol:ProtocolConfigurator",
            "label": "_values",
            "offset": 0,
            "slot": "0",
            "type": "t_array(t_bytes32)dyn_storage"
          },
          {
            "astId": 3133,
            "contract": "contracts/protocol/configuration/ProtocolConfigurator.sol:ProtocolConfigurator",
            "label": "_indexes",
            "offset": 0,
            "slot": "1",
            "type": "t_mapping(t_bytes32,t_uint256)"
          }
        ],
        "numberOfBytes": "64"
      },
      "t_struct(UintSet)3606_storage": {
        "encoding": "inplace",
        "label": "struct EnumerableSet.UintSet",
        "members": [
          {
            "astId": 3605,
            "contract": "contracts/protocol/configuration/ProtocolConfigurator.sol:ProtocolConfigurator",
            "label": "_inner",
            "offset": 0,
            "slot": "0",
            "type": "t_struct(Set)3134_storage"
          }
        ],
        "numberOfBytes": "64"
      },
      "t_uint256": {
        "encoding": "inplace",
        "label": "uint256",
        "numberOfBytes": "32"
      },
      "t_uint8": {
        "encoding": "inplace",
        "label": "uint8",
        "numberOfBytes": "1"
      }
    }
  }
}