{
  "address": "0xf4179131036CB2a497a80710DF574ecc6D341499",
  "abi": [
    {
      "inputs": [
        {
          "internalType": "uint256",
          "name": "jurorWeight",
          "type": "uint256"
        },
        {
          "internalType": "uint256",
          "name": "weightOfCorrectVotes",
          "type": "uint256"
        },
        {
          "internalType": "uint256",
          "name": "disputePrice",
          "type": "uint256"
        }
      ],
      "name": "calcEarnedFromDisputeFees",
      "outputs": [
        {
          "internalType": "uint256",
          "name": "",
          "type": "uint256"
        }
      ],
      "stateMutability": "pure",
      "type": "function"
    }
  ],
  "transactionHash": "0x007287f3cbcfe0f310dc6b0a9522d1cfd8aa7ff040180bc05e414b594c2cd2d1",
  "args": [],
  "numDeployments": 2,
  "solcInputHash": "075f2457e796c8d70088564501ef535f",
  "bytecode": "0x61318e61003a600b82828239805160001a60731461002d57634e487b7160e01b600052600060045260246000fd5b30600052607381538281f3fe73000000000000000000000000000000000000000030146080604052600436106100d85760003560e01c806363a072ba11610096578063bba2165211610070578063bba216521461027e578063c0b088f71461029e578063d979c08c146102b1578063e6053cff146102d157600080fd5b806363a072ba1461020e5780639cd25fc51461023e578063ba30c1a71461025e57600080fd5b8062ffd605146100dd57806301d84af51461011057806304fb8e1a1461017657806308a83d86146101ab5780632fd658b6146101cc578063327d2e01146101ee575b600080fd5b6100f06100eb366004612574565b6102e4565b604080519384526020840192909252908201526060015b60405180910390f35b81801561011c57600080fd5b5061013061012b366004612639565b6103cb565b6040516101079190600060a08201905082511515825260208301511515602083015260408301516040830152606083015160608301526080830151608083015292915050565b81801561018257600080fd5b506101966101913660046126d3565b6107c2565b60408051928352901515602083015201610107565b6101be6101b93660046126d3565b610b15565b604051908152602001610107565b8180156101d857600080fd5b506101ec6101e73660046126d3565b610b38565b005b6102016101fc366004612574565b610dad565b6040516101079190612a66565b81801561021a57600080fd5b5061022e610229366004612b46565b610e75565b6040519015158152602001610107565b61025161024c366004612beb565b611185565b6040516101079190612c0d565b81801561026a57600080fd5b5061022e610279366004612c20565b611528565b81801561028a57600080fd5b506101ec610299366004612c83565b611814565b6101be6102ac3660046126d3565b611b71565b8180156102bd57600080fd5b5061022e6102cc366004612d0d565b611c22565b61022e6102df366004612574565b611fe4565b60405163164ca46760e31b815260048101829052600090819081908490735aEe4cd78536d7062AaAA8ceC280162abf4B79F49063b26523389060240160206040518083038186803b15801561033857600080fd5b505af415801561034c573d6000803e3d6000fd5b505050506040513d601f19601f820116820180604052508101906103709190612e3d565b15604051806040016040528060028152602001610d8d60f21b815250906103b35760405162461bcd60e51b81526004016103aa9190612e58565b60405180910390fd5b50505050600782015482546001909301549093909150565b6104016040518060a001604052806000151581526020016000151581526020016000815260200160008152602001600081525090565b815160405163c52af8e960e01b8152600481018590526001600160a01b0382166024820152849190735aEe4cd78536d7062AaAA8ceC280162abf4B79F49063c52af8e99060440160206040518083038186803b15801561046057600080fd5b505af4158015610474573d6000803e3d6000fd5b505050506040513d601f19601f820116820180604052508101906104989190612e3d565b60405180604001604052806002815260200161353160f01b815250906104d15760405162461bcd60e51b81526004016103aa9190612e58565b50604051637f8dc8e760e01b8152600481018690528590735aEe4cd78536d7062AaAA8ceC280162abf4B79F490637f8dc8e79060240160206040518083038186803b15801561051f57600080fd5b505af4158015610533573d6000803e3d6000fd5b505050506040513d601f19601f820116820180604052508101906105579190612e3d565b60405180604001604052806002815260200161353960f01b815250906105905760405162461bcd60e51b81526004016103aa9190612e58565b5084516000906105a1908890611ffa565b90506040518060a0016040528082736aCb93c19af3c035b27e9e357F27999843624C74630a6c668c90918a606001516040518363ffffffff1660e01b81526004016105ed929190612e6b565b60206040518083038186803b15801561060557600080fd5b505af4158015610619573d6000803e3d6000fd5b505050506040513d601f19601f8201168201806040525081019061063d9190612e3d565b151581526020888101516040808b015190516339b7870160e21b81529290930192736aCb93c19af3c035b27e9e357F27999843624C749263e6de1c0492610688928892600401612e8d565b60206040518083038186803b1580156106a057600080fd5b505af41580156106b4573d6000803e3d6000fd5b505050506040513d601f19601f820116820180604052508101906106d89190612e3d565b151581526020016106f6836060015189608001518a60c00151610b15565b8152602001610712836060015189608001518a60e00151610b15565b815260a088015160209091015286516040516357708ca360e11b8152600481018a90526001600160a01b039091166024820152909550735aEe4cd78536d7062AaAA8ceC280162abf4B79F49063aee119469060440160206040518083038186803b15801561077f57600080fd5b505af4158015610793573d6000803e3d6000fd5b505050506040513d601f19601f820116820180604052508101906107b79190612e3d565b505050505092915050565b604051630a68fcd760e31b81526004810183905260248101829052600090819084908490735aEe4cd78536d7062AaAA8ceC280162abf4B79F490635347e6b89060440160206040518083038186803b15801561081d57600080fd5b505af4158015610831573d6000803e3d6000fd5b505050506040513d601f19601f820116820180604052508101906108559190612e3d565b806108e5575060405163e4dfdc1b60e01b81526004810183905260248101829052735aEe4cd78536d7062AaAA8ceC280162abf4B79F49063e4dfdc1b9060440160206040518083038186803b1580156108ad57600080fd5b505af41580156108c1573d6000803e3d6000fd5b505050506040513d601f19601f820116820180604052508101906108e59190612e3d565b60405180604001604052806002815260200161333760f01b8152509061091e5760405162461bcd60e51b81526004016103aa9190612e58565b5060405163164ca46760e31b8152600481018790528690735aEe4cd78536d7062AaAA8ceC280162abf4B79F49063b26523389060240160206040518083038186803b15801561096c57600080fd5b505af4158015610980573d6000803e3d6000fd5b505050506040513d601f19601f820116820180604052508101906109a49190612e3d565b60405180604001604052806002815260200161363160f01b815250906109dd5760405162461bcd60e51b81526004016103aa9190612e58565b50600287015460078981015490890154604051630a68fcd760e31b8152600481018c9052602481018a9052929750610a8392735aEe4cd78536d7062AaAA8ceC280162abf4B79F490635347e6b89060440160206040518083038186803b158015610a4657600080fd5b505af4158015610a5a573d6000803e3d6000fd5b505050506040513d601f19601f82011682018060405250810190610a7e9190612e3d565b61220d565b60405163132f1cc960e31b815260048101899052909450735aEe4cd78536d7062AaAA8ceC280162abf4B79F490639978e6489060240160206040518083038186803b158015610ad157600080fd5b505af4158015610ae5573d6000803e3d6000fd5b505050506040513d601f19601f82011682018060405250810190610b099190612e3d565b50505050935093915050565b60008083610b238685612ec8565b610b2d9190612ee7565b9150505b9392505050565b604051630a68fcd760e31b8152600481018490526024810182905283908290735aEe4cd78536d7062AaAA8ceC280162abf4B79F490635347e6b89060440160206040518083038186803b158015610b8e57600080fd5b505af4158015610ba2573d6000803e3d6000fd5b505050506040513d601f19601f82011682018060405250810190610bc69190612e3d565b80610c56575060405163e4dfdc1b60e01b81526004810183905260248101829052735aEe4cd78536d7062AaAA8ceC280162abf4B79F49063e4dfdc1b9060440160206040518083038186803b158015610c1e57600080fd5b505af4158015610c32573d6000803e3d6000fd5b505050506040513d601f19601f82011682018060405250810190610c569190612e3d565b60405180604001604052806002815260200161333760f01b81525090610c8f5760405162461bcd60e51b81526004016103aa9190612e58565b50604051637db039b360e11b81526004810186905260248101859052735aEe4cd78536d7062AaAA8ceC280162abf4B79F49063fb6073669060440160206040518083038186803b158015610ce257600080fd5b505af4158015610cf6573d6000803e3d6000fd5b505050506040513d601f19601f82011682018060405250810190610d1a9190612e3d565b5060405163766b344160e11b81526004810186905260248101849052735aEe4cd78536d7062AaAA8ceC280162abf4B79F49063ecd668829060440160206040518083038186803b158015610d6d57600080fd5b505af4158015610d81573d6000803e3d6000fd5b505050506040513d601f19601f82011682018060405250810190610da59190612e3d565b505050505050565b805460609060009067ffffffffffffffff811115610dcd57610dcd61258d565b604051908082528060200260200182016040528015610e0657816020015b610df361241b565b815260200190600190039081610deb5790505b50905060005b8354811015610e6e57610e3e848281548110610e2a57610e2a612f09565b90600052602060002090601f020182611185565b828281518110610e5057610e50612f09565b60200260200101819052508080610e6690612f1f565b915050610e0c565b5092915050565b8051604051630a68fcd760e31b815260048101849052602481018290526000918491735aEe4cd78536d7062AaAA8ceC280162abf4B79F490635347e6b89060440160206040518083038186803b158015610ece57600080fd5b505af4158015610ee2573d6000803e3d6000fd5b505050506040513d601f19601f82011682018060405250810190610f069190612e3d565b80610f96575060405163e4dfdc1b60e01b81526004810183905260248101829052735aEe4cd78536d7062AaAA8ceC280162abf4B79F49063e4dfdc1b9060440160206040518083038186803b158015610f5e57600080fd5b505af4158015610f72573d6000803e3d6000fd5b505050506040513d601f19601f82011682018060405250810190610f969190612e3d565b60405180604001604052806002815260200161333760f01b81525090610fcf5760405162461bcd60e51b81526004016103aa9190612e58565b5083518590610fde8282612228565b1560405180604001604052806002815260200161033360f41b815250906110185760405162461bcd60e51b81526004016103aa9190612e58565b50856020015164212aaca2a960d91b81148061103c57506529a2a62622a960d11b81145b60405180604001604052806002815260200161333960f01b815250906110755760405162461bcd60e51b81526004016103aa9190612e58565b50601c880154600114156110ed5787601c0160008154811061109957611099612f09565b9060005260206000209060030201600101548760200151141560405180604001604052806002815260200161333960f01b815250906110eb5760405162461bcd60e51b81526004016103aa9190612e58565b505b6040516396571bfd60e01b8152735aEe4cd78536d7062AaAA8ceC280162abf4B79F4906396571bfd90611126908b908b90600401612f3a565b60206040518083038186803b15801561113e57600080fd5b505af4158015611152573d6000803e3d6000fd5b505050506040513d601f19601f820116820180604052508101906111769190612e3d565b50600198975050505050505050565b61118d61241b565b6040805161028081018252838152845460208201526001850154818301526002850154606082015260048501546080820152600585015460a0820152600385015460c0820152600685015460e0820152600785015461010082015260088501546101208201526009850154610140820152600a85015461016080830191909152825190810192839052909161018083019190600c870190600b9082845b81548152602001906001019080831161122a575050505050815260200161125385601701612237565b815260200184600b0154815260200184601b01805480602002602001604051908101604052809291908181526020016000905b828210156113915760008481526020908190206040805160c0810182526006860290920180546001600160a01b03168352600181015493830193909352600283015490820152600382015460608201526004820180549192916080840191906112ee90612f53565b80601f016020809104026020016040519081016040528092919081815260200182805461131a90612f53565b80156113675780601f1061133c57610100808354040283529160200191611367565b820191906000526020600020905b81548152906001019060200180831161134a57829003601f168201915b50505091835250506005919091015460ff1615156020918201529082526001929092019101611286565b50505050815260200184601c01805480602002602001604051908101604052809291908181526020016000905b828210156114965783829060005260206000209060030201604051806060016040529081600082015481526020016001820154815260200160028201805461140590612f53565b80601f016020809104026020016040519081016040528092919081815260200182805461143190612f53565b801561147e5780601f106114535761010080835404028352916020019161147e565b820191906000526020600020905b81548152906001019060200180831161146157829003601f168201915b505050505081525050815260200190600101906113be565b50505050815260200184601d018054806020026020016040519081016040528092919081815260200182805480156114f757602002820191906000526020600020905b81546001600160a01b031681526001909101906020018083116114d9575b5050505050815260200161150d85601901612237565b8152601e85015460ff16151560209091015290505b92915050565b60405163c52af8e960e01b8152600481018590526001600160a01b038416602482015260009085908590735aEe4cd78536d7062AaAA8ceC280162abf4B79F49063c52af8e99060440160206040518083038186803b15801561158957600080fd5b505af415801561159d573d6000803e3d6000fd5b505050506040513d601f19601f820116820180604052508101906115c19190612e3d565b60405180604001604052806002815260200161353160f01b815250906115fa5760405162461bcd60e51b81526004016103aa9190612e58565b5086866116078282612244565b1560405180604001604052806002815260200161068760f31b815250906116415760405162461bcd60e51b81526004016103aa9190612e58565b50600061164e8a8a61225f565b90506000736aCb93c19af3c035b27e9e357F27999843624C746334d8dbe28b8b858c6040518563ffffffff1660e01b815260040161168f9493929190612f8e565b60006040518083038186803b1580156116a757600080fd5b505af41580156116bb573d6000803e3d6000fd5b505050506040513d6000823e601f3d908101601f191682016040526116e3919081019061300a565b601b8c018054600180820183556000928352602092839020845160069093020180546001600160a01b0319166001600160a01b0390931692909217825583830151908201556040830151600282015560608301516003820155608083015180519394508493919261175c926004850192909101906124bc565b5060a091909101516005909101805460ff1916911515919091179055604051630368443b60e01b8152600481018c905260248101839052735aEe4cd78536d7062AaAA8ceC280162abf4B79F490630368443b9060440160206040518083038186803b1580156117ca57600080fd5b505af41580156117de573d6000803e3d6000fd5b505050506040513d601f19601f820116820180604052508101906118029190612e3d565b5060019b9a5050505050505050505050565b60405163c52af8e960e01b8152600481018690526001600160a01b038516602482015285908590735aEe4cd78536d7062AaAA8ceC280162abf4B79F49063c52af8e99060440160206040518083038186803b15801561187257600080fd5b505af4158015611886573d6000803e3d6000fd5b505050506040513d601f19601f820116820180604052508101906118aa9190612e3d565b60405180604001604052806002815260200161353160f01b815250906118e35760405162461bcd60e51b81526004016103aa9190612e58565b5086866118f08282612244565b60405180604001604052806002815260200161343960f01b815250906119295760405162461bcd60e51b81526004016103aa9190612e58565b50888861193682826122c9565b1560405180604001604052806002815260200161035360f41b815250906119705760405162461bcd60e51b81526004016103aa9190612e58565b50600061197d8c8c61225f565b6040516361bfa34160e01b8152600481018e905260248101829052909150735aEe4cd78536d7062AaAA8ceC280162abf4B79F4906361bfa3419060440160206040518083038186803b1580156119d257600080fd5b505af41580156119e6573d6000803e3d6000fd5b505050506040513d601f19601f82011682018060405250810190611a0a9190612e3d565b50604051630f82d3f160e11b8152600481018d9052602481018b905260448101829052735aEe4cd78536d7062AaAA8ceC280162abf4B79F490631f05a7e29060640160006040518083038186803b158015611a6457600080fd5b505af4158015611a78573d6000803e3d6000fd5b50505050600080611a928d8f6122e290919063ffffffff16565b91509150806040518060400160405280600281526020016106a760f31b81525090611ad05760405162461bcd60e51b81526004016103aa9190612e58565b5081736aCb93c19af3c035b27e9e357F27999843624C74630b97b41790918e8e8e6040518563ffffffff1660e01b8152600401611b1094939291906130bb565b60206040518083038186803b158015611b2857600080fd5b505af4158015611b3c573d6000803e3d6000fd5b505050506040513d601f19601f82011682018060405250810190611b609190612e3d565b505050505050505050505050505050565b604051637e084e3b60e01b81526004810184905260248101839052604481018290526000908190735aEe4cd78536d7062AaAA8ceC280162abf4B79F490637e084e3b9060640160206040518083038186803b158015611bcf57600080fd5b505af4158015611be3573d6000803e3d6000fd5b505050506040513d601f19601f82011682018060405250810190611c0791906130f7565b9050846004015481611c199190612ec8565b95945050505050565b8154600190810180845560008481529182918591611c3f91613110565b81548110611c4f57611c4f612f09565b90600052602060002090601f0201905080735aEe4cd78536d7062AaAA8ceC280162abf4B79F463cc8a0498909185606001516040518363ffffffff1660e01b8152600401611ca7929190918252602082015260400190565b60206040518083038186803b158015611cbf57600080fd5b505af4158015611cd3573d6000803e3d6000fd5b505050506040513d601f19601f82011682018060405250810190611cf79190612e3d565b50608083015160405163011abfa960e61b8152735aEe4cd78536d7062AaAA8ceC280162abf4B79F4916346afea4091611d3d918591600401918252602082015260400190565b60206040518083038186803b158015611d5557600080fd5b505af4158015611d69573d6000803e3d6000fd5b505050506040513d601f19601f82011682018060405250810190611d8d9190612e3d565b506040808401519051636bf55b2760e11b8152735aEe4cd78536d7062AaAA8ceC280162abf4B79F49163d7eab64e91611dd3918591600401918252602082015260400190565b60206040518083038186803b158015611deb57600080fd5b505af4158015611dff573d6000803e3d6000fd5b505050506040513d601f19601f82011682018060405250810190611e239190612e3d565b508251604051636b8af67360e01b8152735aEe4cd78536d7062AaAA8ceC280162abf4B79F491636b8af67391611e66918591600401918252602082015260400190565b60206040518083038186803b158015611e7e57600080fd5b505af4158015611e92573d6000803e3d6000fd5b505050506040513d601f19601f82011682018060405250810190611eb69190612e3d565b5060a083015160405163194ebd5360e01b8152735aEe4cd78536d7062AaAA8ceC280162abf4B79F49163194ebd5391611ef3918591600401613127565b60206040518083038186803b158015611f0b57600080fd5b505af4158015611f1f573d6000803e3d6000fd5b505050506040513d601f19601f82011682018060405250810190611f439190612e3d565b50602083015160405163a2e0e17960e01b8152735aEe4cd78536d7062AaAA8ceC280162abf4B79F49163a2e0e17991611f89918591600401918252602082015260400190565b60206040518083038186803b158015611fa157600080fd5b505af4158015611fb5573d6000803e3d6000fd5b505050506040513d601f19601f82011682018060405250810190611fd99190612e3d565b506001949350505050565b6000611ff182601c015490565b60021492915050565b6040805160c0810182526000808252602082018190529181018290526060808201839052608082015260a0810191909152601b83015460005b818110156121b457836001600160a01b031685601b01828154811061205a5761205a612f09565b60009182526020909120600690910201546001600160a01b031614156121a25784601b01818154811061208f5761208f612f09565b90600052602060002090600602016040518060c00160405290816000820160009054906101000a90046001600160a01b03166001600160a01b03166001600160a01b0316815260200160018201548152602001600282015481526020016003820154815260200160048201805461210590612f53565b80601f016020809104026020016040519081016040528092919081815260200182805461213190612f53565b801561217e5780601f106121535761010080835404028352916020019161217e565b820191906000526020600020905b81548152906001019060200180831161216157829003601f168201915b50505091835250506005919091015460ff1615156020909101529250611522915050565b806121ac81612f1f565b915050612033565b506040518060c00160405280846001600160a01b031681526020016000801b8152602001600081526020016121e9868661225f565b81526040805160208082018352600080835290840191909152910152949350505050565b6000811561221e5750818311610b31565b5081831115610b31565b6000610b3160178401836123a7565b60606000610b31836123bf565b6000806122518484611ffa565b602001511515949350505050565b6000805b601d840154811015610e6e57826001600160a01b031684601d01828154811061228e5761228e612f09565b6000918252602090912001546001600160a01b031614156122b7576122b4600183613140565b91505b806122c181612f1f565b915050612263565b6000806122d68484611ffa565b60a00151949350505050565b60008060005b601b85015481101561237457836001600160a01b031685601b01828154811061231357612313612f09565b60009182526020909120600690910201546001600160a01b031614156123625784601b01818154811061234857612348612f09565b9060005260206000209060060201600192509250506123a0565b8061236c81612f1f565b9150506122e8565b5083601b0160008154811061238b5761238b612f09565b90600052602060002090600602016000915091505b9250929050565b60008181526001830160205260408120541515610b31565b60608160000180548060200260200160405190810160405280929190818152602001828054801561240f57602002820191906000526020600020905b8154815260200190600101908083116123fb575b50505050509050919050565b604051806102800160405280600081526020016000815260200160008152602001600081526020016000815260200160008152602001600081526020016000815260200160008152602001600081526020016000815260200160008152602001612483612540565b81526020016060815260200160008152602001606081526020016060815260200160608152602001606081526020016000151581525090565b8280546124c890612f53565b90600052602060002090601f0160209004810192826124ea5760008555612530565b82601f1061250357805160ff1916838001178555612530565b82800160010185558215612530579182015b82811115612530578251825591602001919060010190612515565b5061253c92915061255f565b5090565b604051806101600160405280600b906020820280368337509192915050565b5b8082111561253c5760008155600101612560565b60006020828403121561258657600080fd5b5035919050565b634e487b7160e01b600052604160045260246000fd5b604051610100810167ffffffffffffffff811182821017156125c7576125c761258d565b60405290565b60405160c0810167ffffffffffffffff811182821017156125c7576125c761258d565b604051601f8201601f1916810167ffffffffffffffff811182821017156126195761261961258d565b604052919050565b6001600160a01b038116811461263657600080fd5b50565b60008082840361012081121561264e57600080fd5b8335925061010080601f198301121561266657600080fd5b61266e6125a3565b9150602085013561267e81612621565b8083525060408501356020830152606085013560408301526080850135606083015260a0850135608083015260c085013560a083015260e085013560c08301528085013560e083015250809150509250929050565b6000806000606084860312156126e857600080fd5b505081359360208301359350604090920135919050565b8060005b600b811015612722578151845260209384019390910190600101612703565b50505050565b600081518084526020808501945080840160005b838110156127585781518752958201959082019060010161273c565b509495945050505050565b60005b8381101561277e578181015183820152602001612766565b838111156127225750506000910152565b600081518084526127a7816020860160208601612763565b601f01601f19169290920160200192915050565b60018060a01b0381511682526020810151602083015260408101516040830152606081015160608301526000608082015160c0608085015261280060c085018261278f565b60a0938401511515949093019390935250919050565b600081518084526020808501808196508360051b8101915082860160005b8581101561285e57828403895261284c8483516127bb565b98850198935090840190600101612834565b5091979650505050505050565b80518252602081015160208301526000604082015160606040850152612894606085018261278f565b949350505050565b600081518084526020808501808196508360051b8101915082860160005b8581101561285e5782840389526128d284835161286b565b988501989350908401906001016128ba565b600081518084526020808501945080840160005b838110156127585781516001600160a01b0316875295820195908201906001016128f8565b60006103c0825184526020830151602085015260408301516040850152606083015160608501526080830151608085015260a083015160a085015260c083015160c085015260e083015160e0850152610100808401518186015250610120808401518186015250610140808401518186015250610160808401518186015250610180808401516129af828701826126ff565b50506101a0830151816102e08601526129ca82860182612728565b9150506101c08301516103008501526101e08301518482036103208601526129f28282612816565b915050610200830151848203610340860152612a0e828261289c565b915050610220830151848203610360860152612a2a82826128e4565b915050610240830151848203610380860152612a4682826128e4565b915050610260830151612a5e6103a086018215159052565b509392505050565b6000602080830181845280855180835260408601915060408160051b870101925083870160005b82811015612abb57603f19888603018452612aa985835161291d565b94509285019290850190600101612a8d565b5092979650505050505050565b600067ffffffffffffffff821115612ae257612ae261258d565b50601f01601f191660200190565b600082601f830112612b0157600080fd5b8135612b14612b0f82612ac8565b6125f0565b818152846020838601011115612b2957600080fd5b816020850160208301376000918101602001919091529392505050565b60008060408385031215612b5957600080fd5b82359150602083013567ffffffffffffffff80821115612b7857600080fd5b9084019060608287031215612b8c57600080fd5b604051606081018181108382111715612ba757612ba761258d565b80604052508235815260208301356020820152604083013582811115612bcc57600080fd5b612bd888828601612af0565b6040830152508093505050509250929050565b60008060408385031215612bfe57600080fd5b50508035926020909101359150565b602081526000610b31602083018461291d565b60008060008060808587031215612c3657600080fd5b843593506020850135612c4881612621565b925060408501359150606085013567ffffffffffffffff811115612c6b57600080fd5b612c7787828801612af0565b91505092959194509250565b600080600080600060a08688031215612c9b57600080fd5b853594506020860135612cad81612621565b935060408601359250606086013567ffffffffffffffff80821115612cd157600080fd5b612cdd89838a01612af0565b93506080880135915080821115612cf357600080fd5b50612d0088828901612af0565b9150509295509295909350565b60008060408385031215612d2057600080fd5b8235915060208084013567ffffffffffffffff80821115612d4057600080fd5b9085019060c08288031215612d5457600080fd5b612d5c6125cd565b82358152838301358482015260408301356040820152606083013560608201526080830135608082015260a083013582811115612d9857600080fd5b80840193505087601f840112612dad57600080fd5b823582811115612dbf57612dbf61258d565b8060051b9250612dd08584016125f0565b818152928401850192858101908a851115612dea57600080fd5b948601945b84861015612e145785359250612e0483612621565b8282529486019490860190612def565b60a084015250959890975095505050505050565b80518015158114612e3857600080fd5b919050565b600060208284031215612e4f57600080fd5b610b3182612e28565b602081526000610b31602083018461278f565b604081526000612e7e60408301856127bb565b90508260208301529392505050565b606081526000612ea060608301866127bb565b60208301949094525060400152919050565b634e487b7160e01b600052601160045260246000fd5b6000816000190483118215151615612ee257612ee2612eb2565b500290565b600082612f0457634e487b7160e01b600052601260045260246000fd5b500490565b634e487b7160e01b600052603260045260246000fd5b6000600019821415612f3357612f33612eb2565b5060010190565b828152604060208201526000612894604083018461286b565b600181811c90821680612f6757607f821691505b60208210811415612f8857634e487b7160e01b600052602260045260246000fd5b50919050565b60018060a01b0385168152836020820152826040820152608060608201526000612fbb608083018461278f565b9695505050505050565b600082601f830112612fd657600080fd5b8151612fe4612b0f82612ac8565b818152846020838601011115612ff957600080fd5b612894826020830160208701612763565b60006020828403121561301c57600080fd5b815167ffffffffffffffff8082111561303457600080fd5b9083019060c0828603121561304857600080fd5b6130506125cd565b825161305b81612621565b8082525060208301516020820152604083015160408201526060830151606082015260808301518281111561308f57600080fd5b61309b87828601612fc5565b6080830152506130ad60a08401612e28565b60a082015295945050505050565b8481528360208201526080604082015260006130da608083018561278f565b82810360608401526130ec818561278f565b979650505050505050565b60006020828403121561310957600080fd5b5051919050565b60008282101561312257613122612eb2565b500390565b82815260406020820152600061289460408301846128e4565b6000821982111561315357613153612eb2565b50019056fea26469706673582212209ad3f91ec4449468accf67668e6cd07b7d50546af46886085215dffd697329db64736f6c63430008090033",
  "deployedBytecode": "0x73000000000000000000000000000000000000000030146080604052600436106100d85760003560e01c806363a072ba11610096578063bba2165211610070578063bba216521461027e578063c0b088f71461029e578063d979c08c146102b1578063e6053cff146102d157600080fd5b806363a072ba1461020e5780639cd25fc51461023e578063ba30c1a71461025e57600080fd5b8062ffd605146100dd57806301d84af51461011057806304fb8e1a1461017657806308a83d86146101ab5780632fd658b6146101cc578063327d2e01146101ee575b600080fd5b6100f06100eb366004612574565b6102e4565b604080519384526020840192909252908201526060015b60405180910390f35b81801561011c57600080fd5b5061013061012b366004612639565b6103cb565b6040516101079190600060a08201905082511515825260208301511515602083015260408301516040830152606083015160608301526080830151608083015292915050565b81801561018257600080fd5b506101966101913660046126d3565b6107c2565b60408051928352901515602083015201610107565b6101be6101b93660046126d3565b610b15565b604051908152602001610107565b8180156101d857600080fd5b506101ec6101e73660046126d3565b610b38565b005b6102016101fc366004612574565b610dad565b6040516101079190612a66565b81801561021a57600080fd5b5061022e610229366004612b46565b610e75565b6040519015158152602001610107565b61025161024c366004612beb565b611185565b6040516101079190612c0d565b81801561026a57600080fd5b5061022e610279366004612c20565b611528565b81801561028a57600080fd5b506101ec610299366004612c83565b611814565b6101be6102ac3660046126d3565b611b71565b8180156102bd57600080fd5b5061022e6102cc366004612d0d565b611c22565b61022e6102df366004612574565b611fe4565b60405163164ca46760e31b81526004810182905260009081908190849073__$af828e0c356433108d8dfb596a8a6763fb$__9063b26523389060240160206040518083038186803b15801561033857600080fd5b505af415801561034c573d6000803e3d6000fd5b505050506040513d601f19601f820116820180604052508101906103709190612e3d565b15604051806040016040528060028152602001610d8d60f21b815250906103b35760405162461bcd60e51b81526004016103aa9190612e58565b60405180910390fd5b50505050600782015482546001909301549093909150565b6104016040518060a001604052806000151581526020016000151581526020016000815260200160008152602001600081525090565b815160405163c52af8e960e01b8152600481018590526001600160a01b038216602482015284919073__$af828e0c356433108d8dfb596a8a6763fb$__9063c52af8e99060440160206040518083038186803b15801561046057600080fd5b505af4158015610474573d6000803e3d6000fd5b505050506040513d601f19601f820116820180604052508101906104989190612e3d565b60405180604001604052806002815260200161353160f01b815250906104d15760405162461bcd60e51b81526004016103aa9190612e58565b50604051637f8dc8e760e01b815260048101869052859073__$af828e0c356433108d8dfb596a8a6763fb$__90637f8dc8e79060240160206040518083038186803b15801561051f57600080fd5b505af4158015610533573d6000803e3d6000fd5b505050506040513d601f19601f820116820180604052508101906105579190612e3d565b60405180604001604052806002815260200161353960f01b815250906105905760405162461bcd60e51b81526004016103aa9190612e58565b5084516000906105a1908890611ffa565b90506040518060a001604052808273__$c72e2124387635ea261ddf644a00cf602f$__630a6c668c90918a606001516040518363ffffffff1660e01b81526004016105ed929190612e6b565b60206040518083038186803b15801561060557600080fd5b505af4158015610619573d6000803e3d6000fd5b505050506040513d601f19601f8201168201806040525081019061063d9190612e3d565b151581526020888101516040808b015190516339b7870160e21b8152929093019273__$c72e2124387635ea261ddf644a00cf602f$__9263e6de1c0492610688928892600401612e8d565b60206040518083038186803b1580156106a057600080fd5b505af41580156106b4573d6000803e3d6000fd5b505050506040513d601f19601f820116820180604052508101906106d89190612e3d565b151581526020016106f6836060015189608001518a60c00151610b15565b8152602001610712836060015189608001518a60e00151610b15565b815260a088015160209091015286516040516357708ca360e11b8152600481018a90526001600160a01b03909116602482015290955073__$af828e0c356433108d8dfb596a8a6763fb$__9063aee119469060440160206040518083038186803b15801561077f57600080fd5b505af4158015610793573d6000803e3d6000fd5b505050506040513d601f19601f820116820180604052508101906107b79190612e3d565b505050505092915050565b604051630a68fcd760e31b8152600481018390526024810182905260009081908490849073__$af828e0c356433108d8dfb596a8a6763fb$__90635347e6b89060440160206040518083038186803b15801561081d57600080fd5b505af4158015610831573d6000803e3d6000fd5b505050506040513d601f19601f820116820180604052508101906108559190612e3d565b806108e5575060405163e4dfdc1b60e01b8152600481018390526024810182905273__$af828e0c356433108d8dfb596a8a6763fb$__9063e4dfdc1b9060440160206040518083038186803b1580156108ad57600080fd5b505af41580156108c1573d6000803e3d6000fd5b505050506040513d601f19601f820116820180604052508101906108e59190612e3d565b60405180604001604052806002815260200161333760f01b8152509061091e5760405162461bcd60e51b81526004016103aa9190612e58565b5060405163164ca46760e31b815260048101879052869073__$af828e0c356433108d8dfb596a8a6763fb$__9063b26523389060240160206040518083038186803b15801561096c57600080fd5b505af4158015610980573d6000803e3d6000fd5b505050506040513d601f19601f820116820180604052508101906109a49190612e3d565b60405180604001604052806002815260200161363160f01b815250906109dd5760405162461bcd60e51b81526004016103aa9190612e58565b50600287015460078981015490890154604051630a68fcd760e31b8152600481018c9052602481018a9052929750610a839273__$af828e0c356433108d8dfb596a8a6763fb$__90635347e6b89060440160206040518083038186803b158015610a4657600080fd5b505af4158015610a5a573d6000803e3d6000fd5b505050506040513d601f19601f82011682018060405250810190610a7e9190612e3d565b61220d565b60405163132f1cc960e31b81526004810189905290945073__$af828e0c356433108d8dfb596a8a6763fb$__90639978e6489060240160206040518083038186803b158015610ad157600080fd5b505af4158015610ae5573d6000803e3d6000fd5b505050506040513d601f19601f82011682018060405250810190610b099190612e3d565b50505050935093915050565b60008083610b238685612ec8565b610b2d9190612ee7565b9150505b9392505050565b604051630a68fcd760e31b815260048101849052602481018290528390829073__$af828e0c356433108d8dfb596a8a6763fb$__90635347e6b89060440160206040518083038186803b158015610b8e57600080fd5b505af4158015610ba2573d6000803e3d6000fd5b505050506040513d601f19601f82011682018060405250810190610bc69190612e3d565b80610c56575060405163e4dfdc1b60e01b8152600481018390526024810182905273__$af828e0c356433108d8dfb596a8a6763fb$__9063e4dfdc1b9060440160206040518083038186803b158015610c1e57600080fd5b505af4158015610c32573d6000803e3d6000fd5b505050506040513d601f19601f82011682018060405250810190610c569190612e3d565b60405180604001604052806002815260200161333760f01b81525090610c8f5760405162461bcd60e51b81526004016103aa9190612e58565b50604051637db039b360e11b8152600481018690526024810185905273__$af828e0c356433108d8dfb596a8a6763fb$__9063fb6073669060440160206040518083038186803b158015610ce257600080fd5b505af4158015610cf6573d6000803e3d6000fd5b505050506040513d601f19601f82011682018060405250810190610d1a9190612e3d565b5060405163766b344160e11b8152600481018690526024810184905273__$af828e0c356433108d8dfb596a8a6763fb$__9063ecd668829060440160206040518083038186803b158015610d6d57600080fd5b505af4158015610d81573d6000803e3d6000fd5b505050506040513d601f19601f82011682018060405250810190610da59190612e3d565b505050505050565b805460609060009067ffffffffffffffff811115610dcd57610dcd61258d565b604051908082528060200260200182016040528015610e0657816020015b610df361241b565b815260200190600190039081610deb5790505b50905060005b8354811015610e6e57610e3e848281548110610e2a57610e2a612f09565b90600052602060002090601f020182611185565b828281518110610e5057610e50612f09565b60200260200101819052508080610e6690612f1f565b915050610e0c565b5092915050565b8051604051630a68fcd760e31b81526004810184905260248101829052600091849173__$af828e0c356433108d8dfb596a8a6763fb$__90635347e6b89060440160206040518083038186803b158015610ece57600080fd5b505af4158015610ee2573d6000803e3d6000fd5b505050506040513d601f19601f82011682018060405250810190610f069190612e3d565b80610f96575060405163e4dfdc1b60e01b8152600481018390526024810182905273__$af828e0c356433108d8dfb596a8a6763fb$__9063e4dfdc1b9060440160206040518083038186803b158015610f5e57600080fd5b505af4158015610f72573d6000803e3d6000fd5b505050506040513d601f19601f82011682018060405250810190610f969190612e3d565b60405180604001604052806002815260200161333760f01b81525090610fcf5760405162461bcd60e51b81526004016103aa9190612e58565b5083518590610fde8282612228565b1560405180604001604052806002815260200161033360f41b815250906110185760405162461bcd60e51b81526004016103aa9190612e58565b50856020015164212aaca2a960d91b81148061103c57506529a2a62622a960d11b81145b60405180604001604052806002815260200161333960f01b815250906110755760405162461bcd60e51b81526004016103aa9190612e58565b50601c880154600114156110ed5787601c0160008154811061109957611099612f09565b9060005260206000209060030201600101548760200151141560405180604001604052806002815260200161333960f01b815250906110eb5760405162461bcd60e51b81526004016103aa9190612e58565b505b6040516396571bfd60e01b815273__$af828e0c356433108d8dfb596a8a6763fb$__906396571bfd90611126908b908b90600401612f3a565b60206040518083038186803b15801561113e57600080fd5b505af4158015611152573d6000803e3d6000fd5b505050506040513d601f19601f820116820180604052508101906111769190612e3d565b50600198975050505050505050565b61118d61241b565b6040805161028081018252838152845460208201526001850154818301526002850154606082015260048501546080820152600585015460a0820152600385015460c0820152600685015460e0820152600785015461010082015260088501546101208201526009850154610140820152600a85015461016080830191909152825190810192839052909161018083019190600c870190600b9082845b81548152602001906001019080831161122a575050505050815260200161125385601701612237565b815260200184600b0154815260200184601b01805480602002602001604051908101604052809291908181526020016000905b828210156113915760008481526020908190206040805160c0810182526006860290920180546001600160a01b03168352600181015493830193909352600283015490820152600382015460608201526004820180549192916080840191906112ee90612f53565b80601f016020809104026020016040519081016040528092919081815260200182805461131a90612f53565b80156113675780601f1061133c57610100808354040283529160200191611367565b820191906000526020600020905b81548152906001019060200180831161134a57829003601f168201915b50505091835250506005919091015460ff1615156020918201529082526001929092019101611286565b50505050815260200184601c01805480602002602001604051908101604052809291908181526020016000905b828210156114965783829060005260206000209060030201604051806060016040529081600082015481526020016001820154815260200160028201805461140590612f53565b80601f016020809104026020016040519081016040528092919081815260200182805461143190612f53565b801561147e5780601f106114535761010080835404028352916020019161147e565b820191906000526020600020905b81548152906001019060200180831161146157829003601f168201915b505050505081525050815260200190600101906113be565b50505050815260200184601d018054806020026020016040519081016040528092919081815260200182805480156114f757602002820191906000526020600020905b81546001600160a01b031681526001909101906020018083116114d9575b5050505050815260200161150d85601901612237565b8152601e85015460ff16151560209091015290505b92915050565b60405163c52af8e960e01b8152600481018590526001600160a01b03841660248201526000908590859073__$af828e0c356433108d8dfb596a8a6763fb$__9063c52af8e99060440160206040518083038186803b15801561158957600080fd5b505af415801561159d573d6000803e3d6000fd5b505050506040513d601f19601f820116820180604052508101906115c19190612e3d565b60405180604001604052806002815260200161353160f01b815250906115fa5760405162461bcd60e51b81526004016103aa9190612e58565b5086866116078282612244565b1560405180604001604052806002815260200161068760f31b815250906116415760405162461bcd60e51b81526004016103aa9190612e58565b50600061164e8a8a61225f565b9050600073__$c72e2124387635ea261ddf644a00cf602f$__6334d8dbe28b8b858c6040518563ffffffff1660e01b815260040161168f9493929190612f8e565b60006040518083038186803b1580156116a757600080fd5b505af41580156116bb573d6000803e3d6000fd5b505050506040513d6000823e601f3d908101601f191682016040526116e3919081019061300a565b601b8c018054600180820183556000928352602092839020845160069093020180546001600160a01b0319166001600160a01b0390931692909217825583830151908201556040830151600282015560608301516003820155608083015180519394508493919261175c926004850192909101906124bc565b5060a091909101516005909101805460ff1916911515919091179055604051630368443b60e01b8152600481018c90526024810183905273__$af828e0c356433108d8dfb596a8a6763fb$__90630368443b9060440160206040518083038186803b1580156117ca57600080fd5b505af41580156117de573d6000803e3d6000fd5b505050506040513d601f19601f820116820180604052508101906118029190612e3d565b5060019b9a5050505050505050505050565b60405163c52af8e960e01b8152600481018690526001600160a01b03851660248201528590859073__$af828e0c356433108d8dfb596a8a6763fb$__9063c52af8e99060440160206040518083038186803b15801561187257600080fd5b505af4158015611886573d6000803e3d6000fd5b505050506040513d601f19601f820116820180604052508101906118aa9190612e3d565b60405180604001604052806002815260200161353160f01b815250906118e35760405162461bcd60e51b81526004016103aa9190612e58565b5086866118f08282612244565b60405180604001604052806002815260200161343960f01b815250906119295760405162461bcd60e51b81526004016103aa9190612e58565b50888861193682826122c9565b1560405180604001604052806002815260200161035360f41b815250906119705760405162461bcd60e51b81526004016103aa9190612e58565b50600061197d8c8c61225f565b6040516361bfa34160e01b8152600481018e90526024810182905290915073__$af828e0c356433108d8dfb596a8a6763fb$__906361bfa3419060440160206040518083038186803b1580156119d257600080fd5b505af41580156119e6573d6000803e3d6000fd5b505050506040513d601f19601f82011682018060405250810190611a0a9190612e3d565b50604051630f82d3f160e11b8152600481018d9052602481018b90526044810182905273__$af828e0c356433108d8dfb596a8a6763fb$__90631f05a7e29060640160006040518083038186803b158015611a6457600080fd5b505af4158015611a78573d6000803e3d6000fd5b50505050600080611a928d8f6122e290919063ffffffff16565b91509150806040518060400160405280600281526020016106a760f31b81525090611ad05760405162461bcd60e51b81526004016103aa9190612e58565b508173__$c72e2124387635ea261ddf644a00cf602f$__630b97b41790918e8e8e6040518563ffffffff1660e01b8152600401611b1094939291906130bb565b60206040518083038186803b158015611b2857600080fd5b505af4158015611b3c573d6000803e3d6000fd5b505050506040513d601f19601f82011682018060405250810190611b609190612e3d565b505050505050505050505050505050565b604051637e084e3b60e01b8152600481018490526024810183905260448101829052600090819073__$af828e0c356433108d8dfb596a8a6763fb$__90637e084e3b9060640160206040518083038186803b158015611bcf57600080fd5b505af4158015611be3573d6000803e3d6000fd5b505050506040513d601f19601f82011682018060405250810190611c0791906130f7565b9050846004015481611c199190612ec8565b95945050505050565b8154600190810180845560008481529182918591611c3f91613110565b81548110611c4f57611c4f612f09565b90600052602060002090601f020190508073__$af828e0c356433108d8dfb596a8a6763fb$__63cc8a0498909185606001516040518363ffffffff1660e01b8152600401611ca7929190918252602082015260400190565b60206040518083038186803b158015611cbf57600080fd5b505af4158015611cd3573d6000803e3d6000fd5b505050506040513d601f19601f82011682018060405250810190611cf79190612e3d565b50608083015160405163011abfa960e61b815273__$af828e0c356433108d8dfb596a8a6763fb$__916346afea4091611d3d918591600401918252602082015260400190565b60206040518083038186803b158015611d5557600080fd5b505af4158015611d69573d6000803e3d6000fd5b505050506040513d601f19601f82011682018060405250810190611d8d9190612e3d565b506040808401519051636bf55b2760e11b815273__$af828e0c356433108d8dfb596a8a6763fb$__9163d7eab64e91611dd3918591600401918252602082015260400190565b60206040518083038186803b158015611deb57600080fd5b505af4158015611dff573d6000803e3d6000fd5b505050506040513d601f19601f82011682018060405250810190611e239190612e3d565b508251604051636b8af67360e01b815273__$af828e0c356433108d8dfb596a8a6763fb$__91636b8af67391611e66918591600401918252602082015260400190565b60206040518083038186803b158015611e7e57600080fd5b505af4158015611e92573d6000803e3d6000fd5b505050506040513d601f19601f82011682018060405250810190611eb69190612e3d565b5060a083015160405163194ebd5360e01b815273__$af828e0c356433108d8dfb596a8a6763fb$__9163194ebd5391611ef3918591600401613127565b60206040518083038186803b158015611f0b57600080fd5b505af4158015611f1f573d6000803e3d6000fd5b505050506040513d601f19601f82011682018060405250810190611f439190612e3d565b50602083015160405163a2e0e17960e01b815273__$af828e0c356433108d8dfb596a8a6763fb$__9163a2e0e17991611f89918591600401918252602082015260400190565b60206040518083038186803b158015611fa157600080fd5b505af4158015611fb5573d6000803e3d6000fd5b505050506040513d601f19601f82011682018060405250810190611fd99190612e3d565b506001949350505050565b6000611ff182601c015490565b60021492915050565b6040805160c0810182526000808252602082018190529181018290526060808201839052608082015260a0810191909152601b83015460005b818110156121b457836001600160a01b031685601b01828154811061205a5761205a612f09565b60009182526020909120600690910201546001600160a01b031614156121a25784601b01818154811061208f5761208f612f09565b90600052602060002090600602016040518060c00160405290816000820160009054906101000a90046001600160a01b03166001600160a01b03166001600160a01b0316815260200160018201548152602001600282015481526020016003820154815260200160048201805461210590612f53565b80601f016020809104026020016040519081016040528092919081815260200182805461213190612f53565b801561217e5780601f106121535761010080835404028352916020019161217e565b820191906000526020600020905b81548152906001019060200180831161216157829003601f168201915b50505091835250506005919091015460ff1615156020909101529250611522915050565b806121ac81612f1f565b915050612033565b506040518060c00160405280846001600160a01b031681526020016000801b8152602001600081526020016121e9868661225f565b81526040805160208082018352600080835290840191909152910152949350505050565b6000811561221e5750818311610b31565b5081831115610b31565b6000610b3160178401836123a7565b60606000610b31836123bf565b6000806122518484611ffa565b602001511515949350505050565b6000805b601d840154811015610e6e57826001600160a01b031684601d01828154811061228e5761228e612f09565b6000918252602090912001546001600160a01b031614156122b7576122b4600183613140565b91505b806122c181612f1f565b915050612263565b6000806122d68484611ffa565b60a00151949350505050565b60008060005b601b85015481101561237457836001600160a01b031685601b01828154811061231357612313612f09565b60009182526020909120600690910201546001600160a01b031614156123625784601b01818154811061234857612348612f09565b9060005260206000209060060201600192509250506123a0565b8061236c81612f1f565b9150506122e8565b5083601b0160008154811061238b5761238b612f09565b90600052602060002090600602016000915091505b9250929050565b60008181526001830160205260408120541515610b31565b60608160000180548060200260200160405190810160405280929190818152602001828054801561240f57602002820191906000526020600020905b8154815260200190600101908083116123fb575b50505050509050919050565b604051806102800160405280600081526020016000815260200160008152602001600081526020016000815260200160008152602001600081526020016000815260200160008152602001600081526020016000815260200160008152602001612483612540565b81526020016060815260200160008152602001606081526020016060815260200160608152602001606081526020016000151581525090565b8280546124c890612f53565b90600052602060002090601f0160209004810192826124ea5760008555612530565b82601f1061250357805160ff1916838001178555612530565b82800160010185558215612530579182015b82811115612530578251825591602001919060010190612515565b5061253c92915061255f565b5090565b604051806101600160405280600b906020820280368337509192915050565b5b8082111561253c5760008155600101612560565b60006020828403121561258657600080fd5b5035919050565b634e487b7160e01b600052604160045260246000fd5b604051610100810167ffffffffffffffff811182821017156125c7576125c761258d565b60405290565b60405160c0810167ffffffffffffffff811182821017156125c7576125c761258d565b604051601f8201601f1916810167ffffffffffffffff811182821017156126195761261961258d565b604052919050565b6001600160a01b038116811461263657600080fd5b50565b60008082840361012081121561264e57600080fd5b8335925061010080601f198301121561266657600080fd5b61266e6125a3565b9150602085013561267e81612621565b8083525060408501356020830152606085013560408301526080850135606083015260a0850135608083015260c085013560a083015260e085013560c08301528085013560e083015250809150509250929050565b6000806000606084860312156126e857600080fd5b505081359360208301359350604090920135919050565b8060005b600b811015612722578151845260209384019390910190600101612703565b50505050565b600081518084526020808501945080840160005b838110156127585781518752958201959082019060010161273c565b509495945050505050565b60005b8381101561277e578181015183820152602001612766565b838111156127225750506000910152565b600081518084526127a7816020860160208601612763565b601f01601f19169290920160200192915050565b60018060a01b0381511682526020810151602083015260408101516040830152606081015160608301526000608082015160c0608085015261280060c085018261278f565b60a0938401511515949093019390935250919050565b600081518084526020808501808196508360051b8101915082860160005b8581101561285e57828403895261284c8483516127bb565b98850198935090840190600101612834565b5091979650505050505050565b80518252602081015160208301526000604082015160606040850152612894606085018261278f565b949350505050565b600081518084526020808501808196508360051b8101915082860160005b8581101561285e5782840389526128d284835161286b565b988501989350908401906001016128ba565b600081518084526020808501945080840160005b838110156127585781516001600160a01b0316875295820195908201906001016128f8565b60006103c0825184526020830151602085015260408301516040850152606083015160608501526080830151608085015260a083015160a085015260c083015160c085015260e083015160e0850152610100808401518186015250610120808401518186015250610140808401518186015250610160808401518186015250610180808401516129af828701826126ff565b50506101a0830151816102e08601526129ca82860182612728565b9150506101c08301516103008501526101e08301518482036103208601526129f28282612816565b915050610200830151848203610340860152612a0e828261289c565b915050610220830151848203610360860152612a2a82826128e4565b915050610240830151848203610380860152612a4682826128e4565b915050610260830151612a5e6103a086018215159052565b509392505050565b6000602080830181845280855180835260408601915060408160051b870101925083870160005b82811015612abb57603f19888603018452612aa985835161291d565b94509285019290850190600101612a8d565b5092979650505050505050565b600067ffffffffffffffff821115612ae257612ae261258d565b50601f01601f191660200190565b600082601f830112612b0157600080fd5b8135612b14612b0f82612ac8565b6125f0565b818152846020838601011115612b2957600080fd5b816020850160208301376000918101602001919091529392505050565b60008060408385031215612b5957600080fd5b82359150602083013567ffffffffffffffff80821115612b7857600080fd5b9084019060608287031215612b8c57600080fd5b604051606081018181108382111715612ba757612ba761258d565b80604052508235815260208301356020820152604083013582811115612bcc57600080fd5b612bd888828601612af0565b6040830152508093505050509250929050565b60008060408385031215612bfe57600080fd5b50508035926020909101359150565b602081526000610b31602083018461291d565b60008060008060808587031215612c3657600080fd5b843593506020850135612c4881612621565b925060408501359150606085013567ffffffffffffffff811115612c6b57600080fd5b612c7787828801612af0565b91505092959194509250565b600080600080600060a08688031215612c9b57600080fd5b853594506020860135612cad81612621565b935060408601359250606086013567ffffffffffffffff80821115612cd157600080fd5b612cdd89838a01612af0565b93506080880135915080821115612cf357600080fd5b50612d0088828901612af0565b9150509295509295909350565b60008060408385031215612d2057600080fd5b8235915060208084013567ffffffffffffffff80821115612d4057600080fd5b9085019060c08288031215612d5457600080fd5b612d5c6125cd565b82358152838301358482015260408301356040820152606083013560608201526080830135608082015260a083013582811115612d9857600080fd5b80840193505087601f840112612dad57600080fd5b823582811115612dbf57612dbf61258d565b8060051b9250612dd08584016125f0565b818152928401850192858101908a851115612dea57600080fd5b948601945b84861015612e145785359250612e0483612621565b8282529486019490860190612def565b60a084015250959890975095505050505050565b80518015158114612e3857600080fd5b919050565b600060208284031215612e4f57600080fd5b610b3182612e28565b602081526000610b31602083018461278f565b604081526000612e7e60408301856127bb565b90508260208301529392505050565b606081526000612ea060608301866127bb565b60208301949094525060400152919050565b634e487b7160e01b600052601160045260246000fd5b6000816000190483118215151615612ee257612ee2612eb2565b500290565b600082612f0457634e487b7160e01b600052601260045260246000fd5b500490565b634e487b7160e01b600052603260045260246000fd5b6000600019821415612f3357612f33612eb2565b5060010190565b828152604060208201526000612894604083018461286b565b600181811c90821680612f6757607f821691505b60208210811415612f8857634e487b7160e01b600052602260045260246000fd5b50919050565b60018060a01b0385168152836020820152826040820152608060608201526000612fbb608083018461278f565b9695505050505050565b600082601f830112612fd657600080fd5b8151612fe4612b0f82612ac8565b818152846020838601011115612ff957600080fd5b612894826020830160208701612763565b60006020828403121561301c57600080fd5b815167ffffffffffffffff8082111561303457600080fd5b9083019060c0828603121561304857600080fd5b6130506125cd565b825161305b81612621565b8082525060208301516020820152604083015160408201526060830151606082015260808301518281111561308f57600080fd5b61309b87828601612fc5565b6080830152506130ad60a08401612e28565b60a082015295945050505050565b8481528360208201526080604082015260006130da608083018561278f565b82810360608401526130ec818561278f565b979650505050505050565b60006020828403121561310957600080fd5b5051919050565b60008282101561312257613122612eb2565b500390565b82815260406020820152600061289460408301846128e4565b6000821982111561315357613153612eb2565b50019056fea26469706673582212209ad3f91ec4449468accf67668e6cd07b7d50546af46886085215dffd697329db64736f6c63430008090033",
  "libraries": {
    "RoundDataLogic": "0x5aEe4cd78536d7062AaAA8ceC280162abf4B79F4",
    "VoteLogic": "0x6aCb93c19af3c035b27e9e357F27999843624C74"
  },
  "devdoc": {
    "author": "Blockswan",
    "kind": "dev",
    "methods": {},
    "title": "Round logic library",
    "version": 1
  },
  "userdoc": {
    "kind": "user",
    "methods": {},
    "notice": "Implements the logic for round specific functions",
    "version": 1
  },
  "storageLayout": {
    "storage": [],
    "types": null
  }
}