{
  "address": "0x95F12Eb04F1b0ff371B981Daa4ABF4286FE90F06",
  "abi": [
    {
      "inputs": [
        {
          "internalType": "contract IAddressProvider",
          "name": "provider",
          "type": "address"
        }
      ],
      "stateMutability": "nonpayable",
      "type": "constructor"
    },
    {
      "anonymous": false,
      "inputs": [
        {
          "indexed": true,
          "internalType": "address",
          "name": "previousOwner",
          "type": "address"
        },
        {
          "indexed": true,
          "internalType": "address",
          "name": "newOwner",
          "type": "address"
        }
      ],
      "name": "OwnershipTransferred",
      "type": "event"
    },
    {
      "anonymous": false,
      "inputs": [
        {
          "indexed": true,
          "internalType": "uint256",
          "name": "userId",
          "type": "uint256"
        },
        {
          "indexed": true,
          "internalType": "address",
          "name": "userAddress",
          "type": "address"
        },
        {
          "components": [
            {
              "internalType": "uint256",
              "name": "newId",
              "type": "uint256"
            },
            {
              "internalType": "string",
              "name": "metadata",
              "type": "string"
            },
            {
              "internalType": "uint256",
              "name": "inviterId",
              "type": "uint256"
            },
            {
              "internalType": "address",
              "name": "wallet",
              "type": "address"
            }
          ],
          "indexed": false,
          "internalType": "struct InputTypes.CreateUserInput",
          "name": "userData",
          "type": "tuple"
        }
      ],
      "name": "UserAdded",
      "type": "event"
    },
    {
      "anonymous": false,
      "inputs": [
        {
          "indexed": true,
          "internalType": "uint256",
          "name": "userId",
          "type": "uint256"
        },
        {
          "indexed": true,
          "internalType": "address",
          "name": "userAddress",
          "type": "address"
        },
        {
          "components": [
            {
              "internalType": "string",
              "name": "metadata",
              "type": "string"
            },
            {
              "internalType": "uint256",
              "name": "inviterId",
              "type": "uint256"
            },
            {
              "internalType": "uint256",
              "name": "buyerUntil",
              "type": "uint256"
            },
            {
              "internalType": "uint256",
              "name": "buyerInvites",
              "type": "uint256"
            },
            {
              "internalType": "uint256",
              "name": "sellerUntil",
              "type": "uint256"
            },
            {
              "internalType": "uint256",
              "name": "sellerInvites",
              "type": "uint256"
            },
            {
              "internalType": "uint256",
              "name": "userId",
              "type": "uint256"
            },
            {
              "internalType": "address",
              "name": "wallet",
              "type": "address"
            },
            {
              "internalType": "uint256[]",
              "name": "gigIds",
              "type": "uint256[]"
            },
            {
              "internalType": "uint256[]",
              "name": "offerIds",
              "type": "uint256[]"
            },
            {
              "internalType": "uint256[]",
              "name": "bidIds",
              "type": "uint256[]"
            },
            {
              "internalType": "uint256[]",
              "name": "buyerOrderIds",
              "type": "uint256[]"
            },
            {
              "internalType": "uint256[]",
              "name": "gigReviewsIds",
              "type": "uint256[]"
            },
            {
              "internalType": "uint256[]",
              "name": "userReviewsIds",
              "type": "uint256[]"
            },
            {
              "internalType": "uint256[]",
              "name": "reviewsIds",
              "type": "uint256[]"
            }
          ],
          "indexed": false,
          "internalType": "struct OutputTypes.UserOutput",
          "name": "userData",
          "type": "tuple"
        }
      ],
      "name": "UserEdited",
      "type": "event"
    },
    {
      "inputs": [],
      "name": "ADDRESSES_PROVIDER",
      "outputs": [
        {
          "internalType": "contract IAddressProvider",
          "name": "",
          "type": "address"
        }
      ],
      "stateMutability": "view",
      "type": "function"
    },
    {
      "inputs": [],
      "name": "ADDRESS_PROVIDER",
      "outputs": [
        {
          "internalType": "contract IAddressProvider",
          "name": "",
          "type": "address"
        }
      ],
      "stateMutability": "view",
      "type": "function"
    },
    {
      "inputs": [],
      "name": "MAX_UINT",
      "outputs": [
        {
          "internalType": "uint256",
          "name": "",
          "type": "uint256"
        }
      ],
      "stateMutability": "view",
      "type": "function"
    },
    {
      "inputs": [
        {
          "internalType": "address",
          "name": "erc20",
          "type": "address"
        }
      ],
      "name": "approve",
      "outputs": [],
      "stateMutability": "nonpayable",
      "type": "function"
    },
    {
      "inputs": [],
      "name": "becomeBuyer",
      "outputs": [],
      "stateMutability": "nonpayable",
      "type": "function"
    },
    {
      "inputs": [],
      "name": "becomeSeller",
      "outputs": [],
      "stateMutability": "nonpayable",
      "type": "function"
    },
    {
      "inputs": [
        {
          "internalType": "uint256",
          "name": "buyerId",
          "type": "uint256"
        },
        {
          "internalType": "uint256",
          "name": "newOrderId",
          "type": "uint256"
        }
      ],
      "name": "createBuyerOrder",
      "outputs": [
        {
          "internalType": "bool",
          "name": "",
          "type": "bool"
        }
      ],
      "stateMutability": "nonpayable",
      "type": "function"
    },
    {
      "inputs": [
        {
          "internalType": "address",
          "name": "caller",
          "type": "address"
        },
        {
          "internalType": "uint256",
          "name": "newGigId",
          "type": "uint256"
        }
      ],
      "name": "createGig",
      "outputs": [
        {
          "internalType": "bool",
          "name": "",
          "type": "bool"
        }
      ],
      "stateMutability": "nonpayable",
      "type": "function"
    },
    {
      "inputs": [
        {
          "internalType": "string",
          "name": "metadata",
          "type": "string"
        },
        {
          "internalType": "uint256",
          "name": "inviterId",
          "type": "uint256"
        }
      ],
      "name": "createUser",
      "outputs": [],
      "stateMutability": "nonpayable",
      "type": "function"
    },
    {
      "inputs": [
        {
          "internalType": "bytes32",
          "name": "_name",
          "type": "bytes32"
        }
      ],
      "name": "fetchContract",
      "outputs": [
        {
          "internalType": "address",
          "name": "",
          "type": "address"
        }
      ],
      "stateMutability": "view",
      "type": "function"
    },
    {
      "inputs": [
        {
          "internalType": "uint256",
          "name": "userId",
          "type": "uint256"
        }
      ],
      "name": "getAddressById",
      "outputs": [
        {
          "internalType": "address",
          "name": "",
          "type": "address"
        }
      ],
      "stateMutability": "view",
      "type": "function"
    },
    {
      "inputs": [
        {
          "internalType": "address",
          "name": "account",
          "type": "address"
        }
      ],
      "name": "getIdByAddress",
      "outputs": [
        {
          "internalType": "uint256",
          "name": "",
          "type": "uint256"
        }
      ],
      "stateMutability": "view",
      "type": "function"
    },
    {
      "inputs": [
        {
          "internalType": "uint256",
          "name": "userId",
          "type": "uint256"
        }
      ],
      "name": "getInvitersById",
      "outputs": [
        {
          "internalType": "address",
          "name": "",
          "type": "address"
        },
        {
          "internalType": "address",
          "name": "",
          "type": "address"
        }
      ],
      "stateMutability": "view",
      "type": "function"
    },
    {
      "inputs": [
        {
          "internalType": "address",
          "name": "account",
          "type": "address"
        }
      ],
      "name": "getInvitersByUserAddress",
      "outputs": [
        {
          "internalType": "address",
          "name": "",
          "type": "address"
        },
        {
          "internalType": "address",
          "name": "",
          "type": "address"
        }
      ],
      "stateMutability": "view",
      "type": "function"
    },
    {
      "inputs": [
        {
          "internalType": "address",
          "name": "pubKey",
          "type": "address"
        }
      ],
      "name": "getUserByAddress",
      "outputs": [
        {
          "components": [
            {
              "internalType": "string",
              "name": "metadata",
              "type": "string"
            },
            {
              "internalType": "uint256",
              "name": "inviterId",
              "type": "uint256"
            },
            {
              "internalType": "uint256",
              "name": "buyerUntil",
              "type": "uint256"
            },
            {
              "internalType": "uint256",
              "name": "buyerInvites",
              "type": "uint256"
            },
            {
              "internalType": "uint256",
              "name": "sellerUntil",
              "type": "uint256"
            },
            {
              "internalType": "uint256",
              "name": "sellerInvites",
              "type": "uint256"
            },
            {
              "internalType": "uint256",
              "name": "userId",
              "type": "uint256"
            },
            {
              "internalType": "address",
              "name": "wallet",
              "type": "address"
            },
            {
              "internalType": "uint256[]",
              "name": "gigIds",
              "type": "uint256[]"
            },
            {
              "internalType": "uint256[]",
              "name": "offerIds",
              "type": "uint256[]"
            },
            {
              "internalType": "uint256[]",
              "name": "bidIds",
              "type": "uint256[]"
            },
            {
              "internalType": "uint256[]",
              "name": "buyerOrderIds",
              "type": "uint256[]"
            },
            {
              "internalType": "uint256[]",
              "name": "gigReviewsIds",
              "type": "uint256[]"
            },
            {
              "internalType": "uint256[]",
              "name": "userReviewsIds",
              "type": "uint256[]"
            },
            {
              "internalType": "uint256[]",
              "name": "reviewsIds",
              "type": "uint256[]"
            }
          ],
          "internalType": "struct OutputTypes.UserOutput",
          "name": "",
          "type": "tuple"
        }
      ],
      "stateMutability": "view",
      "type": "function"
    },
    {
      "inputs": [
        {
          "internalType": "uint256",
          "name": "userId",
          "type": "uint256"
        }
      ],
      "name": "getUserById",
      "outputs": [
        {
          "components": [
            {
              "internalType": "string",
              "name": "metadata",
              "type": "string"
            },
            {
              "internalType": "uint256",
              "name": "inviterId",
              "type": "uint256"
            },
            {
              "internalType": "uint256",
              "name": "buyerUntil",
              "type": "uint256"
            },
            {
              "internalType": "uint256",
              "name": "buyerInvites",
              "type": "uint256"
            },
            {
              "internalType": "uint256",
              "name": "sellerUntil",
              "type": "uint256"
            },
            {
              "internalType": "uint256",
              "name": "sellerInvites",
              "type": "uint256"
            },
            {
              "internalType": "uint256",
              "name": "userId",
              "type": "uint256"
            },
            {
              "internalType": "address",
              "name": "wallet",
              "type": "address"
            },
            {
              "internalType": "uint256[]",
              "name": "gigIds",
              "type": "uint256[]"
            },
            {
              "internalType": "uint256[]",
              "name": "offerIds",
              "type": "uint256[]"
            },
            {
              "internalType": "uint256[]",
              "name": "bidIds",
              "type": "uint256[]"
            },
            {
              "internalType": "uint256[]",
              "name": "buyerOrderIds",
              "type": "uint256[]"
            },
            {
              "internalType": "uint256[]",
              "name": "gigReviewsIds",
              "type": "uint256[]"
            },
            {
              "internalType": "uint256[]",
              "name": "userReviewsIds",
              "type": "uint256[]"
            },
            {
              "internalType": "uint256[]",
              "name": "reviewsIds",
              "type": "uint256[]"
            }
          ],
          "internalType": "struct OutputTypes.UserOutput",
          "name": "",
          "type": "tuple"
        }
      ],
      "stateMutability": "view",
      "type": "function"
    },
    {
      "inputs": [],
      "name": "getUserList",
      "outputs": [
        {
          "components": [
            {
              "internalType": "string",
              "name": "metadata",
              "type": "string"
            },
            {
              "internalType": "uint256",
              "name": "inviterId",
              "type": "uint256"
            },
            {
              "internalType": "uint256",
              "name": "buyerUntil",
              "type": "uint256"
            },
            {
              "internalType": "uint256",
              "name": "buyerInvites",
              "type": "uint256"
            },
            {
              "internalType": "uint256",
              "name": "sellerUntil",
              "type": "uint256"
            },
            {
              "internalType": "uint256",
              "name": "sellerInvites",
              "type": "uint256"
            },
            {
              "internalType": "uint256",
              "name": "userId",
              "type": "uint256"
            },
            {
              "internalType": "address",
              "name": "wallet",
              "type": "address"
            },
            {
              "internalType": "uint256[]",
              "name": "gigIds",
              "type": "uint256[]"
            },
            {
              "internalType": "uint256[]",
              "name": "offerIds",
              "type": "uint256[]"
            },
            {
              "internalType": "uint256[]",
              "name": "bidIds",
              "type": "uint256[]"
            },
            {
              "internalType": "uint256[]",
              "name": "buyerOrderIds",
              "type": "uint256[]"
            },
            {
              "internalType": "uint256[]",
              "name": "gigReviewsIds",
              "type": "uint256[]"
            },
            {
              "internalType": "uint256[]",
              "name": "userReviewsIds",
              "type": "uint256[]"
            },
            {
              "internalType": "uint256[]",
              "name": "reviewsIds",
              "type": "uint256[]"
            }
          ],
          "internalType": "struct OutputTypes.UserOutput[]",
          "name": "",
          "type": "tuple[]"
        }
      ],
      "stateMutability": "view",
      "type": "function"
    },
    {
      "inputs": [],
      "name": "getUsersCount",
      "outputs": [
        {
          "internalType": "uint256",
          "name": "",
          "type": "uint256"
        }
      ],
      "stateMutability": "view",
      "type": "function"
    },
    {
      "inputs": [
        {
          "internalType": "bytes32",
          "name": "_role",
          "type": "bytes32"
        },
        {
          "internalType": "address",
          "name": "account",
          "type": "address"
        }
      ],
      "name": "hasProtocolRole",
      "outputs": [
        {
          "internalType": "bool",
          "name": "",
          "type": "bool"
        }
      ],
      "stateMutability": "view",
      "type": "function"
    },
    {
      "inputs": [
        {
          "internalType": "uint256",
          "name": "userId",
          "type": "uint256"
        },
        {
          "internalType": "uint256",
          "name": "gigId",
          "type": "uint256"
        },
        {
          "internalType": "contract IUser",
          "name": "UserContract",
          "type": "address"
        }
      ],
      "name": "isGigOwner",
      "outputs": [
        {
          "internalType": "bool",
          "name": "",
          "type": "bool"
        }
      ],
      "stateMutability": "view",
      "type": "function"
    },
    {
      "inputs": [
        {
          "internalType": "uint256",
          "name": "userId",
          "type": "uint256"
        },
        {
          "internalType": "uint256",
          "name": "gigId",
          "type": "uint256"
        }
      ],
      "name": "isGigOwner",
      "outputs": [
        {
          "internalType": "bool",
          "name": "",
          "type": "bool"
        }
      ],
      "stateMutability": "view",
      "type": "function"
    },
    {
      "inputs": [
        {
          "internalType": "address",
          "name": "account",
          "type": "address"
        }
      ],
      "name": "isStillBuyer",
      "outputs": [
        {
          "internalType": "bool",
          "name": "",
          "type": "bool"
        }
      ],
      "stateMutability": "view",
      "type": "function"
    },
    {
      "inputs": [
        {
          "internalType": "address",
          "name": "account",
          "type": "address"
        }
      ],
      "name": "isStillSeller",
      "outputs": [
        {
          "internalType": "bool",
          "name": "",
          "type": "bool"
        }
      ],
      "stateMutability": "view",
      "type": "function"
    },
    {
      "inputs": [],
      "name": "kill",
      "outputs": [],
      "stateMutability": "nonpayable",
      "type": "function"
    },
    {
      "inputs": [],
      "name": "owner",
      "outputs": [
        {
          "internalType": "address",
          "name": "",
          "type": "address"
        }
      ],
      "stateMutability": "view",
      "type": "function"
    },
    {
      "inputs": [],
      "name": "renounceOwnership",
      "outputs": [],
      "stateMutability": "nonpayable",
      "type": "function"
    },
    {
      "inputs": [
        {
          "internalType": "contract IAddressProvider",
          "name": "_providerAddress",
          "type": "address"
        }
      ],
      "name": "setProvider",
      "outputs": [],
      "stateMutability": "nonpayable",
      "type": "function"
    },
    {
      "inputs": [
        {
          "internalType": "address",
          "name": "newOwner",
          "type": "address"
        }
      ],
      "name": "transferOwnership",
      "outputs": [],
      "stateMutability": "nonpayable",
      "type": "function"
    }
  ],
  "transactionHash": "0xc53a8603d1f463cd695baf21e24b3e37aa77e62c1af22bb81d9d1d73f814210b",
  "args": [
    "0xE80a26720a707C08fc5ED6184ef02B89C4DdEc19"
  ],
  "numDeployments": 2,
  "solcInputHash": "075f2457e796c8d70088564501ef535f",
  "bytecode": "0x60806040526000196008553480156200001757600080fd5b5060405162002b8b38038062002b8b8339810160408190526200003a916200010b565b806200004633620000b9565b6040805180820190915260018152603560f81b60208201526001600160a01b038216620000915760405162461bcd60e51b81526004016200008891906200013d565b60405180910390fd5b50600780546001600160a01b0319166001600160a01b03929092169190911790555062000195565b600680546001600160a01b038381166001600160a01b0319831681179093556040519116919082907f8be0079c531659141344cd1fd0a4f28419497f9722a3daafe3b4186f6b6457e090600090a35050565b6000602082840312156200011e57600080fd5b81516001600160a01b03811681146200013657600080fd5b9392505050565b600060208083528351808285015260005b818110156200016c578581018301518582016040015282016200014e565b818111156200017f576000604083870101525b50601f01601f1916929092016040019392505050565b6129e680620001a56000396000f3fe608060405234801561001057600080fd5b50600436106101c45760003560e01c8063982714b6116100f9578063cfd8d6c011610097578063dff3b49711610071578063dff3b497146103be578063e5b5019a146103d1578063f2fde38b146103da578063fbd2817f146103ed57600080fd5b8063cfd8d6c014610385578063daea85c514610398578063dd06ef02146103ab57600080fd5b8063adcd2d21116100d3578063adcd2d2114610317578063b817bcf71461032a578063b85220431461033d578063bebf138f1461035257600080fd5b8063982714b6146102db578063985fadc8146102ee578063a4a1e2631461030157600080fd5b806369c212f61161016657806379a558e71161014057806379a558e71461029c5780638d80c922146102af5780638da5cb5b146102c25780638f299b1e146102d357600080fd5b806369c212f6146102615780636ed6da9e14610281578063715018a61461029457600080fd5b8063128fdb48116101a2578063128fdb481461022b5780631848effa1461023357806319872f761461024657806341c0e1b51461025957600080fd5b80630542975c146101c957806311e0c07b146101f3578063121ef24314610216575b600080fd5b6007546001600160a01b03165b6040516001600160a01b0390911681526020015b60405180910390f35b610206610201366004611f93565b610400565b60405190151581526020016101ea565b610229610224366004612065565b61048a565b005b610229610659565b6007546101d6906001600160a01b031681565b6101d66102543660046120e7565b61085f565b6102296108e2565b61027461026f366004612100565b61090a565b6040516101ea91906122ea565b61027461028f3660046120e7565b6109df565b610229610a70565b6102066102aa366004612100565b610a84565b6101d66102bd3660046120e7565b610b3a565b6006546001600160a01b03166101d6565b610229610b47565b6102066102e93660046122fd565b610cdc565b6102066102fc36600461231f565b610de3565b610309610e47565b6040519081526020016101ea565b61020661032536600461234f565b610e54565b610206610338366004612100565b610f11565b610345610fc8565b6040516101ea919061237b565b6103656103603660046120e7565b611078565b604080516001600160a01b039384168152929091166020830152016101ea565b610229610393366004612100565b6111ae565b6102296103a6366004612100565b6112fc565b6103656103b9366004612100565b6113fe565b6103096103cc366004612100565b61145a565b61030960085481565b6102296103e8366004612100565b611467565b6102066103fb3660046122fd565b6114e0565b60405163fbd2817f60e01b815260048101849052602481018390526000906001600160a01b0383169063fbd2817f9060440160206040518083038186803b15801561044a57600080fd5b505afa15801561045e573d6000803e3d6000fd5b505050506040513d601f19601f8201168201806040525081019061048291906123dd565b949350505050565b6000610494610e47565b905080156104a4578082106104a7565b81155b60405180604001604052806002815260200161031360f41b815250906104e95760405162461bcd60e51b81526004016104e091906123ff565b60405180910390fd5b506000819050600060405180608001604052808381526020018681526020018581526020016105153390565b6001600160a01b0316905260405163729dfdcd60e11b815290915060009073EB2F885B779F4718E7E041a03e0b25148BFc96A99063e53bfb9a906105659084906002906005908890600401612412565b60206040518083038186803b15801561057d57600080fd5b505af4158015610591573d6000803e3d6000fd5b505050506040513d601f19601f820116820180604052508101906105b591906123dd565b90508080156105d6575060016105c9610e47565b6105d3919061248d565b83145b604051806040016040528060018152602001600760fb1b8152509061060e5760405162461bcd60e51b81526004016104e091906123ff565b50336001600160a01b0316837fbee9c5c7ffbde119e3d12f30b5b584a6b78652a5ce90278f90c9c98c0f3178db8460405161064991906124a4565b60405180910390a3505050505050565b33600061066e64212aaca2a960d91b83610de3565b90508015604051806040016040528060018152602001603960f81b815250906106aa5760405162461bcd60e51b81526004016104e091906123ff565b5060006106bf64212aaca2a960d91b8461157b565b90506106d364212aaca2a960d91b846116e7565b60408051606080820183526001600160a01b038616825283830180516020908101519084015251015160ff16818301529051633bb7b3f960e01b815260009173EB2F885B779F4718E7E041a03e0b25148BFc96A991633bb7b3f991610743916002916005918791906004016124f5565b60206040518083038186803b15801561075b57600080fd5b505af415801561076f573d6000803e3d6000fd5b505050506040513d601f19601f8201168201806040525081019061079391906123dd565b90508060405180604001604052806002815260200161313160f01b815250906107cf5760405162461bcd60e51b81526004016104e091906123ff565b506107e96b2122a1a7a6a2afa12aaca2a960a11b85611767565b6108596040518060c00160405280866001600160a01b0316815260200184600001516001600160a01b0316815260200184602001516001600160a01b03168152602001846080015160000151815260200184608001516020015181526020018460800151604001518152506117ac565b50505050565b600754604051630cc397bb60e11b8152600481018390526000916001600160a01b0316906319872f769060240160206040518083038186803b1580156108a457600080fd5b505afa1580156108b8573d6000803e3d6000fd5b505050506040513d601f19601f820116820180604052508101906108dc9190612543565b92915050565b6007546001600160a01b031633146108fc576108fc612560565b6007546001600160a01b0316ff5b610912611e6a565b6001600160a01b038216600090815260056020526040902073EB2F885B779F4718E7E041a03e0b25148BFc96A9632aa8eb8082610950600287611883565b6040516001600160e01b031960e085901b168152600481019290925260248201526001600160a01b03861660448201526064015b60006040518083038186803b15801561099c57600080fd5b505af41580156109b0573d6000803e3d6000fd5b505050506040513d6000823e601f3d908101601f191682016040526109d8919081019061263b565b9392505050565b6109e7611e6a565b60006005816109f68186611898565b6001600160a01b031681526020810191909152604001600020905073EB2F885B779F4718E7E041a03e0b25148BFc96A9632aa8eb808285610a3681610b3a565b6040516001600160e01b031960e086901b168152600481019390935260248301919091526001600160a01b03166044820152606401610984565b610a786118a4565b610a8260006118fe565b565b6000610a9864212aaca2a960d91b83610de3565b80156108dc575042610ab0632aa9a2a960e11b61085f565b6040516334e1097b60e11b81526001600160a01b03858116600483015291909116906369c212f69060240160006040518083038186803b158015610af357600080fd5b505afa158015610b07573d6000803e3d6000fd5b505050506040513d6000823e601f3d908101601f19168201604052610b2f919081019061263b565b604001511192915050565b6000806109d88184611898565b336000610b5d6529a2a62622a960d11b83610de3565b9050801560405180604001604052806002815260200161189960f11b81525090610b9a5760405162461bcd60e51b81526004016104e091906123ff565b506000610bb06529a2a62622a960d11b8461157b565b9050610bc56529a2a62622a960d11b846116e7565b60408051606080820183526001600160a01b038616825283830180516020908101519084015251015160ff16818301529051633ea5a5a360e11b815260009173EB2F885B779F4718E7E041a03e0b25148BFc96A991637d4b4b4691610c35916002916005918791906004016124f5565b60206040518083038186803b158015610c4d57600080fd5b505af4158015610c61573d6000803e3d6000fd5b505050506040513d601f19601f82011682018060405250810190610c8591906123dd565b90508060405180604001604052806002815260200161313360f01b81525090610cc15760405162461bcd60e51b81526004016104e091906123ff565b506107e96c2122a1a7a6a2afa9a2a62622a960991b85611767565b60006427a92222a960d91b610cf08161085f565b6001600160a01b0316336001600160a01b03161460405180604001604052806002815260200161199b60f11b81525090610d3d5760405162461bcd60e51b81526004016104e091906123ff565b5060405163a292a61360e01b81526004810184905260248101859052600060448201819052600560648301529073EB2F885B779F4718E7E041a03e0b25148BFc96A99063a292a613906084015b60206040518083038186803b158015610da257600080fd5b505af4158015610db6573d6000803e3d6000fd5b505050506040513d601f19601f82011682018060405250810190610dda91906123dd565b95945050505050565b600080610dfd6a20a1a62fa6a0a720a3a2a960a91b61085f565b604051632474521560e21b8152600481018690526001600160a01b03858116602483015291909116906391d148549060440160206040518083038186803b15801561044a57600080fd5b6000806108dc6000611950565b60006247494760e81b610e668161085f565b6001600160a01b0316336001600160a01b03161460405180604001604052806002815260200161199b60f11b81525090610eb35760405162461bcd60e51b81526004016104e091906123ff565b50600073EB2F885B779F4718E7E041a03e0b25148BFc96A963a2caedd685610eda8861145a565b6040516001600160e01b031960e085901b168152600481019290925260248201526000604482015260056064820152608401610d8a565b6000610f266529a2a62622a960d11b83610de3565b80156108dc575042610f3e632aa9a2a960e11b61085f565b6040516334e1097b60e11b81526001600160a01b03858116600483015291909116906369c212f69060240160006040518083038186803b158015610f8157600080fd5b505afa158015610f95573d6000803e3d6000fd5b505050506040513d6000823e601f3d908101601f19168201604052610fbd919081019061263b565b608001511192915050565b60606000610fd4610e47565b905060008167ffffffffffffffff811115610ff157610ff1611fcc565b60405190808252806020026020018201604052801561102a57816020015b611017611e6a565b81526020019060019003908161100f5790505b50905060005b8281101561107157611041816109df565b82828151811061105357611053612802565b6020026020010181905250808061106990612818565b915050611030565b5092915050565b60405163f1193ae960e01b81526004810182905260006024820181905260056044830152908190819073EB2F885B779F4718E7E041a03e0b25148BFc96A99063f1193ae9906064015b60206040518083038186803b1580156110d957600080fd5b505af41580156110ed573d6000803e3d6000fd5b505050506040513d601f19601f820116820180604052508101906111119190612833565b604051631900f20b60e21b81526004810182905260006024820152600560448201529091507321Ee093B0f6547F86398a92aCc59681897E4E84c90636403c82c90606401604080518083038186803b15801561116c57600080fd5b505af4158015611180573d6000803e3d6000fd5b505050506040513d601f19601f820116820180604052508101906111a4919061284c565b9250925050915091565b6001600160a01b03811615806111ce57506007546001600160a01b031633145b8061125a5750336001600160a01b0316306001600160a01b0316638da5cb5b6040518163ffffffff1660e01b815260040160206040518083038186803b15801561121757600080fd5b505afa15801561122b573d6000803e3d6000fd5b505050506040513d601f19601f8201168201806040525081019061124f9190612543565b6001600160a01b0316145b6112da5760405162461bcd60e51b815260206004820152604560248201527f43616e206f6e6c792062652063616c6c6564206966206164647265737365735060448201527f726f766964657220697320656d7074792c206d73672e73656e646572206f722060648201526437bbb732b960d91b608482015260a4016104e0565b600780546001600160a01b0319166001600160a01b0392909216919091179055565b6d282927aa27a1a7a62fa0a226a4a760911b6113188133610de3565b6113645760405162461bcd60e51b815260206004820152601c60248201527f5265717569726573206d73672e73656e6465722068617320726f6c650000000060448201526064016104e0565b60006113756211105560ea1b61085f565b60085460405163095ea7b360e01b81526001600160a01b038084166004830152602482019290925291925084169063095ea7b390604401602060405180830381600087803b1580156113c657600080fd5b505af11580156113da573d6000803e3d6000fd5b505050506040513d601f19601f8201168201806040525081019061085991906123dd565b604051635e80e95160e01b81526001600160a01b03821660048201526002602482015260006044820181905260056064830152908190819073EB2F885B779F4718E7E041a03e0b25148BFc96A990635e80e951906084016110c1565b60006108dc600283611883565b61146f6118a4565b6001600160a01b0381166114d45760405162461bcd60e51b815260206004820152602660248201527f4f776e61626c653a206e6577206f776e657220697320746865207a65726f206160448201526564647265737360d01b60648201526084016104e0565b6114dd816118fe565b50565b604051630dde020f60e01b81526004810183905260248101829052600060448201819052600560648301529073EB2F885B779F4718E7E041a03e0b25148BFc96A990630dde020f9060840160206040518083038186803b15801561154357600080fd5b505af4158015611557573d6000803e3d6000fd5b505050506040513d601f19601f820116820180604052508101906109d891906123dd565b611583611ee9565b6115b16040518060800160405280600081526020016000815260200160008152602001600060ff1681525090565b64212aaca2a960d91b8414156115d0576115c961195a565b90506115db565b6115d8611a1e565b90505b6000806115e7856113fe565b9150915060006115f5611aa5565b604080516060810182528651815282516020808301918252840151828401908152925163013a9d5b60e01b815291516004830152516024820152905160448201529091506000907321Ee093B0f6547F86398a92aCc59681897E4E84c9063013a9d5b9060640160606040518083038186803b15801561167357600080fd5b505af4158015611687573d6000803e3d6000fd5b505050506040513d601f19601f820116820180604052508101906116ab919061287b565b6040805160a0810182526001600160a01b0396871681529490951660208501529383019490945260608201526080810191909152949350505050565b6116fe6a20a1a62fa6a0a720a3a2a960a91b61085f565b604051632f2ff15d60e01b8152600481018490526001600160a01b0383811660248301529190911690632f2ff15d906044015b600060405180830381600087803b15801561174b57600080fd5b505af115801561175f573d6000803e3d6000fd5b505050505050565b61177561058560f41b61085f565b60405163149e351d60e11b8152600481018490526001600160a01b038381166024830152919091169063293c6a3a90604401611731565b60006117bd6211105560ea1b61085f565b905060008260a00151836080015184606001516117da91906128d7565b6117e491906128d7565b905061187483600001513083856001600160a01b031663e5a6b10f6040518163ffffffff1660e01b8152600401602060405180830381600087803b15801561182b57600080fd5b505af115801561183f573d6000803e3d6000fd5b505050506040513d601f19601f820116820180604052508101906118639190612543565b6001600160a01b0316929190611b49565b61187e8383611beb565b505050565b60006109d8836001600160a01b038416611d0c565b60006109d88383611d97565b6006546001600160a01b03163314610a825760405162461bcd60e51b815260206004820181905260248201527f4f776e61626c653a2063616c6c6572206973206e6f7420746865206f776e657260448201526064016104e0565b600680546001600160a01b038381166001600160a01b0319831681179093556040519116919082907f8be0079c531659141344cd1fd0a4f28419497f9722a3daafe3b4186f6b6457e090600090a35050565b60006108dc825490565b6119886040518060800160405280600081526020016000815260200160008152602001600060ff1681525090565b6119a974282927aa27a1a7a62fa1a7a72324a3aaa920aa27a960591b61085f565b6001600160a01b0316632c53f6c46040518163ffffffff1660e01b815260040160806040518083038186803b1580156119e157600080fd5b505afa1580156119f5573d6000803e3d6000fd5b505050506040513d601f19601f82011682018060405250810190611a1991906128ef565b905090565b611a4c6040518060800160405280600081526020016000815260200160008152602001600060ff1681525090565b611a6d74282927aa27a1a7a62fa1a7a72324a3aaa920aa27a960591b61085f565b6001600160a01b031663688c4b246040518163ffffffff1660e01b815260040160806040518083038186803b1580156119e157600080fd5b6040805180820190915260008082526020820152611ada74282927aa27a1a7a62fa1a7a72324a3aaa920aa27a960591b61085f565b6001600160a01b0316639af1da486040518163ffffffff1660e01b8152600401604080518083038186803b158015611b1157600080fd5b505afa158015611b25573d6000803e3d6000fd5b505050506040513d601f19601f82011682018060405250810190611a199190612961565b6040516323b872dd60e01b8082526001600160a01b038581166004840152841660248301526044820183905290600080606483828a5af1611b8e573d6000803e3d6000fd5b50611b9885611dc1565b611be45760405162461bcd60e51b815260206004820152601960248201527f475076323a206661696c6564207472616e7366657246726f6d0000000000000060448201526064016104e0565b5050505050565b60208201516060830151604051636203b43b60e11b81526001600160a01b0384169263c407687692611c33926004016001600160a01b03929092168252602082015260400190565b600060405180830381600087803b158015611c4d57600080fd5b505af1158015611c61573d6000803e3d6000fd5b5050505060408281015160808401519151636203b43b60e11b81526001600160a01b039182166004820152602481019290925282169063c407687690604401600060405180830381600087803b158015611cba57600080fd5b505af1158015611cce573d6000803e3d6000fd5b5050505060a0820151604051636203b43b60e11b81526000600482015260248101919091526001600160a01b0382169063c407687690604401611731565b600081815260028301602052604081205480151580611d4b5750611d4b848460008181526001830160205260408120546109d890849084908490151584565b6109d85760405162461bcd60e51b815260206004820152601e60248201527f456e756d657261626c654d61703a206e6f6e6578697374656e74206b6579000060448201526064016104e0565b6000826000018281548110611dae57611dae612802565b9060005260206000200154905092915050565b6000611de7565b62461bcd60e51b60005260206004528060245250806044525060646000fd5b3d8015611e265760208114611e5757611e217f475076323a206d616c666f726d6564207472616e7366657220726573756c7400601f611dc8565b611e64565b823b611e4e57611e4e7311d41d8c8e881b9bdd08184818dbdb9d1c9858dd60621b6014611dc8565b60019150611e64565b3d6000803e600051151591505b50919050565b604051806101e001604052806060815260200160008152602001600081526020016000815260200160008152602001600081526020016000815260200160006001600160a01b03168152602001606081526020016060815260200160608152602001606081526020016060815260200160608152602001606081525090565b6040805160a08101825260008082526020820152908101611f2e6040518060800160405280600081526020016000815260200160008152602001600060ff1681525090565b8152602001611f50604051806040016040528060008152602001600081525090565b8152602001611f7960405180606001604052806000815260200160008152602001600081525090565b905290565b6001600160a01b03811681146114dd57600080fd5b600080600060608486031215611fa857600080fd5b83359250602084013591506040840135611fc181611f7e565b809150509250925092565b634e487b7160e01b600052604160045260246000fd5b6040516101e0810167ffffffffffffffff8111828210171561200657612006611fcc565b60405290565b604051601f8201601f1916810167ffffffffffffffff8111828210171561203557612035611fcc565b604052919050565b600067ffffffffffffffff82111561205757612057611fcc565b50601f01601f191660200190565b6000806040838503121561207857600080fd5b823567ffffffffffffffff81111561208f57600080fd5b8301601f810185136120a057600080fd5b80356120b36120ae8261203d565b61200c565b8181528660208385010111156120c857600080fd5b8160208401602083013760006020928201830152969401359450505050565b6000602082840312156120f957600080fd5b5035919050565b60006020828403121561211257600080fd5b81356109d881611f7e565b60005b83811015612138578181015183820152602001612120565b838111156108595750506000910152565b6000815180845261216181602086016020860161211d565b601f01601f19169290920160200192915050565b600081518084526020808501945080840160005b838110156121a557815187529582019590820190600101612189565b509495945050505050565b60006101e082518185526121c682860182612149565b9150506020830151602085015260408301516040850152606083015160608501526080830151608085015260a083015160a085015260c083015160c085015260e083015161221f60e08601826001600160a01b03169052565b5061010080840151858303828701526122388382612175565b9250505061012080840151858303828701526122548382612175565b9250505061014080840151858303828701526122708382612175565b92505050610160808401518583038287015261228c8382612175565b9250505061018080840151858303828701526122a88382612175565b925050506101a080840151858303828701526122c48382612175565b925050506101c080840151858303828701526122e08382612175565b9695505050505050565b6020815260006109d860208301846121b0565b6000806040838503121561231057600080fd5b50508035926020909101359150565b6000806040838503121561233257600080fd5b82359150602083013561234481611f7e565b809150509250929050565b6000806040838503121561236257600080fd5b823561236d81611f7e565b946020939093013593505050565b6000602080830181845280855180835260408601915060408160051b870101925083870160005b828110156123d057603f198886030184526123be8583516121b0565b945092850192908501906001016123a2565b5092979650505050505050565b6000602082840312156123ef57600080fd5b815180151581146109d857600080fd5b6020815260006109d86020830184612149565b848152836020820152826040820152608060608201528151608082015260006020830151608060a084015261244b610100840182612149565b604085015160c08501526060909401516001600160a01b031660e0909301929092525090949350505050565b634e487b7160e01b600052601160045260246000fd5b60008282101561249f5761249f612477565b500390565b602081528151602082015260006020830151608060408401526124ca60a0840182612149565b6040850151606085810191909152909401516001600160a01b03166080909301929092525090919050565b93845260208085019390935260408085019290925280516001600160a01b03166060850152918201516080840152015160ff1660a082015260c00190565b805161253e81611f7e565b919050565b60006020828403121561255557600080fd5b81516109d881611f7e565b634e487b7160e01b600052600160045260246000fd5b600082601f83011261258757600080fd5b81516125956120ae8261203d565b8181528460208386010111156125aa57600080fd5b61048282602083016020870161211d565b600082601f8301126125cc57600080fd5b8151602067ffffffffffffffff8211156125e8576125e8611fcc565b8160051b6125f782820161200c565b928352848101820192828101908785111561261157600080fd5b83870192505b8483101561263057825182529183019190830190612617565b979650505050505050565b60006020828403121561264d57600080fd5b815167ffffffffffffffff8082111561266557600080fd5b908301906101e0828603121561267a57600080fd5b612682611fe2565b82518281111561269157600080fd5b61269d87828601612576565b8252506020830151602082015260408301516040820152606083015160608201526080830151608082015260a083015160a082015260c083015160c08201526126e860e08401612533565b60e0820152610100808401518381111561270157600080fd5b61270d888287016125bb565b828401525050610120808401518381111561272757600080fd5b612733888287016125bb565b828401525050610140808401518381111561274d57600080fd5b612759888287016125bb565b828401525050610160808401518381111561277357600080fd5b61277f888287016125bb565b828401525050610180808401518381111561279957600080fd5b6127a5888287016125bb565b8284015250506101a080840151838111156127bf57600080fd5b6127cb888287016125bb565b8284015250506101c080840151838111156127e557600080fd5b6127f1888287016125bb565b918301919091525095945050505050565b634e487b7160e01b600052603260045260246000fd5b600060001982141561282c5761282c612477565b5060010190565b60006020828403121561284557600080fd5b5051919050565b6000806040838503121561285f57600080fd5b825161286a81611f7e565b602084015190925061234481611f7e565b60006060828403121561288d57600080fd5b6040516060810181811067ffffffffffffffff821117156128b0576128b0611fcc565b80604052508251815260208301516020820152604083015160408201528091505092915050565b600082198211156128ea576128ea612477565b500190565b60006080828403121561290157600080fd5b6040516080810181811067ffffffffffffffff8211171561292457612924611fcc565b8060405250825181526020830151602082015260408301516040820152606083015160ff8116811461295557600080fd5b60608201529392505050565b60006040828403121561297357600080fd5b6040516040810181811067ffffffffffffffff8211171561299657612996611fcc565b60405282518152602092830151928101929092525091905056fea2646970667358221220533bbe00aad18800b3472e9ce1adcdef46c97717a596e050efee930109c6057c64736f6c63430008090033",
  "deployedBytecode": "0x608060405234801561001057600080fd5b50600436106101c45760003560e01c8063982714b6116100f9578063cfd8d6c011610097578063dff3b49711610071578063dff3b497146103be578063e5b5019a146103d1578063f2fde38b146103da578063fbd2817f146103ed57600080fd5b8063cfd8d6c014610385578063daea85c514610398578063dd06ef02146103ab57600080fd5b8063adcd2d21116100d3578063adcd2d2114610317578063b817bcf71461032a578063b85220431461033d578063bebf138f1461035257600080fd5b8063982714b6146102db578063985fadc8146102ee578063a4a1e2631461030157600080fd5b806369c212f61161016657806379a558e71161014057806379a558e71461029c5780638d80c922146102af5780638da5cb5b146102c25780638f299b1e146102d357600080fd5b806369c212f6146102615780636ed6da9e14610281578063715018a61461029457600080fd5b8063128fdb48116101a2578063128fdb481461022b5780631848effa1461023357806319872f761461024657806341c0e1b51461025957600080fd5b80630542975c146101c957806311e0c07b146101f3578063121ef24314610216575b600080fd5b6007546001600160a01b03165b6040516001600160a01b0390911681526020015b60405180910390f35b610206610201366004611f93565b610400565b60405190151581526020016101ea565b610229610224366004612065565b61048a565b005b610229610659565b6007546101d6906001600160a01b031681565b6101d66102543660046120e7565b61085f565b6102296108e2565b61027461026f366004612100565b61090a565b6040516101ea91906122ea565b61027461028f3660046120e7565b6109df565b610229610a70565b6102066102aa366004612100565b610a84565b6101d66102bd3660046120e7565b610b3a565b6006546001600160a01b03166101d6565b610229610b47565b6102066102e93660046122fd565b610cdc565b6102066102fc36600461231f565b610de3565b610309610e47565b6040519081526020016101ea565b61020661032536600461234f565b610e54565b610206610338366004612100565b610f11565b610345610fc8565b6040516101ea919061237b565b6103656103603660046120e7565b611078565b604080516001600160a01b039384168152929091166020830152016101ea565b610229610393366004612100565b6111ae565b6102296103a6366004612100565b6112fc565b6103656103b9366004612100565b6113fe565b6103096103cc366004612100565b61145a565b61030960085481565b6102296103e8366004612100565b611467565b6102066103fb3660046122fd565b6114e0565b60405163fbd2817f60e01b815260048101849052602481018390526000906001600160a01b0383169063fbd2817f9060440160206040518083038186803b15801561044a57600080fd5b505afa15801561045e573d6000803e3d6000fd5b505050506040513d601f19601f8201168201806040525081019061048291906123dd565b949350505050565b6000610494610e47565b905080156104a4578082106104a7565b81155b60405180604001604052806002815260200161031360f41b815250906104e95760405162461bcd60e51b81526004016104e091906123ff565b60405180910390fd5b506000819050600060405180608001604052808381526020018681526020018581526020016105153390565b6001600160a01b0316905260405163729dfdcd60e11b815290915060009073__$2fdc6bd74422c331d4350e08f48e4d7efc$__9063e53bfb9a906105659084906002906005908890600401612412565b60206040518083038186803b15801561057d57600080fd5b505af4158015610591573d6000803e3d6000fd5b505050506040513d601f19601f820116820180604052508101906105b591906123dd565b90508080156105d6575060016105c9610e47565b6105d3919061248d565b83145b604051806040016040528060018152602001600760fb1b8152509061060e5760405162461bcd60e51b81526004016104e091906123ff565b50336001600160a01b0316837fbee9c5c7ffbde119e3d12f30b5b584a6b78652a5ce90278f90c9c98c0f3178db8460405161064991906124a4565b60405180910390a3505050505050565b33600061066e64212aaca2a960d91b83610de3565b90508015604051806040016040528060018152602001603960f81b815250906106aa5760405162461bcd60e51b81526004016104e091906123ff565b5060006106bf64212aaca2a960d91b8461157b565b90506106d364212aaca2a960d91b846116e7565b60408051606080820183526001600160a01b038616825283830180516020908101519084015251015160ff16818301529051633bb7b3f960e01b815260009173__$2fdc6bd74422c331d4350e08f48e4d7efc$__91633bb7b3f991610743916002916005918791906004016124f5565b60206040518083038186803b15801561075b57600080fd5b505af415801561076f573d6000803e3d6000fd5b505050506040513d601f19601f8201168201806040525081019061079391906123dd565b90508060405180604001604052806002815260200161313160f01b815250906107cf5760405162461bcd60e51b81526004016104e091906123ff565b506107e96b2122a1a7a6a2afa12aaca2a960a11b85611767565b6108596040518060c00160405280866001600160a01b0316815260200184600001516001600160a01b0316815260200184602001516001600160a01b03168152602001846080015160000151815260200184608001516020015181526020018460800151604001518152506117ac565b50505050565b600754604051630cc397bb60e11b8152600481018390526000916001600160a01b0316906319872f769060240160206040518083038186803b1580156108a457600080fd5b505afa1580156108b8573d6000803e3d6000fd5b505050506040513d601f19601f820116820180604052508101906108dc9190612543565b92915050565b6007546001600160a01b031633146108fc576108fc612560565b6007546001600160a01b0316ff5b610912611e6a565b6001600160a01b038216600090815260056020526040902073__$2fdc6bd74422c331d4350e08f48e4d7efc$__632aa8eb8082610950600287611883565b6040516001600160e01b031960e085901b168152600481019290925260248201526001600160a01b03861660448201526064015b60006040518083038186803b15801561099c57600080fd5b505af41580156109b0573d6000803e3d6000fd5b505050506040513d6000823e601f3d908101601f191682016040526109d8919081019061263b565b9392505050565b6109e7611e6a565b60006005816109f68186611898565b6001600160a01b031681526020810191909152604001600020905073__$2fdc6bd74422c331d4350e08f48e4d7efc$__632aa8eb808285610a3681610b3a565b6040516001600160e01b031960e086901b168152600481019390935260248301919091526001600160a01b03166044820152606401610984565b610a786118a4565b610a8260006118fe565b565b6000610a9864212aaca2a960d91b83610de3565b80156108dc575042610ab0632aa9a2a960e11b61085f565b6040516334e1097b60e11b81526001600160a01b03858116600483015291909116906369c212f69060240160006040518083038186803b158015610af357600080fd5b505afa158015610b07573d6000803e3d6000fd5b505050506040513d6000823e601f3d908101601f19168201604052610b2f919081019061263b565b604001511192915050565b6000806109d88184611898565b336000610b5d6529a2a62622a960d11b83610de3565b9050801560405180604001604052806002815260200161189960f11b81525090610b9a5760405162461bcd60e51b81526004016104e091906123ff565b506000610bb06529a2a62622a960d11b8461157b565b9050610bc56529a2a62622a960d11b846116e7565b60408051606080820183526001600160a01b038616825283830180516020908101519084015251015160ff16818301529051633ea5a5a360e11b815260009173__$2fdc6bd74422c331d4350e08f48e4d7efc$__91637d4b4b4691610c35916002916005918791906004016124f5565b60206040518083038186803b158015610c4d57600080fd5b505af4158015610c61573d6000803e3d6000fd5b505050506040513d601f19601f82011682018060405250810190610c8591906123dd565b90508060405180604001604052806002815260200161313360f01b81525090610cc15760405162461bcd60e51b81526004016104e091906123ff565b506107e96c2122a1a7a6a2afa9a2a62622a960991b85611767565b60006427a92222a960d91b610cf08161085f565b6001600160a01b0316336001600160a01b03161460405180604001604052806002815260200161199b60f11b81525090610d3d5760405162461bcd60e51b81526004016104e091906123ff565b5060405163a292a61360e01b81526004810184905260248101859052600060448201819052600560648301529073__$2fdc6bd74422c331d4350e08f48e4d7efc$__9063a292a613906084015b60206040518083038186803b158015610da257600080fd5b505af4158015610db6573d6000803e3d6000fd5b505050506040513d601f19601f82011682018060405250810190610dda91906123dd565b95945050505050565b600080610dfd6a20a1a62fa6a0a720a3a2a960a91b61085f565b604051632474521560e21b8152600481018690526001600160a01b03858116602483015291909116906391d148549060440160206040518083038186803b15801561044a57600080fd5b6000806108dc6000611950565b60006247494760e81b610e668161085f565b6001600160a01b0316336001600160a01b03161460405180604001604052806002815260200161199b60f11b81525090610eb35760405162461bcd60e51b81526004016104e091906123ff565b50600073__$2fdc6bd74422c331d4350e08f48e4d7efc$__63a2caedd685610eda8861145a565b6040516001600160e01b031960e085901b168152600481019290925260248201526000604482015260056064820152608401610d8a565b6000610f266529a2a62622a960d11b83610de3565b80156108dc575042610f3e632aa9a2a960e11b61085f565b6040516334e1097b60e11b81526001600160a01b03858116600483015291909116906369c212f69060240160006040518083038186803b158015610f8157600080fd5b505afa158015610f95573d6000803e3d6000fd5b505050506040513d6000823e601f3d908101601f19168201604052610fbd919081019061263b565b608001511192915050565b60606000610fd4610e47565b905060008167ffffffffffffffff811115610ff157610ff1611fcc565b60405190808252806020026020018201604052801561102a57816020015b611017611e6a565b81526020019060019003908161100f5790505b50905060005b8281101561107157611041816109df565b82828151811061105357611053612802565b6020026020010181905250808061106990612818565b915050611030565b5092915050565b60405163f1193ae960e01b81526004810182905260006024820181905260056044830152908190819073__$2fdc6bd74422c331d4350e08f48e4d7efc$__9063f1193ae9906064015b60206040518083038186803b1580156110d957600080fd5b505af41580156110ed573d6000803e3d6000fd5b505050506040513d601f19601f820116820180604052508101906111119190612833565b604051631900f20b60e21b815260048101829052600060248201526005604482015290915073__$30e2c0763bc74e29ca837c0a99f7d1b333$__90636403c82c90606401604080518083038186803b15801561116c57600080fd5b505af4158015611180573d6000803e3d6000fd5b505050506040513d601f19601f820116820180604052508101906111a4919061284c565b9250925050915091565b6001600160a01b03811615806111ce57506007546001600160a01b031633145b8061125a5750336001600160a01b0316306001600160a01b0316638da5cb5b6040518163ffffffff1660e01b815260040160206040518083038186803b15801561121757600080fd5b505afa15801561122b573d6000803e3d6000fd5b505050506040513d601f19601f8201168201806040525081019061124f9190612543565b6001600160a01b0316145b6112da5760405162461bcd60e51b815260206004820152604560248201527f43616e206f6e6c792062652063616c6c6564206966206164647265737365735060448201527f726f766964657220697320656d7074792c206d73672e73656e646572206f722060648201526437bbb732b960d91b608482015260a4016104e0565b600780546001600160a01b0319166001600160a01b0392909216919091179055565b6d282927aa27a1a7a62fa0a226a4a760911b6113188133610de3565b6113645760405162461bcd60e51b815260206004820152601c60248201527f5265717569726573206d73672e73656e6465722068617320726f6c650000000060448201526064016104e0565b60006113756211105560ea1b61085f565b60085460405163095ea7b360e01b81526001600160a01b038084166004830152602482019290925291925084169063095ea7b390604401602060405180830381600087803b1580156113c657600080fd5b505af11580156113da573d6000803e3d6000fd5b505050506040513d601f19601f8201168201806040525081019061085991906123dd565b604051635e80e95160e01b81526001600160a01b03821660048201526002602482015260006044820181905260056064830152908190819073__$2fdc6bd74422c331d4350e08f48e4d7efc$__90635e80e951906084016110c1565b60006108dc600283611883565b61146f6118a4565b6001600160a01b0381166114d45760405162461bcd60e51b815260206004820152602660248201527f4f776e61626c653a206e6577206f776e657220697320746865207a65726f206160448201526564647265737360d01b60648201526084016104e0565b6114dd816118fe565b50565b604051630dde020f60e01b81526004810183905260248101829052600060448201819052600560648301529073__$2fdc6bd74422c331d4350e08f48e4d7efc$__90630dde020f9060840160206040518083038186803b15801561154357600080fd5b505af4158015611557573d6000803e3d6000fd5b505050506040513d601f19601f820116820180604052508101906109d891906123dd565b611583611ee9565b6115b16040518060800160405280600081526020016000815260200160008152602001600060ff1681525090565b64212aaca2a960d91b8414156115d0576115c961195a565b90506115db565b6115d8611a1e565b90505b6000806115e7856113fe565b9150915060006115f5611aa5565b604080516060810182528651815282516020808301918252840151828401908152925163013a9d5b60e01b8152915160048301525160248201529051604482015290915060009073__$30e2c0763bc74e29ca837c0a99f7d1b333$__9063013a9d5b9060640160606040518083038186803b15801561167357600080fd5b505af4158015611687573d6000803e3d6000fd5b505050506040513d601f19601f820116820180604052508101906116ab919061287b565b6040805160a0810182526001600160a01b0396871681529490951660208501529383019490945260608201526080810191909152949350505050565b6116fe6a20a1a62fa6a0a720a3a2a960a91b61085f565b604051632f2ff15d60e01b8152600481018490526001600160a01b0383811660248301529190911690632f2ff15d906044015b600060405180830381600087803b15801561174b57600080fd5b505af115801561175f573d6000803e3d6000fd5b505050505050565b61177561058560f41b61085f565b60405163149e351d60e11b8152600481018490526001600160a01b038381166024830152919091169063293c6a3a90604401611731565b60006117bd6211105560ea1b61085f565b905060008260a00151836080015184606001516117da91906128d7565b6117e491906128d7565b905061187483600001513083856001600160a01b031663e5a6b10f6040518163ffffffff1660e01b8152600401602060405180830381600087803b15801561182b57600080fd5b505af115801561183f573d6000803e3d6000fd5b505050506040513d601f19601f820116820180604052508101906118639190612543565b6001600160a01b0316929190611b49565b61187e8383611beb565b505050565b60006109d8836001600160a01b038416611d0c565b60006109d88383611d97565b6006546001600160a01b03163314610a825760405162461bcd60e51b815260206004820181905260248201527f4f776e61626c653a2063616c6c6572206973206e6f7420746865206f776e657260448201526064016104e0565b600680546001600160a01b038381166001600160a01b0319831681179093556040519116919082907f8be0079c531659141344cd1fd0a4f28419497f9722a3daafe3b4186f6b6457e090600090a35050565b60006108dc825490565b6119886040518060800160405280600081526020016000815260200160008152602001600060ff1681525090565b6119a974282927aa27a1a7a62fa1a7a72324a3aaa920aa27a960591b61085f565b6001600160a01b0316632c53f6c46040518163ffffffff1660e01b815260040160806040518083038186803b1580156119e157600080fd5b505afa1580156119f5573d6000803e3d6000fd5b505050506040513d601f19601f82011682018060405250810190611a1991906128ef565b905090565b611a4c6040518060800160405280600081526020016000815260200160008152602001600060ff1681525090565b611a6d74282927aa27a1a7a62fa1a7a72324a3aaa920aa27a960591b61085f565b6001600160a01b031663688c4b246040518163ffffffff1660e01b815260040160806040518083038186803b1580156119e157600080fd5b6040805180820190915260008082526020820152611ada74282927aa27a1a7a62fa1a7a72324a3aaa920aa27a960591b61085f565b6001600160a01b0316639af1da486040518163ffffffff1660e01b8152600401604080518083038186803b158015611b1157600080fd5b505afa158015611b25573d6000803e3d6000fd5b505050506040513d601f19601f82011682018060405250810190611a199190612961565b6040516323b872dd60e01b8082526001600160a01b038581166004840152841660248301526044820183905290600080606483828a5af1611b8e573d6000803e3d6000fd5b50611b9885611dc1565b611be45760405162461bcd60e51b815260206004820152601960248201527f475076323a206661696c6564207472616e7366657246726f6d0000000000000060448201526064016104e0565b5050505050565b60208201516060830151604051636203b43b60e11b81526001600160a01b0384169263c407687692611c33926004016001600160a01b03929092168252602082015260400190565b600060405180830381600087803b158015611c4d57600080fd5b505af1158015611c61573d6000803e3d6000fd5b5050505060408281015160808401519151636203b43b60e11b81526001600160a01b039182166004820152602481019290925282169063c407687690604401600060405180830381600087803b158015611cba57600080fd5b505af1158015611cce573d6000803e3d6000fd5b5050505060a0820151604051636203b43b60e11b81526000600482015260248101919091526001600160a01b0382169063c407687690604401611731565b600081815260028301602052604081205480151580611d4b5750611d4b848460008181526001830160205260408120546109d890849084908490151584565b6109d85760405162461bcd60e51b815260206004820152601e60248201527f456e756d657261626c654d61703a206e6f6e6578697374656e74206b6579000060448201526064016104e0565b6000826000018281548110611dae57611dae612802565b9060005260206000200154905092915050565b6000611de7565b62461bcd60e51b60005260206004528060245250806044525060646000fd5b3d8015611e265760208114611e5757611e217f475076323a206d616c666f726d6564207472616e7366657220726573756c7400601f611dc8565b611e64565b823b611e4e57611e4e7311d41d8c8e881b9bdd08184818dbdb9d1c9858dd60621b6014611dc8565b60019150611e64565b3d6000803e600051151591505b50919050565b604051806101e001604052806060815260200160008152602001600081526020016000815260200160008152602001600081526020016000815260200160006001600160a01b03168152602001606081526020016060815260200160608152602001606081526020016060815260200160608152602001606081525090565b6040805160a08101825260008082526020820152908101611f2e6040518060800160405280600081526020016000815260200160008152602001600060ff1681525090565b8152602001611f50604051806040016040528060008152602001600081525090565b8152602001611f7960405180606001604052806000815260200160008152602001600081525090565b905290565b6001600160a01b03811681146114dd57600080fd5b600080600060608486031215611fa857600080fd5b83359250602084013591506040840135611fc181611f7e565b809150509250925092565b634e487b7160e01b600052604160045260246000fd5b6040516101e0810167ffffffffffffffff8111828210171561200657612006611fcc565b60405290565b604051601f8201601f1916810167ffffffffffffffff8111828210171561203557612035611fcc565b604052919050565b600067ffffffffffffffff82111561205757612057611fcc565b50601f01601f191660200190565b6000806040838503121561207857600080fd5b823567ffffffffffffffff81111561208f57600080fd5b8301601f810185136120a057600080fd5b80356120b36120ae8261203d565b61200c565b8181528660208385010111156120c857600080fd5b8160208401602083013760006020928201830152969401359450505050565b6000602082840312156120f957600080fd5b5035919050565b60006020828403121561211257600080fd5b81356109d881611f7e565b60005b83811015612138578181015183820152602001612120565b838111156108595750506000910152565b6000815180845261216181602086016020860161211d565b601f01601f19169290920160200192915050565b600081518084526020808501945080840160005b838110156121a557815187529582019590820190600101612189565b509495945050505050565b60006101e082518185526121c682860182612149565b9150506020830151602085015260408301516040850152606083015160608501526080830151608085015260a083015160a085015260c083015160c085015260e083015161221f60e08601826001600160a01b03169052565b5061010080840151858303828701526122388382612175565b9250505061012080840151858303828701526122548382612175565b9250505061014080840151858303828701526122708382612175565b92505050610160808401518583038287015261228c8382612175565b9250505061018080840151858303828701526122a88382612175565b925050506101a080840151858303828701526122c48382612175565b925050506101c080840151858303828701526122e08382612175565b9695505050505050565b6020815260006109d860208301846121b0565b6000806040838503121561231057600080fd5b50508035926020909101359150565b6000806040838503121561233257600080fd5b82359150602083013561234481611f7e565b809150509250929050565b6000806040838503121561236257600080fd5b823561236d81611f7e565b946020939093013593505050565b6000602080830181845280855180835260408601915060408160051b870101925083870160005b828110156123d057603f198886030184526123be8583516121b0565b945092850192908501906001016123a2565b5092979650505050505050565b6000602082840312156123ef57600080fd5b815180151581146109d857600080fd5b6020815260006109d86020830184612149565b848152836020820152826040820152608060608201528151608082015260006020830151608060a084015261244b610100840182612149565b604085015160c08501526060909401516001600160a01b031660e0909301929092525090949350505050565b634e487b7160e01b600052601160045260246000fd5b60008282101561249f5761249f612477565b500390565b602081528151602082015260006020830151608060408401526124ca60a0840182612149565b6040850151606085810191909152909401516001600160a01b03166080909301929092525090919050565b93845260208085019390935260408085019290925280516001600160a01b03166060850152918201516080840152015160ff1660a082015260c00190565b805161253e81611f7e565b919050565b60006020828403121561255557600080fd5b81516109d881611f7e565b634e487b7160e01b600052600160045260246000fd5b600082601f83011261258757600080fd5b81516125956120ae8261203d565b8181528460208386010111156125aa57600080fd5b61048282602083016020870161211d565b600082601f8301126125cc57600080fd5b8151602067ffffffffffffffff8211156125e8576125e8611fcc565b8160051b6125f782820161200c565b928352848101820192828101908785111561261157600080fd5b83870192505b8483101561263057825182529183019190830190612617565b979650505050505050565b60006020828403121561264d57600080fd5b815167ffffffffffffffff8082111561266557600080fd5b908301906101e0828603121561267a57600080fd5b612682611fe2565b82518281111561269157600080fd5b61269d87828601612576565b8252506020830151602082015260408301516040820152606083015160608201526080830151608082015260a083015160a082015260c083015160c08201526126e860e08401612533565b60e0820152610100808401518381111561270157600080fd5b61270d888287016125bb565b828401525050610120808401518381111561272757600080fd5b612733888287016125bb565b828401525050610140808401518381111561274d57600080fd5b612759888287016125bb565b828401525050610160808401518381111561277357600080fd5b61277f888287016125bb565b828401525050610180808401518381111561279957600080fd5b6127a5888287016125bb565b8284015250506101a080840151838111156127bf57600080fd5b6127cb888287016125bb565b8284015250506101c080840151838111156127e557600080fd5b6127f1888287016125bb565b918301919091525095945050505050565b634e487b7160e01b600052603260045260246000fd5b600060001982141561282c5761282c612477565b5060010190565b60006020828403121561284557600080fd5b5051919050565b6000806040838503121561285f57600080fd5b825161286a81611f7e565b602084015190925061234481611f7e565b60006060828403121561288d57600080fd5b6040516060810181811067ffffffffffffffff821117156128b0576128b0611fcc565b80604052508251815260208301516020820152604083015160408201528091505092915050565b600082198211156128ea576128ea612477565b500190565b60006080828403121561290157600080fd5b6040516080810181811067ffffffffffffffff8211171561292457612924611fcc565b8060405250825181526020830151602082015260408301516040820152606083015160ff8116811461295557600080fd5b60608201529392505050565b60006040828403121561297357600080fd5b6040516040810181811067ffffffffffffffff8211171561299657612996611fcc565b60405282518152602092830151928101929092525091905056fea2646970667358221220533bbe00aad18800b3472e9ce1adcdef46c97717a596e050efee930109c6057c64736f6c63430008090033",
  "libraries": {
    "UserLogic": "0xEB2F885B779F4718E7E041a03e0b25148BFc96A9",
    "InviterLogic": "0x21Ee093B0f6547F86398a92aCc59681897E4E84c",
    "UserDataLogic": "0xE45cf8e13499AfbB3a977DeE1FaEA16e1b56Ad67"
  },
  "devdoc": {
    "author": "Blockswan",
    "details": "To be covered by a proxy contract, owned by the addressProvider of the specific marketplaceAll admin functions are callable by the protocolConfigurator contract defined also in the   addressProvider*",
    "kind": "dev",
    "methods": {
      "ADDRESSES_PROVIDER()": {
        "returns": {
          "_0": "The address of the AddressProvider"
        }
      },
      "constructor": {
        "details": "Constructor.",
        "params": {
          "provider": "The address of the AddressProvider"
        }
      },
      "createBuyerOrder(uint256,uint256)": {
        "params": {
          "buyerId": "the id of the buyer",
          "newOrderId": "the new gig orderId."
        },
        "returns": {
          "_0": "success the relation has been addded.*"
        }
      },
      "createGig(address,uint256)": {
        "params": {
          "caller": "the wallet creating the gig.",
          "newGigId": "the new gig id."
        },
        "returns": {
          "_0": "success the relation has been addded.*"
        }
      },
      "createUser(string,uint256)": {
        "params": {
          "inviterId": "the userID of whom invited the newUser*",
          "metadata": "the user related information"
        }
      },
      "fetchContract(bytes32)": {
        "params": {
          "_name": "the bytes32 name of the contract"
        }
      },
      "getAddressById(uint256)": {
        "params": {
          "userId": "The id of the user."
        },
        "returns": {
          "_0": "userAddress the wallet of the user*"
        }
      },
      "getIdByAddress(address)": {
        "params": {
          "account": "The address of the user"
        },
        "returns": {
          "_0": "userId The userId associated to the account address*"
        }
      },
      "getInvitersById(uint256)": {
        "params": {
          "userId": "the user id to get the inviters from"
        },
        "returns": {
          "_0": "address the pubkey of inviter0",
          "_1": "address the pubkey of inviter1*"
        }
      },
      "getInvitersByUserAddress(address)": {
        "params": {
          "account": "the wallet to get the inviters from"
        },
        "returns": {
          "_0": "address the pubkey of inviter0",
          "_1": "address the pubkey of inviter1*"
        }
      },
      "getUserByAddress(address)": {
        "params": {
          "pubKey": "The address as parameter."
        },
        "returns": {
          "_0": "User the user linked to the public key*"
        }
      },
      "getUserById(uint256)": {
        "params": {
          "userId": "The id of the user."
        },
        "returns": {
          "_0": "User The data associated to the user it*"
        }
      },
      "getUserList()": {
        "details": "It does not include dropped users",
        "returns": {
          "_0": "A data array of the underlying user.*"
        }
      },
      "getUsersCount()": {
        "returns": {
          "_0": "the current revision*"
        }
      },
      "isGigOwner(uint256,uint256)": {
        "params": {
          "gigId": "the gigId",
          "userId": "the user id to check if he own the gig"
        },
        "returns": {
          "_0": "bool if the gigId is owned by the given userId*"
        }
      },
      "owner()": {
        "details": "Returns the address of the current owner."
      },
      "renounceOwnership()": {
        "details": "Leaves the contract without owner. It will not be possible to call `onlyOwner` functions anymore. Can only be called by the current owner. NOTE: Renouncing ownership will leave the contract without an owner, thereby removing any functionality that is only available to the owner."
      },
      "setProvider(address)": {
        "params": {
          "_providerAddress": "The address of the AddressProvider"
        }
      },
      "transferOwnership(address)": {
        "details": "Transfers ownership of the contract to a new account (`newOwner`). Can only be called by the current owner."
      }
    },
    "title": "User contract",
    "version": 1
  },
  "userdoc": {
    "kind": "user",
    "methods": {
      "ADDRESSES_PROVIDER()": {
        "notice": "Returns the contract address of the IAddressProvider"
      },
      "createBuyerOrder(uint256,uint256)": {
        "notice": "add the order id to the user buyerOrderIds set."
      },
      "createGig(address,uint256)": {
        "notice": "add the gig id to the user gigIds set."
      },
      "createUser(string,uint256)": {
        "notice": "Create a new users with the msg.sender wallet"
      },
      "fetchContract(bytes32)": {
        "notice": "fetch the contract address from the ADDRESSS_PROVIDERthrows error if address === 0"
      },
      "getAddressById(uint256)": {
        "notice": "Returns the user wallet address."
      },
      "getIdByAddress(address)": {
        "notice": "Returns the user id from a given address."
      },
      "getInvitersById(uint256)": {
        "notice": "retrieves the inviters wallet for a given userId"
      },
      "getInvitersByUserAddress(address)": {
        "notice": "retrieves the inviters wallet for a given wallet account"
      },
      "getUserByAddress(address)": {
        "notice": "Returns the user for a given public key."
      },
      "getUserById(uint256)": {
        "notice": "Returns the user data."
      },
      "getUserList()": {
        "notice": "Returns the list of all initialized users."
      },
      "getUsersCount()": {
        "notice": "Returns the current revision of the contract"
      },
      "isGigOwner(uint256,uint256)": {
        "notice": "return true if the gigId is owned by the given userId"
      },
      "kill()": {
        "notice": "kill the current address provider, only callable by the AddressProvider"
      },
      "setProvider(address)": {
        "notice": "set the provider address of the ProviderContract"
      }
    },
    "notice": "User data within an Blockswan protocol's marketplace - Users can:   # login   # edit profile   # invite users   # choose affiliates   # get the access rights to the protocol",
    "version": 1
  },
  "storageLayout": {
    "storage": [
      {
        "astId": 21604,
        "contract": "contracts/protocol/user/User.sol:User",
        "label": "_userIdToAddress",
        "offset": 0,
        "slot": "0",
        "type": "t_struct(AddressSet)4043_storage"
      },
      {
        "astId": 21607,
        "contract": "contracts/protocol/user/User.sol:User",
        "label": "_userAddressToId",
        "offset": 0,
        "slot": "2",
        "type": "t_struct(AddressToUintMap)3285_storage"
      },
      {
        "astId": 21612,
        "contract": "contracts/protocol/user/User.sol:User",
        "label": "_users",
        "offset": 0,
        "slot": "5",
        "type": "t_mapping(t_address,t_struct(User)19165_storage)"
      },
      {
        "astId": 5588,
        "contract": "contracts/protocol/user/User.sol:User",
        "label": "_owner",
        "offset": 0,
        "slot": "6",
        "type": "t_address"
      },
      {
        "astId": 9094,
        "contract": "contracts/protocol/user/User.sol:User",
        "label": "ADDRESS_PROVIDER",
        "offset": 0,
        "slot": "7",
        "type": "t_contract(IAddressProvider)6093"
      },
      {
        "astId": 9101,
        "contract": "contracts/protocol/user/User.sol:User",
        "label": "MAX_UINT",
        "offset": 0,
        "slot": "8",
        "type": "t_uint256"
      }
    ],
    "types": {
      "t_address": {
        "encoding": "inplace",
        "label": "address",
        "numberOfBytes": "20"
      },
      "t_array(t_bytes32)dyn_storage": {
        "base": "t_bytes32",
        "encoding": "dynamic_array",
        "label": "bytes32[]",
        "numberOfBytes": "32"
      },
      "t_bytes32": {
        "encoding": "inplace",
        "label": "bytes32",
        "numberOfBytes": "32"
      },
      "t_contract(IAddressProvider)6093": {
        "encoding": "inplace",
        "label": "contract IAddressProvider",
        "numberOfBytes": "20"
      },
      "t_mapping(t_address,t_struct(User)19165_storage)": {
        "encoding": "mapping",
        "key": "t_address",
        "label": "mapping(address => struct DataTypes.User)",
        "numberOfBytes": "32",
        "value": "t_struct(User)19165_storage"
      },
      "t_mapping(t_bytes32,t_bytes32)": {
        "encoding": "mapping",
        "key": "t_bytes32",
        "label": "mapping(bytes32 => bytes32)",
        "numberOfBytes": "32",
        "value": "t_bytes32"
      },
      "t_mapping(t_bytes32,t_uint256)": {
        "encoding": "mapping",
        "key": "t_bytes32",
        "label": "mapping(bytes32 => uint256)",
        "numberOfBytes": "32",
        "value": "t_uint256"
      },
      "t_string_storage": {
        "encoding": "bytes",
        "label": "string",
        "numberOfBytes": "32"
      },
      "t_struct(AddressSet)4043_storage": {
        "encoding": "inplace",
        "label": "struct EnumerableSet.AddressSet",
        "members": [
          {
            "astId": 4042,
            "contract": "contracts/protocol/user/User.sol:User",
            "label": "_inner",
            "offset": 0,
            "slot": "0",
            "type": "t_struct(Set)3728_storage"
          }
        ],
        "numberOfBytes": "64"
      },
      "t_struct(AddressToUintMap)3285_storage": {
        "encoding": "inplace",
        "label": "struct EnumerableMap.AddressToUintMap",
        "members": [
          {
            "astId": 3284,
            "contract": "contracts/protocol/user/User.sol:User",
            "label": "_inner",
            "offset": 0,
            "slot": "0",
            "type": "t_struct(Bytes32ToBytes32Map)2611_storage"
          }
        ],
        "numberOfBytes": "96"
      },
      "t_struct(Bytes32Set)3922_storage": {
        "encoding": "inplace",
        "label": "struct EnumerableSet.Bytes32Set",
        "members": [
          {
            "astId": 3921,
            "contract": "contracts/protocol/user/User.sol:User",
            "label": "_inner",
            "offset": 0,
            "slot": "0",
            "type": "t_struct(Set)3728_storage"
          }
        ],
        "numberOfBytes": "64"
      },
      "t_struct(Bytes32ToBytes32Map)2611_storage": {
        "encoding": "inplace",
        "label": "struct EnumerableMap.Bytes32ToBytes32Map",
        "members": [
          {
            "astId": 2606,
            "contract": "contracts/protocol/user/User.sol:User",
            "label": "_keys",
            "offset": 0,
            "slot": "0",
            "type": "t_struct(Bytes32Set)3922_storage"
          },
          {
            "astId": 2610,
            "contract": "contracts/protocol/user/User.sol:User",
            "label": "_values",
            "offset": 0,
            "slot": "2",
            "type": "t_mapping(t_bytes32,t_bytes32)"
          }
        ],
        "numberOfBytes": "96"
      },
      "t_struct(Set)3728_storage": {
        "encoding": "inplace",
        "label": "struct EnumerableSet.Set",
        "members": [
          {
            "astId": 3723,
            "contract": "contracts/protocol/user/User.sol:User",
            "label": "_values",
            "offset": 0,
            "slot": "0",
            "type": "t_array(t_bytes32)dyn_storage"
          },
          {
            "astId": 3727,
            "contract": "contracts/protocol/user/User.sol:User",
            "label": "_indexes",
            "offset": 0,
            "slot": "1",
            "type": "t_mapping(t_bytes32,t_uint256)"
          }
        ],
        "numberOfBytes": "64"
      },
      "t_struct(UintSet)4200_storage": {
        "encoding": "inplace",
        "label": "struct EnumerableSet.UintSet",
        "members": [
          {
            "astId": 4199,
            "contract": "contracts/protocol/user/User.sol:User",
            "label": "_inner",
            "offset": 0,
            "slot": "0",
            "type": "t_struct(Set)3728_storage"
          }
        ],
        "numberOfBytes": "64"
      },
      "t_struct(User)19165_storage": {
        "encoding": "inplace",
        "label": "struct DataTypes.User",
        "members": [
          {
            "astId": 19133,
            "contract": "contracts/protocol/user/User.sol:User",
            "label": "metadata",
            "offset": 0,
            "slot": "0",
            "type": "t_string_storage"
          },
          {
            "astId": 19135,
            "contract": "contracts/protocol/user/User.sol:User",
            "label": "inviterId",
            "offset": 0,
            "slot": "1",
            "type": "t_uint256"
          },
          {
            "astId": 19137,
            "contract": "contracts/protocol/user/User.sol:User",
            "label": "buyerUntil",
            "offset": 0,
            "slot": "2",
            "type": "t_uint256"
          },
          {
            "astId": 19139,
            "contract": "contracts/protocol/user/User.sol:User",
            "label": "buyerInvites",
            "offset": 0,
            "slot": "3",
            "type": "t_uint256"
          },
          {
            "astId": 19141,
            "contract": "contracts/protocol/user/User.sol:User",
            "label": "sellerUntil",
            "offset": 0,
            "slot": "4",
            "type": "t_uint256"
          },
          {
            "astId": 19143,
            "contract": "contracts/protocol/user/User.sol:User",
            "label": "sellerInvites",
            "offset": 0,
            "slot": "5",
            "type": "t_uint256"
          },
          {
            "astId": 19146,
            "contract": "contracts/protocol/user/User.sol:User",
            "label": "gigIds",
            "offset": 0,
            "slot": "6",
            "type": "t_struct(UintSet)4200_storage"
          },
          {
            "astId": 19149,
            "contract": "contracts/protocol/user/User.sol:User",
            "label": "offerIds",
            "offset": 0,
            "slot": "8",
            "type": "t_struct(UintSet)4200_storage"
          },
          {
            "astId": 19152,
            "contract": "contracts/protocol/user/User.sol:User",
            "label": "bidIds",
            "offset": 0,
            "slot": "10",
            "type": "t_struct(UintSet)4200_storage"
          },
          {
            "astId": 19155,
            "contract": "contracts/protocol/user/User.sol:User",
            "label": "buyerOrderIds",
            "offset": 0,
            "slot": "12",
            "type": "t_struct(UintSet)4200_storage"
          },
          {
            "astId": 19158,
            "contract": "contracts/protocol/user/User.sol:User",
            "label": "gigReviewsIds",
            "offset": 0,
            "slot": "14",
            "type": "t_struct(UintSet)4200_storage"
          },
          {
            "astId": 19161,
            "contract": "contracts/protocol/user/User.sol:User",
            "label": "userReviewsIds",
            "offset": 0,
            "slot": "16",
            "type": "t_struct(UintSet)4200_storage"
          },
          {
            "astId": 19164,
            "contract": "contracts/protocol/user/User.sol:User",
            "label": "reviewsIds",
            "offset": 0,
            "slot": "18",
            "type": "t_struct(UintSet)4200_storage"
          }
        ],
        "numberOfBytes": "640"
      },
      "t_uint256": {
        "encoding": "inplace",
        "label": "uint256",
        "numberOfBytes": "32"
      }
    }
  }
}